{
	"data": {
		"bytecode": {
			"linkReferences": {
				"remix_tests.sol": {
					"Assert": [
						{
							"length": 20,
							"start": 590
						}
					]
				}
			},
			"object": "608060405260405161001090610150565b604051809103906000f08015801561002c573d6000803e3d6000fd5b506000806101000a81548173ffffffffffffffffffffffffffffffffffffffff021916908373ffffffffffffffffffffffffffffffffffffffff1602179055506040516100789061015e565b604051809103906000f080158015610094573d6000803e3d6000fd5b50600160006101000a81548173ffffffffffffffffffffffffffffffffffffffff021916908373ffffffffffffffffffffffffffffffffffffffff1602179055506040516100e19061016c565b604051809103906000f0801580156100fd573d6000803e3d6000fd5b50600260006101000a81548173ffffffffffffffffffffffffffffffffffffffff021916908373ffffffffffffffffffffffffffffffffffffffff16021790555034801561014a57600080fd5b5061017a565b6104a780620011c383390190565b6102d0806200166a83390190565b6102cb806200193a83390190565b611039806200018a6000396000f3fe608060405234801561001057600080fd5b506004361061004c5760003560e01c80631a0a0878146100515780633b9883fe1461005b57806362a04d6814610079578063e833a04014610097575b600080fd5b6100596100a1565b005b61006361018c565b6040516100709190610a44565b60405180910390f35b610081610413565b60405161008e9190610a44565b60405180910390f35b61009f610665565b005b60005a9050600060019050600060029050600081836100c09190610a8e565b905073__$acbfb1c35000d78352310b16a054a6b106$__63abcd79608260036040518363ffffffff1660e01b81526004016100fc929190610b50565b602060405180830381865af4158015610119573d6000803e3d6000fd5b505050506040513d601f19601f8201168201806040525081019061013d9190610bc9565b5050505060005a90507fb2de2fbe801a0df6c0cbddfd448ba3c41d48a040ca35c56c8196ef0fcae721a881836101739190610bf6565b6040516101809190610c87565b60405180910390a15050565b6000806002905060006002905060005a9050600260009054906101000a900473ffffffffffffffffffffffffffffffffffffffff1673ffffffffffffffffffffffffffffffffffffffff1663d6238a4284846040518363ffffffff1660e01b81526004016101fb929190610cb5565b602060405180830381865afa158015610218573d6000803e3d6000fd5b505050506040513d601f19601f8201168201806040525081019061023c9190610d0a565b5060005a9050600081836102509190610bf6565b90505a9250600260009054906101000a900473ffffffffffffffffffffffffffffffffffffffff1673ffffffffffffffffffffffffffffffffffffffff166307c2671086866040518363ffffffff1660e01b81526004016102b2929190610cb5565b602060405180830381865afa1580156102cf573d6000803e3d6000fd5b505050506040513d601f19601f820116820180604052508101906102f39190610d0a565b505a9150600082846103059190610bf6565b90507fb2de2fbe801a0df6c0cbddfd448ba3c41d48a040ca35c56c8196ef0fcae721a881836103349190610bf6565b6040516103419190610d83565b60405180910390a15a9350600260009054906101000a900473ffffffffffffffffffffffffffffffffffffffff1673ffffffffffffffffffffffffffffffffffffffff1663d6238a4287876040518363ffffffff1660e01b81526004016103a9929190610cb5565b602060405180830381865afa1580156103c6573d6000803e3d6000fd5b505050506040513d601f19601f820116820180604052508101906103ea9190610d0a565b505a925082846103fa9190610bf6565b915080826104089190610bf6565b965050505050505090565b60008061beef905060006012905060005a905060008054906101000a900473ffffffffffffffffffffffffffffffffffffffff1673ffffffffffffffffffffffffffffffffffffffff166348a0046784846040518363ffffffff1660e01b8152600401610481929190610df2565b600060405180830381600087803b15801561049b57600080fd5b505af11580156104af573d6000803e3d6000fd5b5050505060005a9050600081836104c69190610bf6565b90505a925060008054906101000a900473ffffffffffffffffffffffffffffffffffffffff1673ffffffffffffffffffffffffffffffffffffffff16633624448186866040518363ffffffff1660e01b8152600401610526929190610df2565b600060405180830381600087803b15801561054057600080fd5b505af1158015610554573d6000803e3d6000fd5b505050505a9150600082846105699190610bf6565b90507fb2de2fbe801a0df6c0cbddfd448ba3c41d48a040ca35c56c8196ef0fcae721a881836105989190610bf6565b6040516105a59190610d83565b60405180910390a15a935060008054906101000a900473ffffffffffffffffffffffffffffffffffffffff1673ffffffffffffffffffffffffffffffffffffffff166348a0046787876040518363ffffffff1660e01b815260040161060b929190610df2565b600060405180830381600087803b15801561062557600080fd5b505af1158015610639573d6000803e3d6000fd5b505050505a9250828461064c9190610bf6565b9150808261065a9190610bf6565b965050505050505090565b60006001905060006002905060005a9050600160009054906101000a900473ffffffffffffffffffffffffffffffffffffffff1673ffffffffffffffffffffffffffffffffffffffff166376b8144984846040518363ffffffff1660e01b81526004016106d3929190610cb5565b602060405180830381865afa1580156106f0573d6000803e3d6000fd5b505050506040513d601f19601f820116820180604052508101906107149190610d0a565b5060005a9050600081836107289190610bf6565b90507fb2de2fbe801a0df6c0cbddfd448ba3c41d48a040ca35c56c8196ef0fcae721a8816040516107599190610e67565b60405180910390a15a9250600160009054906101000a900473ffffffffffffffffffffffffffffffffffffffff1673ffffffffffffffffffffffffffffffffffffffff166329fcda3386866040518363ffffffff1660e01b81526004016107c1929190610cb5565b602060405180830381865afa1580156107de573d6000803e3d6000fd5b505050506040513d601f19601f820116820180604052508101906108029190610d0a565b505a9150600082846108149190610bf6565b90507fb2de2fbe801a0df6c0cbddfd448ba3c41d48a040ca35c56c8196ef0fcae721a8816040516108459190610ee1565b60405180910390a15a9350600160009054906101000a900473ffffffffffffffffffffffffffffffffffffffff1673ffffffffffffffffffffffffffffffffffffffff1662c3314f87876040518363ffffffff1660e01b81526004016108ac929190610cb5565b602060405180830381865afa1580156108c9573d6000803e3d6000fd5b505050506040513d601f19601f820116820180604052508101906108ed9190610d0a565b505a9250600083856108ff9190610bf6565b90507fb2de2fbe801a0df6c0cbddfd448ba3c41d48a040ca35c56c8196ef0fcae721a8816040516109309190610f5b565b60405180910390a15a9450600160009054906101000a900473ffffffffffffffffffffffffffffffffffffffff1673ffffffffffffffffffffffffffffffffffffffff166376b8144988886040518363ffffffff1660e01b8152600401610998929190610cb5565b602060405180830381865afa1580156109b5573d6000803e3d6000fd5b505050506040513d601f19601f820116820180604052508101906109d99190610d0a565b505a935083856109e99190610bf6565b92507fb2de2fbe801a0df6c0cbddfd448ba3c41d48a040ca35c56c8196ef0fcae721a883604051610a1a9190610fd5565b60405180910390a150505050505050565b6000819050919050565b610a3e81610a2b565b82525050565b6000602082019050610a596000830184610a35565b92915050565b7f4e487b7100000000000000000000000000000000000000000000000000000000600052601160045260246000fd5b6000610a9982610a2b565b9150610aa483610a2b565b9250827fffffffffffffffffffffffffffffffffffffffffffffffffffffffffffffffff03821115610ad957610ad8610a5f565b5b828201905092915050565b610aed81610a2b565b82525050565b600082825260208201905092915050565b7f726573756c742073686f756c6420626520657175616c20746f20330000000000600082015250565b6000610b3a601b83610af3565b9150610b4582610b04565b602082019050919050565b6000606082019050610b656000830185610ae4565b610b726020830184610ae4565b8181036040830152610b8381610b2d565b90509392505050565b600080fd5b60008115159050919050565b610ba681610b91565b8114610bb157600080fd5b50565b600081519050610bc381610b9d565b92915050565b600060208284031215610bdf57610bde610b8c565b5b6000610bed84828501610bb4565b91505092915050565b6000610c0182610a2b565b9150610c0c83610a2b565b925082821015610c1f57610c1e610a5f565b5b828203905092915050565b600082825260208201905092915050565b7f6761730000000000000000000000000000000000000000000000000000000000600082015250565b6000610c71600383610c2a565b9150610c7c82610c3b565b602082019050919050565b60006040820190508181036000830152610ca081610c64565b9050610caf6020830184610a35565b92915050565b6000604082019050610cca6000830185610a35565b610cd76020830184610a35565b9392505050565b610ce781610a2b565b8114610cf257600080fd5b50565b600081519050610d0481610cde565b92915050565b600060208284031215610d2057610d1f610b8c565b5b6000610d2e84828501610cf5565b91505092915050565b7f6761735361766564000000000000000000000000000000000000000000000000600082015250565b6000610d6d600883610c2a565b9150610d7882610d37565b602082019050919050565b60006040820190508181036000830152610d9c81610d60565b9050610dab6020830184610a35565b92915050565b600073ffffffffffffffffffffffffffffffffffffffff82169050919050565b6000610ddc82610db1565b9050919050565b610dec81610dd1565b82525050565b6000604082019050610e076000830185610de3565b610e146020830184610a35565b9392505050565b7f6761733100000000000000000000000000000000000000000000000000000000600082015250565b6000610e51600483610c2a565b9150610e5c82610e1b565b602082019050919050565b60006040820190508181036000830152610e8081610e44565b9050610e8f6020830184610a35565b92915050565b7f6761733200000000000000000000000000000000000000000000000000000000600082015250565b6000610ecb600483610c2a565b9150610ed682610e95565b602082019050919050565b60006040820190508181036000830152610efa81610ebe565b9050610f096020830184610a35565b92915050565b7f6761733300000000000000000000000000000000000000000000000000000000600082015250565b6000610f45600483610c2a565b9150610f5082610f0f565b602082019050919050565b60006040820190508181036000830152610f7481610f38565b9050610f836020830184610a35565b92915050565b7f6761735f31000000000000000000000000000000000000000000000000000000600082015250565b6000610fbf600583610c2a565b9150610fca82610f89565b602082019050919050565b60006040820190508181036000830152610fee81610fb2565b9050610ffd6020830184610a35565b9291505056fea264697066735822122078721c3e122f541d72e72683f6828527f5530f531068ffe7771f6109a740de3564736f6c634300080f0033608060405234801561001057600080fd5b50610487806100206000396000f3fe608060405234801561001057600080fd5b506004361061004c5760003560e01c806318160ddd14610051578063362444811461006f57806348a004671461008b57806370a08231146100a7575b600080fd5b6100596100d7565b60405161006691906102b5565b60405180910390f35b6100896004803603810190610084919061035f565b6100dd565b005b6100a560048036038101906100a0919061035f565b6101ac565b005b6100c160048036038101906100bc919061039f565b610284565b6040516100ce91906102b5565b60405180910390f35b60005481565b806000808282546100ee91906103fb565b9250508190555080600160008473ffffffffffffffffffffffffffffffffffffffff1673ffffffffffffffffffffffffffffffffffffffff168152602001908152602001600020600082825401925050819055508173ffffffffffffffffffffffffffffffffffffffff16600073ffffffffffffffffffffffffffffffffffffffff167fddf252ad1be2c89b69c2b068fc378daa952ba7f163c4a11628f55a4df523b3ef836040516101a091906102b5565b60405180910390a35050565b806000808282546101bd91906103fb565b9250508190555080600160008473ffffffffffffffffffffffffffffffffffffffff1673ffffffffffffffffffffffffffffffffffffffff168152602001908152602001600020600082825461021391906103fb565b925050819055508173ffffffffffffffffffffffffffffffffffffffff16600073ffffffffffffffffffffffffffffffffffffffff167fddf252ad1be2c89b69c2b068fc378daa952ba7f163c4a11628f55a4df523b3ef8360405161027891906102b5565b60405180910390a35050565b60016020528060005260406000206000915090505481565b6000819050919050565b6102af8161029c565b82525050565b60006020820190506102ca60008301846102a6565b92915050565b600080fd5b600073ffffffffffffffffffffffffffffffffffffffff82169050919050565b6000610300826102d5565b9050919050565b610310816102f5565b811461031b57600080fd5b50565b60008135905061032d81610307565b92915050565b61033c8161029c565b811461034757600080fd5b50565b60008135905061035981610333565b92915050565b60008060408385031215610376576103756102d0565b5b60006103848582860161031e565b92505060206103958582860161034a565b9150509250929050565b6000602082840312156103b5576103b46102d0565b5b60006103c38482850161031e565b91505092915050565b7f4e487b7100000000000000000000000000000000000000000000000000000000600052601160045260246000fd5b60006104068261029c565b91506104118361029c565b9250827fffffffffffffffffffffffffffffffffffffffffffffffffffffffffffffffff03821115610446576104456103cc565b5b82820190509291505056fea2646970667358221220ee68b965c52b6a8c041c2d6dd651d53d6063144e1bc7a146132e0ea3a0a17a2864736f6c634300080f0033608060405234801561001057600080fd5b506102b0806100206000396000f3fe608060405234801561001057600080fd5b50600436106100405760003560e01c8062c3314f1461004557806329fcda331461007557806376b81449146100a5575b600080fd5b61005f600480360381019061005a919061018b565b6100d5565b60405161006c91906101da565b60405180910390f35b61008f600480360381019061008a919061018b565b6100fc565b60405161009c91906101da565b60405180910390f35b6100bf60048036038101906100ba919061018b565b610123565b6040516100cc91906101da565b60405180910390f35b60008083036100e757600090506100f6565b81836100f39190610224565b90505b92915050565b600080830361010e576000905061011d565b818361011a9190610224565b90505b92915050565b6000808303610135576000905061014a565b600082846101439190610224565b9050809150505b92915050565b600080fd5b6000819050919050565b61016881610155565b811461017357600080fd5b50565b6000813590506101858161015f565b92915050565b600080604083850312156101a2576101a1610150565b5b60006101b085828601610176565b92505060206101c185828601610176565b9150509250929050565b6101d481610155565b82525050565b60006020820190506101ef60008301846101cb565b92915050565b7f4e487b7100000000000000000000000000000000000000000000000000000000600052601160045260246000fd5b600061022f82610155565b915061023a83610155565b9250827fffffffffffffffffffffffffffffffffffffffffffffffffffffffffffffffff0382111561026f5761026e6101f5565b5b82820190509291505056fea2646970667358221220d05b77f22fec5b1032aff08e1d85fea1d0f9ef0ecef147c79f03498fb8de32db64736f6c634300080f0033608060405234801561001057600080fd5b506102ab806100206000396000f3fe608060405234801561001057600080fd5b50600436106100365760003560e01c806307c267101461003b578063d6238a421461006b575b600080fd5b61005560048036038101906100509190610152565b61009b565b60405161006291906101a1565b60405180910390f35b61008560048036038101906100809190610152565b6100d8565b60405161009291906101a1565b60405180910390f35b600060018311156100c35760018211156100c25781836100bb91906101eb565b90506100d2565b5b81836100cf9190610241565b90505b92915050565b60006001831180156100ea5750600182115b156101025781836100fb91906101eb565b9050610111565b818361010e9190610241565b90505b92915050565b600080fd5b6000819050919050565b61012f8161011c565b811461013a57600080fd5b50565b60008135905061014c81610126565b92915050565b6000806040838503121561016957610168610117565b5b60006101778582860161013d565b92505060206101888582860161013d565b9150509250929050565b61019b8161011c565b82525050565b60006020820190506101b66000830184610192565b92915050565b7f4e487b7100000000000000000000000000000000000000000000000000000000600052601160045260246000fd5b60006101f68261011c565b91506102018361011c565b9250827fffffffffffffffffffffffffffffffffffffffffffffffffffffffffffffffff03821115610236576102356101bc565b5b828201905092915050565b600061024c8261011c565b91506102578361011c565b92508282101561026a576102696101bc565b5b82820390509291505056fea2646970667358221220476f8ba26ff2be52a34cbc74d7d917e118df1e14bd6087ba8c2e35ee6e74afdc64736f6c634300080f0033",
			"opcodes": "PUSH1 0x80 PUSH1 0x40 MSTORE PUSH1 0x40 MLOAD PUSH2 0x10 SWAP1 PUSH2 0x150 JUMP JUMPDEST PUSH1 0x40 MLOAD DUP1 SWAP2 SUB SWAP1 PUSH1 0x0 CREATE DUP1 ISZERO DUP1 ISZERO PUSH2 0x2C JUMPI RETURNDATASIZE PUSH1 0x0 DUP1 RETURNDATACOPY RETURNDATASIZE PUSH1 0x0 REVERT JUMPDEST POP PUSH1 0x0 DUP1 PUSH2 0x100 EXP DUP2 SLOAD DUP2 PUSH20 0xFFFFFFFFFFFFFFFFFFFFFFFFFFFFFFFFFFFFFFFF MUL NOT AND SWAP1 DUP4 PUSH20 0xFFFFFFFFFFFFFFFFFFFFFFFFFFFFFFFFFFFFFFFF AND MUL OR SWAP1 SSTORE POP PUSH1 0x40 MLOAD PUSH2 0x78 SWAP1 PUSH2 0x15E JUMP JUMPDEST PUSH1 0x40 MLOAD DUP1 SWAP2 SUB SWAP1 PUSH1 0x0 CREATE DUP1 ISZERO DUP1 ISZERO PUSH2 0x94 JUMPI RETURNDATASIZE PUSH1 0x0 DUP1 RETURNDATACOPY RETURNDATASIZE PUSH1 0x0 REVERT JUMPDEST POP PUSH1 0x1 PUSH1 0x0 PUSH2 0x100 EXP DUP2 SLOAD DUP2 PUSH20 0xFFFFFFFFFFFFFFFFFFFFFFFFFFFFFFFFFFFFFFFF MUL NOT AND SWAP1 DUP4 PUSH20 0xFFFFFFFFFFFFFFFFFFFFFFFFFFFFFFFFFFFFFFFF AND MUL OR SWAP1 SSTORE POP PUSH1 0x40 MLOAD PUSH2 0xE1 SWAP1 PUSH2 0x16C JUMP JUMPDEST PUSH1 0x40 MLOAD DUP1 SWAP2 SUB SWAP1 PUSH1 0x0 CREATE DUP1 ISZERO DUP1 ISZERO PUSH2 0xFD JUMPI RETURNDATASIZE PUSH1 0x0 DUP1 RETURNDATACOPY RETURNDATASIZE PUSH1 0x0 REVERT JUMPDEST POP PUSH1 0x2 PUSH1 0x0 PUSH2 0x100 EXP DUP2 SLOAD DUP2 PUSH20 0xFFFFFFFFFFFFFFFFFFFFFFFFFFFFFFFFFFFFFFFF MUL NOT AND SWAP1 DUP4 PUSH20 0xFFFFFFFFFFFFFFFFFFFFFFFFFFFFFFFFFFFFFFFF AND MUL OR SWAP1 SSTORE POP CALLVALUE DUP1 ISZERO PUSH2 0x14A JUMPI PUSH1 0x0 DUP1 REVERT JUMPDEST POP PUSH2 0x17A JUMP JUMPDEST PUSH2 0x4A7 DUP1 PUSH3 0x11C3 DUP4 CODECOPY ADD SWAP1 JUMP JUMPDEST PUSH2 0x2D0 DUP1 PUSH3 0x166A DUP4 CODECOPY ADD SWAP1 JUMP JUMPDEST PUSH2 0x2CB DUP1 PUSH3 0x193A DUP4 CODECOPY ADD SWAP1 JUMP JUMPDEST PUSH2 0x1039 DUP1 PUSH3 0x18A PUSH1 0x0 CODECOPY PUSH1 0x0 RETURN INVALID PUSH1 0x80 PUSH1 0x40 MSTORE CALLVALUE DUP1 ISZERO PUSH2 0x10 JUMPI PUSH1 0x0 DUP1 REVERT JUMPDEST POP PUSH1 0x4 CALLDATASIZE LT PUSH2 0x4C JUMPI PUSH1 0x0 CALLDATALOAD PUSH1 0xE0 SHR DUP1 PUSH4 0x1A0A0878 EQ PUSH2 0x51 JUMPI DUP1 PUSH4 0x3B9883FE EQ PUSH2 0x5B JUMPI DUP1 PUSH4 0x62A04D68 EQ PUSH2 0x79 JUMPI DUP1 PUSH4 0xE833A040 EQ PUSH2 0x97 JUMPI JUMPDEST PUSH1 0x0 DUP1 REVERT JUMPDEST PUSH2 0x59 PUSH2 0xA1 JUMP JUMPDEST STOP JUMPDEST PUSH2 0x63 PUSH2 0x18C JUMP JUMPDEST PUSH1 0x40 MLOAD PUSH2 0x70 SWAP2 SWAP1 PUSH2 0xA44 JUMP JUMPDEST PUSH1 0x40 MLOAD DUP1 SWAP2 SUB SWAP1 RETURN JUMPDEST PUSH2 0x81 PUSH2 0x413 JUMP JUMPDEST PUSH1 0x40 MLOAD PUSH2 0x8E SWAP2 SWAP1 PUSH2 0xA44 JUMP JUMPDEST PUSH1 0x40 MLOAD DUP1 SWAP2 SUB SWAP1 RETURN JUMPDEST PUSH2 0x9F PUSH2 0x665 JUMP JUMPDEST STOP JUMPDEST PUSH1 0x0 GAS SWAP1 POP PUSH1 0x0 PUSH1 0x1 SWAP1 POP PUSH1 0x0 PUSH1 0x2 SWAP1 POP PUSH1 0x0 DUP2 DUP4 PUSH2 0xC0 SWAP2 SWAP1 PUSH2 0xA8E JUMP JUMPDEST SWAP1 POP PUSH20 0x0 PUSH4 0xABCD7960 DUP3 PUSH1 0x3 PUSH1 0x40 MLOAD DUP4 PUSH4 0xFFFFFFFF AND PUSH1 0xE0 SHL DUP2 MSTORE PUSH1 0x4 ADD PUSH2 0xFC SWAP3 SWAP2 SWAP1 PUSH2 0xB50 JUMP JUMPDEST PUSH1 0x20 PUSH1 0x40 MLOAD DUP1 DUP4 SUB DUP2 DUP7 GAS DELEGATECALL ISZERO DUP1 ISZERO PUSH2 0x119 JUMPI RETURNDATASIZE PUSH1 0x0 DUP1 RETURNDATACOPY RETURNDATASIZE PUSH1 0x0 REVERT JUMPDEST POP POP POP POP PUSH1 0x40 MLOAD RETURNDATASIZE PUSH1 0x1F NOT PUSH1 0x1F DUP3 ADD AND DUP3 ADD DUP1 PUSH1 0x40 MSTORE POP DUP2 ADD SWAP1 PUSH2 0x13D SWAP2 SWAP1 PUSH2 0xBC9 JUMP JUMPDEST POP POP POP POP PUSH1 0x0 GAS SWAP1 POP PUSH32 0xB2DE2FBE801A0DF6C0CBDDFD448BA3C41D48A040CA35C56C8196EF0FCAE721A8 DUP2 DUP4 PUSH2 0x173 SWAP2 SWAP1 PUSH2 0xBF6 JUMP JUMPDEST PUSH1 0x40 MLOAD PUSH2 0x180 SWAP2 SWAP1 PUSH2 0xC87 JUMP JUMPDEST PUSH1 0x40 MLOAD DUP1 SWAP2 SUB SWAP1 LOG1 POP POP JUMP JUMPDEST PUSH1 0x0 DUP1 PUSH1 0x2 SWAP1 POP PUSH1 0x0 PUSH1 0x2 SWAP1 POP PUSH1 0x0 GAS SWAP1 POP PUSH1 0x2 PUSH1 0x0 SWAP1 SLOAD SWAP1 PUSH2 0x100 EXP SWAP1 DIV PUSH20 0xFFFFFFFFFFFFFFFFFFFFFFFFFFFFFFFFFFFFFFFF AND PUSH20 0xFFFFFFFFFFFFFFFFFFFFFFFFFFFFFFFFFFFFFFFF AND PUSH4 0xD6238A42 DUP5 DUP5 PUSH1 0x40 MLOAD DUP4 PUSH4 0xFFFFFFFF AND PUSH1 0xE0 SHL DUP2 MSTORE PUSH1 0x4 ADD PUSH2 0x1FB SWAP3 SWAP2 SWAP1 PUSH2 0xCB5 JUMP JUMPDEST PUSH1 0x20 PUSH1 0x40 MLOAD DUP1 DUP4 SUB DUP2 DUP7 GAS STATICCALL ISZERO DUP1 ISZERO PUSH2 0x218 JUMPI RETURNDATASIZE PUSH1 0x0 DUP1 RETURNDATACOPY RETURNDATASIZE PUSH1 0x0 REVERT JUMPDEST POP POP POP POP PUSH1 0x40 MLOAD RETURNDATASIZE PUSH1 0x1F NOT PUSH1 0x1F DUP3 ADD AND DUP3 ADD DUP1 PUSH1 0x40 MSTORE POP DUP2 ADD SWAP1 PUSH2 0x23C SWAP2 SWAP1 PUSH2 0xD0A JUMP JUMPDEST POP PUSH1 0x0 GAS SWAP1 POP PUSH1 0x0 DUP2 DUP4 PUSH2 0x250 SWAP2 SWAP1 PUSH2 0xBF6 JUMP JUMPDEST SWAP1 POP GAS SWAP3 POP PUSH1 0x2 PUSH1 0x0 SWAP1 SLOAD SWAP1 PUSH2 0x100 EXP SWAP1 DIV PUSH20 0xFFFFFFFFFFFFFFFFFFFFFFFFFFFFFFFFFFFFFFFF AND PUSH20 0xFFFFFFFFFFFFFFFFFFFFFFFFFFFFFFFFFFFFFFFF AND PUSH4 0x7C26710 DUP7 DUP7 PUSH1 0x40 MLOAD DUP4 PUSH4 0xFFFFFFFF AND PUSH1 0xE0 SHL DUP2 MSTORE PUSH1 0x4 ADD PUSH2 0x2B2 SWAP3 SWAP2 SWAP1 PUSH2 0xCB5 JUMP JUMPDEST PUSH1 0x20 PUSH1 0x40 MLOAD DUP1 DUP4 SUB DUP2 DUP7 GAS STATICCALL ISZERO DUP1 ISZERO PUSH2 0x2CF JUMPI RETURNDATASIZE PUSH1 0x0 DUP1 RETURNDATACOPY RETURNDATASIZE PUSH1 0x0 REVERT JUMPDEST POP POP POP POP PUSH1 0x40 MLOAD RETURNDATASIZE PUSH1 0x1F NOT PUSH1 0x1F DUP3 ADD AND DUP3 ADD DUP1 PUSH1 0x40 MSTORE POP DUP2 ADD SWAP1 PUSH2 0x2F3 SWAP2 SWAP1 PUSH2 0xD0A JUMP JUMPDEST POP GAS SWAP2 POP PUSH1 0x0 DUP3 DUP5 PUSH2 0x305 SWAP2 SWAP1 PUSH2 0xBF6 JUMP JUMPDEST SWAP1 POP PUSH32 0xB2DE2FBE801A0DF6C0CBDDFD448BA3C41D48A040CA35C56C8196EF0FCAE721A8 DUP2 DUP4 PUSH2 0x334 SWAP2 SWAP1 PUSH2 0xBF6 JUMP JUMPDEST PUSH1 0x40 MLOAD PUSH2 0x341 SWAP2 SWAP1 PUSH2 0xD83 JUMP JUMPDEST PUSH1 0x40 MLOAD DUP1 SWAP2 SUB SWAP1 LOG1 GAS SWAP4 POP PUSH1 0x2 PUSH1 0x0 SWAP1 SLOAD SWAP1 PUSH2 0x100 EXP SWAP1 DIV PUSH20 0xFFFFFFFFFFFFFFFFFFFFFFFFFFFFFFFFFFFFFFFF AND PUSH20 0xFFFFFFFFFFFFFFFFFFFFFFFFFFFFFFFFFFFFFFFF AND PUSH4 0xD6238A42 DUP8 DUP8 PUSH1 0x40 MLOAD DUP4 PUSH4 0xFFFFFFFF AND PUSH1 0xE0 SHL DUP2 MSTORE PUSH1 0x4 ADD PUSH2 0x3A9 SWAP3 SWAP2 SWAP1 PUSH2 0xCB5 JUMP JUMPDEST PUSH1 0x20 PUSH1 0x40 MLOAD DUP1 DUP4 SUB DUP2 DUP7 GAS STATICCALL ISZERO DUP1 ISZERO PUSH2 0x3C6 JUMPI RETURNDATASIZE PUSH1 0x0 DUP1 RETURNDATACOPY RETURNDATASIZE PUSH1 0x0 REVERT JUMPDEST POP POP POP POP PUSH1 0x40 MLOAD RETURNDATASIZE PUSH1 0x1F NOT PUSH1 0x1F DUP3 ADD AND DUP3 ADD DUP1 PUSH1 0x40 MSTORE POP DUP2 ADD SWAP1 PUSH2 0x3EA SWAP2 SWAP1 PUSH2 0xD0A JUMP JUMPDEST POP GAS SWAP3 POP DUP3 DUP5 PUSH2 0x3FA SWAP2 SWAP1 PUSH2 0xBF6 JUMP JUMPDEST SWAP2 POP DUP1 DUP3 PUSH2 0x408 SWAP2 SWAP1 PUSH2 0xBF6 JUMP JUMPDEST SWAP7 POP POP POP POP POP POP POP SWAP1 JUMP JUMPDEST PUSH1 0x0 DUP1 PUSH2 0xBEEF SWAP1 POP PUSH1 0x0 PUSH1 0x12 SWAP1 POP PUSH1 0x0 GAS SWAP1 POP PUSH1 0x0 DUP1 SLOAD SWAP1 PUSH2 0x100 EXP SWAP1 DIV PUSH20 0xFFFFFFFFFFFFFFFFFFFFFFFFFFFFFFFFFFFFFFFF AND PUSH20 0xFFFFFFFFFFFFFFFFFFFFFFFFFFFFFFFFFFFFFFFF AND PUSH4 0x48A00467 DUP5 DUP5 PUSH1 0x40 MLOAD DUP4 PUSH4 0xFFFFFFFF AND PUSH1 0xE0 SHL DUP2 MSTORE PUSH1 0x4 ADD PUSH2 0x481 SWAP3 SWAP2 SWAP1 PUSH2 0xDF2 JUMP JUMPDEST PUSH1 0x0 PUSH1 0x40 MLOAD DUP1 DUP4 SUB DUP2 PUSH1 0x0 DUP8 DUP1 EXTCODESIZE ISZERO DUP1 ISZERO PUSH2 0x49B JUMPI PUSH1 0x0 DUP1 REVERT JUMPDEST POP GAS CALL ISZERO DUP1 ISZERO PUSH2 0x4AF JUMPI RETURNDATASIZE PUSH1 0x0 DUP1 RETURNDATACOPY RETURNDATASIZE PUSH1 0x0 REVERT JUMPDEST POP POP POP POP PUSH1 0x0 GAS SWAP1 POP PUSH1 0x0 DUP2 DUP4 PUSH2 0x4C6 SWAP2 SWAP1 PUSH2 0xBF6 JUMP JUMPDEST SWAP1 POP GAS SWAP3 POP PUSH1 0x0 DUP1 SLOAD SWAP1 PUSH2 0x100 EXP SWAP1 DIV PUSH20 0xFFFFFFFFFFFFFFFFFFFFFFFFFFFFFFFFFFFFFFFF AND PUSH20 0xFFFFFFFFFFFFFFFFFFFFFFFFFFFFFFFFFFFFFFFF AND PUSH4 0x36244481 DUP7 DUP7 PUSH1 0x40 MLOAD DUP4 PUSH4 0xFFFFFFFF AND PUSH1 0xE0 SHL DUP2 MSTORE PUSH1 0x4 ADD PUSH2 0x526 SWAP3 SWAP2 SWAP1 PUSH2 0xDF2 JUMP JUMPDEST PUSH1 0x0 PUSH1 0x40 MLOAD DUP1 DUP4 SUB DUP2 PUSH1 0x0 DUP8 DUP1 EXTCODESIZE ISZERO DUP1 ISZERO PUSH2 0x540 JUMPI PUSH1 0x0 DUP1 REVERT JUMPDEST POP GAS CALL ISZERO DUP1 ISZERO PUSH2 0x554 JUMPI RETURNDATASIZE PUSH1 0x0 DUP1 RETURNDATACOPY RETURNDATASIZE PUSH1 0x0 REVERT JUMPDEST POP POP POP POP GAS SWAP2 POP PUSH1 0x0 DUP3 DUP5 PUSH2 0x569 SWAP2 SWAP1 PUSH2 0xBF6 JUMP JUMPDEST SWAP1 POP PUSH32 0xB2DE2FBE801A0DF6C0CBDDFD448BA3C41D48A040CA35C56C8196EF0FCAE721A8 DUP2 DUP4 PUSH2 0x598 SWAP2 SWAP1 PUSH2 0xBF6 JUMP JUMPDEST PUSH1 0x40 MLOAD PUSH2 0x5A5 SWAP2 SWAP1 PUSH2 0xD83 JUMP JUMPDEST PUSH1 0x40 MLOAD DUP1 SWAP2 SUB SWAP1 LOG1 GAS SWAP4 POP PUSH1 0x0 DUP1 SLOAD SWAP1 PUSH2 0x100 EXP SWAP1 DIV PUSH20 0xFFFFFFFFFFFFFFFFFFFFFFFFFFFFFFFFFFFFFFFF AND PUSH20 0xFFFFFFFFFFFFFFFFFFFFFFFFFFFFFFFFFFFFFFFF AND PUSH4 0x48A00467 DUP8 DUP8 PUSH1 0x40 MLOAD DUP4 PUSH4 0xFFFFFFFF AND PUSH1 0xE0 SHL DUP2 MSTORE PUSH1 0x4 ADD PUSH2 0x60B SWAP3 SWAP2 SWAP1 PUSH2 0xDF2 JUMP JUMPDEST PUSH1 0x0 PUSH1 0x40 MLOAD DUP1 DUP4 SUB DUP2 PUSH1 0x0 DUP8 DUP1 EXTCODESIZE ISZERO DUP1 ISZERO PUSH2 0x625 JUMPI PUSH1 0x0 DUP1 REVERT JUMPDEST POP GAS CALL ISZERO DUP1 ISZERO PUSH2 0x639 JUMPI RETURNDATASIZE PUSH1 0x0 DUP1 RETURNDATACOPY RETURNDATASIZE PUSH1 0x0 REVERT JUMPDEST POP POP POP POP GAS SWAP3 POP DUP3 DUP5 PUSH2 0x64C SWAP2 SWAP1 PUSH2 0xBF6 JUMP JUMPDEST SWAP2 POP DUP1 DUP3 PUSH2 0x65A SWAP2 SWAP1 PUSH2 0xBF6 JUMP JUMPDEST SWAP7 POP POP POP POP POP POP POP SWAP1 JUMP JUMPDEST PUSH1 0x0 PUSH1 0x1 SWAP1 POP PUSH1 0x0 PUSH1 0x2 SWAP1 POP PUSH1 0x0 GAS SWAP1 POP PUSH1 0x1 PUSH1 0x0 SWAP1 SLOAD SWAP1 PUSH2 0x100 EXP SWAP1 DIV PUSH20 0xFFFFFFFFFFFFFFFFFFFFFFFFFFFFFFFFFFFFFFFF AND PUSH20 0xFFFFFFFFFFFFFFFFFFFFFFFFFFFFFFFFFFFFFFFF AND PUSH4 0x76B81449 DUP5 DUP5 PUSH1 0x40 MLOAD DUP4 PUSH4 0xFFFFFFFF AND PUSH1 0xE0 SHL DUP2 MSTORE PUSH1 0x4 ADD PUSH2 0x6D3 SWAP3 SWAP2 SWAP1 PUSH2 0xCB5 JUMP JUMPDEST PUSH1 0x20 PUSH1 0x40 MLOAD DUP1 DUP4 SUB DUP2 DUP7 GAS STATICCALL ISZERO DUP1 ISZERO PUSH2 0x6F0 JUMPI RETURNDATASIZE PUSH1 0x0 DUP1 RETURNDATACOPY RETURNDATASIZE PUSH1 0x0 REVERT JUMPDEST POP POP POP POP PUSH1 0x40 MLOAD RETURNDATASIZE PUSH1 0x1F NOT PUSH1 0x1F DUP3 ADD AND DUP3 ADD DUP1 PUSH1 0x40 MSTORE POP DUP2 ADD SWAP1 PUSH2 0x714 SWAP2 SWAP1 PUSH2 0xD0A JUMP JUMPDEST POP PUSH1 0x0 GAS SWAP1 POP PUSH1 0x0 DUP2 DUP4 PUSH2 0x728 SWAP2 SWAP1 PUSH2 0xBF6 JUMP JUMPDEST SWAP1 POP PUSH32 0xB2DE2FBE801A0DF6C0CBDDFD448BA3C41D48A040CA35C56C8196EF0FCAE721A8 DUP2 PUSH1 0x40 MLOAD PUSH2 0x759 SWAP2 SWAP1 PUSH2 0xE67 JUMP JUMPDEST PUSH1 0x40 MLOAD DUP1 SWAP2 SUB SWAP1 LOG1 GAS SWAP3 POP PUSH1 0x1 PUSH1 0x0 SWAP1 SLOAD SWAP1 PUSH2 0x100 EXP SWAP1 DIV PUSH20 0xFFFFFFFFFFFFFFFFFFFFFFFFFFFFFFFFFFFFFFFF AND PUSH20 0xFFFFFFFFFFFFFFFFFFFFFFFFFFFFFFFFFFFFFFFF AND PUSH4 0x29FCDA33 DUP7 DUP7 PUSH1 0x40 MLOAD DUP4 PUSH4 0xFFFFFFFF AND PUSH1 0xE0 SHL DUP2 MSTORE PUSH1 0x4 ADD PUSH2 0x7C1 SWAP3 SWAP2 SWAP1 PUSH2 0xCB5 JUMP JUMPDEST PUSH1 0x20 PUSH1 0x40 MLOAD DUP1 DUP4 SUB DUP2 DUP7 GAS STATICCALL ISZERO DUP1 ISZERO PUSH2 0x7DE JUMPI RETURNDATASIZE PUSH1 0x0 DUP1 RETURNDATACOPY RETURNDATASIZE PUSH1 0x0 REVERT JUMPDEST POP POP POP POP PUSH1 0x40 MLOAD RETURNDATASIZE PUSH1 0x1F NOT PUSH1 0x1F DUP3 ADD AND DUP3 ADD DUP1 PUSH1 0x40 MSTORE POP DUP2 ADD SWAP1 PUSH2 0x802 SWAP2 SWAP1 PUSH2 0xD0A JUMP JUMPDEST POP GAS SWAP2 POP PUSH1 0x0 DUP3 DUP5 PUSH2 0x814 SWAP2 SWAP1 PUSH2 0xBF6 JUMP JUMPDEST SWAP1 POP PUSH32 0xB2DE2FBE801A0DF6C0CBDDFD448BA3C41D48A040CA35C56C8196EF0FCAE721A8 DUP2 PUSH1 0x40 MLOAD PUSH2 0x845 SWAP2 SWAP1 PUSH2 0xEE1 JUMP JUMPDEST PUSH1 0x40 MLOAD DUP1 SWAP2 SUB SWAP1 LOG1 GAS SWAP4 POP PUSH1 0x1 PUSH1 0x0 SWAP1 SLOAD SWAP1 PUSH2 0x100 EXP SWAP1 DIV PUSH20 0xFFFFFFFFFFFFFFFFFFFFFFFFFFFFFFFFFFFFFFFF AND PUSH20 0xFFFFFFFFFFFFFFFFFFFFFFFFFFFFFFFFFFFFFFFF AND PUSH3 0xC3314F DUP8 DUP8 PUSH1 0x40 MLOAD DUP4 PUSH4 0xFFFFFFFF AND PUSH1 0xE0 SHL DUP2 MSTORE PUSH1 0x4 ADD PUSH2 0x8AC SWAP3 SWAP2 SWAP1 PUSH2 0xCB5 JUMP JUMPDEST PUSH1 0x20 PUSH1 0x40 MLOAD DUP1 DUP4 SUB DUP2 DUP7 GAS STATICCALL ISZERO DUP1 ISZERO PUSH2 0x8C9 JUMPI RETURNDATASIZE PUSH1 0x0 DUP1 RETURNDATACOPY RETURNDATASIZE PUSH1 0x0 REVERT JUMPDEST POP POP POP POP PUSH1 0x40 MLOAD RETURNDATASIZE PUSH1 0x1F NOT PUSH1 0x1F DUP3 ADD AND DUP3 ADD DUP1 PUSH1 0x40 MSTORE POP DUP2 ADD SWAP1 PUSH2 0x8ED SWAP2 SWAP1 PUSH2 0xD0A JUMP JUMPDEST POP GAS SWAP3 POP PUSH1 0x0 DUP4 DUP6 PUSH2 0x8FF SWAP2 SWAP1 PUSH2 0xBF6 JUMP JUMPDEST SWAP1 POP PUSH32 0xB2DE2FBE801A0DF6C0CBDDFD448BA3C41D48A040CA35C56C8196EF0FCAE721A8 DUP2 PUSH1 0x40 MLOAD PUSH2 0x930 SWAP2 SWAP1 PUSH2 0xF5B JUMP JUMPDEST PUSH1 0x40 MLOAD DUP1 SWAP2 SUB SWAP1 LOG1 GAS SWAP5 POP PUSH1 0x1 PUSH1 0x0 SWAP1 SLOAD SWAP1 PUSH2 0x100 EXP SWAP1 DIV PUSH20 0xFFFFFFFFFFFFFFFFFFFFFFFFFFFFFFFFFFFFFFFF AND PUSH20 0xFFFFFFFFFFFFFFFFFFFFFFFFFFFFFFFFFFFFFFFF AND PUSH4 0x76B81449 DUP9 DUP9 PUSH1 0x40 MLOAD DUP4 PUSH4 0xFFFFFFFF AND PUSH1 0xE0 SHL DUP2 MSTORE PUSH1 0x4 ADD PUSH2 0x998 SWAP3 SWAP2 SWAP1 PUSH2 0xCB5 JUMP JUMPDEST PUSH1 0x20 PUSH1 0x40 MLOAD DUP1 DUP4 SUB DUP2 DUP7 GAS STATICCALL ISZERO DUP1 ISZERO PUSH2 0x9B5 JUMPI RETURNDATASIZE PUSH1 0x0 DUP1 RETURNDATACOPY RETURNDATASIZE PUSH1 0x0 REVERT JUMPDEST POP POP POP POP PUSH1 0x40 MLOAD RETURNDATASIZE PUSH1 0x1F NOT PUSH1 0x1F DUP3 ADD AND DUP3 ADD DUP1 PUSH1 0x40 MSTORE POP DUP2 ADD SWAP1 PUSH2 0x9D9 SWAP2 SWAP1 PUSH2 0xD0A JUMP JUMPDEST POP GAS SWAP4 POP DUP4 DUP6 PUSH2 0x9E9 SWAP2 SWAP1 PUSH2 0xBF6 JUMP JUMPDEST SWAP3 POP PUSH32 0xB2DE2FBE801A0DF6C0CBDDFD448BA3C41D48A040CA35C56C8196EF0FCAE721A8 DUP4 PUSH1 0x40 MLOAD PUSH2 0xA1A SWAP2 SWAP1 PUSH2 0xFD5 JUMP JUMPDEST PUSH1 0x40 MLOAD DUP1 SWAP2 SUB SWAP1 LOG1 POP POP POP POP POP POP POP JUMP JUMPDEST PUSH1 0x0 DUP2 SWAP1 POP SWAP2 SWAP1 POP JUMP JUMPDEST PUSH2 0xA3E DUP2 PUSH2 0xA2B JUMP JUMPDEST DUP3 MSTORE POP POP JUMP JUMPDEST PUSH1 0x0 PUSH1 0x20 DUP3 ADD SWAP1 POP PUSH2 0xA59 PUSH1 0x0 DUP4 ADD DUP5 PUSH2 0xA35 JUMP JUMPDEST SWAP3 SWAP2 POP POP JUMP JUMPDEST PUSH32 0x4E487B7100000000000000000000000000000000000000000000000000000000 PUSH1 0x0 MSTORE PUSH1 0x11 PUSH1 0x4 MSTORE PUSH1 0x24 PUSH1 0x0 REVERT JUMPDEST PUSH1 0x0 PUSH2 0xA99 DUP3 PUSH2 0xA2B JUMP JUMPDEST SWAP2 POP PUSH2 0xAA4 DUP4 PUSH2 0xA2B JUMP JUMPDEST SWAP3 POP DUP3 PUSH32 0xFFFFFFFFFFFFFFFFFFFFFFFFFFFFFFFFFFFFFFFFFFFFFFFFFFFFFFFFFFFFFFFF SUB DUP3 GT ISZERO PUSH2 0xAD9 JUMPI PUSH2 0xAD8 PUSH2 0xA5F JUMP JUMPDEST JUMPDEST DUP3 DUP3 ADD SWAP1 POP SWAP3 SWAP2 POP POP JUMP JUMPDEST PUSH2 0xAED DUP2 PUSH2 0xA2B JUMP JUMPDEST DUP3 MSTORE POP POP JUMP JUMPDEST PUSH1 0x0 DUP3 DUP3 MSTORE PUSH1 0x20 DUP3 ADD SWAP1 POP SWAP3 SWAP2 POP POP JUMP JUMPDEST PUSH32 0x726573756C742073686F756C6420626520657175616C20746F20330000000000 PUSH1 0x0 DUP3 ADD MSTORE POP JUMP JUMPDEST PUSH1 0x0 PUSH2 0xB3A PUSH1 0x1B DUP4 PUSH2 0xAF3 JUMP JUMPDEST SWAP2 POP PUSH2 0xB45 DUP3 PUSH2 0xB04 JUMP JUMPDEST PUSH1 0x20 DUP3 ADD SWAP1 POP SWAP2 SWAP1 POP JUMP JUMPDEST PUSH1 0x0 PUSH1 0x60 DUP3 ADD SWAP1 POP PUSH2 0xB65 PUSH1 0x0 DUP4 ADD DUP6 PUSH2 0xAE4 JUMP JUMPDEST PUSH2 0xB72 PUSH1 0x20 DUP4 ADD DUP5 PUSH2 0xAE4 JUMP JUMPDEST DUP2 DUP2 SUB PUSH1 0x40 DUP4 ADD MSTORE PUSH2 0xB83 DUP2 PUSH2 0xB2D JUMP JUMPDEST SWAP1 POP SWAP4 SWAP3 POP POP POP JUMP JUMPDEST PUSH1 0x0 DUP1 REVERT JUMPDEST PUSH1 0x0 DUP2 ISZERO ISZERO SWAP1 POP SWAP2 SWAP1 POP JUMP JUMPDEST PUSH2 0xBA6 DUP2 PUSH2 0xB91 JUMP JUMPDEST DUP2 EQ PUSH2 0xBB1 JUMPI PUSH1 0x0 DUP1 REVERT JUMPDEST POP JUMP JUMPDEST PUSH1 0x0 DUP2 MLOAD SWAP1 POP PUSH2 0xBC3 DUP2 PUSH2 0xB9D JUMP JUMPDEST SWAP3 SWAP2 POP POP JUMP JUMPDEST PUSH1 0x0 PUSH1 0x20 DUP3 DUP5 SUB SLT ISZERO PUSH2 0xBDF JUMPI PUSH2 0xBDE PUSH2 0xB8C JUMP JUMPDEST JUMPDEST PUSH1 0x0 PUSH2 0xBED DUP5 DUP3 DUP6 ADD PUSH2 0xBB4 JUMP JUMPDEST SWAP2 POP POP SWAP3 SWAP2 POP POP JUMP JUMPDEST PUSH1 0x0 PUSH2 0xC01 DUP3 PUSH2 0xA2B JUMP JUMPDEST SWAP2 POP PUSH2 0xC0C DUP4 PUSH2 0xA2B JUMP JUMPDEST SWAP3 POP DUP3 DUP3 LT ISZERO PUSH2 0xC1F JUMPI PUSH2 0xC1E PUSH2 0xA5F JUMP JUMPDEST JUMPDEST DUP3 DUP3 SUB SWAP1 POP SWAP3 SWAP2 POP POP JUMP JUMPDEST PUSH1 0x0 DUP3 DUP3 MSTORE PUSH1 0x20 DUP3 ADD SWAP1 POP SWAP3 SWAP2 POP POP JUMP JUMPDEST PUSH32 0x6761730000000000000000000000000000000000000000000000000000000000 PUSH1 0x0 DUP3 ADD MSTORE POP JUMP JUMPDEST PUSH1 0x0 PUSH2 0xC71 PUSH1 0x3 DUP4 PUSH2 0xC2A JUMP JUMPDEST SWAP2 POP PUSH2 0xC7C DUP3 PUSH2 0xC3B JUMP JUMPDEST PUSH1 0x20 DUP3 ADD SWAP1 POP SWAP2 SWAP1 POP JUMP JUMPDEST PUSH1 0x0 PUSH1 0x40 DUP3 ADD SWAP1 POP DUP2 DUP2 SUB PUSH1 0x0 DUP4 ADD MSTORE PUSH2 0xCA0 DUP2 PUSH2 0xC64 JUMP JUMPDEST SWAP1 POP PUSH2 0xCAF PUSH1 0x20 DUP4 ADD DUP5 PUSH2 0xA35 JUMP JUMPDEST SWAP3 SWAP2 POP POP JUMP JUMPDEST PUSH1 0x0 PUSH1 0x40 DUP3 ADD SWAP1 POP PUSH2 0xCCA PUSH1 0x0 DUP4 ADD DUP6 PUSH2 0xA35 JUMP JUMPDEST PUSH2 0xCD7 PUSH1 0x20 DUP4 ADD DUP5 PUSH2 0xA35 JUMP JUMPDEST SWAP4 SWAP3 POP POP POP JUMP JUMPDEST PUSH2 0xCE7 DUP2 PUSH2 0xA2B JUMP JUMPDEST DUP2 EQ PUSH2 0xCF2 JUMPI PUSH1 0x0 DUP1 REVERT JUMPDEST POP JUMP JUMPDEST PUSH1 0x0 DUP2 MLOAD SWAP1 POP PUSH2 0xD04 DUP2 PUSH2 0xCDE JUMP JUMPDEST SWAP3 SWAP2 POP POP JUMP JUMPDEST PUSH1 0x0 PUSH1 0x20 DUP3 DUP5 SUB SLT ISZERO PUSH2 0xD20 JUMPI PUSH2 0xD1F PUSH2 0xB8C JUMP JUMPDEST JUMPDEST PUSH1 0x0 PUSH2 0xD2E DUP5 DUP3 DUP6 ADD PUSH2 0xCF5 JUMP JUMPDEST SWAP2 POP POP SWAP3 SWAP2 POP POP JUMP JUMPDEST PUSH32 0x6761735361766564000000000000000000000000000000000000000000000000 PUSH1 0x0 DUP3 ADD MSTORE POP JUMP JUMPDEST PUSH1 0x0 PUSH2 0xD6D PUSH1 0x8 DUP4 PUSH2 0xC2A JUMP JUMPDEST SWAP2 POP PUSH2 0xD78 DUP3 PUSH2 0xD37 JUMP JUMPDEST PUSH1 0x20 DUP3 ADD SWAP1 POP SWAP2 SWAP1 POP JUMP JUMPDEST PUSH1 0x0 PUSH1 0x40 DUP3 ADD SWAP1 POP DUP2 DUP2 SUB PUSH1 0x0 DUP4 ADD MSTORE PUSH2 0xD9C DUP2 PUSH2 0xD60 JUMP JUMPDEST SWAP1 POP PUSH2 0xDAB PUSH1 0x20 DUP4 ADD DUP5 PUSH2 0xA35 JUMP JUMPDEST SWAP3 SWAP2 POP POP JUMP JUMPDEST PUSH1 0x0 PUSH20 0xFFFFFFFFFFFFFFFFFFFFFFFFFFFFFFFFFFFFFFFF DUP3 AND SWAP1 POP SWAP2 SWAP1 POP JUMP JUMPDEST PUSH1 0x0 PUSH2 0xDDC DUP3 PUSH2 0xDB1 JUMP JUMPDEST SWAP1 POP SWAP2 SWAP1 POP JUMP JUMPDEST PUSH2 0xDEC DUP2 PUSH2 0xDD1 JUMP JUMPDEST DUP3 MSTORE POP POP JUMP JUMPDEST PUSH1 0x0 PUSH1 0x40 DUP3 ADD SWAP1 POP PUSH2 0xE07 PUSH1 0x0 DUP4 ADD DUP6 PUSH2 0xDE3 JUMP JUMPDEST PUSH2 0xE14 PUSH1 0x20 DUP4 ADD DUP5 PUSH2 0xA35 JUMP JUMPDEST SWAP4 SWAP3 POP POP POP JUMP JUMPDEST PUSH32 0x6761733100000000000000000000000000000000000000000000000000000000 PUSH1 0x0 DUP3 ADD MSTORE POP JUMP JUMPDEST PUSH1 0x0 PUSH2 0xE51 PUSH1 0x4 DUP4 PUSH2 0xC2A JUMP JUMPDEST SWAP2 POP PUSH2 0xE5C DUP3 PUSH2 0xE1B JUMP JUMPDEST PUSH1 0x20 DUP3 ADD SWAP1 POP SWAP2 SWAP1 POP JUMP JUMPDEST PUSH1 0x0 PUSH1 0x40 DUP3 ADD SWAP1 POP DUP2 DUP2 SUB PUSH1 0x0 DUP4 ADD MSTORE PUSH2 0xE80 DUP2 PUSH2 0xE44 JUMP JUMPDEST SWAP1 POP PUSH2 0xE8F PUSH1 0x20 DUP4 ADD DUP5 PUSH2 0xA35 JUMP JUMPDEST SWAP3 SWAP2 POP POP JUMP JUMPDEST PUSH32 0x6761733200000000000000000000000000000000000000000000000000000000 PUSH1 0x0 DUP3 ADD MSTORE POP JUMP JUMPDEST PUSH1 0x0 PUSH2 0xECB PUSH1 0x4 DUP4 PUSH2 0xC2A JUMP JUMPDEST SWAP2 POP PUSH2 0xED6 DUP3 PUSH2 0xE95 JUMP JUMPDEST PUSH1 0x20 DUP3 ADD SWAP1 POP SWAP2 SWAP1 POP JUMP JUMPDEST PUSH1 0x0 PUSH1 0x40 DUP3 ADD SWAP1 POP DUP2 DUP2 SUB PUSH1 0x0 DUP4 ADD MSTORE PUSH2 0xEFA DUP2 PUSH2 0xEBE JUMP JUMPDEST SWAP1 POP PUSH2 0xF09 PUSH1 0x20 DUP4 ADD DUP5 PUSH2 0xA35 JUMP JUMPDEST SWAP3 SWAP2 POP POP JUMP JUMPDEST PUSH32 0x6761733300000000000000000000000000000000000000000000000000000000 PUSH1 0x0 DUP3 ADD MSTORE POP JUMP JUMPDEST PUSH1 0x0 PUSH2 0xF45 PUSH1 0x4 DUP4 PUSH2 0xC2A JUMP JUMPDEST SWAP2 POP PUSH2 0xF50 DUP3 PUSH2 0xF0F JUMP JUMPDEST PUSH1 0x20 DUP3 ADD SWAP1 POP SWAP2 SWAP1 POP JUMP JUMPDEST PUSH1 0x0 PUSH1 0x40 DUP3 ADD SWAP1 POP DUP2 DUP2 SUB PUSH1 0x0 DUP4 ADD MSTORE PUSH2 0xF74 DUP2 PUSH2 0xF38 JUMP JUMPDEST SWAP1 POP PUSH2 0xF83 PUSH1 0x20 DUP4 ADD DUP5 PUSH2 0xA35 JUMP JUMPDEST SWAP3 SWAP2 POP POP JUMP JUMPDEST PUSH32 0x6761735F31000000000000000000000000000000000000000000000000000000 PUSH1 0x0 DUP3 ADD MSTORE POP JUMP JUMPDEST PUSH1 0x0 PUSH2 0xFBF PUSH1 0x5 DUP4 PUSH2 0xC2A JUMP JUMPDEST SWAP2 POP PUSH2 0xFCA DUP3 PUSH2 0xF89 JUMP JUMPDEST PUSH1 0x20 DUP3 ADD SWAP1 POP SWAP2 SWAP1 POP JUMP JUMPDEST PUSH1 0x0 PUSH1 0x40 DUP3 ADD SWAP1 POP DUP2 DUP2 SUB PUSH1 0x0 DUP4 ADD MSTORE PUSH2 0xFEE DUP2 PUSH2 0xFB2 JUMP JUMPDEST SWAP1 POP PUSH2 0xFFD PUSH1 0x20 DUP4 ADD DUP5 PUSH2 0xA35 JUMP JUMPDEST SWAP3 SWAP2 POP POP JUMP INVALID LOG2 PUSH5 0x6970667358 0x22 SLT KECCAK256 PUSH25 0x721C3E122F541D72E72683F6828527F5530F531068FFE7771F PUSH2 0x9A7 BLOCKHASH 0xDE CALLDATALOAD PUSH5 0x736F6C6343 STOP ADDMOD 0xF STOP CALLER PUSH1 0x80 PUSH1 0x40 MSTORE CALLVALUE DUP1 ISZERO PUSH2 0x10 JUMPI PUSH1 0x0 DUP1 REVERT JUMPDEST POP PUSH2 0x487 DUP1 PUSH2 0x20 PUSH1 0x0 CODECOPY PUSH1 0x0 RETURN INVALID PUSH1 0x80 PUSH1 0x40 MSTORE CALLVALUE DUP1 ISZERO PUSH2 0x10 JUMPI PUSH1 0x0 DUP1 REVERT JUMPDEST POP PUSH1 0x4 CALLDATASIZE LT PUSH2 0x4C JUMPI PUSH1 0x0 CALLDATALOAD PUSH1 0xE0 SHR DUP1 PUSH4 0x18160DDD EQ PUSH2 0x51 JUMPI DUP1 PUSH4 0x36244481 EQ PUSH2 0x6F JUMPI DUP1 PUSH4 0x48A00467 EQ PUSH2 0x8B JUMPI DUP1 PUSH4 0x70A08231 EQ PUSH2 0xA7 JUMPI JUMPDEST PUSH1 0x0 DUP1 REVERT JUMPDEST PUSH2 0x59 PUSH2 0xD7 JUMP JUMPDEST PUSH1 0x40 MLOAD PUSH2 0x66 SWAP2 SWAP1 PUSH2 0x2B5 JUMP JUMPDEST PUSH1 0x40 MLOAD DUP1 SWAP2 SUB SWAP1 RETURN JUMPDEST PUSH2 0x89 PUSH1 0x4 DUP1 CALLDATASIZE SUB DUP2 ADD SWAP1 PUSH2 0x84 SWAP2 SWAP1 PUSH2 0x35F JUMP JUMPDEST PUSH2 0xDD JUMP JUMPDEST STOP JUMPDEST PUSH2 0xA5 PUSH1 0x4 DUP1 CALLDATASIZE SUB DUP2 ADD SWAP1 PUSH2 0xA0 SWAP2 SWAP1 PUSH2 0x35F JUMP JUMPDEST PUSH2 0x1AC JUMP JUMPDEST STOP JUMPDEST PUSH2 0xC1 PUSH1 0x4 DUP1 CALLDATASIZE SUB DUP2 ADD SWAP1 PUSH2 0xBC SWAP2 SWAP1 PUSH2 0x39F JUMP JUMPDEST PUSH2 0x284 JUMP JUMPDEST PUSH1 0x40 MLOAD PUSH2 0xCE SWAP2 SWAP1 PUSH2 0x2B5 JUMP JUMPDEST PUSH1 0x40 MLOAD DUP1 SWAP2 SUB SWAP1 RETURN JUMPDEST PUSH1 0x0 SLOAD DUP2 JUMP JUMPDEST DUP1 PUSH1 0x0 DUP1 DUP3 DUP3 SLOAD PUSH2 0xEE SWAP2 SWAP1 PUSH2 0x3FB JUMP JUMPDEST SWAP3 POP POP DUP2 SWAP1 SSTORE POP DUP1 PUSH1 0x1 PUSH1 0x0 DUP5 PUSH20 0xFFFFFFFFFFFFFFFFFFFFFFFFFFFFFFFFFFFFFFFF AND PUSH20 0xFFFFFFFFFFFFFFFFFFFFFFFFFFFFFFFFFFFFFFFF AND DUP2 MSTORE PUSH1 0x20 ADD SWAP1 DUP2 MSTORE PUSH1 0x20 ADD PUSH1 0x0 KECCAK256 PUSH1 0x0 DUP3 DUP3 SLOAD ADD SWAP3 POP POP DUP2 SWAP1 SSTORE POP DUP2 PUSH20 0xFFFFFFFFFFFFFFFFFFFFFFFFFFFFFFFFFFFFFFFF AND PUSH1 0x0 PUSH20 0xFFFFFFFFFFFFFFFFFFFFFFFFFFFFFFFFFFFFFFFF AND PUSH32 0xDDF252AD1BE2C89B69C2B068FC378DAA952BA7F163C4A11628F55A4DF523B3EF DUP4 PUSH1 0x40 MLOAD PUSH2 0x1A0 SWAP2 SWAP1 PUSH2 0x2B5 JUMP JUMPDEST PUSH1 0x40 MLOAD DUP1 SWAP2 SUB SWAP1 LOG3 POP POP JUMP JUMPDEST DUP1 PUSH1 0x0 DUP1 DUP3 DUP3 SLOAD PUSH2 0x1BD SWAP2 SWAP1 PUSH2 0x3FB JUMP JUMPDEST SWAP3 POP POP DUP2 SWAP1 SSTORE POP DUP1 PUSH1 0x1 PUSH1 0x0 DUP5 PUSH20 0xFFFFFFFFFFFFFFFFFFFFFFFFFFFFFFFFFFFFFFFF AND PUSH20 0xFFFFFFFFFFFFFFFFFFFFFFFFFFFFFFFFFFFFFFFF AND DUP2 MSTORE PUSH1 0x20 ADD SWAP1 DUP2 MSTORE PUSH1 0x20 ADD PUSH1 0x0 KECCAK256 PUSH1 0x0 DUP3 DUP3 SLOAD PUSH2 0x213 SWAP2 SWAP1 PUSH2 0x3FB JUMP JUMPDEST SWAP3 POP POP DUP2 SWAP1 SSTORE POP DUP2 PUSH20 0xFFFFFFFFFFFFFFFFFFFFFFFFFFFFFFFFFFFFFFFF AND PUSH1 0x0 PUSH20 0xFFFFFFFFFFFFFFFFFFFFFFFFFFFFFFFFFFFFFFFF AND PUSH32 0xDDF252AD1BE2C89B69C2B068FC378DAA952BA7F163C4A11628F55A4DF523B3EF DUP4 PUSH1 0x40 MLOAD PUSH2 0x278 SWAP2 SWAP1 PUSH2 0x2B5 JUMP JUMPDEST PUSH1 0x40 MLOAD DUP1 SWAP2 SUB SWAP1 LOG3 POP POP JUMP JUMPDEST PUSH1 0x1 PUSH1 0x20 MSTORE DUP1 PUSH1 0x0 MSTORE PUSH1 0x40 PUSH1 0x0 KECCAK256 PUSH1 0x0 SWAP2 POP SWAP1 POP SLOAD DUP2 JUMP JUMPDEST PUSH1 0x0 DUP2 SWAP1 POP SWAP2 SWAP1 POP JUMP JUMPDEST PUSH2 0x2AF DUP2 PUSH2 0x29C JUMP JUMPDEST DUP3 MSTORE POP POP JUMP JUMPDEST PUSH1 0x0 PUSH1 0x20 DUP3 ADD SWAP1 POP PUSH2 0x2CA PUSH1 0x0 DUP4 ADD DUP5 PUSH2 0x2A6 JUMP JUMPDEST SWAP3 SWAP2 POP POP JUMP JUMPDEST PUSH1 0x0 DUP1 REVERT JUMPDEST PUSH1 0x0 PUSH20 0xFFFFFFFFFFFFFFFFFFFFFFFFFFFFFFFFFFFFFFFF DUP3 AND SWAP1 POP SWAP2 SWAP1 POP JUMP JUMPDEST PUSH1 0x0 PUSH2 0x300 DUP3 PUSH2 0x2D5 JUMP JUMPDEST SWAP1 POP SWAP2 SWAP1 POP JUMP JUMPDEST PUSH2 0x310 DUP2 PUSH2 0x2F5 JUMP JUMPDEST DUP2 EQ PUSH2 0x31B JUMPI PUSH1 0x0 DUP1 REVERT JUMPDEST POP JUMP JUMPDEST PUSH1 0x0 DUP2 CALLDATALOAD SWAP1 POP PUSH2 0x32D DUP2 PUSH2 0x307 JUMP JUMPDEST SWAP3 SWAP2 POP POP JUMP JUMPDEST PUSH2 0x33C DUP2 PUSH2 0x29C JUMP JUMPDEST DUP2 EQ PUSH2 0x347 JUMPI PUSH1 0x0 DUP1 REVERT JUMPDEST POP JUMP JUMPDEST PUSH1 0x0 DUP2 CALLDATALOAD SWAP1 POP PUSH2 0x359 DUP2 PUSH2 0x333 JUMP JUMPDEST SWAP3 SWAP2 POP POP JUMP JUMPDEST PUSH1 0x0 DUP1 PUSH1 0x40 DUP4 DUP6 SUB SLT ISZERO PUSH2 0x376 JUMPI PUSH2 0x375 PUSH2 0x2D0 JUMP JUMPDEST JUMPDEST PUSH1 0x0 PUSH2 0x384 DUP6 DUP3 DUP7 ADD PUSH2 0x31E JUMP JUMPDEST SWAP3 POP POP PUSH1 0x20 PUSH2 0x395 DUP6 DUP3 DUP7 ADD PUSH2 0x34A JUMP JUMPDEST SWAP2 POP POP SWAP3 POP SWAP3 SWAP1 POP JUMP JUMPDEST PUSH1 0x0 PUSH1 0x20 DUP3 DUP5 SUB SLT ISZERO PUSH2 0x3B5 JUMPI PUSH2 0x3B4 PUSH2 0x2D0 JUMP JUMPDEST JUMPDEST PUSH1 0x0 PUSH2 0x3C3 DUP5 DUP3 DUP6 ADD PUSH2 0x31E JUMP JUMPDEST SWAP2 POP POP SWAP3 SWAP2 POP POP JUMP JUMPDEST PUSH32 0x4E487B7100000000000000000000000000000000000000000000000000000000 PUSH1 0x0 MSTORE PUSH1 0x11 PUSH1 0x4 MSTORE PUSH1 0x24 PUSH1 0x0 REVERT JUMPDEST PUSH1 0x0 PUSH2 0x406 DUP3 PUSH2 0x29C JUMP JUMPDEST SWAP2 POP PUSH2 0x411 DUP4 PUSH2 0x29C JUMP JUMPDEST SWAP3 POP DUP3 PUSH32 0xFFFFFFFFFFFFFFFFFFFFFFFFFFFFFFFFFFFFFFFFFFFFFFFFFFFFFFFFFFFFFFFF SUB DUP3 GT ISZERO PUSH2 0x446 JUMPI PUSH2 0x445 PUSH2 0x3CC JUMP JUMPDEST JUMPDEST DUP3 DUP3 ADD SWAP1 POP SWAP3 SWAP2 POP POP JUMP INVALID LOG2 PUSH5 0x6970667358 0x22 SLT KECCAK256 0xEE PUSH9 0xB965C52B6A8C041C2D PUSH14 0xD651D53D6063144E1BC7A146132E 0xE LOG3 LOG0 LOG1 PUSH27 0x2864736F6C634300080F0033608060405234801561001057600080 REVERT JUMPDEST POP PUSH2 0x2B0 DUP1 PUSH2 0x20 PUSH1 0x0 CODECOPY PUSH1 0x0 RETURN INVALID PUSH1 0x80 PUSH1 0x40 MSTORE CALLVALUE DUP1 ISZERO PUSH2 0x10 JUMPI PUSH1 0x0 DUP1 REVERT JUMPDEST POP PUSH1 0x4 CALLDATASIZE LT PUSH2 0x40 JUMPI PUSH1 0x0 CALLDATALOAD PUSH1 0xE0 SHR DUP1 PUSH3 0xC3314F EQ PUSH2 0x45 JUMPI DUP1 PUSH4 0x29FCDA33 EQ PUSH2 0x75 JUMPI DUP1 PUSH4 0x76B81449 EQ PUSH2 0xA5 JUMPI JUMPDEST PUSH1 0x0 DUP1 REVERT JUMPDEST PUSH2 0x5F PUSH1 0x4 DUP1 CALLDATASIZE SUB DUP2 ADD SWAP1 PUSH2 0x5A SWAP2 SWAP1 PUSH2 0x18B JUMP JUMPDEST PUSH2 0xD5 JUMP JUMPDEST PUSH1 0x40 MLOAD PUSH2 0x6C SWAP2 SWAP1 PUSH2 0x1DA JUMP JUMPDEST PUSH1 0x40 MLOAD DUP1 SWAP2 SUB SWAP1 RETURN JUMPDEST PUSH2 0x8F PUSH1 0x4 DUP1 CALLDATASIZE SUB DUP2 ADD SWAP1 PUSH2 0x8A SWAP2 SWAP1 PUSH2 0x18B JUMP JUMPDEST PUSH2 0xFC JUMP JUMPDEST PUSH1 0x40 MLOAD PUSH2 0x9C SWAP2 SWAP1 PUSH2 0x1DA JUMP JUMPDEST PUSH1 0x40 MLOAD DUP1 SWAP2 SUB SWAP1 RETURN JUMPDEST PUSH2 0xBF PUSH1 0x4 DUP1 CALLDATASIZE SUB DUP2 ADD SWAP1 PUSH2 0xBA SWAP2 SWAP1 PUSH2 0x18B JUMP JUMPDEST PUSH2 0x123 JUMP JUMPDEST PUSH1 0x40 MLOAD PUSH2 0xCC SWAP2 SWAP1 PUSH2 0x1DA JUMP JUMPDEST PUSH1 0x40 MLOAD DUP1 SWAP2 SUB SWAP1 RETURN JUMPDEST PUSH1 0x0 DUP1 DUP4 SUB PUSH2 0xE7 JUMPI PUSH1 0x0 SWAP1 POP PUSH2 0xF6 JUMP JUMPDEST DUP2 DUP4 PUSH2 0xF3 SWAP2 SWAP1 PUSH2 0x224 JUMP JUMPDEST SWAP1 POP JUMPDEST SWAP3 SWAP2 POP POP JUMP JUMPDEST PUSH1 0x0 DUP1 DUP4 SUB PUSH2 0x10E JUMPI PUSH1 0x0 SWAP1 POP PUSH2 0x11D JUMP JUMPDEST DUP2 DUP4 PUSH2 0x11A SWAP2 SWAP1 PUSH2 0x224 JUMP JUMPDEST SWAP1 POP JUMPDEST SWAP3 SWAP2 POP POP JUMP JUMPDEST PUSH1 0x0 DUP1 DUP4 SUB PUSH2 0x135 JUMPI PUSH1 0x0 SWAP1 POP PUSH2 0x14A JUMP JUMPDEST PUSH1 0x0 DUP3 DUP5 PUSH2 0x143 SWAP2 SWAP1 PUSH2 0x224 JUMP JUMPDEST SWAP1 POP DUP1 SWAP2 POP POP JUMPDEST SWAP3 SWAP2 POP POP JUMP JUMPDEST PUSH1 0x0 DUP1 REVERT JUMPDEST PUSH1 0x0 DUP2 SWAP1 POP SWAP2 SWAP1 POP JUMP JUMPDEST PUSH2 0x168 DUP2 PUSH2 0x155 JUMP JUMPDEST DUP2 EQ PUSH2 0x173 JUMPI PUSH1 0x0 DUP1 REVERT JUMPDEST POP JUMP JUMPDEST PUSH1 0x0 DUP2 CALLDATALOAD SWAP1 POP PUSH2 0x185 DUP2 PUSH2 0x15F JUMP JUMPDEST SWAP3 SWAP2 POP POP JUMP JUMPDEST PUSH1 0x0 DUP1 PUSH1 0x40 DUP4 DUP6 SUB SLT ISZERO PUSH2 0x1A2 JUMPI PUSH2 0x1A1 PUSH2 0x150 JUMP JUMPDEST JUMPDEST PUSH1 0x0 PUSH2 0x1B0 DUP6 DUP3 DUP7 ADD PUSH2 0x176 JUMP JUMPDEST SWAP3 POP POP PUSH1 0x20 PUSH2 0x1C1 DUP6 DUP3 DUP7 ADD PUSH2 0x176 JUMP JUMPDEST SWAP2 POP POP SWAP3 POP SWAP3 SWAP1 POP JUMP JUMPDEST PUSH2 0x1D4 DUP2 PUSH2 0x155 JUMP JUMPDEST DUP3 MSTORE POP POP JUMP JUMPDEST PUSH1 0x0 PUSH1 0x20 DUP3 ADD SWAP1 POP PUSH2 0x1EF PUSH1 0x0 DUP4 ADD DUP5 PUSH2 0x1CB JUMP JUMPDEST SWAP3 SWAP2 POP POP JUMP JUMPDEST PUSH32 0x4E487B7100000000000000000000000000000000000000000000000000000000 PUSH1 0x0 MSTORE PUSH1 0x11 PUSH1 0x4 MSTORE PUSH1 0x24 PUSH1 0x0 REVERT JUMPDEST PUSH1 0x0 PUSH2 0x22F DUP3 PUSH2 0x155 JUMP JUMPDEST SWAP2 POP PUSH2 0x23A DUP4 PUSH2 0x155 JUMP JUMPDEST SWAP3 POP DUP3 PUSH32 0xFFFFFFFFFFFFFFFFFFFFFFFFFFFFFFFFFFFFFFFFFFFFFFFFFFFFFFFFFFFFFFFF SUB DUP3 GT ISZERO PUSH2 0x26F JUMPI PUSH2 0x26E PUSH2 0x1F5 JUMP JUMPDEST JUMPDEST DUP3 DUP3 ADD SWAP1 POP SWAP3 SWAP2 POP POP JUMP INVALID LOG2 PUSH5 0x6970667358 0x22 SLT KECCAK256 0xD0 JUMPDEST PUSH24 0xF22FEC5B1032AFF08E1D85FEA1D0F9EF0ECEF147C79F0349 DUP16 0xB8 0xDE ORIGIN 0xDB PUSH5 0x736F6C6343 STOP ADDMOD 0xF STOP CALLER PUSH1 0x80 PUSH1 0x40 MSTORE CALLVALUE DUP1 ISZERO PUSH2 0x10 JUMPI PUSH1 0x0 DUP1 REVERT JUMPDEST POP PUSH2 0x2AB DUP1 PUSH2 0x20 PUSH1 0x0 CODECOPY PUSH1 0x0 RETURN INVALID PUSH1 0x80 PUSH1 0x40 MSTORE CALLVALUE DUP1 ISZERO PUSH2 0x10 JUMPI PUSH1 0x0 DUP1 REVERT JUMPDEST POP PUSH1 0x4 CALLDATASIZE LT PUSH2 0x36 JUMPI PUSH1 0x0 CALLDATALOAD PUSH1 0xE0 SHR DUP1 PUSH4 0x7C26710 EQ PUSH2 0x3B JUMPI DUP1 PUSH4 0xD6238A42 EQ PUSH2 0x6B JUMPI JUMPDEST PUSH1 0x0 DUP1 REVERT JUMPDEST PUSH2 0x55 PUSH1 0x4 DUP1 CALLDATASIZE SUB DUP2 ADD SWAP1 PUSH2 0x50 SWAP2 SWAP1 PUSH2 0x152 JUMP JUMPDEST PUSH2 0x9B JUMP JUMPDEST PUSH1 0x40 MLOAD PUSH2 0x62 SWAP2 SWAP1 PUSH2 0x1A1 JUMP JUMPDEST PUSH1 0x40 MLOAD DUP1 SWAP2 SUB SWAP1 RETURN JUMPDEST PUSH2 0x85 PUSH1 0x4 DUP1 CALLDATASIZE SUB DUP2 ADD SWAP1 PUSH2 0x80 SWAP2 SWAP1 PUSH2 0x152 JUMP JUMPDEST PUSH2 0xD8 JUMP JUMPDEST PUSH1 0x40 MLOAD PUSH2 0x92 SWAP2 SWAP1 PUSH2 0x1A1 JUMP JUMPDEST PUSH1 0x40 MLOAD DUP1 SWAP2 SUB SWAP1 RETURN JUMPDEST PUSH1 0x0 PUSH1 0x1 DUP4 GT ISZERO PUSH2 0xC3 JUMPI PUSH1 0x1 DUP3 GT ISZERO PUSH2 0xC2 JUMPI DUP2 DUP4 PUSH2 0xBB SWAP2 SWAP1 PUSH2 0x1EB JUMP JUMPDEST SWAP1 POP PUSH2 0xD2 JUMP JUMPDEST JUMPDEST DUP2 DUP4 PUSH2 0xCF SWAP2 SWAP1 PUSH2 0x241 JUMP JUMPDEST SWAP1 POP JUMPDEST SWAP3 SWAP2 POP POP JUMP JUMPDEST PUSH1 0x0 PUSH1 0x1 DUP4 GT DUP1 ISZERO PUSH2 0xEA JUMPI POP PUSH1 0x1 DUP3 GT JUMPDEST ISZERO PUSH2 0x102 JUMPI DUP2 DUP4 PUSH2 0xFB SWAP2 SWAP1 PUSH2 0x1EB JUMP JUMPDEST SWAP1 POP PUSH2 0x111 JUMP JUMPDEST DUP2 DUP4 PUSH2 0x10E SWAP2 SWAP1 PUSH2 0x241 JUMP JUMPDEST SWAP1 POP JUMPDEST SWAP3 SWAP2 POP POP JUMP JUMPDEST PUSH1 0x0 DUP1 REVERT JUMPDEST PUSH1 0x0 DUP2 SWAP1 POP SWAP2 SWAP1 POP JUMP JUMPDEST PUSH2 0x12F DUP2 PUSH2 0x11C JUMP JUMPDEST DUP2 EQ PUSH2 0x13A JUMPI PUSH1 0x0 DUP1 REVERT JUMPDEST POP JUMP JUMPDEST PUSH1 0x0 DUP2 CALLDATALOAD SWAP1 POP PUSH2 0x14C DUP2 PUSH2 0x126 JUMP JUMPDEST SWAP3 SWAP2 POP POP JUMP JUMPDEST PUSH1 0x0 DUP1 PUSH1 0x40 DUP4 DUP6 SUB SLT ISZERO PUSH2 0x169 JUMPI PUSH2 0x168 PUSH2 0x117 JUMP JUMPDEST JUMPDEST PUSH1 0x0 PUSH2 0x177 DUP6 DUP3 DUP7 ADD PUSH2 0x13D JUMP JUMPDEST SWAP3 POP POP PUSH1 0x20 PUSH2 0x188 DUP6 DUP3 DUP7 ADD PUSH2 0x13D JUMP JUMPDEST SWAP2 POP POP SWAP3 POP SWAP3 SWAP1 POP JUMP JUMPDEST PUSH2 0x19B DUP2 PUSH2 0x11C JUMP JUMPDEST DUP3 MSTORE POP POP JUMP JUMPDEST PUSH1 0x0 PUSH1 0x20 DUP3 ADD SWAP1 POP PUSH2 0x1B6 PUSH1 0x0 DUP4 ADD DUP5 PUSH2 0x192 JUMP JUMPDEST SWAP3 SWAP2 POP POP JUMP JUMPDEST PUSH32 0x4E487B7100000000000000000000000000000000000000000000000000000000 PUSH1 0x0 MSTORE PUSH1 0x11 PUSH1 0x4 MSTORE PUSH1 0x24 PUSH1 0x0 REVERT JUMPDEST PUSH1 0x0 PUSH2 0x1F6 DUP3 PUSH2 0x11C JUMP JUMPDEST SWAP2 POP PUSH2 0x201 DUP4 PUSH2 0x11C JUMP JUMPDEST SWAP3 POP DUP3 PUSH32 0xFFFFFFFFFFFFFFFFFFFFFFFFFFFFFFFFFFFFFFFFFFFFFFFFFFFFFFFFFFFFFFFF SUB DUP3 GT ISZERO PUSH2 0x236 JUMPI PUSH2 0x235 PUSH2 0x1BC JUMP JUMPDEST JUMPDEST DUP3 DUP3 ADD SWAP1 POP SWAP3 SWAP2 POP POP JUMP JUMPDEST PUSH1 0x0 PUSH2 0x24C DUP3 PUSH2 0x11C JUMP JUMPDEST SWAP2 POP PUSH2 0x257 DUP4 PUSH2 0x11C JUMP JUMPDEST SWAP3 POP DUP3 DUP3 LT ISZERO PUSH2 0x26A JUMPI PUSH2 0x269 PUSH2 0x1BC JUMP JUMPDEST JUMPDEST DUP3 DUP3 SUB SWAP1 POP SWAP3 SWAP2 POP POP JUMP INVALID LOG2 PUSH5 0x6970667358 0x22 SLT KECCAK256 SELFBALANCE PUSH16 0x8BA26FF2BE52A34CBC74D7D917E118DF 0x1E EQ 0xBD PUSH1 0x87 0xBA DUP13 0x2E CALLDATALOAD 0xEE PUSH15 0x74AFDC64736F6C634300080F003300 "
		},
		"gasEstimates": {
			"creation": {
				"codeDepositCost": "830600",
				"executionCost": "infinite",
				"totalCost": "infinite"
			},
			"external": {
				"computeIfSavedGas()": "infinite",
				"computeReturnGas()": "infinite",
				"computeUncheckedSavedGas()": "infinite",
				"testDemo()": "infinite"
			}
		},
		"methodIdentifiers": {
			"computeIfSavedGas()": "3b9883fe",
			"computeReturnGas()": "e833a040",
			"computeUncheckedSavedGas()": "62a04d68",
			"testDemo()": "1a0a0878"
		}
	},
	"abi": [
		{
			"anonymous": false,
			"inputs": [
				{
					"indexed": false,
					"internalType": "string",
					"name": "key",
					"type": "string"
				},
				{
					"indexed": false,
					"internalType": "uint256",
					"name": "val",
					"type": "uint256"
				}
			],
			"name": "log_named_uint",
			"type": "event"
		},
		{
			"inputs": [],
			"name": "computeIfSavedGas",
			"outputs": [
				{
					"internalType": "uint256",
					"name": "gasSaved",
					"type": "uint256"
				}
			],
			"stateMutability": "nonpayable",
			"type": "function"
		},
		{
			"inputs": [],
			"name": "computeReturnGas",
			"outputs": [],
			"stateMutability": "nonpayable",
			"type": "function"
		},
		{
			"inputs": [],
			"name": "computeUncheckedSavedGas",
			"outputs": [
				{
					"internalType": "uint256",
					"name": "gasSaved",
					"type": "uint256"
				}
			],
			"stateMutability": "nonpayable",
			"type": "function"
		},
		{
			"inputs": [],
			"name": "testDemo",
			"outputs": [],
			"stateMutability": "nonpayable",
			"type": "function"
		}
	]
}