{
	"data": {
		"bytecode": {
			"linkReferences": {
				"remix_tests.sol": {
					"Assert": [
						{
							"length": 20,
							"start": 945
						}
					]
				}
			},
			"object": "60806040526040516200001290620001c7565b604051809103906000f0801580156200002f573d6000803e3d6000fd5b506000806101000a81548173ffffffffffffffffffffffffffffffffffffffff021916908373ffffffffffffffffffffffffffffffffffffffff1602179055506040516200007d90620001d5565b604051809103906000f0801580156200009a573d6000803e3d6000fd5b50600160006101000a81548173ffffffffffffffffffffffffffffffffffffffff021916908373ffffffffffffffffffffffffffffffffffffffff160217905550604051620000e990620001e3565b604051809103906000f08015801562000106573d6000803e3d6000fd5b50600260006101000a81548173ffffffffffffffffffffffffffffffffffffffff021916908373ffffffffffffffffffffffffffffffffffffffff1602179055506040516200015590620001f1565b604051809103906000f08015801562000172573d6000803e3d6000fd5b50600360006101000a81548173ffffffffffffffffffffffffffffffffffffffff021916908373ffffffffffffffffffffffffffffffffffffffff160217905550348015620001c057600080fd5b50620001ff565b6104a7806200447083390190565b6102d0806200491783390190565b6102cb8062004be783390190565b6108038062004eb283390190565b614261806200020f6000396000f3fe60806040523480156200001157600080fd5b5060043610620000945760003560e01c80633b9883fe11620000635780633b9883fe146200010b57806362a04d68146200012d5780638d0cb3d3146200014f578063e833a04014620001715762000094565b80631a0a087814620000995780631e346c2214620000a55780632488774414620000c75780632e2d180314620000e9575b600080fd5b620000a36200017d565b005b620000af62000273565b604051620000be91906200143c565b60405180910390f35b620000d16200047d565b604051620000e091906200143c565b60405180910390f35b620000f362000898565b6040516200010291906200143c565b60405180910390f35b62000115620009b8565b6040516200012491906200143c565b60405180910390f35b6200013762000c5a565b6040516200014691906200143c565b60405180910390f35b6200015962000ec4565b6040516200016891906200143c565b60405180910390f35b6200017b62000fe4565b005b60005a9050600060019050600060029050600081836200019e919062001488565b905073__$acbfb1c35000d78352310b16a054a6b106$__63abcd79608260036040518363ffffffff1660e01b8152600401620001dc92919062001557565b602060405180830381865af4158015620001fa573d6000803e3d6000fd5b505050506040513d601f19601f82011682018060405250810190620002209190620015db565b5050505060005a90507fb2de2fbe801a0df6c0cbddfd448ba3c41d48a040ca35c56c8196ef0fcae721a881836200025891906200160d565b604051620002679190620016a9565b60405180910390a15050565b6000806040516200028490620013ce565b604051809103906000f080158015620002a1573d6000803e3d6000fd5b50905060005a90508173ffffffffffffffffffffffffffffffffffffffff1663f8a8fd6d6040518163ffffffff1660e01b81526004016020604051808303816000875af1158015620002f7573d6000803e3d6000fd5b505050506040513d601f19601f820116820180604052508101906200031d91906200170c565b5060005a9050600081836200033391906200160d565b90507fb2de2fbe801a0df6c0cbddfd448ba3c41d48a040ca35c56c8196ef0fcae721a8816040516200036691906200178e565b60405180910390a160006040516200037e90620013dc565b604051809103906000f0801580156200039b573d6000803e3d6000fd5b5090505a93508073ffffffffffffffffffffffffffffffffffffffff1663f8a8fd6d6040518163ffffffff1660e01b81526004016020604051808303816000875af1158015620003ef573d6000803e3d6000fd5b505050506040513d601f19601f820116820180604052508101906200041591906200170c565b505a9250600083856200042991906200160d565b90507fb2de2fbe801a0df6c0cbddfd448ba3c41d48a040ca35c56c8196ef0fcae721a8816040516200045c919062001810565b60405180910390a180836200047291906200160d565b965050505050505090565b60008060009050600360009054906101000a900473ffffffffffffffffffffffffffffffffffffffff1673ffffffffffffffffffffffffffffffffffffffff1663e30081a061beef6040518263ffffffff1660e01b8152600401620004e3919062001887565b600060405180830381600087803b158015620004fe57600080fd5b505af115801562000513573d6000803e3d6000fd5b5050505060005a9050600360009054906101000a900473ffffffffffffffffffffffffffffffffffffffff1673ffffffffffffffffffffffffffffffffffffffff166342966c68836040518263ffffffff1660e01b81526004016200057991906200143c565b600060405180830381600087803b1580156200059457600080fd5b505af1158015620005a9573d6000803e3d6000fd5b5050505060005a905060008183620005c291906200160d565b9050600360009054906101000a900473ffffffffffffffffffffffffffffffffffffffff1673ffffffffffffffffffffffffffffffffffffffff1663e30081a061beef6040518263ffffffff1660e01b815260040162000623919062001887565b600060405180830381600087803b1580156200063e57600080fd5b505af115801562000653573d6000803e3d6000fd5b505050505a9250600360009054906101000a900473ffffffffffffffffffffffffffffffffffffffff1673ffffffffffffffffffffffffffffffffffffffff166368fcd9d2856040518263ffffffff1660e01b8152600401620006b791906200143c565b600060405180830381600087803b158015620006d257600080fd5b505af1158015620006e7573d6000803e3d6000fd5b505050505a915060008284620006fe91906200160d565b90507fb2de2fbe801a0df6c0cbddfd448ba3c41d48a040ca35c56c8196ef0fcae721a881836200072f91906200160d565b6040516200073e9190620018f4565b60405180910390a1600360009054906101000a900473ffffffffffffffffffffffffffffffffffffffff1673ffffffffffffffffffffffffffffffffffffffff1663e30081a061beef6040518263ffffffff1660e01b8152600401620007a5919062001887565b600060405180830381600087803b158015620007c057600080fd5b505af1158015620007d5573d6000803e3d6000fd5b505050505a9350600360009054906101000a900473ffffffffffffffffffffffffffffffffffffffff1673ffffffffffffffffffffffffffffffffffffffff166342966c68866040518263ffffffff1660e01b81526004016200083991906200143c565b600060405180830381600087803b1580156200085457600080fd5b505af115801562000869573d6000803e3d6000fd5b505050505a925082846200087e91906200160d565b915080826200088e91906200160d565b9550505050505090565b6000805a90506000604051620008ae90620013e9565b604051809103906000f080158015620008cb573d6000803e3d6000fd5b50905060005a905060008184620008e391906200160d565b90507fb2de2fbe801a0df6c0cbddfd448ba3c41d48a040ca35c56c8196ef0fcae721a8816040516200091691906200178e565b60405180910390a15a935060006040516200093190620013f7565b604051809103906000f0801580156200094e573d6000803e3d6000fd5b5090505a9250600083866200096491906200160d565b90507fb2de2fbe801a0df6c0cbddfd448ba3c41d48a040ca35c56c8196ef0fcae721a88160405162000997919062001810565b60405180910390a18083620009ad91906200160d565b965050505050505090565b6000806002905060006002905060005a9050600260009054906101000a900473ffffffffffffffffffffffffffffffffffffffff1673ffffffffffffffffffffffffffffffffffffffff1663d6238a4284846040518363ffffffff1660e01b815260040162000a2992919062001926565b602060405180830381865afa15801562000a47573d6000803e3d6000fd5b505050506040513d601f19601f8201168201806040525081019062000a6d91906200170c565b5060005a90506000818362000a8391906200160d565b90505a9250600260009054906101000a900473ffffffffffffffffffffffffffffffffffffffff1673ffffffffffffffffffffffffffffffffffffffff166307c2671086866040518363ffffffff1660e01b815260040162000ae792919062001926565b602060405180830381865afa15801562000b05573d6000803e3d6000fd5b505050506040513d601f19601f8201168201806040525081019062000b2b91906200170c565b505a91506000828462000b3f91906200160d565b90507fb2de2fbe801a0df6c0cbddfd448ba3c41d48a040ca35c56c8196ef0fcae721a8818362000b7091906200160d565b60405162000b7f9190620018f4565b60405180910390a15a9350600260009054906101000a900473ffffffffffffffffffffffffffffffffffffffff1673ffffffffffffffffffffffffffffffffffffffff1663d6238a4287876040518363ffffffff1660e01b815260040162000be992919062001926565b602060405180830381865afa15801562000c07573d6000803e3d6000fd5b505050506040513d601f19601f8201168201806040525081019062000c2d91906200170c565b505a9250828462000c3f91906200160d565b9150808262000c4f91906200160d565b965050505050505090565b60008061beef905060006012905060005a905060008054906101000a900473ffffffffffffffffffffffffffffffffffffffff1673ffffffffffffffffffffffffffffffffffffffff166348a0046784846040518363ffffffff1660e01b815260040162000cca92919062001953565b600060405180830381600087803b15801562000ce557600080fd5b505af115801562000cfa573d6000803e3d6000fd5b5050505060005a90506000818362000d1391906200160d565b90505a925060008054906101000a900473ffffffffffffffffffffffffffffffffffffffff1673ffffffffffffffffffffffffffffffffffffffff16633624448186866040518363ffffffff1660e01b815260040162000d7592919062001953565b600060405180830381600087803b15801562000d9057600080fd5b505af115801562000da5573d6000803e3d6000fd5b505050505a91506000828462000dbc91906200160d565b90507fb2de2fbe801a0df6c0cbddfd448ba3c41d48a040ca35c56c8196ef0fcae721a8818362000ded91906200160d565b60405162000dfc9190620018f4565b60405180910390a15a935060008054906101000a900473ffffffffffffffffffffffffffffffffffffffff1673ffffffffffffffffffffffffffffffffffffffff166348a0046787876040518363ffffffff1660e01b815260040162000e6492919062001953565b600060405180830381600087803b15801562000e7f57600080fd5b505af115801562000e94573d6000803e3d6000fd5b505050505a9250828462000ea991906200160d565b9150808262000eb991906200160d565b965050505050505090565b6000805a9050600060405162000eda9062001405565b604051809103906000f08015801562000ef7573d6000803e3d6000fd5b50905060005a90506000818462000f0f91906200160d565b90507fb2de2fbe801a0df6c0cbddfd448ba3c41d48a040ca35c56c8196ef0fcae721a88160405162000f4291906200178e565b60405180910390a15a9350600060405162000f5d9062001413565b604051809103906000f08015801562000f7a573d6000803e3d6000fd5b5090505a92506000838662000f9091906200160d565b90507fb2de2fbe801a0df6c0cbddfd448ba3c41d48a040ca35c56c8196ef0fcae721a88160405162000fc3919062001810565b60405180910390a1808362000fd991906200160d565b965050505050505090565b60006001905060006002905060005a9050600160009054906101000a900473ffffffffffffffffffffffffffffffffffffffff1673ffffffffffffffffffffffffffffffffffffffff166376b8144984846040518363ffffffff1660e01b81526004016200105492919062001926565b602060405180830381865afa15801562001072573d6000803e3d6000fd5b505050506040513d601f19601f820116820180604052508101906200109891906200170c565b5060005a905060008183620010ae91906200160d565b90507fb2de2fbe801a0df6c0cbddfd448ba3c41d48a040ca35c56c8196ef0fcae721a881604051620010e19190620019d0565b60405180910390a15a9250600160009054906101000a900473ffffffffffffffffffffffffffffffffffffffff1673ffffffffffffffffffffffffffffffffffffffff166329fcda3386866040518363ffffffff1660e01b81526004016200114b92919062001926565b602060405180830381865afa15801562001169573d6000803e3d6000fd5b505050506040513d601f19601f820116820180604052508101906200118f91906200170c565b505a915060008284620011a391906200160d565b90507fb2de2fbe801a0df6c0cbddfd448ba3c41d48a040ca35c56c8196ef0fcae721a881604051620011d6919062001a52565b60405180910390a15a9350600160009054906101000a900473ffffffffffffffffffffffffffffffffffffffff1673ffffffffffffffffffffffffffffffffffffffff1662c3314f87876040518363ffffffff1660e01b81526004016200123f92919062001926565b602060405180830381865afa1580156200125d573d6000803e3d6000fd5b505050506040513d601f19601f820116820180604052508101906200128391906200170c565b505a9250600083856200129791906200160d565b90507fb2de2fbe801a0df6c0cbddfd448ba3c41d48a040ca35c56c8196ef0fcae721a881604051620012ca919062001ad4565b60405180910390a15a9450600160009054906101000a900473ffffffffffffffffffffffffffffffffffffffff1673ffffffffffffffffffffffffffffffffffffffff166376b8144988886040518363ffffffff1660e01b81526004016200133492919062001926565b602060405180830381865afa15801562001352573d6000803e3d6000fd5b505050506040513d601f19601f820116820180604052508101906200137891906200170c565b505a935083856200138a91906200160d565b92507fb2de2fbe801a0df6c0cbddfd448ba3c41d48a040ca35c56c8196ef0fcae721a883604051620013bd919062001b56565b60405180910390a150505050505050565b61013c8062001b8983390190565b60f88062001cc583390190565b610f5d8062001dbd83390190565b610d228062002d1a83390190565b6104158062003a3c83390190565b6103db8062003e5183390190565b6000819050919050565b620014368162001421565b82525050565b60006020820190506200145360008301846200142b565b92915050565b7f4e487b7100000000000000000000000000000000000000000000000000000000600052601160045260246000fd5b6000620014958262001421565b9150620014a28362001421565b9250827fffffffffffffffffffffffffffffffffffffffffffffffffffffffffffffffff03821115620014da57620014d962001459565b5b828201905092915050565b620014f08162001421565b82525050565b600082825260208201905092915050565b7f726573756c742073686f756c6420626520657175616c20746f20330000000000600082015250565b60006200153f601b83620014f6565b91506200154c8262001507565b602082019050919050565b60006060820190506200156e6000830185620014e5565b6200157d6020830184620014e5565b8181036040830152620015908162001530565b90509392505050565b600080fd5b60008115159050919050565b620015b5816200159e565b8114620015c157600080fd5b50565b600081519050620015d581620015aa565b92915050565b600060208284031215620015f457620015f362001599565b5b60006200160484828501620015c4565b91505092915050565b60006200161a8262001421565b9150620016278362001421565b9250828210156200163d576200163c62001459565b5b828203905092915050565b600082825260208201905092915050565b7f6761730000000000000000000000000000000000000000000000000000000000600082015250565b60006200169160038362001648565b91506200169e8262001659565b602082019050919050565b60006040820190508181036000830152620016c48162001682565b9050620016d560208301846200142b565b92915050565b620016e68162001421565b8114620016f257600080fd5b50565b6000815190506200170681620016db565b92915050565b60006020828403121562001725576200172462001599565b5b60006200173584828501620016f5565b91505092915050565b7f6761735573616765310000000000000000000000000000000000000000000000600082015250565b60006200177660098362001648565b915062001783826200173e565b602082019050919050565b60006040820190508181036000830152620017a98162001767565b9050620017ba60208301846200142b565b92915050565b7f6761735573616765320000000000000000000000000000000000000000000000600082015250565b6000620017f860098362001648565b91506200180582620017c0565b602082019050919050565b600060408201905081810360008301526200182b81620017e9565b90506200183c60208301846200142b565b92915050565b600073ffffffffffffffffffffffffffffffffffffffff82169050919050565b60006200186f8262001842565b9050919050565b620018818162001862565b82525050565b60006020820190506200189e600083018462001876565b92915050565b7f6761735361766564000000000000000000000000000000000000000000000000600082015250565b6000620018dc60088362001648565b9150620018e982620018a4565b602082019050919050565b600060408201905081810360008301526200190f81620018cd565b90506200192060208301846200142b565b92915050565b60006040820190506200193d60008301856200142b565b6200194c60208301846200142b565b9392505050565b60006040820190506200196a600083018562001876565b6200197960208301846200142b565b9392505050565b7f6761733100000000000000000000000000000000000000000000000000000000600082015250565b6000620019b860048362001648565b9150620019c58262001980565b602082019050919050565b60006040820190508181036000830152620019eb81620019a9565b9050620019fc60208301846200142b565b92915050565b7f6761733200000000000000000000000000000000000000000000000000000000600082015250565b600062001a3a60048362001648565b915062001a478262001a02565b602082019050919050565b6000604082019050818103600083015262001a6d8162001a2b565b905062001a7e60208301846200142b565b92915050565b7f6761733300000000000000000000000000000000000000000000000000000000600082015250565b600062001abc60048362001648565b915062001ac98262001a84565b602082019050919050565b6000604082019050818103600083015262001aef8162001aad565b905062001b0060208301846200142b565b92915050565b7f6761735f31000000000000000000000000000000000000000000000000000000600082015250565b600062001b3e60058362001648565b915062001b4b8262001b06565b602082019050919050565b6000604082019050818103600083015262001b718162001b2f565b905062001b8260208301846200142b565b9291505056fe608060405260008060006101000a81548160ff02191690831515021790555034801561002a57600080fd5b506101028061003a6000396000f3fe6080604052348015600f57600080fd5b506004361060285760003560e01c8063f8a8fd6d14602d575b600080fd5b60336047565b604051603e919060b3565b60405180910390f35b60008060009054906101000a900460ff1615606157600080fd5b60016000806101000a81548160ff0219169083151502179055506003905060008060006101000a81548160ff02191690831515021790555090565b6000819050919050565b60ad81609c565b82525050565b600060208201905060c6600083018460a6565b9291505056fea26469706673582212205ee7d78a07167db039a1fe7cd4dea7f347c5d7ac1cef5797e31c5c7e8ab12c9c64736f6c634300080f00336080604052600160005534801561001557600080fd5b5060d4806100246000396000f3fe6080604052348015600f57600080fd5b506004361060285760003560e01c8063f8a8fd6d14602d575b600080fd5b60336047565b604051603e91906085565b60405180910390f35b6000600160005414605757600080fd5b600260008190555060039050600160008190555090565b6000819050919050565b607f81606e565b82525050565b6000602082019050609860008301846078565b9291505056fea2646970667358221220a157466c36599d1af0e213432ba741fd6b54b6b2bd7c4e1a160aa94d09f2cc2164736f6c634300080f003360806040523480156200001157600080fd5b506040518060400160405280600b81526020017f53696d706c65546f6b656e0000000000000000000000000000000000000000008152506040518060400160405280600381526020017f53494d00000000000000000000000000000000000000000000000000000000008152506012826002908162000091919062000448565b508160039081620000a3919062000448565b5080600460006101000a81548160ff021916908360ff160217905550505050620000f533601260ff16600a620000da9190620006b2565b612710620000e9919062000703565b620000fb60201b60201c565b620007ef565b806000808282546200010e919062000764565b9250508190555080600160008473ffffffffffffffffffffffffffffffffffffffff1673ffffffffffffffffffffffffffffffffffffffff168152602001908152602001600020600082825401925050819055508173ffffffffffffffffffffffffffffffffffffffff16600073ffffffffffffffffffffffffffffffffffffffff167fddf252ad1be2c89b69c2b068fc378daa952ba7f163c4a11628f55a4df523b3ef83604051620001c29190620007d2565b60405180910390a35050565b600081519050919050565b7f4e487b7100000000000000000000000000000000000000000000000000000000600052604160045260246000fd5b7f4e487b7100000000000000000000000000000000000000000000000000000000600052602260045260246000fd5b600060028204905060018216806200025057607f821691505b60208210810362000266576200026562000208565b5b50919050565b60008190508160005260206000209050919050565b60006020601f8301049050919050565b600082821b905092915050565b600060088302620002d07fffffffffffffffffffffffffffffffffffffffffffffffffffffffffffffffff8262000291565b620002dc868362000291565b95508019841693508086168417925050509392505050565b6000819050919050565b6000819050919050565b600062000329620003236200031d84620002f4565b620002fe565b620002f4565b9050919050565b6000819050919050565b620003458362000308565b6200035d620003548262000330565b8484546200029e565b825550505050565b600090565b6200037462000365565b620003818184846200033a565b505050565b5b81811015620003a9576200039d6000826200036a565b60018101905062000387565b5050565b601f821115620003f857620003c2816200026c565b620003cd8462000281565b81016020851015620003dd578190505b620003f5620003ec8562000281565b83018262000386565b50505b505050565b600082821c905092915050565b60006200041d60001984600802620003fd565b1980831691505092915050565b60006200043883836200040a565b9150826002028217905092915050565b6200045382620001ce565b67ffffffffffffffff8111156200046f576200046e620001d9565b5b6200047b825462000237565b62000488828285620003ad565b600060209050601f831160018114620004c05760008415620004ab578287015190505b620004b785826200042a565b86555062000527565b601f198416620004d0866200026c565b60005b82811015620004fa57848901518255600182019150602085019450602081019050620004d3565b868310156200051a578489015162000516601f8916826200040a565b8355505b6001600288020188555050505b505050505050565b7f4e487b7100000000000000000000000000000000000000000000000000000000600052601160045260246000fd5b60008160011c9050919050565b6000808291508390505b6001851115620005bd578086048111156200059557620005946200052f565b5b6001851615620005a55780820291505b8081029050620005b5856200055e565b945062000575565b94509492505050565b600082620005d85760019050620006ab565b81620005e85760009050620006ab565b81600181146200060157600281146200060c5762000642565b6001915050620006ab565b60ff8411156200062157620006206200052f565b5b8360020a9150848211156200063b576200063a6200052f565b5b50620006ab565b5060208310610133831016604e8410600b84101617156200067c5782820a9050838111156200067657620006756200052f565b5b620006ab565b6200068b84848460016200056b565b92509050818404811115620006a557620006a46200052f565b5b81810290505b9392505050565b6000620006bf82620002f4565b9150620006cc83620002f4565b9250620006fb7fffffffffffffffffffffffffffffffffffffffffffffffffffffffffffffffff8484620005c6565b905092915050565b60006200071082620002f4565b91506200071d83620002f4565b9250817fffffffffffffffffffffffffffffffffffffffffffffffffffffffffffffffff04831182151516156200075957620007586200052f565b5b828202905092915050565b60006200077182620002f4565b91506200077e83620002f4565b9250827fffffffffffffffffffffffffffffffffffffffffffffffffffffffffffffffff03821115620007b657620007b56200052f565b5b828201905092915050565b620007cc81620002f4565b82525050565b6000602082019050620007e96000830184620007c1565b92915050565b61075e80620007ff6000396000f3fe608060405234801561001057600080fd5b506004361061007d5760003560e01c8063313ce5671161005b578063313ce567146100dc57806336244481146100fa57806348a004671461011657806370a08231146101325761007d565b806318160ddd146100825780632e0f2625146100a05780632ff2e9dc146100be575b600080fd5b61008a610162565b604051610097919061037d565b60405180910390f35b6100a8610168565b6040516100b591906103b4565b60405180910390f35b6100c661016d565b6040516100d3919061037d565b60405180910390f35b6100e461018e565b6040516100f191906103b4565b60405180910390f35b610114600480360381019061010f919061045e565b6101a5565b005b610130600480360381019061012b919061045e565b610274565b005b61014c6004803603810190610147919061049e565b61034c565b604051610159919061037d565b60405180910390f35b60005481565b601281565b601260ff16600a61017e919061062d565b61271061018b9190610678565b81565b6000600460009054906101000a900460ff16905090565b806000808282546101b691906106d2565b9250508190555080600160008473ffffffffffffffffffffffffffffffffffffffff1673ffffffffffffffffffffffffffffffffffffffff168152602001908152602001600020600082825401925050819055508173ffffffffffffffffffffffffffffffffffffffff16600073ffffffffffffffffffffffffffffffffffffffff167fddf252ad1be2c89b69c2b068fc378daa952ba7f163c4a11628f55a4df523b3ef83604051610268919061037d565b60405180910390a35050565b8060008082825461028591906106d2565b9250508190555080600160008473ffffffffffffffffffffffffffffffffffffffff1673ffffffffffffffffffffffffffffffffffffffff16815260200190815260200160002060008282546102db91906106d2565b925050819055508173ffffffffffffffffffffffffffffffffffffffff16600073ffffffffffffffffffffffffffffffffffffffff167fddf252ad1be2c89b69c2b068fc378daa952ba7f163c4a11628f55a4df523b3ef83604051610340919061037d565b60405180910390a35050565b60016020528060005260406000206000915090505481565b6000819050919050565b61037781610364565b82525050565b6000602082019050610392600083018461036e565b92915050565b600060ff82169050919050565b6103ae81610398565b82525050565b60006020820190506103c960008301846103a5565b92915050565b600080fd5b600073ffffffffffffffffffffffffffffffffffffffff82169050919050565b60006103ff826103d4565b9050919050565b61040f816103f4565b811461041a57600080fd5b50565b60008135905061042c81610406565b92915050565b61043b81610364565b811461044657600080fd5b50565b60008135905061045881610432565b92915050565b60008060408385031215610475576104746103cf565b5b60006104838582860161041d565b925050602061049485828601610449565b9150509250929050565b6000602082840312156104b4576104b36103cf565b5b60006104c28482850161041d565b91505092915050565b7f4e487b7100000000000000000000000000000000000000000000000000000000600052601160045260246000fd5b60008160011c9050919050565b6000808291508390505b60018511156105515780860481111561052d5761052c6104cb565b5b600185161561053c5780820291505b808102905061054a856104fa565b9450610511565b94509492505050565b60008261056a5760019050610626565b816105785760009050610626565b816001811461058e5760028114610598576105c7565b6001915050610626565b60ff8411156105aa576105a96104cb565b5b8360020a9150848211156105c1576105c06104cb565b5b50610626565b5060208310610133831016604e8410600b84101617156105fc5782820a9050838111156105f7576105f66104cb565b5b610626565b6106098484846001610507565b925090508184048111156106205761061f6104cb565b5b81810290505b9392505050565b600061063882610364565b915061064383610364565b92506106707fffffffffffffffffffffffffffffffffffffffffffffffffffffffffffffffff848461055a565b905092915050565b600061068382610364565b915061068e83610364565b9250817fffffffffffffffffffffffffffffffffffffffffffffffffffffffffffffffff04831182151516156106c7576106c66104cb565b5b828202905092915050565b60006106dd82610364565b91506106e883610364565b9250827fffffffffffffffffffffffffffffffffffffffffffffffffffffffffffffffff0382111561071d5761071c6104cb565b5b82820190509291505056fea26469706673582212206b2864e8b3ac8799b5fba59206b112e0b252353448602dbc64d6d743055eec5264736f6c634300080f003360806040523480156200001157600080fd5b506040518060400160405280600b81526020017f53696d706c65546f6b656e0000000000000000000000000000000000000000008152506040518060400160405280600381526020017f53494d0000000000000000000000000000000000000000000000000000000000815250601282600290816200009191906200046d565b508160039081620000a391906200046d565b5080600460006101000a81548160ff021916908360ff1602179055505050506200010333620000d76200010960201b60201c565b60ff16600a620000e89190620006d7565b612710620000f7919062000728565b6200012060201b60201c565b62000814565b6000600460009054906101000a900460ff16905090565b8060008082825462000133919062000789565b9250508190555080600160008473ffffffffffffffffffffffffffffffffffffffff1673ffffffffffffffffffffffffffffffffffffffff168152602001908152602001600020600082825401925050819055508173ffffffffffffffffffffffffffffffffffffffff16600073ffffffffffffffffffffffffffffffffffffffff167fddf252ad1be2c89b69c2b068fc378daa952ba7f163c4a11628f55a4df523b3ef83604051620001e79190620007f7565b60405180910390a35050565b600081519050919050565b7f4e487b7100000000000000000000000000000000000000000000000000000000600052604160045260246000fd5b7f4e487b7100000000000000000000000000000000000000000000000000000000600052602260045260246000fd5b600060028204905060018216806200027557607f821691505b6020821081036200028b576200028a6200022d565b5b50919050565b60008190508160005260206000209050919050565b60006020601f8301049050919050565b600082821b905092915050565b600060088302620002f57fffffffffffffffffffffffffffffffffffffffffffffffffffffffffffffffff82620002b6565b620003018683620002b6565b95508019841693508086168417925050509392505050565b6000819050919050565b6000819050919050565b60006200034e62000348620003428462000319565b62000323565b62000319565b9050919050565b6000819050919050565b6200036a836200032d565b62000382620003798262000355565b848454620002c3565b825550505050565b600090565b620003996200038a565b620003a68184846200035f565b505050565b5b81811015620003ce57620003c26000826200038f565b600181019050620003ac565b5050565b601f8211156200041d57620003e78162000291565b620003f284620002a6565b8101602085101562000402578190505b6200041a6200041185620002a6565b830182620003ab565b50505b505050565b600082821c905092915050565b6000620004426000198460080262000422565b1980831691505092915050565b60006200045d83836200042f565b9150826002028217905092915050565b6200047882620001f3565b67ffffffffffffffff811115620004945762000493620001fe565b5b620004a082546200025c565b620004ad828285620003d2565b600060209050601f831160018114620004e55760008415620004d0578287015190505b620004dc85826200044f565b8655506200054c565b601f198416620004f58662000291565b60005b828110156200051f57848901518255600182019150602085019450602081019050620004f8565b868310156200053f57848901516200053b601f8916826200042f565b8355505b6001600288020188555050505b505050505050565b7f4e487b7100000000000000000000000000000000000000000000000000000000600052601160045260246000fd5b60008160011c9050919050565b6000808291508390505b6001851115620005e257808604811115620005ba57620005b962000554565b5b6001851615620005ca5780820291505b8081029050620005da8562000583565b94506200059a565b94509492505050565b600082620005fd5760019050620006d0565b816200060d5760009050620006d0565b8160018114620006265760028114620006315762000667565b6001915050620006d0565b60ff84111562000646576200064562000554565b5b8360020a91508482111562000660576200065f62000554565b5b50620006d0565b5060208310610133831016604e8410600b8410161715620006a15782820a9050838111156200069b576200069a62000554565b5b620006d0565b620006b0848484600162000590565b92509050818404811115620006ca57620006c962000554565b5b81810290505b9392505050565b6000620006e48262000319565b9150620006f18362000319565b9250620007207fffffffffffffffffffffffffffffffffffffffffffffffffffffffffffffffff8484620005eb565b905092915050565b6000620007358262000319565b9150620007428362000319565b9250817fffffffffffffffffffffffffffffffffffffffffffffffffffffffffffffffff04831182151516156200077e576200077d62000554565b5b828202905092915050565b6000620007968262000319565b9150620007a38362000319565b9250827fffffffffffffffffffffffffffffffffffffffffffffffffffffffffffffffff03821115620007db57620007da62000554565b5b828201905092915050565b620007f18162000319565b82525050565b60006020820190506200080e6000830184620007e6565b92915050565b6104fe80620008246000396000f3fe608060405234801561001057600080fd5b50600436106100575760003560e01c806318160ddd1461005c578063313ce5671461007a578063362444811461009857806348a00467146100b457806370a08231146100d0575b600080fd5b610064610100565b60405161007191906102f5565b60405180910390f35b610082610106565b60405161008f919061032c565b60405180910390f35b6100b260048036038101906100ad91906103d6565b61011d565b005b6100ce60048036038101906100c991906103d6565b6101ec565b005b6100ea60048036038101906100e59190610416565b6102c4565b6040516100f791906102f5565b60405180910390f35b60005481565b6000600460009054906101000a900460ff16905090565b8060008082825461012e9190610472565b9250508190555080600160008473ffffffffffffffffffffffffffffffffffffffff1673ffffffffffffffffffffffffffffffffffffffff168152602001908152602001600020600082825401925050819055508173ffffffffffffffffffffffffffffffffffffffff16600073ffffffffffffffffffffffffffffffffffffffff167fddf252ad1be2c89b69c2b068fc378daa952ba7f163c4a11628f55a4df523b3ef836040516101e091906102f5565b60405180910390a35050565b806000808282546101fd9190610472565b9250508190555080600160008473ffffffffffffffffffffffffffffffffffffffff1673ffffffffffffffffffffffffffffffffffffffff16815260200190815260200160002060008282546102539190610472565b925050819055508173ffffffffffffffffffffffffffffffffffffffff16600073ffffffffffffffffffffffffffffffffffffffff167fddf252ad1be2c89b69c2b068fc378daa952ba7f163c4a11628f55a4df523b3ef836040516102b891906102f5565b60405180910390a35050565b60016020528060005260406000206000915090505481565b6000819050919050565b6102ef816102dc565b82525050565b600060208201905061030a60008301846102e6565b92915050565b600060ff82169050919050565b61032681610310565b82525050565b6000602082019050610341600083018461031d565b92915050565b600080fd5b600073ffffffffffffffffffffffffffffffffffffffff82169050919050565b60006103778261034c565b9050919050565b6103878161036c565b811461039257600080fd5b50565b6000813590506103a48161037e565b92915050565b6103b3816102dc565b81146103be57600080fd5b50565b6000813590506103d0816103aa565b92915050565b600080604083850312156103ed576103ec610347565b5b60006103fb85828601610395565b925050602061040c858286016103c1565b9150509250929050565b60006020828403121561042c5761042b610347565b5b600061043a84828501610395565b91505092915050565b7f4e487b7100000000000000000000000000000000000000000000000000000000600052601160045260246000fd5b600061047d826102dc565b9150610488836102dc565b9250827fffffffffffffffffffffffffffffffffffffffffffffffffffffffffffffffff038211156104bd576104bc610443565b5b82820190509291505056fea2646970667358221220d2a66ddd720ffb397b84415c44f7b0d762ea519a1bd611a61a71ddbbdc120d5c64736f6c634300080f0033608060405234801561001057600080fd5b5061001f6100ba60201b60201c565b6000806101000a81548173ffffffffffffffffffffffffffffffffffffffff021916908373ffffffffffffffffffffffffffffffffffffffff1602179055507f4101e71e974f68df5e9730cc223280b41654676bbb052cdcc735c3337e64d2d960008054906101000a900473ffffffffffffffffffffffffffffffffffffffff166040516100ad9190610103565b60405180910390a161011e565b600033905090565b600073ffffffffffffffffffffffffffffffffffffffff82169050919050565b60006100ed826100c2565b9050919050565b6100fd816100e2565b82525050565b600060208201905061011860008301846100f4565b92915050565b6102e88061012d6000396000f3fe608060405234801561001057600080fd5b506004361061002b5760003560e01c80632348238c14610030575b600080fd5b61004a600480360381019061004591906101b8565b61004c565b005b600073ffffffffffffffffffffffffffffffffffffffff168173ffffffffffffffffffffffffffffffffffffffff16036100bb576040517f08c379a00000000000000000000000000000000000000000000000000000000081526004016100b290610268565b60405180910390fd5b806000806101000a81548173ffffffffffffffffffffffffffffffffffffffff021916908373ffffffffffffffffffffffffffffffffffffffff1602179055507f4101e71e974f68df5e9730cc223280b41654676bbb052cdcc735c3337e64d2d960008054906101000a900473ffffffffffffffffffffffffffffffffffffffff1660405161014a9190610297565b60405180910390a150565b600080fd5b600073ffffffffffffffffffffffffffffffffffffffff82169050919050565b60006101858261015a565b9050919050565b6101958161017a565b81146101a057600080fd5b50565b6000813590506101b28161018c565b92915050565b6000602082840312156101ce576101cd610155565b5b60006101dc848285016101a3565b91505092915050565b600082825260208201905092915050565b7f5365636f6e646172793a206e6577207072696d61727920697320746865207a6560008201527f726f206164647265737300000000000000000000000000000000000000000000602082015250565b6000610252602a836101e5565b915061025d826101f6565b604082019050919050565b6000602082019050818103600083015261028181610245565b9050919050565b6102918161017a565b82525050565b60006020820190506102ac6000830184610288565b9291505056fea2646970667358221220fad0040ae9dfecd66f0b9c478bc9d6786b66e6962f00c4b165d4515ae05b465064736f6c634300080f0033608060405234801561001057600080fd5b5060006100216100a060201b60201c565b9050806000806101000a81548173ffffffffffffffffffffffffffffffffffffffff021916908373ffffffffffffffffffffffffffffffffffffffff1602179055507f4101e71e974f68df5e9730cc223280b41654676bbb052cdcc735c3337e64d2d98160405161009291906100e9565b60405180910390a150610104565b600033905090565b600073ffffffffffffffffffffffffffffffffffffffff82169050919050565b60006100d3826100a8565b9050919050565b6100e3816100c8565b82525050565b60006020820190506100fe60008301846100da565b92915050565b6102c8806101136000396000f3fe608060405234801561001057600080fd5b506004361061002b5760003560e01c80632348238c14610030575b600080fd5b61004a60048036038101906100459190610198565b61004c565b005b600073ffffffffffffffffffffffffffffffffffffffff168173ffffffffffffffffffffffffffffffffffffffff16036100bb576040517f08c379a00000000000000000000000000000000000000000000000000000000081526004016100b290610248565b60405180910390fd5b806000806101000a81548173ffffffffffffffffffffffffffffffffffffffff021916908373ffffffffffffffffffffffffffffffffffffffff1602179055507f4101e71e974f68df5e9730cc223280b41654676bbb052cdcc735c3337e64d2d98160405161012a9190610277565b60405180910390a150565b600080fd5b600073ffffffffffffffffffffffffffffffffffffffff82169050919050565b60006101658261013a565b9050919050565b6101758161015a565b811461018057600080fd5b50565b6000813590506101928161016c565b92915050565b6000602082840312156101ae576101ad610135565b5b60006101bc84828501610183565b91505092915050565b600082825260208201905092915050565b7f5365636f6e646172793a206e6577207072696d61727920697320746865207a6560008201527f726f206164647265737300000000000000000000000000000000000000000000602082015250565b6000610232602a836101c5565b915061023d826101d6565b604082019050919050565b6000602082019050818103600083015261026181610225565b9050919050565b6102718161015a565b82525050565b600060208201905061028c6000830184610268565b9291505056fea2646970667358221220599e39fea795f052a3e784256bb8b72d33a65adeba74c39252062590bcf69dc064736f6c634300080f0033a26469706673582212209eeddc6bcffa577778c83f36a0b23b1b6b0ea73fcdb97f3c606851d7577fdc0c64736f6c634300080f0033608060405234801561001057600080fd5b50610487806100206000396000f3fe608060405234801561001057600080fd5b506004361061004c5760003560e01c806318160ddd14610051578063362444811461006f57806348a004671461008b57806370a08231146100a7575b600080fd5b6100596100d7565b60405161006691906102b5565b60405180910390f35b6100896004803603810190610084919061035f565b6100dd565b005b6100a560048036038101906100a0919061035f565b6101ac565b005b6100c160048036038101906100bc919061039f565b610284565b6040516100ce91906102b5565b60405180910390f35b60005481565b806000808282546100ee91906103fb565b9250508190555080600160008473ffffffffffffffffffffffffffffffffffffffff1673ffffffffffffffffffffffffffffffffffffffff168152602001908152602001600020600082825401925050819055508173ffffffffffffffffffffffffffffffffffffffff16600073ffffffffffffffffffffffffffffffffffffffff167fddf252ad1be2c89b69c2b068fc378daa952ba7f163c4a11628f55a4df523b3ef836040516101a091906102b5565b60405180910390a35050565b806000808282546101bd91906103fb565b9250508190555080600160008473ffffffffffffffffffffffffffffffffffffffff1673ffffffffffffffffffffffffffffffffffffffff168152602001908152602001600020600082825461021391906103fb565b925050819055508173ffffffffffffffffffffffffffffffffffffffff16600073ffffffffffffffffffffffffffffffffffffffff167fddf252ad1be2c89b69c2b068fc378daa952ba7f163c4a11628f55a4df523b3ef8360405161027891906102b5565b60405180910390a35050565b60016020528060005260406000206000915090505481565b6000819050919050565b6102af8161029c565b82525050565b60006020820190506102ca60008301846102a6565b92915050565b600080fd5b600073ffffffffffffffffffffffffffffffffffffffff82169050919050565b6000610300826102d5565b9050919050565b610310816102f5565b811461031b57600080fd5b50565b60008135905061032d81610307565b92915050565b61033c8161029c565b811461034757600080fd5b50565b60008135905061035981610333565b92915050565b60008060408385031215610376576103756102d0565b5b60006103848582860161031e565b92505060206103958582860161034a565b9150509250929050565b6000602082840312156103b5576103b46102d0565b5b60006103c38482850161031e565b91505092915050565b7f4e487b7100000000000000000000000000000000000000000000000000000000600052601160045260246000fd5b60006104068261029c565b91506104118361029c565b9250827fffffffffffffffffffffffffffffffffffffffffffffffffffffffffffffffff03821115610446576104456103cc565b5b82820190509291505056fea2646970667358221220ee68b965c52b6a8c041c2d6dd651d53d6063144e1bc7a146132e0ea3a0a17a2864736f6c634300080f0033608060405234801561001057600080fd5b506102b0806100206000396000f3fe608060405234801561001057600080fd5b50600436106100405760003560e01c8062c3314f1461004557806329fcda331461007557806376b81449146100a5575b600080fd5b61005f600480360381019061005a919061018b565b6100d5565b60405161006c91906101da565b60405180910390f35b61008f600480360381019061008a919061018b565b6100fc565b60405161009c91906101da565b60405180910390f35b6100bf60048036038101906100ba919061018b565b610123565b6040516100cc91906101da565b60405180910390f35b60008083036100e757600090506100f6565b81836100f39190610224565b90505b92915050565b600080830361010e576000905061011d565b818361011a9190610224565b90505b92915050565b6000808303610135576000905061014a565b600082846101439190610224565b9050809150505b92915050565b600080fd5b6000819050919050565b61016881610155565b811461017357600080fd5b50565b6000813590506101858161015f565b92915050565b600080604083850312156101a2576101a1610150565b5b60006101b085828601610176565b92505060206101c185828601610176565b9150509250929050565b6101d481610155565b82525050565b60006020820190506101ef60008301846101cb565b92915050565b7f4e487b7100000000000000000000000000000000000000000000000000000000600052601160045260246000fd5b600061022f82610155565b915061023a83610155565b9250827fffffffffffffffffffffffffffffffffffffffffffffffffffffffffffffffff0382111561026f5761026e6101f5565b5b82820190509291505056fea2646970667358221220ed8ca2944386c610783809d23a675bf092f89556db645108cfe1bb235649c0ae64736f6c634300080f0033608060405234801561001057600080fd5b506102ab806100206000396000f3fe608060405234801561001057600080fd5b50600436106100365760003560e01c806307c267101461003b578063d6238a421461006b575b600080fd5b61005560048036038101906100509190610152565b61009b565b60405161006291906101a1565b60405180910390f35b61008560048036038101906100809190610152565b6100d8565b60405161009291906101a1565b60405180910390f35b600060018311156100c35760018211156100c25781836100bb91906101eb565b90506100d2565b5b81836100cf9190610241565b90505b92915050565b60006001831180156100ea5750600182115b156101025781836100fb91906101eb565b9050610111565b818361010e9190610241565b90505b92915050565b600080fd5b6000819050919050565b61012f8161011c565b811461013a57600080fd5b50565b60008135905061014c81610126565b92915050565b6000806040838503121561016957610168610117565b5b60006101778582860161013d565b92505060206101888582860161013d565b9150509250929050565b61019b8161011c565b82525050565b60006020820190506101b66000830184610192565b92915050565b7f4e487b7100000000000000000000000000000000000000000000000000000000600052601160045260246000fd5b60006101f68261011c565b91506102018361011c565b9250827fffffffffffffffffffffffffffffffffffffffffffffffffffffffffffffffff03821115610236576102356101bc565b5b828201905092915050565b600061024c8261011c565b91506102578361011c565b92508282101561026a576102696101bc565b5b82820390509291505056fea2646970667358221220476f8ba26ff2be52a34cbc74d7d917e118df1e14bd6087ba8c2e35ee6e74afdc64736f6c634300080f0033608060405234801561001057600080fd5b506107e3806100206000396000f3fe608060405234801561001057600080fd5b50600436106100625760003560e01c8063081812fc1461006757806342966c68146100975780636352211e146100b357806368fcd9d2146100e357806370a08231146100ff578063e30081a01461012f575b600080fd5b610081600480360381019061007c9190610624565b61014b565b60405161008e9190610692565b60405180910390f35b6100b160048036038101906100ac9190610624565b61017e565b005b6100cd60048036038101906100c89190610624565b61037d565b6040516100da9190610692565b60405180910390f35b6100fd60048036038101906100f89190610624565b6103b0565b005b610119600480360381019061011491906106d9565b61057c565b6040516101269190610715565b60405180910390f35b610149600480360381019061014491906106d9565b610594565b005b60026020528060005260406000206000915054906101000a900473ffffffffffffffffffffffffffffffffffffffff1681565b60006001600083815260200190815260200160002060009054906101000a900473ffffffffffffffffffffffffffffffffffffffff169050600073ffffffffffffffffffffffffffffffffffffffff166001600084815260200190815260200160002060009054906101000a900473ffffffffffffffffffffffffffffffffffffffff1673ffffffffffffffffffffffffffffffffffffffff1603610258576040517f08c379a000000000000000000000000000000000000000000000000000000000815260040161024f9061078d565b60405180910390fd5b6000808273ffffffffffffffffffffffffffffffffffffffff1673ffffffffffffffffffffffffffffffffffffffff16815260200190815260200160002060008154809291906001900391905055506001600083815260200190815260200160002060006101000a81549073ffffffffffffffffffffffffffffffffffffffff02191690556002600083815260200190815260200160002060006101000a81549073ffffffffffffffffffffffffffffffffffffffff0219169055600073ffffffffffffffffffffffffffffffffffffffff168173ffffffffffffffffffffffffffffffffffffffff167fddf252ad1be2c89b69c2b068fc378daa952ba7f163c4a11628f55a4df523b3ef846040516103719190610715565b60405180910390a35050565b60016020528060005260406000206000915054906101000a900473ffffffffffffffffffffffffffffffffffffffff1681565b60006001600083815260200190815260200160002060009054906101000a900473ffffffffffffffffffffffffffffffffffffffff169050600073ffffffffffffffffffffffffffffffffffffffff168173ffffffffffffffffffffffffffffffffffffffff1603610457576040517f08c379a000000000000000000000000000000000000000000000000000000000815260040161044e9061078d565b60405180910390fd5b6000808273ffffffffffffffffffffffffffffffffffffffff1673ffffffffffffffffffffffffffffffffffffffff16815260200190815260200160002060008154809291906001900391905055506001600083815260200190815260200160002060006101000a81549073ffffffffffffffffffffffffffffffffffffffff02191690556002600083815260200190815260200160002060006101000a81549073ffffffffffffffffffffffffffffffffffffffff0219169055600073ffffffffffffffffffffffffffffffffffffffff168173ffffffffffffffffffffffffffffffffffffffff167fddf252ad1be2c89b69c2b068fc378daa952ba7f163c4a11628f55a4df523b3ef846040516105709190610715565b60405180910390a35050565b60006020528060005260406000206000915090505481565b806001600080815260200190815260200160002060006101000a81548173ffffffffffffffffffffffffffffffffffffffff021916908373ffffffffffffffffffffffffffffffffffffffff16021790555050565b600080fd5b6000819050919050565b610601816105ee565b811461060c57600080fd5b50565b60008135905061061e816105f8565b92915050565b60006020828403121561063a576106396105e9565b5b60006106488482850161060f565b91505092915050565b600073ffffffffffffffffffffffffffffffffffffffff82169050919050565b600061067c82610651565b9050919050565b61068c81610671565b82525050565b60006020820190506106a76000830184610683565b92915050565b6106b681610671565b81146106c157600080fd5b50565b6000813590506106d3816106ad565b92915050565b6000602082840312156106ef576106ee6105e9565b5b60006106fd848285016106c4565b91505092915050565b61070f816105ee565b82525050565b600060208201905061072a6000830184610706565b92915050565b600082825260208201905092915050565b7f4e4f545f4d494e54454400000000000000000000000000000000000000000000600082015250565b6000610777600a83610730565b915061078282610741565b602082019050919050565b600060208201905081810360008301526107a68161076a565b905091905056fea26469706673582212201811a013f73fc3cd11c17cb8fd0599456cb7017a7dd70a3061ab069bb92bd81b64736f6c634300080f0033",
			"opcodes": "PUSH1 0x80 PUSH1 0x40 MSTORE PUSH1 0x40 MLOAD PUSH3 0x12 SWAP1 PUSH3 0x1C7 JUMP JUMPDEST PUSH1 0x40 MLOAD DUP1 SWAP2 SUB SWAP1 PUSH1 0x0 CREATE DUP1 ISZERO DUP1 ISZERO PUSH3 0x2F JUMPI RETURNDATASIZE PUSH1 0x0 DUP1 RETURNDATACOPY RETURNDATASIZE PUSH1 0x0 REVERT JUMPDEST POP PUSH1 0x0 DUP1 PUSH2 0x100 EXP DUP2 SLOAD DUP2 PUSH20 0xFFFFFFFFFFFFFFFFFFFFFFFFFFFFFFFFFFFFFFFF MUL NOT AND SWAP1 DUP4 PUSH20 0xFFFFFFFFFFFFFFFFFFFFFFFFFFFFFFFFFFFFFFFF AND MUL OR SWAP1 SSTORE POP PUSH1 0x40 MLOAD PUSH3 0x7D SWAP1 PUSH3 0x1D5 JUMP JUMPDEST PUSH1 0x40 MLOAD DUP1 SWAP2 SUB SWAP1 PUSH1 0x0 CREATE DUP1 ISZERO DUP1 ISZERO PUSH3 0x9A JUMPI RETURNDATASIZE PUSH1 0x0 DUP1 RETURNDATACOPY RETURNDATASIZE PUSH1 0x0 REVERT JUMPDEST POP PUSH1 0x1 PUSH1 0x0 PUSH2 0x100 EXP DUP2 SLOAD DUP2 PUSH20 0xFFFFFFFFFFFFFFFFFFFFFFFFFFFFFFFFFFFFFFFF MUL NOT AND SWAP1 DUP4 PUSH20 0xFFFFFFFFFFFFFFFFFFFFFFFFFFFFFFFFFFFFFFFF AND MUL OR SWAP1 SSTORE POP PUSH1 0x40 MLOAD PUSH3 0xE9 SWAP1 PUSH3 0x1E3 JUMP JUMPDEST PUSH1 0x40 MLOAD DUP1 SWAP2 SUB SWAP1 PUSH1 0x0 CREATE DUP1 ISZERO DUP1 ISZERO PUSH3 0x106 JUMPI RETURNDATASIZE PUSH1 0x0 DUP1 RETURNDATACOPY RETURNDATASIZE PUSH1 0x0 REVERT JUMPDEST POP PUSH1 0x2 PUSH1 0x0 PUSH2 0x100 EXP DUP2 SLOAD DUP2 PUSH20 0xFFFFFFFFFFFFFFFFFFFFFFFFFFFFFFFFFFFFFFFF MUL NOT AND SWAP1 DUP4 PUSH20 0xFFFFFFFFFFFFFFFFFFFFFFFFFFFFFFFFFFFFFFFF AND MUL OR SWAP1 SSTORE POP PUSH1 0x40 MLOAD PUSH3 0x155 SWAP1 PUSH3 0x1F1 JUMP JUMPDEST PUSH1 0x40 MLOAD DUP1 SWAP2 SUB SWAP1 PUSH1 0x0 CREATE DUP1 ISZERO DUP1 ISZERO PUSH3 0x172 JUMPI RETURNDATASIZE PUSH1 0x0 DUP1 RETURNDATACOPY RETURNDATASIZE PUSH1 0x0 REVERT JUMPDEST POP PUSH1 0x3 PUSH1 0x0 PUSH2 0x100 EXP DUP2 SLOAD DUP2 PUSH20 0xFFFFFFFFFFFFFFFFFFFFFFFFFFFFFFFFFFFFFFFF MUL NOT AND SWAP1 DUP4 PUSH20 0xFFFFFFFFFFFFFFFFFFFFFFFFFFFFFFFFFFFFFFFF AND MUL OR SWAP1 SSTORE POP CALLVALUE DUP1 ISZERO PUSH3 0x1C0 JUMPI PUSH1 0x0 DUP1 REVERT JUMPDEST POP PUSH3 0x1FF JUMP JUMPDEST PUSH2 0x4A7 DUP1 PUSH3 0x4470 DUP4 CODECOPY ADD SWAP1 JUMP JUMPDEST PUSH2 0x2D0 DUP1 PUSH3 0x4917 DUP4 CODECOPY ADD SWAP1 JUMP JUMPDEST PUSH2 0x2CB DUP1 PUSH3 0x4BE7 DUP4 CODECOPY ADD SWAP1 JUMP JUMPDEST PUSH2 0x803 DUP1 PUSH3 0x4EB2 DUP4 CODECOPY ADD SWAP1 JUMP JUMPDEST PUSH2 0x4261 DUP1 PUSH3 0x20F PUSH1 0x0 CODECOPY PUSH1 0x0 RETURN INVALID PUSH1 0x80 PUSH1 0x40 MSTORE CALLVALUE DUP1 ISZERO PUSH3 0x11 JUMPI PUSH1 0x0 DUP1 REVERT JUMPDEST POP PUSH1 0x4 CALLDATASIZE LT PUSH3 0x94 JUMPI PUSH1 0x0 CALLDATALOAD PUSH1 0xE0 SHR DUP1 PUSH4 0x3B9883FE GT PUSH3 0x63 JUMPI DUP1 PUSH4 0x3B9883FE EQ PUSH3 0x10B JUMPI DUP1 PUSH4 0x62A04D68 EQ PUSH3 0x12D JUMPI DUP1 PUSH4 0x8D0CB3D3 EQ PUSH3 0x14F JUMPI DUP1 PUSH4 0xE833A040 EQ PUSH3 0x171 JUMPI PUSH3 0x94 JUMP JUMPDEST DUP1 PUSH4 0x1A0A0878 EQ PUSH3 0x99 JUMPI DUP1 PUSH4 0x1E346C22 EQ PUSH3 0xA5 JUMPI DUP1 PUSH4 0x24887744 EQ PUSH3 0xC7 JUMPI DUP1 PUSH4 0x2E2D1803 EQ PUSH3 0xE9 JUMPI JUMPDEST PUSH1 0x0 DUP1 REVERT JUMPDEST PUSH3 0xA3 PUSH3 0x17D JUMP JUMPDEST STOP JUMPDEST PUSH3 0xAF PUSH3 0x273 JUMP JUMPDEST PUSH1 0x40 MLOAD PUSH3 0xBE SWAP2 SWAP1 PUSH3 0x143C JUMP JUMPDEST PUSH1 0x40 MLOAD DUP1 SWAP2 SUB SWAP1 RETURN JUMPDEST PUSH3 0xD1 PUSH3 0x47D JUMP JUMPDEST PUSH1 0x40 MLOAD PUSH3 0xE0 SWAP2 SWAP1 PUSH3 0x143C JUMP JUMPDEST PUSH1 0x40 MLOAD DUP1 SWAP2 SUB SWAP1 RETURN JUMPDEST PUSH3 0xF3 PUSH3 0x898 JUMP JUMPDEST PUSH1 0x40 MLOAD PUSH3 0x102 SWAP2 SWAP1 PUSH3 0x143C JUMP JUMPDEST PUSH1 0x40 MLOAD DUP1 SWAP2 SUB SWAP1 RETURN JUMPDEST PUSH3 0x115 PUSH3 0x9B8 JUMP JUMPDEST PUSH1 0x40 MLOAD PUSH3 0x124 SWAP2 SWAP1 PUSH3 0x143C JUMP JUMPDEST PUSH1 0x40 MLOAD DUP1 SWAP2 SUB SWAP1 RETURN JUMPDEST PUSH3 0x137 PUSH3 0xC5A JUMP JUMPDEST PUSH1 0x40 MLOAD PUSH3 0x146 SWAP2 SWAP1 PUSH3 0x143C JUMP JUMPDEST PUSH1 0x40 MLOAD DUP1 SWAP2 SUB SWAP1 RETURN JUMPDEST PUSH3 0x159 PUSH3 0xEC4 JUMP JUMPDEST PUSH1 0x40 MLOAD PUSH3 0x168 SWAP2 SWAP1 PUSH3 0x143C JUMP JUMPDEST PUSH1 0x40 MLOAD DUP1 SWAP2 SUB SWAP1 RETURN JUMPDEST PUSH3 0x17B PUSH3 0xFE4 JUMP JUMPDEST STOP JUMPDEST PUSH1 0x0 GAS SWAP1 POP PUSH1 0x0 PUSH1 0x1 SWAP1 POP PUSH1 0x0 PUSH1 0x2 SWAP1 POP PUSH1 0x0 DUP2 DUP4 PUSH3 0x19E SWAP2 SWAP1 PUSH3 0x1488 JUMP JUMPDEST SWAP1 POP PUSH20 0x0 PUSH4 0xABCD7960 DUP3 PUSH1 0x3 PUSH1 0x40 MLOAD DUP4 PUSH4 0xFFFFFFFF AND PUSH1 0xE0 SHL DUP2 MSTORE PUSH1 0x4 ADD PUSH3 0x1DC SWAP3 SWAP2 SWAP1 PUSH3 0x1557 JUMP JUMPDEST PUSH1 0x20 PUSH1 0x40 MLOAD DUP1 DUP4 SUB DUP2 DUP7 GAS DELEGATECALL ISZERO DUP1 ISZERO PUSH3 0x1FA JUMPI RETURNDATASIZE PUSH1 0x0 DUP1 RETURNDATACOPY RETURNDATASIZE PUSH1 0x0 REVERT JUMPDEST POP POP POP POP PUSH1 0x40 MLOAD RETURNDATASIZE PUSH1 0x1F NOT PUSH1 0x1F DUP3 ADD AND DUP3 ADD DUP1 PUSH1 0x40 MSTORE POP DUP2 ADD SWAP1 PUSH3 0x220 SWAP2 SWAP1 PUSH3 0x15DB JUMP JUMPDEST POP POP POP POP PUSH1 0x0 GAS SWAP1 POP PUSH32 0xB2DE2FBE801A0DF6C0CBDDFD448BA3C41D48A040CA35C56C8196EF0FCAE721A8 DUP2 DUP4 PUSH3 0x258 SWAP2 SWAP1 PUSH3 0x160D JUMP JUMPDEST PUSH1 0x40 MLOAD PUSH3 0x267 SWAP2 SWAP1 PUSH3 0x16A9 JUMP JUMPDEST PUSH1 0x40 MLOAD DUP1 SWAP2 SUB SWAP1 LOG1 POP POP JUMP JUMPDEST PUSH1 0x0 DUP1 PUSH1 0x40 MLOAD PUSH3 0x284 SWAP1 PUSH3 0x13CE JUMP JUMPDEST PUSH1 0x40 MLOAD DUP1 SWAP2 SUB SWAP1 PUSH1 0x0 CREATE DUP1 ISZERO DUP1 ISZERO PUSH3 0x2A1 JUMPI RETURNDATASIZE PUSH1 0x0 DUP1 RETURNDATACOPY RETURNDATASIZE PUSH1 0x0 REVERT JUMPDEST POP SWAP1 POP PUSH1 0x0 GAS SWAP1 POP DUP2 PUSH20 0xFFFFFFFFFFFFFFFFFFFFFFFFFFFFFFFFFFFFFFFF AND PUSH4 0xF8A8FD6D PUSH1 0x40 MLOAD DUP2 PUSH4 0xFFFFFFFF AND PUSH1 0xE0 SHL DUP2 MSTORE PUSH1 0x4 ADD PUSH1 0x20 PUSH1 0x40 MLOAD DUP1 DUP4 SUB DUP2 PUSH1 0x0 DUP8 GAS CALL ISZERO DUP1 ISZERO PUSH3 0x2F7 JUMPI RETURNDATASIZE PUSH1 0x0 DUP1 RETURNDATACOPY RETURNDATASIZE PUSH1 0x0 REVERT JUMPDEST POP POP POP POP PUSH1 0x40 MLOAD RETURNDATASIZE PUSH1 0x1F NOT PUSH1 0x1F DUP3 ADD AND DUP3 ADD DUP1 PUSH1 0x40 MSTORE POP DUP2 ADD SWAP1 PUSH3 0x31D SWAP2 SWAP1 PUSH3 0x170C JUMP JUMPDEST POP PUSH1 0x0 GAS SWAP1 POP PUSH1 0x0 DUP2 DUP4 PUSH3 0x333 SWAP2 SWAP1 PUSH3 0x160D JUMP JUMPDEST SWAP1 POP PUSH32 0xB2DE2FBE801A0DF6C0CBDDFD448BA3C41D48A040CA35C56C8196EF0FCAE721A8 DUP2 PUSH1 0x40 MLOAD PUSH3 0x366 SWAP2 SWAP1 PUSH3 0x178E JUMP JUMPDEST PUSH1 0x40 MLOAD DUP1 SWAP2 SUB SWAP1 LOG1 PUSH1 0x0 PUSH1 0x40 MLOAD PUSH3 0x37E SWAP1 PUSH3 0x13DC JUMP JUMPDEST PUSH1 0x40 MLOAD DUP1 SWAP2 SUB SWAP1 PUSH1 0x0 CREATE DUP1 ISZERO DUP1 ISZERO PUSH3 0x39B JUMPI RETURNDATASIZE PUSH1 0x0 DUP1 RETURNDATACOPY RETURNDATASIZE PUSH1 0x0 REVERT JUMPDEST POP SWAP1 POP GAS SWAP4 POP DUP1 PUSH20 0xFFFFFFFFFFFFFFFFFFFFFFFFFFFFFFFFFFFFFFFF AND PUSH4 0xF8A8FD6D PUSH1 0x40 MLOAD DUP2 PUSH4 0xFFFFFFFF AND PUSH1 0xE0 SHL DUP2 MSTORE PUSH1 0x4 ADD PUSH1 0x20 PUSH1 0x40 MLOAD DUP1 DUP4 SUB DUP2 PUSH1 0x0 DUP8 GAS CALL ISZERO DUP1 ISZERO PUSH3 0x3EF JUMPI RETURNDATASIZE PUSH1 0x0 DUP1 RETURNDATACOPY RETURNDATASIZE PUSH1 0x0 REVERT JUMPDEST POP POP POP POP PUSH1 0x40 MLOAD RETURNDATASIZE PUSH1 0x1F NOT PUSH1 0x1F DUP3 ADD AND DUP3 ADD DUP1 PUSH1 0x40 MSTORE POP DUP2 ADD SWAP1 PUSH3 0x415 SWAP2 SWAP1 PUSH3 0x170C JUMP JUMPDEST POP GAS SWAP3 POP PUSH1 0x0 DUP4 DUP6 PUSH3 0x429 SWAP2 SWAP1 PUSH3 0x160D JUMP JUMPDEST SWAP1 POP PUSH32 0xB2DE2FBE801A0DF6C0CBDDFD448BA3C41D48A040CA35C56C8196EF0FCAE721A8 DUP2 PUSH1 0x40 MLOAD PUSH3 0x45C SWAP2 SWAP1 PUSH3 0x1810 JUMP JUMPDEST PUSH1 0x40 MLOAD DUP1 SWAP2 SUB SWAP1 LOG1 DUP1 DUP4 PUSH3 0x472 SWAP2 SWAP1 PUSH3 0x160D JUMP JUMPDEST SWAP7 POP POP POP POP POP POP POP SWAP1 JUMP JUMPDEST PUSH1 0x0 DUP1 PUSH1 0x0 SWAP1 POP PUSH1 0x3 PUSH1 0x0 SWAP1 SLOAD SWAP1 PUSH2 0x100 EXP SWAP1 DIV PUSH20 0xFFFFFFFFFFFFFFFFFFFFFFFFFFFFFFFFFFFFFFFF AND PUSH20 0xFFFFFFFFFFFFFFFFFFFFFFFFFFFFFFFFFFFFFFFF AND PUSH4 0xE30081A0 PUSH2 0xBEEF PUSH1 0x40 MLOAD DUP3 PUSH4 0xFFFFFFFF AND PUSH1 0xE0 SHL DUP2 MSTORE PUSH1 0x4 ADD PUSH3 0x4E3 SWAP2 SWAP1 PUSH3 0x1887 JUMP JUMPDEST PUSH1 0x0 PUSH1 0x40 MLOAD DUP1 DUP4 SUB DUP2 PUSH1 0x0 DUP8 DUP1 EXTCODESIZE ISZERO DUP1 ISZERO PUSH3 0x4FE JUMPI PUSH1 0x0 DUP1 REVERT JUMPDEST POP GAS CALL ISZERO DUP1 ISZERO PUSH3 0x513 JUMPI RETURNDATASIZE PUSH1 0x0 DUP1 RETURNDATACOPY RETURNDATASIZE PUSH1 0x0 REVERT JUMPDEST POP POP POP POP PUSH1 0x0 GAS SWAP1 POP PUSH1 0x3 PUSH1 0x0 SWAP1 SLOAD SWAP1 PUSH2 0x100 EXP SWAP1 DIV PUSH20 0xFFFFFFFFFFFFFFFFFFFFFFFFFFFFFFFFFFFFFFFF AND PUSH20 0xFFFFFFFFFFFFFFFFFFFFFFFFFFFFFFFFFFFFFFFF AND PUSH4 0x42966C68 DUP4 PUSH1 0x40 MLOAD DUP3 PUSH4 0xFFFFFFFF AND PUSH1 0xE0 SHL DUP2 MSTORE PUSH1 0x4 ADD PUSH3 0x579 SWAP2 SWAP1 PUSH3 0x143C JUMP JUMPDEST PUSH1 0x0 PUSH1 0x40 MLOAD DUP1 DUP4 SUB DUP2 PUSH1 0x0 DUP8 DUP1 EXTCODESIZE ISZERO DUP1 ISZERO PUSH3 0x594 JUMPI PUSH1 0x0 DUP1 REVERT JUMPDEST POP GAS CALL ISZERO DUP1 ISZERO PUSH3 0x5A9 JUMPI RETURNDATASIZE PUSH1 0x0 DUP1 RETURNDATACOPY RETURNDATASIZE PUSH1 0x0 REVERT JUMPDEST POP POP POP POP PUSH1 0x0 GAS SWAP1 POP PUSH1 0x0 DUP2 DUP4 PUSH3 0x5C2 SWAP2 SWAP1 PUSH3 0x160D JUMP JUMPDEST SWAP1 POP PUSH1 0x3 PUSH1 0x0 SWAP1 SLOAD SWAP1 PUSH2 0x100 EXP SWAP1 DIV PUSH20 0xFFFFFFFFFFFFFFFFFFFFFFFFFFFFFFFFFFFFFFFF AND PUSH20 0xFFFFFFFFFFFFFFFFFFFFFFFFFFFFFFFFFFFFFFFF AND PUSH4 0xE30081A0 PUSH2 0xBEEF PUSH1 0x40 MLOAD DUP3 PUSH4 0xFFFFFFFF AND PUSH1 0xE0 SHL DUP2 MSTORE PUSH1 0x4 ADD PUSH3 0x623 SWAP2 SWAP1 PUSH3 0x1887 JUMP JUMPDEST PUSH1 0x0 PUSH1 0x40 MLOAD DUP1 DUP4 SUB DUP2 PUSH1 0x0 DUP8 DUP1 EXTCODESIZE ISZERO DUP1 ISZERO PUSH3 0x63E JUMPI PUSH1 0x0 DUP1 REVERT JUMPDEST POP GAS CALL ISZERO DUP1 ISZERO PUSH3 0x653 JUMPI RETURNDATASIZE PUSH1 0x0 DUP1 RETURNDATACOPY RETURNDATASIZE PUSH1 0x0 REVERT JUMPDEST POP POP POP POP GAS SWAP3 POP PUSH1 0x3 PUSH1 0x0 SWAP1 SLOAD SWAP1 PUSH2 0x100 EXP SWAP1 DIV PUSH20 0xFFFFFFFFFFFFFFFFFFFFFFFFFFFFFFFFFFFFFFFF AND PUSH20 0xFFFFFFFFFFFFFFFFFFFFFFFFFFFFFFFFFFFFFFFF AND PUSH4 0x68FCD9D2 DUP6 PUSH1 0x40 MLOAD DUP3 PUSH4 0xFFFFFFFF AND PUSH1 0xE0 SHL DUP2 MSTORE PUSH1 0x4 ADD PUSH3 0x6B7 SWAP2 SWAP1 PUSH3 0x143C JUMP JUMPDEST PUSH1 0x0 PUSH1 0x40 MLOAD DUP1 DUP4 SUB DUP2 PUSH1 0x0 DUP8 DUP1 EXTCODESIZE ISZERO DUP1 ISZERO PUSH3 0x6D2 JUMPI PUSH1 0x0 DUP1 REVERT JUMPDEST POP GAS CALL ISZERO DUP1 ISZERO PUSH3 0x6E7 JUMPI RETURNDATASIZE PUSH1 0x0 DUP1 RETURNDATACOPY RETURNDATASIZE PUSH1 0x0 REVERT JUMPDEST POP POP POP POP GAS SWAP2 POP PUSH1 0x0 DUP3 DUP5 PUSH3 0x6FE SWAP2 SWAP1 PUSH3 0x160D JUMP JUMPDEST SWAP1 POP PUSH32 0xB2DE2FBE801A0DF6C0CBDDFD448BA3C41D48A040CA35C56C8196EF0FCAE721A8 DUP2 DUP4 PUSH3 0x72F SWAP2 SWAP1 PUSH3 0x160D JUMP JUMPDEST PUSH1 0x40 MLOAD PUSH3 0x73E SWAP2 SWAP1 PUSH3 0x18F4 JUMP JUMPDEST PUSH1 0x40 MLOAD DUP1 SWAP2 SUB SWAP1 LOG1 PUSH1 0x3 PUSH1 0x0 SWAP1 SLOAD SWAP1 PUSH2 0x100 EXP SWAP1 DIV PUSH20 0xFFFFFFFFFFFFFFFFFFFFFFFFFFFFFFFFFFFFFFFF AND PUSH20 0xFFFFFFFFFFFFFFFFFFFFFFFFFFFFFFFFFFFFFFFF AND PUSH4 0xE30081A0 PUSH2 0xBEEF PUSH1 0x40 MLOAD DUP3 PUSH4 0xFFFFFFFF AND PUSH1 0xE0 SHL DUP2 MSTORE PUSH1 0x4 ADD PUSH3 0x7A5 SWAP2 SWAP1 PUSH3 0x1887 JUMP JUMPDEST PUSH1 0x0 PUSH1 0x40 MLOAD DUP1 DUP4 SUB DUP2 PUSH1 0x0 DUP8 DUP1 EXTCODESIZE ISZERO DUP1 ISZERO PUSH3 0x7C0 JUMPI PUSH1 0x0 DUP1 REVERT JUMPDEST POP GAS CALL ISZERO DUP1 ISZERO PUSH3 0x7D5 JUMPI RETURNDATASIZE PUSH1 0x0 DUP1 RETURNDATACOPY RETURNDATASIZE PUSH1 0x0 REVERT JUMPDEST POP POP POP POP GAS SWAP4 POP PUSH1 0x3 PUSH1 0x0 SWAP1 SLOAD SWAP1 PUSH2 0x100 EXP SWAP1 DIV PUSH20 0xFFFFFFFFFFFFFFFFFFFFFFFFFFFFFFFFFFFFFFFF AND PUSH20 0xFFFFFFFFFFFFFFFFFFFFFFFFFFFFFFFFFFFFFFFF AND PUSH4 0x42966C68 DUP7 PUSH1 0x40 MLOAD DUP3 PUSH4 0xFFFFFFFF AND PUSH1 0xE0 SHL DUP2 MSTORE PUSH1 0x4 ADD PUSH3 0x839 SWAP2 SWAP1 PUSH3 0x143C JUMP JUMPDEST PUSH1 0x0 PUSH1 0x40 MLOAD DUP1 DUP4 SUB DUP2 PUSH1 0x0 DUP8 DUP1 EXTCODESIZE ISZERO DUP1 ISZERO PUSH3 0x854 JUMPI PUSH1 0x0 DUP1 REVERT JUMPDEST POP GAS CALL ISZERO DUP1 ISZERO PUSH3 0x869 JUMPI RETURNDATASIZE PUSH1 0x0 DUP1 RETURNDATACOPY RETURNDATASIZE PUSH1 0x0 REVERT JUMPDEST POP POP POP POP GAS SWAP3 POP DUP3 DUP5 PUSH3 0x87E SWAP2 SWAP1 PUSH3 0x160D JUMP JUMPDEST SWAP2 POP DUP1 DUP3 PUSH3 0x88E SWAP2 SWAP1 PUSH3 0x160D JUMP JUMPDEST SWAP6 POP POP POP POP POP POP SWAP1 JUMP JUMPDEST PUSH1 0x0 DUP1 GAS SWAP1 POP PUSH1 0x0 PUSH1 0x40 MLOAD PUSH3 0x8AE SWAP1 PUSH3 0x13E9 JUMP JUMPDEST PUSH1 0x40 MLOAD DUP1 SWAP2 SUB SWAP1 PUSH1 0x0 CREATE DUP1 ISZERO DUP1 ISZERO PUSH3 0x8CB JUMPI RETURNDATASIZE PUSH1 0x0 DUP1 RETURNDATACOPY RETURNDATASIZE PUSH1 0x0 REVERT JUMPDEST POP SWAP1 POP PUSH1 0x0 GAS SWAP1 POP PUSH1 0x0 DUP2 DUP5 PUSH3 0x8E3 SWAP2 SWAP1 PUSH3 0x160D JUMP JUMPDEST SWAP1 POP PUSH32 0xB2DE2FBE801A0DF6C0CBDDFD448BA3C41D48A040CA35C56C8196EF0FCAE721A8 DUP2 PUSH1 0x40 MLOAD PUSH3 0x916 SWAP2 SWAP1 PUSH3 0x178E JUMP JUMPDEST PUSH1 0x40 MLOAD DUP1 SWAP2 SUB SWAP1 LOG1 GAS SWAP4 POP PUSH1 0x0 PUSH1 0x40 MLOAD PUSH3 0x931 SWAP1 PUSH3 0x13F7 JUMP JUMPDEST PUSH1 0x40 MLOAD DUP1 SWAP2 SUB SWAP1 PUSH1 0x0 CREATE DUP1 ISZERO DUP1 ISZERO PUSH3 0x94E JUMPI RETURNDATASIZE PUSH1 0x0 DUP1 RETURNDATACOPY RETURNDATASIZE PUSH1 0x0 REVERT JUMPDEST POP SWAP1 POP GAS SWAP3 POP PUSH1 0x0 DUP4 DUP7 PUSH3 0x964 SWAP2 SWAP1 PUSH3 0x160D JUMP JUMPDEST SWAP1 POP PUSH32 0xB2DE2FBE801A0DF6C0CBDDFD448BA3C41D48A040CA35C56C8196EF0FCAE721A8 DUP2 PUSH1 0x40 MLOAD PUSH3 0x997 SWAP2 SWAP1 PUSH3 0x1810 JUMP JUMPDEST PUSH1 0x40 MLOAD DUP1 SWAP2 SUB SWAP1 LOG1 DUP1 DUP4 PUSH3 0x9AD SWAP2 SWAP1 PUSH3 0x160D JUMP JUMPDEST SWAP7 POP POP POP POP POP POP POP SWAP1 JUMP JUMPDEST PUSH1 0x0 DUP1 PUSH1 0x2 SWAP1 POP PUSH1 0x0 PUSH1 0x2 SWAP1 POP PUSH1 0x0 GAS SWAP1 POP PUSH1 0x2 PUSH1 0x0 SWAP1 SLOAD SWAP1 PUSH2 0x100 EXP SWAP1 DIV PUSH20 0xFFFFFFFFFFFFFFFFFFFFFFFFFFFFFFFFFFFFFFFF AND PUSH20 0xFFFFFFFFFFFFFFFFFFFFFFFFFFFFFFFFFFFFFFFF AND PUSH4 0xD6238A42 DUP5 DUP5 PUSH1 0x40 MLOAD DUP4 PUSH4 0xFFFFFFFF AND PUSH1 0xE0 SHL DUP2 MSTORE PUSH1 0x4 ADD PUSH3 0xA29 SWAP3 SWAP2 SWAP1 PUSH3 0x1926 JUMP JUMPDEST PUSH1 0x20 PUSH1 0x40 MLOAD DUP1 DUP4 SUB DUP2 DUP7 GAS STATICCALL ISZERO DUP1 ISZERO PUSH3 0xA47 JUMPI RETURNDATASIZE PUSH1 0x0 DUP1 RETURNDATACOPY RETURNDATASIZE PUSH1 0x0 REVERT JUMPDEST POP POP POP POP PUSH1 0x40 MLOAD RETURNDATASIZE PUSH1 0x1F NOT PUSH1 0x1F DUP3 ADD AND DUP3 ADD DUP1 PUSH1 0x40 MSTORE POP DUP2 ADD SWAP1 PUSH3 0xA6D SWAP2 SWAP1 PUSH3 0x170C JUMP JUMPDEST POP PUSH1 0x0 GAS SWAP1 POP PUSH1 0x0 DUP2 DUP4 PUSH3 0xA83 SWAP2 SWAP1 PUSH3 0x160D JUMP JUMPDEST SWAP1 POP GAS SWAP3 POP PUSH1 0x2 PUSH1 0x0 SWAP1 SLOAD SWAP1 PUSH2 0x100 EXP SWAP1 DIV PUSH20 0xFFFFFFFFFFFFFFFFFFFFFFFFFFFFFFFFFFFFFFFF AND PUSH20 0xFFFFFFFFFFFFFFFFFFFFFFFFFFFFFFFFFFFFFFFF AND PUSH4 0x7C26710 DUP7 DUP7 PUSH1 0x40 MLOAD DUP4 PUSH4 0xFFFFFFFF AND PUSH1 0xE0 SHL DUP2 MSTORE PUSH1 0x4 ADD PUSH3 0xAE7 SWAP3 SWAP2 SWAP1 PUSH3 0x1926 JUMP JUMPDEST PUSH1 0x20 PUSH1 0x40 MLOAD DUP1 DUP4 SUB DUP2 DUP7 GAS STATICCALL ISZERO DUP1 ISZERO PUSH3 0xB05 JUMPI RETURNDATASIZE PUSH1 0x0 DUP1 RETURNDATACOPY RETURNDATASIZE PUSH1 0x0 REVERT JUMPDEST POP POP POP POP PUSH1 0x40 MLOAD RETURNDATASIZE PUSH1 0x1F NOT PUSH1 0x1F DUP3 ADD AND DUP3 ADD DUP1 PUSH1 0x40 MSTORE POP DUP2 ADD SWAP1 PUSH3 0xB2B SWAP2 SWAP1 PUSH3 0x170C JUMP JUMPDEST POP GAS SWAP2 POP PUSH1 0x0 DUP3 DUP5 PUSH3 0xB3F SWAP2 SWAP1 PUSH3 0x160D JUMP JUMPDEST SWAP1 POP PUSH32 0xB2DE2FBE801A0DF6C0CBDDFD448BA3C41D48A040CA35C56C8196EF0FCAE721A8 DUP2 DUP4 PUSH3 0xB70 SWAP2 SWAP1 PUSH3 0x160D JUMP JUMPDEST PUSH1 0x40 MLOAD PUSH3 0xB7F SWAP2 SWAP1 PUSH3 0x18F4 JUMP JUMPDEST PUSH1 0x40 MLOAD DUP1 SWAP2 SUB SWAP1 LOG1 GAS SWAP4 POP PUSH1 0x2 PUSH1 0x0 SWAP1 SLOAD SWAP1 PUSH2 0x100 EXP SWAP1 DIV PUSH20 0xFFFFFFFFFFFFFFFFFFFFFFFFFFFFFFFFFFFFFFFF AND PUSH20 0xFFFFFFFFFFFFFFFFFFFFFFFFFFFFFFFFFFFFFFFF AND PUSH4 0xD6238A42 DUP8 DUP8 PUSH1 0x40 MLOAD DUP4 PUSH4 0xFFFFFFFF AND PUSH1 0xE0 SHL DUP2 MSTORE PUSH1 0x4 ADD PUSH3 0xBE9 SWAP3 SWAP2 SWAP1 PUSH3 0x1926 JUMP JUMPDEST PUSH1 0x20 PUSH1 0x40 MLOAD DUP1 DUP4 SUB DUP2 DUP7 GAS STATICCALL ISZERO DUP1 ISZERO PUSH3 0xC07 JUMPI RETURNDATASIZE PUSH1 0x0 DUP1 RETURNDATACOPY RETURNDATASIZE PUSH1 0x0 REVERT JUMPDEST POP POP POP POP PUSH1 0x40 MLOAD RETURNDATASIZE PUSH1 0x1F NOT PUSH1 0x1F DUP3 ADD AND DUP3 ADD DUP1 PUSH1 0x40 MSTORE POP DUP2 ADD SWAP1 PUSH3 0xC2D SWAP2 SWAP1 PUSH3 0x170C JUMP JUMPDEST POP GAS SWAP3 POP DUP3 DUP5 PUSH3 0xC3F SWAP2 SWAP1 PUSH3 0x160D JUMP JUMPDEST SWAP2 POP DUP1 DUP3 PUSH3 0xC4F SWAP2 SWAP1 PUSH3 0x160D JUMP JUMPDEST SWAP7 POP POP POP POP POP POP POP SWAP1 JUMP JUMPDEST PUSH1 0x0 DUP1 PUSH2 0xBEEF SWAP1 POP PUSH1 0x0 PUSH1 0x12 SWAP1 POP PUSH1 0x0 GAS SWAP1 POP PUSH1 0x0 DUP1 SLOAD SWAP1 PUSH2 0x100 EXP SWAP1 DIV PUSH20 0xFFFFFFFFFFFFFFFFFFFFFFFFFFFFFFFFFFFFFFFF AND PUSH20 0xFFFFFFFFFFFFFFFFFFFFFFFFFFFFFFFFFFFFFFFF AND PUSH4 0x48A00467 DUP5 DUP5 PUSH1 0x40 MLOAD DUP4 PUSH4 0xFFFFFFFF AND PUSH1 0xE0 SHL DUP2 MSTORE PUSH1 0x4 ADD PUSH3 0xCCA SWAP3 SWAP2 SWAP1 PUSH3 0x1953 JUMP JUMPDEST PUSH1 0x0 PUSH1 0x40 MLOAD DUP1 DUP4 SUB DUP2 PUSH1 0x0 DUP8 DUP1 EXTCODESIZE ISZERO DUP1 ISZERO PUSH3 0xCE5 JUMPI PUSH1 0x0 DUP1 REVERT JUMPDEST POP GAS CALL ISZERO DUP1 ISZERO PUSH3 0xCFA JUMPI RETURNDATASIZE PUSH1 0x0 DUP1 RETURNDATACOPY RETURNDATASIZE PUSH1 0x0 REVERT JUMPDEST POP POP POP POP PUSH1 0x0 GAS SWAP1 POP PUSH1 0x0 DUP2 DUP4 PUSH3 0xD13 SWAP2 SWAP1 PUSH3 0x160D JUMP JUMPDEST SWAP1 POP GAS SWAP3 POP PUSH1 0x0 DUP1 SLOAD SWAP1 PUSH2 0x100 EXP SWAP1 DIV PUSH20 0xFFFFFFFFFFFFFFFFFFFFFFFFFFFFFFFFFFFFFFFF AND PUSH20 0xFFFFFFFFFFFFFFFFFFFFFFFFFFFFFFFFFFFFFFFF AND PUSH4 0x36244481 DUP7 DUP7 PUSH1 0x40 MLOAD DUP4 PUSH4 0xFFFFFFFF AND PUSH1 0xE0 SHL DUP2 MSTORE PUSH1 0x4 ADD PUSH3 0xD75 SWAP3 SWAP2 SWAP1 PUSH3 0x1953 JUMP JUMPDEST PUSH1 0x0 PUSH1 0x40 MLOAD DUP1 DUP4 SUB DUP2 PUSH1 0x0 DUP8 DUP1 EXTCODESIZE ISZERO DUP1 ISZERO PUSH3 0xD90 JUMPI PUSH1 0x0 DUP1 REVERT JUMPDEST POP GAS CALL ISZERO DUP1 ISZERO PUSH3 0xDA5 JUMPI RETURNDATASIZE PUSH1 0x0 DUP1 RETURNDATACOPY RETURNDATASIZE PUSH1 0x0 REVERT JUMPDEST POP POP POP POP GAS SWAP2 POP PUSH1 0x0 DUP3 DUP5 PUSH3 0xDBC SWAP2 SWAP1 PUSH3 0x160D JUMP JUMPDEST SWAP1 POP PUSH32 0xB2DE2FBE801A0DF6C0CBDDFD448BA3C41D48A040CA35C56C8196EF0FCAE721A8 DUP2 DUP4 PUSH3 0xDED SWAP2 SWAP1 PUSH3 0x160D JUMP JUMPDEST PUSH1 0x40 MLOAD PUSH3 0xDFC SWAP2 SWAP1 PUSH3 0x18F4 JUMP JUMPDEST PUSH1 0x40 MLOAD DUP1 SWAP2 SUB SWAP1 LOG1 GAS SWAP4 POP PUSH1 0x0 DUP1 SLOAD SWAP1 PUSH2 0x100 EXP SWAP1 DIV PUSH20 0xFFFFFFFFFFFFFFFFFFFFFFFFFFFFFFFFFFFFFFFF AND PUSH20 0xFFFFFFFFFFFFFFFFFFFFFFFFFFFFFFFFFFFFFFFF AND PUSH4 0x48A00467 DUP8 DUP8 PUSH1 0x40 MLOAD DUP4 PUSH4 0xFFFFFFFF AND PUSH1 0xE0 SHL DUP2 MSTORE PUSH1 0x4 ADD PUSH3 0xE64 SWAP3 SWAP2 SWAP1 PUSH3 0x1953 JUMP JUMPDEST PUSH1 0x0 PUSH1 0x40 MLOAD DUP1 DUP4 SUB DUP2 PUSH1 0x0 DUP8 DUP1 EXTCODESIZE ISZERO DUP1 ISZERO PUSH3 0xE7F JUMPI PUSH1 0x0 DUP1 REVERT JUMPDEST POP GAS CALL ISZERO DUP1 ISZERO PUSH3 0xE94 JUMPI RETURNDATASIZE PUSH1 0x0 DUP1 RETURNDATACOPY RETURNDATASIZE PUSH1 0x0 REVERT JUMPDEST POP POP POP POP GAS SWAP3 POP DUP3 DUP5 PUSH3 0xEA9 SWAP2 SWAP1 PUSH3 0x160D JUMP JUMPDEST SWAP2 POP DUP1 DUP3 PUSH3 0xEB9 SWAP2 SWAP1 PUSH3 0x160D JUMP JUMPDEST SWAP7 POP POP POP POP POP POP POP SWAP1 JUMP JUMPDEST PUSH1 0x0 DUP1 GAS SWAP1 POP PUSH1 0x0 PUSH1 0x40 MLOAD PUSH3 0xEDA SWAP1 PUSH3 0x1405 JUMP JUMPDEST PUSH1 0x40 MLOAD DUP1 SWAP2 SUB SWAP1 PUSH1 0x0 CREATE DUP1 ISZERO DUP1 ISZERO PUSH3 0xEF7 JUMPI RETURNDATASIZE PUSH1 0x0 DUP1 RETURNDATACOPY RETURNDATASIZE PUSH1 0x0 REVERT JUMPDEST POP SWAP1 POP PUSH1 0x0 GAS SWAP1 POP PUSH1 0x0 DUP2 DUP5 PUSH3 0xF0F SWAP2 SWAP1 PUSH3 0x160D JUMP JUMPDEST SWAP1 POP PUSH32 0xB2DE2FBE801A0DF6C0CBDDFD448BA3C41D48A040CA35C56C8196EF0FCAE721A8 DUP2 PUSH1 0x40 MLOAD PUSH3 0xF42 SWAP2 SWAP1 PUSH3 0x178E JUMP JUMPDEST PUSH1 0x40 MLOAD DUP1 SWAP2 SUB SWAP1 LOG1 GAS SWAP4 POP PUSH1 0x0 PUSH1 0x40 MLOAD PUSH3 0xF5D SWAP1 PUSH3 0x1413 JUMP JUMPDEST PUSH1 0x40 MLOAD DUP1 SWAP2 SUB SWAP1 PUSH1 0x0 CREATE DUP1 ISZERO DUP1 ISZERO PUSH3 0xF7A JUMPI RETURNDATASIZE PUSH1 0x0 DUP1 RETURNDATACOPY RETURNDATASIZE PUSH1 0x0 REVERT JUMPDEST POP SWAP1 POP GAS SWAP3 POP PUSH1 0x0 DUP4 DUP7 PUSH3 0xF90 SWAP2 SWAP1 PUSH3 0x160D JUMP JUMPDEST SWAP1 POP PUSH32 0xB2DE2FBE801A0DF6C0CBDDFD448BA3C41D48A040CA35C56C8196EF0FCAE721A8 DUP2 PUSH1 0x40 MLOAD PUSH3 0xFC3 SWAP2 SWAP1 PUSH3 0x1810 JUMP JUMPDEST PUSH1 0x40 MLOAD DUP1 SWAP2 SUB SWAP1 LOG1 DUP1 DUP4 PUSH3 0xFD9 SWAP2 SWAP1 PUSH3 0x160D JUMP JUMPDEST SWAP7 POP POP POP POP POP POP POP SWAP1 JUMP JUMPDEST PUSH1 0x0 PUSH1 0x1 SWAP1 POP PUSH1 0x0 PUSH1 0x2 SWAP1 POP PUSH1 0x0 GAS SWAP1 POP PUSH1 0x1 PUSH1 0x0 SWAP1 SLOAD SWAP1 PUSH2 0x100 EXP SWAP1 DIV PUSH20 0xFFFFFFFFFFFFFFFFFFFFFFFFFFFFFFFFFFFFFFFF AND PUSH20 0xFFFFFFFFFFFFFFFFFFFFFFFFFFFFFFFFFFFFFFFF AND PUSH4 0x76B81449 DUP5 DUP5 PUSH1 0x40 MLOAD DUP4 PUSH4 0xFFFFFFFF AND PUSH1 0xE0 SHL DUP2 MSTORE PUSH1 0x4 ADD PUSH3 0x1054 SWAP3 SWAP2 SWAP1 PUSH3 0x1926 JUMP JUMPDEST PUSH1 0x20 PUSH1 0x40 MLOAD DUP1 DUP4 SUB DUP2 DUP7 GAS STATICCALL ISZERO DUP1 ISZERO PUSH3 0x1072 JUMPI RETURNDATASIZE PUSH1 0x0 DUP1 RETURNDATACOPY RETURNDATASIZE PUSH1 0x0 REVERT JUMPDEST POP POP POP POP PUSH1 0x40 MLOAD RETURNDATASIZE PUSH1 0x1F NOT PUSH1 0x1F DUP3 ADD AND DUP3 ADD DUP1 PUSH1 0x40 MSTORE POP DUP2 ADD SWAP1 PUSH3 0x1098 SWAP2 SWAP1 PUSH3 0x170C JUMP JUMPDEST POP PUSH1 0x0 GAS SWAP1 POP PUSH1 0x0 DUP2 DUP4 PUSH3 0x10AE SWAP2 SWAP1 PUSH3 0x160D JUMP JUMPDEST SWAP1 POP PUSH32 0xB2DE2FBE801A0DF6C0CBDDFD448BA3C41D48A040CA35C56C8196EF0FCAE721A8 DUP2 PUSH1 0x40 MLOAD PUSH3 0x10E1 SWAP2 SWAP1 PUSH3 0x19D0 JUMP JUMPDEST PUSH1 0x40 MLOAD DUP1 SWAP2 SUB SWAP1 LOG1 GAS SWAP3 POP PUSH1 0x1 PUSH1 0x0 SWAP1 SLOAD SWAP1 PUSH2 0x100 EXP SWAP1 DIV PUSH20 0xFFFFFFFFFFFFFFFFFFFFFFFFFFFFFFFFFFFFFFFF AND PUSH20 0xFFFFFFFFFFFFFFFFFFFFFFFFFFFFFFFFFFFFFFFF AND PUSH4 0x29FCDA33 DUP7 DUP7 PUSH1 0x40 MLOAD DUP4 PUSH4 0xFFFFFFFF AND PUSH1 0xE0 SHL DUP2 MSTORE PUSH1 0x4 ADD PUSH3 0x114B SWAP3 SWAP2 SWAP1 PUSH3 0x1926 JUMP JUMPDEST PUSH1 0x20 PUSH1 0x40 MLOAD DUP1 DUP4 SUB DUP2 DUP7 GAS STATICCALL ISZERO DUP1 ISZERO PUSH3 0x1169 JUMPI RETURNDATASIZE PUSH1 0x0 DUP1 RETURNDATACOPY RETURNDATASIZE PUSH1 0x0 REVERT JUMPDEST POP POP POP POP PUSH1 0x40 MLOAD RETURNDATASIZE PUSH1 0x1F NOT PUSH1 0x1F DUP3 ADD AND DUP3 ADD DUP1 PUSH1 0x40 MSTORE POP DUP2 ADD SWAP1 PUSH3 0x118F SWAP2 SWAP1 PUSH3 0x170C JUMP JUMPDEST POP GAS SWAP2 POP PUSH1 0x0 DUP3 DUP5 PUSH3 0x11A3 SWAP2 SWAP1 PUSH3 0x160D JUMP JUMPDEST SWAP1 POP PUSH32 0xB2DE2FBE801A0DF6C0CBDDFD448BA3C41D48A040CA35C56C8196EF0FCAE721A8 DUP2 PUSH1 0x40 MLOAD PUSH3 0x11D6 SWAP2 SWAP1 PUSH3 0x1A52 JUMP JUMPDEST PUSH1 0x40 MLOAD DUP1 SWAP2 SUB SWAP1 LOG1 GAS SWAP4 POP PUSH1 0x1 PUSH1 0x0 SWAP1 SLOAD SWAP1 PUSH2 0x100 EXP SWAP1 DIV PUSH20 0xFFFFFFFFFFFFFFFFFFFFFFFFFFFFFFFFFFFFFFFF AND PUSH20 0xFFFFFFFFFFFFFFFFFFFFFFFFFFFFFFFFFFFFFFFF AND PUSH3 0xC3314F DUP8 DUP8 PUSH1 0x40 MLOAD DUP4 PUSH4 0xFFFFFFFF AND PUSH1 0xE0 SHL DUP2 MSTORE PUSH1 0x4 ADD PUSH3 0x123F SWAP3 SWAP2 SWAP1 PUSH3 0x1926 JUMP JUMPDEST PUSH1 0x20 PUSH1 0x40 MLOAD DUP1 DUP4 SUB DUP2 DUP7 GAS STATICCALL ISZERO DUP1 ISZERO PUSH3 0x125D JUMPI RETURNDATASIZE PUSH1 0x0 DUP1 RETURNDATACOPY RETURNDATASIZE PUSH1 0x0 REVERT JUMPDEST POP POP POP POP PUSH1 0x40 MLOAD RETURNDATASIZE PUSH1 0x1F NOT PUSH1 0x1F DUP3 ADD AND DUP3 ADD DUP1 PUSH1 0x40 MSTORE POP DUP2 ADD SWAP1 PUSH3 0x1283 SWAP2 SWAP1 PUSH3 0x170C JUMP JUMPDEST POP GAS SWAP3 POP PUSH1 0x0 DUP4 DUP6 PUSH3 0x1297 SWAP2 SWAP1 PUSH3 0x160D JUMP JUMPDEST SWAP1 POP PUSH32 0xB2DE2FBE801A0DF6C0CBDDFD448BA3C41D48A040CA35C56C8196EF0FCAE721A8 DUP2 PUSH1 0x40 MLOAD PUSH3 0x12CA SWAP2 SWAP1 PUSH3 0x1AD4 JUMP JUMPDEST PUSH1 0x40 MLOAD DUP1 SWAP2 SUB SWAP1 LOG1 GAS SWAP5 POP PUSH1 0x1 PUSH1 0x0 SWAP1 SLOAD SWAP1 PUSH2 0x100 EXP SWAP1 DIV PUSH20 0xFFFFFFFFFFFFFFFFFFFFFFFFFFFFFFFFFFFFFFFF AND PUSH20 0xFFFFFFFFFFFFFFFFFFFFFFFFFFFFFFFFFFFFFFFF AND PUSH4 0x76B81449 DUP9 DUP9 PUSH1 0x40 MLOAD DUP4 PUSH4 0xFFFFFFFF AND PUSH1 0xE0 SHL DUP2 MSTORE PUSH1 0x4 ADD PUSH3 0x1334 SWAP3 SWAP2 SWAP1 PUSH3 0x1926 JUMP JUMPDEST PUSH1 0x20 PUSH1 0x40 MLOAD DUP1 DUP4 SUB DUP2 DUP7 GAS STATICCALL ISZERO DUP1 ISZERO PUSH3 0x1352 JUMPI RETURNDATASIZE PUSH1 0x0 DUP1 RETURNDATACOPY RETURNDATASIZE PUSH1 0x0 REVERT JUMPDEST POP POP POP POP PUSH1 0x40 MLOAD RETURNDATASIZE PUSH1 0x1F NOT PUSH1 0x1F DUP3 ADD AND DUP3 ADD DUP1 PUSH1 0x40 MSTORE POP DUP2 ADD SWAP1 PUSH3 0x1378 SWAP2 SWAP1 PUSH3 0x170C JUMP JUMPDEST POP GAS SWAP4 POP DUP4 DUP6 PUSH3 0x138A SWAP2 SWAP1 PUSH3 0x160D JUMP JUMPDEST SWAP3 POP PUSH32 0xB2DE2FBE801A0DF6C0CBDDFD448BA3C41D48A040CA35C56C8196EF0FCAE721A8 DUP4 PUSH1 0x40 MLOAD PUSH3 0x13BD SWAP2 SWAP1 PUSH3 0x1B56 JUMP JUMPDEST PUSH1 0x40 MLOAD DUP1 SWAP2 SUB SWAP1 LOG1 POP POP POP POP POP POP POP JUMP JUMPDEST PUSH2 0x13C DUP1 PUSH3 0x1B89 DUP4 CODECOPY ADD SWAP1 JUMP JUMPDEST PUSH1 0xF8 DUP1 PUSH3 0x1CC5 DUP4 CODECOPY ADD SWAP1 JUMP JUMPDEST PUSH2 0xF5D DUP1 PUSH3 0x1DBD DUP4 CODECOPY ADD SWAP1 JUMP JUMPDEST PUSH2 0xD22 DUP1 PUSH3 0x2D1A DUP4 CODECOPY ADD SWAP1 JUMP JUMPDEST PUSH2 0x415 DUP1 PUSH3 0x3A3C DUP4 CODECOPY ADD SWAP1 JUMP JUMPDEST PUSH2 0x3DB DUP1 PUSH3 0x3E51 DUP4 CODECOPY ADD SWAP1 JUMP JUMPDEST PUSH1 0x0 DUP2 SWAP1 POP SWAP2 SWAP1 POP JUMP JUMPDEST PUSH3 0x1436 DUP2 PUSH3 0x1421 JUMP JUMPDEST DUP3 MSTORE POP POP JUMP JUMPDEST PUSH1 0x0 PUSH1 0x20 DUP3 ADD SWAP1 POP PUSH3 0x1453 PUSH1 0x0 DUP4 ADD DUP5 PUSH3 0x142B JUMP JUMPDEST SWAP3 SWAP2 POP POP JUMP JUMPDEST PUSH32 0x4E487B7100000000000000000000000000000000000000000000000000000000 PUSH1 0x0 MSTORE PUSH1 0x11 PUSH1 0x4 MSTORE PUSH1 0x24 PUSH1 0x0 REVERT JUMPDEST PUSH1 0x0 PUSH3 0x1495 DUP3 PUSH3 0x1421 JUMP JUMPDEST SWAP2 POP PUSH3 0x14A2 DUP4 PUSH3 0x1421 JUMP JUMPDEST SWAP3 POP DUP3 PUSH32 0xFFFFFFFFFFFFFFFFFFFFFFFFFFFFFFFFFFFFFFFFFFFFFFFFFFFFFFFFFFFFFFFF SUB DUP3 GT ISZERO PUSH3 0x14DA JUMPI PUSH3 0x14D9 PUSH3 0x1459 JUMP JUMPDEST JUMPDEST DUP3 DUP3 ADD SWAP1 POP SWAP3 SWAP2 POP POP JUMP JUMPDEST PUSH3 0x14F0 DUP2 PUSH3 0x1421 JUMP JUMPDEST DUP3 MSTORE POP POP JUMP JUMPDEST PUSH1 0x0 DUP3 DUP3 MSTORE PUSH1 0x20 DUP3 ADD SWAP1 POP SWAP3 SWAP2 POP POP JUMP JUMPDEST PUSH32 0x726573756C742073686F756C6420626520657175616C20746F20330000000000 PUSH1 0x0 DUP3 ADD MSTORE POP JUMP JUMPDEST PUSH1 0x0 PUSH3 0x153F PUSH1 0x1B DUP4 PUSH3 0x14F6 JUMP JUMPDEST SWAP2 POP PUSH3 0x154C DUP3 PUSH3 0x1507 JUMP JUMPDEST PUSH1 0x20 DUP3 ADD SWAP1 POP SWAP2 SWAP1 POP JUMP JUMPDEST PUSH1 0x0 PUSH1 0x60 DUP3 ADD SWAP1 POP PUSH3 0x156E PUSH1 0x0 DUP4 ADD DUP6 PUSH3 0x14E5 JUMP JUMPDEST PUSH3 0x157D PUSH1 0x20 DUP4 ADD DUP5 PUSH3 0x14E5 JUMP JUMPDEST DUP2 DUP2 SUB PUSH1 0x40 DUP4 ADD MSTORE PUSH3 0x1590 DUP2 PUSH3 0x1530 JUMP JUMPDEST SWAP1 POP SWAP4 SWAP3 POP POP POP JUMP JUMPDEST PUSH1 0x0 DUP1 REVERT JUMPDEST PUSH1 0x0 DUP2 ISZERO ISZERO SWAP1 POP SWAP2 SWAP1 POP JUMP JUMPDEST PUSH3 0x15B5 DUP2 PUSH3 0x159E JUMP JUMPDEST DUP2 EQ PUSH3 0x15C1 JUMPI PUSH1 0x0 DUP1 REVERT JUMPDEST POP JUMP JUMPDEST PUSH1 0x0 DUP2 MLOAD SWAP1 POP PUSH3 0x15D5 DUP2 PUSH3 0x15AA JUMP JUMPDEST SWAP3 SWAP2 POP POP JUMP JUMPDEST PUSH1 0x0 PUSH1 0x20 DUP3 DUP5 SUB SLT ISZERO PUSH3 0x15F4 JUMPI PUSH3 0x15F3 PUSH3 0x1599 JUMP JUMPDEST JUMPDEST PUSH1 0x0 PUSH3 0x1604 DUP5 DUP3 DUP6 ADD PUSH3 0x15C4 JUMP JUMPDEST SWAP2 POP POP SWAP3 SWAP2 POP POP JUMP JUMPDEST PUSH1 0x0 PUSH3 0x161A DUP3 PUSH3 0x1421 JUMP JUMPDEST SWAP2 POP PUSH3 0x1627 DUP4 PUSH3 0x1421 JUMP JUMPDEST SWAP3 POP DUP3 DUP3 LT ISZERO PUSH3 0x163D JUMPI PUSH3 0x163C PUSH3 0x1459 JUMP JUMPDEST JUMPDEST DUP3 DUP3 SUB SWAP1 POP SWAP3 SWAP2 POP POP JUMP JUMPDEST PUSH1 0x0 DUP3 DUP3 MSTORE PUSH1 0x20 DUP3 ADD SWAP1 POP SWAP3 SWAP2 POP POP JUMP JUMPDEST PUSH32 0x6761730000000000000000000000000000000000000000000000000000000000 PUSH1 0x0 DUP3 ADD MSTORE POP JUMP JUMPDEST PUSH1 0x0 PUSH3 0x1691 PUSH1 0x3 DUP4 PUSH3 0x1648 JUMP JUMPDEST SWAP2 POP PUSH3 0x169E DUP3 PUSH3 0x1659 JUMP JUMPDEST PUSH1 0x20 DUP3 ADD SWAP1 POP SWAP2 SWAP1 POP JUMP JUMPDEST PUSH1 0x0 PUSH1 0x40 DUP3 ADD SWAP1 POP DUP2 DUP2 SUB PUSH1 0x0 DUP4 ADD MSTORE PUSH3 0x16C4 DUP2 PUSH3 0x1682 JUMP JUMPDEST SWAP1 POP PUSH3 0x16D5 PUSH1 0x20 DUP4 ADD DUP5 PUSH3 0x142B JUMP JUMPDEST SWAP3 SWAP2 POP POP JUMP JUMPDEST PUSH3 0x16E6 DUP2 PUSH3 0x1421 JUMP JUMPDEST DUP2 EQ PUSH3 0x16F2 JUMPI PUSH1 0x0 DUP1 REVERT JUMPDEST POP JUMP JUMPDEST PUSH1 0x0 DUP2 MLOAD SWAP1 POP PUSH3 0x1706 DUP2 PUSH3 0x16DB JUMP JUMPDEST SWAP3 SWAP2 POP POP JUMP JUMPDEST PUSH1 0x0 PUSH1 0x20 DUP3 DUP5 SUB SLT ISZERO PUSH3 0x1725 JUMPI PUSH3 0x1724 PUSH3 0x1599 JUMP JUMPDEST JUMPDEST PUSH1 0x0 PUSH3 0x1735 DUP5 DUP3 DUP6 ADD PUSH3 0x16F5 JUMP JUMPDEST SWAP2 POP POP SWAP3 SWAP2 POP POP JUMP JUMPDEST PUSH32 0x6761735573616765310000000000000000000000000000000000000000000000 PUSH1 0x0 DUP3 ADD MSTORE POP JUMP JUMPDEST PUSH1 0x0 PUSH3 0x1776 PUSH1 0x9 DUP4 PUSH3 0x1648 JUMP JUMPDEST SWAP2 POP PUSH3 0x1783 DUP3 PUSH3 0x173E JUMP JUMPDEST PUSH1 0x20 DUP3 ADD SWAP1 POP SWAP2 SWAP1 POP JUMP JUMPDEST PUSH1 0x0 PUSH1 0x40 DUP3 ADD SWAP1 POP DUP2 DUP2 SUB PUSH1 0x0 DUP4 ADD MSTORE PUSH3 0x17A9 DUP2 PUSH3 0x1767 JUMP JUMPDEST SWAP1 POP PUSH3 0x17BA PUSH1 0x20 DUP4 ADD DUP5 PUSH3 0x142B JUMP JUMPDEST SWAP3 SWAP2 POP POP JUMP JUMPDEST PUSH32 0x6761735573616765320000000000000000000000000000000000000000000000 PUSH1 0x0 DUP3 ADD MSTORE POP JUMP JUMPDEST PUSH1 0x0 PUSH3 0x17F8 PUSH1 0x9 DUP4 PUSH3 0x1648 JUMP JUMPDEST SWAP2 POP PUSH3 0x1805 DUP3 PUSH3 0x17C0 JUMP JUMPDEST PUSH1 0x20 DUP3 ADD SWAP1 POP SWAP2 SWAP1 POP JUMP JUMPDEST PUSH1 0x0 PUSH1 0x40 DUP3 ADD SWAP1 POP DUP2 DUP2 SUB PUSH1 0x0 DUP4 ADD MSTORE PUSH3 0x182B DUP2 PUSH3 0x17E9 JUMP JUMPDEST SWAP1 POP PUSH3 0x183C PUSH1 0x20 DUP4 ADD DUP5 PUSH3 0x142B JUMP JUMPDEST SWAP3 SWAP2 POP POP JUMP JUMPDEST PUSH1 0x0 PUSH20 0xFFFFFFFFFFFFFFFFFFFFFFFFFFFFFFFFFFFFFFFF DUP3 AND SWAP1 POP SWAP2 SWAP1 POP JUMP JUMPDEST PUSH1 0x0 PUSH3 0x186F DUP3 PUSH3 0x1842 JUMP JUMPDEST SWAP1 POP SWAP2 SWAP1 POP JUMP JUMPDEST PUSH3 0x1881 DUP2 PUSH3 0x1862 JUMP JUMPDEST DUP3 MSTORE POP POP JUMP JUMPDEST PUSH1 0x0 PUSH1 0x20 DUP3 ADD SWAP1 POP PUSH3 0x189E PUSH1 0x0 DUP4 ADD DUP5 PUSH3 0x1876 JUMP JUMPDEST SWAP3 SWAP2 POP POP JUMP JUMPDEST PUSH32 0x6761735361766564000000000000000000000000000000000000000000000000 PUSH1 0x0 DUP3 ADD MSTORE POP JUMP JUMPDEST PUSH1 0x0 PUSH3 0x18DC PUSH1 0x8 DUP4 PUSH3 0x1648 JUMP JUMPDEST SWAP2 POP PUSH3 0x18E9 DUP3 PUSH3 0x18A4 JUMP JUMPDEST PUSH1 0x20 DUP3 ADD SWAP1 POP SWAP2 SWAP1 POP JUMP JUMPDEST PUSH1 0x0 PUSH1 0x40 DUP3 ADD SWAP1 POP DUP2 DUP2 SUB PUSH1 0x0 DUP4 ADD MSTORE PUSH3 0x190F DUP2 PUSH3 0x18CD JUMP JUMPDEST SWAP1 POP PUSH3 0x1920 PUSH1 0x20 DUP4 ADD DUP5 PUSH3 0x142B JUMP JUMPDEST SWAP3 SWAP2 POP POP JUMP JUMPDEST PUSH1 0x0 PUSH1 0x40 DUP3 ADD SWAP1 POP PUSH3 0x193D PUSH1 0x0 DUP4 ADD DUP6 PUSH3 0x142B JUMP JUMPDEST PUSH3 0x194C PUSH1 0x20 DUP4 ADD DUP5 PUSH3 0x142B JUMP JUMPDEST SWAP4 SWAP3 POP POP POP JUMP JUMPDEST PUSH1 0x0 PUSH1 0x40 DUP3 ADD SWAP1 POP PUSH3 0x196A PUSH1 0x0 DUP4 ADD DUP6 PUSH3 0x1876 JUMP JUMPDEST PUSH3 0x1979 PUSH1 0x20 DUP4 ADD DUP5 PUSH3 0x142B JUMP JUMPDEST SWAP4 SWAP3 POP POP POP JUMP JUMPDEST PUSH32 0x6761733100000000000000000000000000000000000000000000000000000000 PUSH1 0x0 DUP3 ADD MSTORE POP JUMP JUMPDEST PUSH1 0x0 PUSH3 0x19B8 PUSH1 0x4 DUP4 PUSH3 0x1648 JUMP JUMPDEST SWAP2 POP PUSH3 0x19C5 DUP3 PUSH3 0x1980 JUMP JUMPDEST PUSH1 0x20 DUP3 ADD SWAP1 POP SWAP2 SWAP1 POP JUMP JUMPDEST PUSH1 0x0 PUSH1 0x40 DUP3 ADD SWAP1 POP DUP2 DUP2 SUB PUSH1 0x0 DUP4 ADD MSTORE PUSH3 0x19EB DUP2 PUSH3 0x19A9 JUMP JUMPDEST SWAP1 POP PUSH3 0x19FC PUSH1 0x20 DUP4 ADD DUP5 PUSH3 0x142B JUMP JUMPDEST SWAP3 SWAP2 POP POP JUMP JUMPDEST PUSH32 0x6761733200000000000000000000000000000000000000000000000000000000 PUSH1 0x0 DUP3 ADD MSTORE POP JUMP JUMPDEST PUSH1 0x0 PUSH3 0x1A3A PUSH1 0x4 DUP4 PUSH3 0x1648 JUMP JUMPDEST SWAP2 POP PUSH3 0x1A47 DUP3 PUSH3 0x1A02 JUMP JUMPDEST PUSH1 0x20 DUP3 ADD SWAP1 POP SWAP2 SWAP1 POP JUMP JUMPDEST PUSH1 0x0 PUSH1 0x40 DUP3 ADD SWAP1 POP DUP2 DUP2 SUB PUSH1 0x0 DUP4 ADD MSTORE PUSH3 0x1A6D DUP2 PUSH3 0x1A2B JUMP JUMPDEST SWAP1 POP PUSH3 0x1A7E PUSH1 0x20 DUP4 ADD DUP5 PUSH3 0x142B JUMP JUMPDEST SWAP3 SWAP2 POP POP JUMP JUMPDEST PUSH32 0x6761733300000000000000000000000000000000000000000000000000000000 PUSH1 0x0 DUP3 ADD MSTORE POP JUMP JUMPDEST PUSH1 0x0 PUSH3 0x1ABC PUSH1 0x4 DUP4 PUSH3 0x1648 JUMP JUMPDEST SWAP2 POP PUSH3 0x1AC9 DUP3 PUSH3 0x1A84 JUMP JUMPDEST PUSH1 0x20 DUP3 ADD SWAP1 POP SWAP2 SWAP1 POP JUMP JUMPDEST PUSH1 0x0 PUSH1 0x40 DUP3 ADD SWAP1 POP DUP2 DUP2 SUB PUSH1 0x0 DUP4 ADD MSTORE PUSH3 0x1AEF DUP2 PUSH3 0x1AAD JUMP JUMPDEST SWAP1 POP PUSH3 0x1B00 PUSH1 0x20 DUP4 ADD DUP5 PUSH3 0x142B JUMP JUMPDEST SWAP3 SWAP2 POP POP JUMP JUMPDEST PUSH32 0x6761735F31000000000000000000000000000000000000000000000000000000 PUSH1 0x0 DUP3 ADD MSTORE POP JUMP JUMPDEST PUSH1 0x0 PUSH3 0x1B3E PUSH1 0x5 DUP4 PUSH3 0x1648 JUMP JUMPDEST SWAP2 POP PUSH3 0x1B4B DUP3 PUSH3 0x1B06 JUMP JUMPDEST PUSH1 0x20 DUP3 ADD SWAP1 POP SWAP2 SWAP1 POP JUMP JUMPDEST PUSH1 0x0 PUSH1 0x40 DUP3 ADD SWAP1 POP DUP2 DUP2 SUB PUSH1 0x0 DUP4 ADD MSTORE PUSH3 0x1B71 DUP2 PUSH3 0x1B2F JUMP JUMPDEST SWAP1 POP PUSH3 0x1B82 PUSH1 0x20 DUP4 ADD DUP5 PUSH3 0x142B JUMP JUMPDEST SWAP3 SWAP2 POP POP JUMP INVALID PUSH1 0x80 PUSH1 0x40 MSTORE PUSH1 0x0 DUP1 PUSH1 0x0 PUSH2 0x100 EXP DUP2 SLOAD DUP2 PUSH1 0xFF MUL NOT AND SWAP1 DUP4 ISZERO ISZERO MUL OR SWAP1 SSTORE POP CALLVALUE DUP1 ISZERO PUSH2 0x2A JUMPI PUSH1 0x0 DUP1 REVERT JUMPDEST POP PUSH2 0x102 DUP1 PUSH2 0x3A PUSH1 0x0 CODECOPY PUSH1 0x0 RETURN INVALID PUSH1 0x80 PUSH1 0x40 MSTORE CALLVALUE DUP1 ISZERO PUSH1 0xF JUMPI PUSH1 0x0 DUP1 REVERT JUMPDEST POP PUSH1 0x4 CALLDATASIZE LT PUSH1 0x28 JUMPI PUSH1 0x0 CALLDATALOAD PUSH1 0xE0 SHR DUP1 PUSH4 0xF8A8FD6D EQ PUSH1 0x2D JUMPI JUMPDEST PUSH1 0x0 DUP1 REVERT JUMPDEST PUSH1 0x33 PUSH1 0x47 JUMP JUMPDEST PUSH1 0x40 MLOAD PUSH1 0x3E SWAP2 SWAP1 PUSH1 0xB3 JUMP JUMPDEST PUSH1 0x40 MLOAD DUP1 SWAP2 SUB SWAP1 RETURN JUMPDEST PUSH1 0x0 DUP1 PUSH1 0x0 SWAP1 SLOAD SWAP1 PUSH2 0x100 EXP SWAP1 DIV PUSH1 0xFF AND ISZERO PUSH1 0x61 JUMPI PUSH1 0x0 DUP1 REVERT JUMPDEST PUSH1 0x1 PUSH1 0x0 DUP1 PUSH2 0x100 EXP DUP2 SLOAD DUP2 PUSH1 0xFF MUL NOT AND SWAP1 DUP4 ISZERO ISZERO MUL OR SWAP1 SSTORE POP PUSH1 0x3 SWAP1 POP PUSH1 0x0 DUP1 PUSH1 0x0 PUSH2 0x100 EXP DUP2 SLOAD DUP2 PUSH1 0xFF MUL NOT AND SWAP1 DUP4 ISZERO ISZERO MUL OR SWAP1 SSTORE POP SWAP1 JUMP JUMPDEST PUSH1 0x0 DUP2 SWAP1 POP SWAP2 SWAP1 POP JUMP JUMPDEST PUSH1 0xAD DUP2 PUSH1 0x9C JUMP JUMPDEST DUP3 MSTORE POP POP JUMP JUMPDEST PUSH1 0x0 PUSH1 0x20 DUP3 ADD SWAP1 POP PUSH1 0xC6 PUSH1 0x0 DUP4 ADD DUP5 PUSH1 0xA6 JUMP JUMPDEST SWAP3 SWAP2 POP POP JUMP INVALID LOG2 PUSH5 0x6970667358 0x22 SLT KECCAK256 0x5E 0xE7 0xD7 DUP11 SMOD AND PUSH30 0xB039A1FE7CD4DEA7F347C5D7AC1CEF5797E31C5C7E8AB12C9C64736F6C63 NUMBER STOP ADDMOD 0xF STOP CALLER PUSH1 0x80 PUSH1 0x40 MSTORE PUSH1 0x1 PUSH1 0x0 SSTORE CALLVALUE DUP1 ISZERO PUSH2 0x15 JUMPI PUSH1 0x0 DUP1 REVERT JUMPDEST POP PUSH1 0xD4 DUP1 PUSH2 0x24 PUSH1 0x0 CODECOPY PUSH1 0x0 RETURN INVALID PUSH1 0x80 PUSH1 0x40 MSTORE CALLVALUE DUP1 ISZERO PUSH1 0xF JUMPI PUSH1 0x0 DUP1 REVERT JUMPDEST POP PUSH1 0x4 CALLDATASIZE LT PUSH1 0x28 JUMPI PUSH1 0x0 CALLDATALOAD PUSH1 0xE0 SHR DUP1 PUSH4 0xF8A8FD6D EQ PUSH1 0x2D JUMPI JUMPDEST PUSH1 0x0 DUP1 REVERT JUMPDEST PUSH1 0x33 PUSH1 0x47 JUMP JUMPDEST PUSH1 0x40 MLOAD PUSH1 0x3E SWAP2 SWAP1 PUSH1 0x85 JUMP JUMPDEST PUSH1 0x40 MLOAD DUP1 SWAP2 SUB SWAP1 RETURN JUMPDEST PUSH1 0x0 PUSH1 0x1 PUSH1 0x0 SLOAD EQ PUSH1 0x57 JUMPI PUSH1 0x0 DUP1 REVERT JUMPDEST PUSH1 0x2 PUSH1 0x0 DUP2 SWAP1 SSTORE POP PUSH1 0x3 SWAP1 POP PUSH1 0x1 PUSH1 0x0 DUP2 SWAP1 SSTORE POP SWAP1 JUMP JUMPDEST PUSH1 0x0 DUP2 SWAP1 POP SWAP2 SWAP1 POP JUMP JUMPDEST PUSH1 0x7F DUP2 PUSH1 0x6E JUMP JUMPDEST DUP3 MSTORE POP POP JUMP JUMPDEST PUSH1 0x0 PUSH1 0x20 DUP3 ADD SWAP1 POP PUSH1 0x98 PUSH1 0x0 DUP4 ADD DUP5 PUSH1 0x78 JUMP JUMPDEST SWAP3 SWAP2 POP POP JUMP INVALID LOG2 PUSH5 0x6970667358 0x22 SLT KECCAK256 LOG1 JUMPI CHAINID PUSH13 0x36599D1AF0E213432BA741FD6B SLOAD 0xB6 0xB2 0xBD PUSH29 0x4E1A160AA94D09F2CC2164736F6C634300080F00336080604052348015 PUSH3 0x11 JUMPI PUSH1 0x0 DUP1 REVERT JUMPDEST POP PUSH1 0x40 MLOAD DUP1 PUSH1 0x40 ADD PUSH1 0x40 MSTORE DUP1 PUSH1 0xB DUP2 MSTORE PUSH1 0x20 ADD PUSH32 0x53696D706C65546F6B656E000000000000000000000000000000000000000000 DUP2 MSTORE POP PUSH1 0x40 MLOAD DUP1 PUSH1 0x40 ADD PUSH1 0x40 MSTORE DUP1 PUSH1 0x3 DUP2 MSTORE PUSH1 0x20 ADD PUSH32 0x53494D0000000000000000000000000000000000000000000000000000000000 DUP2 MSTORE POP PUSH1 0x12 DUP3 PUSH1 0x2 SWAP1 DUP2 PUSH3 0x91 SWAP2 SWAP1 PUSH3 0x448 JUMP JUMPDEST POP DUP2 PUSH1 0x3 SWAP1 DUP2 PUSH3 0xA3 SWAP2 SWAP1 PUSH3 0x448 JUMP JUMPDEST POP DUP1 PUSH1 0x4 PUSH1 0x0 PUSH2 0x100 EXP DUP2 SLOAD DUP2 PUSH1 0xFF MUL NOT AND SWAP1 DUP4 PUSH1 0xFF AND MUL OR SWAP1 SSTORE POP POP POP POP PUSH3 0xF5 CALLER PUSH1 0x12 PUSH1 0xFF AND PUSH1 0xA PUSH3 0xDA SWAP2 SWAP1 PUSH3 0x6B2 JUMP JUMPDEST PUSH2 0x2710 PUSH3 0xE9 SWAP2 SWAP1 PUSH3 0x703 JUMP JUMPDEST PUSH3 0xFB PUSH1 0x20 SHL PUSH1 0x20 SHR JUMP JUMPDEST PUSH3 0x7EF JUMP JUMPDEST DUP1 PUSH1 0x0 DUP1 DUP3 DUP3 SLOAD PUSH3 0x10E SWAP2 SWAP1 PUSH3 0x764 JUMP JUMPDEST SWAP3 POP POP DUP2 SWAP1 SSTORE POP DUP1 PUSH1 0x1 PUSH1 0x0 DUP5 PUSH20 0xFFFFFFFFFFFFFFFFFFFFFFFFFFFFFFFFFFFFFFFF AND PUSH20 0xFFFFFFFFFFFFFFFFFFFFFFFFFFFFFFFFFFFFFFFF AND DUP2 MSTORE PUSH1 0x20 ADD SWAP1 DUP2 MSTORE PUSH1 0x20 ADD PUSH1 0x0 KECCAK256 PUSH1 0x0 DUP3 DUP3 SLOAD ADD SWAP3 POP POP DUP2 SWAP1 SSTORE POP DUP2 PUSH20 0xFFFFFFFFFFFFFFFFFFFFFFFFFFFFFFFFFFFFFFFF AND PUSH1 0x0 PUSH20 0xFFFFFFFFFFFFFFFFFFFFFFFFFFFFFFFFFFFFFFFF AND PUSH32 0xDDF252AD1BE2C89B69C2B068FC378DAA952BA7F163C4A11628F55A4DF523B3EF DUP4 PUSH1 0x40 MLOAD PUSH3 0x1C2 SWAP2 SWAP1 PUSH3 0x7D2 JUMP JUMPDEST PUSH1 0x40 MLOAD DUP1 SWAP2 SUB SWAP1 LOG3 POP POP JUMP JUMPDEST PUSH1 0x0 DUP2 MLOAD SWAP1 POP SWAP2 SWAP1 POP JUMP JUMPDEST PUSH32 0x4E487B7100000000000000000000000000000000000000000000000000000000 PUSH1 0x0 MSTORE PUSH1 0x41 PUSH1 0x4 MSTORE PUSH1 0x24 PUSH1 0x0 REVERT JUMPDEST PUSH32 0x4E487B7100000000000000000000000000000000000000000000000000000000 PUSH1 0x0 MSTORE PUSH1 0x22 PUSH1 0x4 MSTORE PUSH1 0x24 PUSH1 0x0 REVERT JUMPDEST PUSH1 0x0 PUSH1 0x2 DUP3 DIV SWAP1 POP PUSH1 0x1 DUP3 AND DUP1 PUSH3 0x250 JUMPI PUSH1 0x7F DUP3 AND SWAP2 POP JUMPDEST PUSH1 0x20 DUP3 LT DUP2 SUB PUSH3 0x266 JUMPI PUSH3 0x265 PUSH3 0x208 JUMP JUMPDEST JUMPDEST POP SWAP2 SWAP1 POP JUMP JUMPDEST PUSH1 0x0 DUP2 SWAP1 POP DUP2 PUSH1 0x0 MSTORE PUSH1 0x20 PUSH1 0x0 KECCAK256 SWAP1 POP SWAP2 SWAP1 POP JUMP JUMPDEST PUSH1 0x0 PUSH1 0x20 PUSH1 0x1F DUP4 ADD DIV SWAP1 POP SWAP2 SWAP1 POP JUMP JUMPDEST PUSH1 0x0 DUP3 DUP3 SHL SWAP1 POP SWAP3 SWAP2 POP POP JUMP JUMPDEST PUSH1 0x0 PUSH1 0x8 DUP4 MUL PUSH3 0x2D0 PUSH32 0xFFFFFFFFFFFFFFFFFFFFFFFFFFFFFFFFFFFFFFFFFFFFFFFFFFFFFFFFFFFFFFFF DUP3 PUSH3 0x291 JUMP JUMPDEST PUSH3 0x2DC DUP7 DUP4 PUSH3 0x291 JUMP JUMPDEST SWAP6 POP DUP1 NOT DUP5 AND SWAP4 POP DUP1 DUP7 AND DUP5 OR SWAP3 POP POP POP SWAP4 SWAP3 POP POP POP JUMP JUMPDEST PUSH1 0x0 DUP2 SWAP1 POP SWAP2 SWAP1 POP JUMP JUMPDEST PUSH1 0x0 DUP2 SWAP1 POP SWAP2 SWAP1 POP JUMP JUMPDEST PUSH1 0x0 PUSH3 0x329 PUSH3 0x323 PUSH3 0x31D DUP5 PUSH3 0x2F4 JUMP JUMPDEST PUSH3 0x2FE JUMP JUMPDEST PUSH3 0x2F4 JUMP JUMPDEST SWAP1 POP SWAP2 SWAP1 POP JUMP JUMPDEST PUSH1 0x0 DUP2 SWAP1 POP SWAP2 SWAP1 POP JUMP JUMPDEST PUSH3 0x345 DUP4 PUSH3 0x308 JUMP JUMPDEST PUSH3 0x35D PUSH3 0x354 DUP3 PUSH3 0x330 JUMP JUMPDEST DUP5 DUP5 SLOAD PUSH3 0x29E JUMP JUMPDEST DUP3 SSTORE POP POP POP POP JUMP JUMPDEST PUSH1 0x0 SWAP1 JUMP JUMPDEST PUSH3 0x374 PUSH3 0x365 JUMP JUMPDEST PUSH3 0x381 DUP2 DUP5 DUP5 PUSH3 0x33A JUMP JUMPDEST POP POP POP JUMP JUMPDEST JUMPDEST DUP2 DUP2 LT ISZERO PUSH3 0x3A9 JUMPI PUSH3 0x39D PUSH1 0x0 DUP3 PUSH3 0x36A JUMP JUMPDEST PUSH1 0x1 DUP2 ADD SWAP1 POP PUSH3 0x387 JUMP JUMPDEST POP POP JUMP JUMPDEST PUSH1 0x1F DUP3 GT ISZERO PUSH3 0x3F8 JUMPI PUSH3 0x3C2 DUP2 PUSH3 0x26C JUMP JUMPDEST PUSH3 0x3CD DUP5 PUSH3 0x281 JUMP JUMPDEST DUP2 ADD PUSH1 0x20 DUP6 LT ISZERO PUSH3 0x3DD JUMPI DUP2 SWAP1 POP JUMPDEST PUSH3 0x3F5 PUSH3 0x3EC DUP6 PUSH3 0x281 JUMP JUMPDEST DUP4 ADD DUP3 PUSH3 0x386 JUMP JUMPDEST POP POP JUMPDEST POP POP POP JUMP JUMPDEST PUSH1 0x0 DUP3 DUP3 SHR SWAP1 POP SWAP3 SWAP2 POP POP JUMP JUMPDEST PUSH1 0x0 PUSH3 0x41D PUSH1 0x0 NOT DUP5 PUSH1 0x8 MUL PUSH3 0x3FD JUMP JUMPDEST NOT DUP1 DUP4 AND SWAP2 POP POP SWAP3 SWAP2 POP POP JUMP JUMPDEST PUSH1 0x0 PUSH3 0x438 DUP4 DUP4 PUSH3 0x40A JUMP JUMPDEST SWAP2 POP DUP3 PUSH1 0x2 MUL DUP3 OR SWAP1 POP SWAP3 SWAP2 POP POP JUMP JUMPDEST PUSH3 0x453 DUP3 PUSH3 0x1CE JUMP JUMPDEST PUSH8 0xFFFFFFFFFFFFFFFF DUP2 GT ISZERO PUSH3 0x46F JUMPI PUSH3 0x46E PUSH3 0x1D9 JUMP JUMPDEST JUMPDEST PUSH3 0x47B DUP3 SLOAD PUSH3 0x237 JUMP JUMPDEST PUSH3 0x488 DUP3 DUP3 DUP6 PUSH3 0x3AD JUMP JUMPDEST PUSH1 0x0 PUSH1 0x20 SWAP1 POP PUSH1 0x1F DUP4 GT PUSH1 0x1 DUP2 EQ PUSH3 0x4C0 JUMPI PUSH1 0x0 DUP5 ISZERO PUSH3 0x4AB JUMPI DUP3 DUP8 ADD MLOAD SWAP1 POP JUMPDEST PUSH3 0x4B7 DUP6 DUP3 PUSH3 0x42A JUMP JUMPDEST DUP7 SSTORE POP PUSH3 0x527 JUMP JUMPDEST PUSH1 0x1F NOT DUP5 AND PUSH3 0x4D0 DUP7 PUSH3 0x26C JUMP JUMPDEST PUSH1 0x0 JUMPDEST DUP3 DUP2 LT ISZERO PUSH3 0x4FA JUMPI DUP5 DUP10 ADD MLOAD DUP3 SSTORE PUSH1 0x1 DUP3 ADD SWAP2 POP PUSH1 0x20 DUP6 ADD SWAP5 POP PUSH1 0x20 DUP2 ADD SWAP1 POP PUSH3 0x4D3 JUMP JUMPDEST DUP7 DUP4 LT ISZERO PUSH3 0x51A JUMPI DUP5 DUP10 ADD MLOAD PUSH3 0x516 PUSH1 0x1F DUP10 AND DUP3 PUSH3 0x40A JUMP JUMPDEST DUP4 SSTORE POP JUMPDEST PUSH1 0x1 PUSH1 0x2 DUP9 MUL ADD DUP9 SSTORE POP POP POP JUMPDEST POP POP POP POP POP POP JUMP JUMPDEST PUSH32 0x4E487B7100000000000000000000000000000000000000000000000000000000 PUSH1 0x0 MSTORE PUSH1 0x11 PUSH1 0x4 MSTORE PUSH1 0x24 PUSH1 0x0 REVERT JUMPDEST PUSH1 0x0 DUP2 PUSH1 0x1 SHR SWAP1 POP SWAP2 SWAP1 POP JUMP JUMPDEST PUSH1 0x0 DUP1 DUP3 SWAP2 POP DUP4 SWAP1 POP JUMPDEST PUSH1 0x1 DUP6 GT ISZERO PUSH3 0x5BD JUMPI DUP1 DUP7 DIV DUP2 GT ISZERO PUSH3 0x595 JUMPI PUSH3 0x594 PUSH3 0x52F JUMP JUMPDEST JUMPDEST PUSH1 0x1 DUP6 AND ISZERO PUSH3 0x5A5 JUMPI DUP1 DUP3 MUL SWAP2 POP JUMPDEST DUP1 DUP2 MUL SWAP1 POP PUSH3 0x5B5 DUP6 PUSH3 0x55E JUMP JUMPDEST SWAP5 POP PUSH3 0x575 JUMP JUMPDEST SWAP5 POP SWAP5 SWAP3 POP POP POP JUMP JUMPDEST PUSH1 0x0 DUP3 PUSH3 0x5D8 JUMPI PUSH1 0x1 SWAP1 POP PUSH3 0x6AB JUMP JUMPDEST DUP2 PUSH3 0x5E8 JUMPI PUSH1 0x0 SWAP1 POP PUSH3 0x6AB JUMP JUMPDEST DUP2 PUSH1 0x1 DUP2 EQ PUSH3 0x601 JUMPI PUSH1 0x2 DUP2 EQ PUSH3 0x60C JUMPI PUSH3 0x642 JUMP JUMPDEST PUSH1 0x1 SWAP2 POP POP PUSH3 0x6AB JUMP JUMPDEST PUSH1 0xFF DUP5 GT ISZERO PUSH3 0x621 JUMPI PUSH3 0x620 PUSH3 0x52F JUMP JUMPDEST JUMPDEST DUP4 PUSH1 0x2 EXP SWAP2 POP DUP5 DUP3 GT ISZERO PUSH3 0x63B JUMPI PUSH3 0x63A PUSH3 0x52F JUMP JUMPDEST JUMPDEST POP PUSH3 0x6AB JUMP JUMPDEST POP PUSH1 0x20 DUP4 LT PUSH2 0x133 DUP4 LT AND PUSH1 0x4E DUP5 LT PUSH1 0xB DUP5 LT AND OR ISZERO PUSH3 0x67C JUMPI DUP3 DUP3 EXP SWAP1 POP DUP4 DUP2 GT ISZERO PUSH3 0x676 JUMPI PUSH3 0x675 PUSH3 0x52F JUMP JUMPDEST JUMPDEST PUSH3 0x6AB JUMP JUMPDEST PUSH3 0x68B DUP5 DUP5 DUP5 PUSH1 0x1 PUSH3 0x56B JUMP JUMPDEST SWAP3 POP SWAP1 POP DUP2 DUP5 DIV DUP2 GT ISZERO PUSH3 0x6A5 JUMPI PUSH3 0x6A4 PUSH3 0x52F JUMP JUMPDEST JUMPDEST DUP2 DUP2 MUL SWAP1 POP JUMPDEST SWAP4 SWAP3 POP POP POP JUMP JUMPDEST PUSH1 0x0 PUSH3 0x6BF DUP3 PUSH3 0x2F4 JUMP JUMPDEST SWAP2 POP PUSH3 0x6CC DUP4 PUSH3 0x2F4 JUMP JUMPDEST SWAP3 POP PUSH3 0x6FB PUSH32 0xFFFFFFFFFFFFFFFFFFFFFFFFFFFFFFFFFFFFFFFFFFFFFFFFFFFFFFFFFFFFFFFF DUP5 DUP5 PUSH3 0x5C6 JUMP JUMPDEST SWAP1 POP SWAP3 SWAP2 POP POP JUMP JUMPDEST PUSH1 0x0 PUSH3 0x710 DUP3 PUSH3 0x2F4 JUMP JUMPDEST SWAP2 POP PUSH3 0x71D DUP4 PUSH3 0x2F4 JUMP JUMPDEST SWAP3 POP DUP2 PUSH32 0xFFFFFFFFFFFFFFFFFFFFFFFFFFFFFFFFFFFFFFFFFFFFFFFFFFFFFFFFFFFFFFFF DIV DUP4 GT DUP3 ISZERO ISZERO AND ISZERO PUSH3 0x759 JUMPI PUSH3 0x758 PUSH3 0x52F JUMP JUMPDEST JUMPDEST DUP3 DUP3 MUL SWAP1 POP SWAP3 SWAP2 POP POP JUMP JUMPDEST PUSH1 0x0 PUSH3 0x771 DUP3 PUSH3 0x2F4 JUMP JUMPDEST SWAP2 POP PUSH3 0x77E DUP4 PUSH3 0x2F4 JUMP JUMPDEST SWAP3 POP DUP3 PUSH32 0xFFFFFFFFFFFFFFFFFFFFFFFFFFFFFFFFFFFFFFFFFFFFFFFFFFFFFFFFFFFFFFFF SUB DUP3 GT ISZERO PUSH3 0x7B6 JUMPI PUSH3 0x7B5 PUSH3 0x52F JUMP JUMPDEST JUMPDEST DUP3 DUP3 ADD SWAP1 POP SWAP3 SWAP2 POP POP JUMP JUMPDEST PUSH3 0x7CC DUP2 PUSH3 0x2F4 JUMP JUMPDEST DUP3 MSTORE POP POP JUMP JUMPDEST PUSH1 0x0 PUSH1 0x20 DUP3 ADD SWAP1 POP PUSH3 0x7E9 PUSH1 0x0 DUP4 ADD DUP5 PUSH3 0x7C1 JUMP JUMPDEST SWAP3 SWAP2 POP POP JUMP JUMPDEST PUSH2 0x75E DUP1 PUSH3 0x7FF PUSH1 0x0 CODECOPY PUSH1 0x0 RETURN INVALID PUSH1 0x80 PUSH1 0x40 MSTORE CALLVALUE DUP1 ISZERO PUSH2 0x10 JUMPI PUSH1 0x0 DUP1 REVERT JUMPDEST POP PUSH1 0x4 CALLDATASIZE LT PUSH2 0x7D JUMPI PUSH1 0x0 CALLDATALOAD PUSH1 0xE0 SHR DUP1 PUSH4 0x313CE567 GT PUSH2 0x5B JUMPI DUP1 PUSH4 0x313CE567 EQ PUSH2 0xDC JUMPI DUP1 PUSH4 0x36244481 EQ PUSH2 0xFA JUMPI DUP1 PUSH4 0x48A00467 EQ PUSH2 0x116 JUMPI DUP1 PUSH4 0x70A08231 EQ PUSH2 0x132 JUMPI PUSH2 0x7D JUMP JUMPDEST DUP1 PUSH4 0x18160DDD EQ PUSH2 0x82 JUMPI DUP1 PUSH4 0x2E0F2625 EQ PUSH2 0xA0 JUMPI DUP1 PUSH4 0x2FF2E9DC EQ PUSH2 0xBE JUMPI JUMPDEST PUSH1 0x0 DUP1 REVERT JUMPDEST PUSH2 0x8A PUSH2 0x162 JUMP JUMPDEST PUSH1 0x40 MLOAD PUSH2 0x97 SWAP2 SWAP1 PUSH2 0x37D JUMP JUMPDEST PUSH1 0x40 MLOAD DUP1 SWAP2 SUB SWAP1 RETURN JUMPDEST PUSH2 0xA8 PUSH2 0x168 JUMP JUMPDEST PUSH1 0x40 MLOAD PUSH2 0xB5 SWAP2 SWAP1 PUSH2 0x3B4 JUMP JUMPDEST PUSH1 0x40 MLOAD DUP1 SWAP2 SUB SWAP1 RETURN JUMPDEST PUSH2 0xC6 PUSH2 0x16D JUMP JUMPDEST PUSH1 0x40 MLOAD PUSH2 0xD3 SWAP2 SWAP1 PUSH2 0x37D JUMP JUMPDEST PUSH1 0x40 MLOAD DUP1 SWAP2 SUB SWAP1 RETURN JUMPDEST PUSH2 0xE4 PUSH2 0x18E JUMP JUMPDEST PUSH1 0x40 MLOAD PUSH2 0xF1 SWAP2 SWAP1 PUSH2 0x3B4 JUMP JUMPDEST PUSH1 0x40 MLOAD DUP1 SWAP2 SUB SWAP1 RETURN JUMPDEST PUSH2 0x114 PUSH1 0x4 DUP1 CALLDATASIZE SUB DUP2 ADD SWAP1 PUSH2 0x10F SWAP2 SWAP1 PUSH2 0x45E JUMP JUMPDEST PUSH2 0x1A5 JUMP JUMPDEST STOP JUMPDEST PUSH2 0x130 PUSH1 0x4 DUP1 CALLDATASIZE SUB DUP2 ADD SWAP1 PUSH2 0x12B SWAP2 SWAP1 PUSH2 0x45E JUMP JUMPDEST PUSH2 0x274 JUMP JUMPDEST STOP JUMPDEST PUSH2 0x14C PUSH1 0x4 DUP1 CALLDATASIZE SUB DUP2 ADD SWAP1 PUSH2 0x147 SWAP2 SWAP1 PUSH2 0x49E JUMP JUMPDEST PUSH2 0x34C JUMP JUMPDEST PUSH1 0x40 MLOAD PUSH2 0x159 SWAP2 SWAP1 PUSH2 0x37D JUMP JUMPDEST PUSH1 0x40 MLOAD DUP1 SWAP2 SUB SWAP1 RETURN JUMPDEST PUSH1 0x0 SLOAD DUP2 JUMP JUMPDEST PUSH1 0x12 DUP2 JUMP JUMPDEST PUSH1 0x12 PUSH1 0xFF AND PUSH1 0xA PUSH2 0x17E SWAP2 SWAP1 PUSH2 0x62D JUMP JUMPDEST PUSH2 0x2710 PUSH2 0x18B SWAP2 SWAP1 PUSH2 0x678 JUMP JUMPDEST DUP2 JUMP JUMPDEST PUSH1 0x0 PUSH1 0x4 PUSH1 0x0 SWAP1 SLOAD SWAP1 PUSH2 0x100 EXP SWAP1 DIV PUSH1 0xFF AND SWAP1 POP SWAP1 JUMP JUMPDEST DUP1 PUSH1 0x0 DUP1 DUP3 DUP3 SLOAD PUSH2 0x1B6 SWAP2 SWAP1 PUSH2 0x6D2 JUMP JUMPDEST SWAP3 POP POP DUP2 SWAP1 SSTORE POP DUP1 PUSH1 0x1 PUSH1 0x0 DUP5 PUSH20 0xFFFFFFFFFFFFFFFFFFFFFFFFFFFFFFFFFFFFFFFF AND PUSH20 0xFFFFFFFFFFFFFFFFFFFFFFFFFFFFFFFFFFFFFFFF AND DUP2 MSTORE PUSH1 0x20 ADD SWAP1 DUP2 MSTORE PUSH1 0x20 ADD PUSH1 0x0 KECCAK256 PUSH1 0x0 DUP3 DUP3 SLOAD ADD SWAP3 POP POP DUP2 SWAP1 SSTORE POP DUP2 PUSH20 0xFFFFFFFFFFFFFFFFFFFFFFFFFFFFFFFFFFFFFFFF AND PUSH1 0x0 PUSH20 0xFFFFFFFFFFFFFFFFFFFFFFFFFFFFFFFFFFFFFFFF AND PUSH32 0xDDF252AD1BE2C89B69C2B068FC378DAA952BA7F163C4A11628F55A4DF523B3EF DUP4 PUSH1 0x40 MLOAD PUSH2 0x268 SWAP2 SWAP1 PUSH2 0x37D JUMP JUMPDEST PUSH1 0x40 MLOAD DUP1 SWAP2 SUB SWAP1 LOG3 POP POP JUMP JUMPDEST DUP1 PUSH1 0x0 DUP1 DUP3 DUP3 SLOAD PUSH2 0x285 SWAP2 SWAP1 PUSH2 0x6D2 JUMP JUMPDEST SWAP3 POP POP DUP2 SWAP1 SSTORE POP DUP1 PUSH1 0x1 PUSH1 0x0 DUP5 PUSH20 0xFFFFFFFFFFFFFFFFFFFFFFFFFFFFFFFFFFFFFFFF AND PUSH20 0xFFFFFFFFFFFFFFFFFFFFFFFFFFFFFFFFFFFFFFFF AND DUP2 MSTORE PUSH1 0x20 ADD SWAP1 DUP2 MSTORE PUSH1 0x20 ADD PUSH1 0x0 KECCAK256 PUSH1 0x0 DUP3 DUP3 SLOAD PUSH2 0x2DB SWAP2 SWAP1 PUSH2 0x6D2 JUMP JUMPDEST SWAP3 POP POP DUP2 SWAP1 SSTORE POP DUP2 PUSH20 0xFFFFFFFFFFFFFFFFFFFFFFFFFFFFFFFFFFFFFFFF AND PUSH1 0x0 PUSH20 0xFFFFFFFFFFFFFFFFFFFFFFFFFFFFFFFFFFFFFFFF AND PUSH32 0xDDF252AD1BE2C89B69C2B068FC378DAA952BA7F163C4A11628F55A4DF523B3EF DUP4 PUSH1 0x40 MLOAD PUSH2 0x340 SWAP2 SWAP1 PUSH2 0x37D JUMP JUMPDEST PUSH1 0x40 MLOAD DUP1 SWAP2 SUB SWAP1 LOG3 POP POP JUMP JUMPDEST PUSH1 0x1 PUSH1 0x20 MSTORE DUP1 PUSH1 0x0 MSTORE PUSH1 0x40 PUSH1 0x0 KECCAK256 PUSH1 0x0 SWAP2 POP SWAP1 POP SLOAD DUP2 JUMP JUMPDEST PUSH1 0x0 DUP2 SWAP1 POP SWAP2 SWAP1 POP JUMP JUMPDEST PUSH2 0x377 DUP2 PUSH2 0x364 JUMP JUMPDEST DUP3 MSTORE POP POP JUMP JUMPDEST PUSH1 0x0 PUSH1 0x20 DUP3 ADD SWAP1 POP PUSH2 0x392 PUSH1 0x0 DUP4 ADD DUP5 PUSH2 0x36E JUMP JUMPDEST SWAP3 SWAP2 POP POP JUMP JUMPDEST PUSH1 0x0 PUSH1 0xFF DUP3 AND SWAP1 POP SWAP2 SWAP1 POP JUMP JUMPDEST PUSH2 0x3AE DUP2 PUSH2 0x398 JUMP JUMPDEST DUP3 MSTORE POP POP JUMP JUMPDEST PUSH1 0x0 PUSH1 0x20 DUP3 ADD SWAP1 POP PUSH2 0x3C9 PUSH1 0x0 DUP4 ADD DUP5 PUSH2 0x3A5 JUMP JUMPDEST SWAP3 SWAP2 POP POP JUMP JUMPDEST PUSH1 0x0 DUP1 REVERT JUMPDEST PUSH1 0x0 PUSH20 0xFFFFFFFFFFFFFFFFFFFFFFFFFFFFFFFFFFFFFFFF DUP3 AND SWAP1 POP SWAP2 SWAP1 POP JUMP JUMPDEST PUSH1 0x0 PUSH2 0x3FF DUP3 PUSH2 0x3D4 JUMP JUMPDEST SWAP1 POP SWAP2 SWAP1 POP JUMP JUMPDEST PUSH2 0x40F DUP2 PUSH2 0x3F4 JUMP JUMPDEST DUP2 EQ PUSH2 0x41A JUMPI PUSH1 0x0 DUP1 REVERT JUMPDEST POP JUMP JUMPDEST PUSH1 0x0 DUP2 CALLDATALOAD SWAP1 POP PUSH2 0x42C DUP2 PUSH2 0x406 JUMP JUMPDEST SWAP3 SWAP2 POP POP JUMP JUMPDEST PUSH2 0x43B DUP2 PUSH2 0x364 JUMP JUMPDEST DUP2 EQ PUSH2 0x446 JUMPI PUSH1 0x0 DUP1 REVERT JUMPDEST POP JUMP JUMPDEST PUSH1 0x0 DUP2 CALLDATALOAD SWAP1 POP PUSH2 0x458 DUP2 PUSH2 0x432 JUMP JUMPDEST SWAP3 SWAP2 POP POP JUMP JUMPDEST PUSH1 0x0 DUP1 PUSH1 0x40 DUP4 DUP6 SUB SLT ISZERO PUSH2 0x475 JUMPI PUSH2 0x474 PUSH2 0x3CF JUMP JUMPDEST JUMPDEST PUSH1 0x0 PUSH2 0x483 DUP6 DUP3 DUP7 ADD PUSH2 0x41D JUMP JUMPDEST SWAP3 POP POP PUSH1 0x20 PUSH2 0x494 DUP6 DUP3 DUP7 ADD PUSH2 0x449 JUMP JUMPDEST SWAP2 POP POP SWAP3 POP SWAP3 SWAP1 POP JUMP JUMPDEST PUSH1 0x0 PUSH1 0x20 DUP3 DUP5 SUB SLT ISZERO PUSH2 0x4B4 JUMPI PUSH2 0x4B3 PUSH2 0x3CF JUMP JUMPDEST JUMPDEST PUSH1 0x0 PUSH2 0x4C2 DUP5 DUP3 DUP6 ADD PUSH2 0x41D JUMP JUMPDEST SWAP2 POP POP SWAP3 SWAP2 POP POP JUMP JUMPDEST PUSH32 0x4E487B7100000000000000000000000000000000000000000000000000000000 PUSH1 0x0 MSTORE PUSH1 0x11 PUSH1 0x4 MSTORE PUSH1 0x24 PUSH1 0x0 REVERT JUMPDEST PUSH1 0x0 DUP2 PUSH1 0x1 SHR SWAP1 POP SWAP2 SWAP1 POP JUMP JUMPDEST PUSH1 0x0 DUP1 DUP3 SWAP2 POP DUP4 SWAP1 POP JUMPDEST PUSH1 0x1 DUP6 GT ISZERO PUSH2 0x551 JUMPI DUP1 DUP7 DIV DUP2 GT ISZERO PUSH2 0x52D JUMPI PUSH2 0x52C PUSH2 0x4CB JUMP JUMPDEST JUMPDEST PUSH1 0x1 DUP6 AND ISZERO PUSH2 0x53C JUMPI DUP1 DUP3 MUL SWAP2 POP JUMPDEST DUP1 DUP2 MUL SWAP1 POP PUSH2 0x54A DUP6 PUSH2 0x4FA JUMP JUMPDEST SWAP5 POP PUSH2 0x511 JUMP JUMPDEST SWAP5 POP SWAP5 SWAP3 POP POP POP JUMP JUMPDEST PUSH1 0x0 DUP3 PUSH2 0x56A JUMPI PUSH1 0x1 SWAP1 POP PUSH2 0x626 JUMP JUMPDEST DUP2 PUSH2 0x578 JUMPI PUSH1 0x0 SWAP1 POP PUSH2 0x626 JUMP JUMPDEST DUP2 PUSH1 0x1 DUP2 EQ PUSH2 0x58E JUMPI PUSH1 0x2 DUP2 EQ PUSH2 0x598 JUMPI PUSH2 0x5C7 JUMP JUMPDEST PUSH1 0x1 SWAP2 POP POP PUSH2 0x626 JUMP JUMPDEST PUSH1 0xFF DUP5 GT ISZERO PUSH2 0x5AA JUMPI PUSH2 0x5A9 PUSH2 0x4CB JUMP JUMPDEST JUMPDEST DUP4 PUSH1 0x2 EXP SWAP2 POP DUP5 DUP3 GT ISZERO PUSH2 0x5C1 JUMPI PUSH2 0x5C0 PUSH2 0x4CB JUMP JUMPDEST JUMPDEST POP PUSH2 0x626 JUMP JUMPDEST POP PUSH1 0x20 DUP4 LT PUSH2 0x133 DUP4 LT AND PUSH1 0x4E DUP5 LT PUSH1 0xB DUP5 LT AND OR ISZERO PUSH2 0x5FC JUMPI DUP3 DUP3 EXP SWAP1 POP DUP4 DUP2 GT ISZERO PUSH2 0x5F7 JUMPI PUSH2 0x5F6 PUSH2 0x4CB JUMP JUMPDEST JUMPDEST PUSH2 0x626 JUMP JUMPDEST PUSH2 0x609 DUP5 DUP5 DUP5 PUSH1 0x1 PUSH2 0x507 JUMP JUMPDEST SWAP3 POP SWAP1 POP DUP2 DUP5 DIV DUP2 GT ISZERO PUSH2 0x620 JUMPI PUSH2 0x61F PUSH2 0x4CB JUMP JUMPDEST JUMPDEST DUP2 DUP2 MUL SWAP1 POP JUMPDEST SWAP4 SWAP3 POP POP POP JUMP JUMPDEST PUSH1 0x0 PUSH2 0x638 DUP3 PUSH2 0x364 JUMP JUMPDEST SWAP2 POP PUSH2 0x643 DUP4 PUSH2 0x364 JUMP JUMPDEST SWAP3 POP PUSH2 0x670 PUSH32 0xFFFFFFFFFFFFFFFFFFFFFFFFFFFFFFFFFFFFFFFFFFFFFFFFFFFFFFFFFFFFFFFF DUP5 DUP5 PUSH2 0x55A JUMP JUMPDEST SWAP1 POP SWAP3 SWAP2 POP POP JUMP JUMPDEST PUSH1 0x0 PUSH2 0x683 DUP3 PUSH2 0x364 JUMP JUMPDEST SWAP2 POP PUSH2 0x68E DUP4 PUSH2 0x364 JUMP JUMPDEST SWAP3 POP DUP2 PUSH32 0xFFFFFFFFFFFFFFFFFFFFFFFFFFFFFFFFFFFFFFFFFFFFFFFFFFFFFFFFFFFFFFFF DIV DUP4 GT DUP3 ISZERO ISZERO AND ISZERO PUSH2 0x6C7 JUMPI PUSH2 0x6C6 PUSH2 0x4CB JUMP JUMPDEST JUMPDEST DUP3 DUP3 MUL SWAP1 POP SWAP3 SWAP2 POP POP JUMP JUMPDEST PUSH1 0x0 PUSH2 0x6DD DUP3 PUSH2 0x364 JUMP JUMPDEST SWAP2 POP PUSH2 0x6E8 DUP4 PUSH2 0x364 JUMP JUMPDEST SWAP3 POP DUP3 PUSH32 0xFFFFFFFFFFFFFFFFFFFFFFFFFFFFFFFFFFFFFFFFFFFFFFFFFFFFFFFFFFFFFFFF SUB DUP3 GT ISZERO PUSH2 0x71D JUMPI PUSH2 0x71C PUSH2 0x4CB JUMP JUMPDEST JUMPDEST DUP3 DUP3 ADD SWAP1 POP SWAP3 SWAP2 POP POP JUMP INVALID LOG2 PUSH5 0x6970667358 0x22 SLT KECCAK256 PUSH12 0x2864E8B3AC8799B5FBA59206 0xB1 SLT 0xE0 0xB2 MSTORE CALLDATALOAD CALLVALUE BASEFEE PUSH1 0x2D 0xBC PUSH5 0xD6D743055E 0xEC MSTORE PUSH5 0x736F6C6343 STOP ADDMOD 0xF STOP CALLER PUSH1 0x80 PUSH1 0x40 MSTORE CALLVALUE DUP1 ISZERO PUSH3 0x11 JUMPI PUSH1 0x0 DUP1 REVERT JUMPDEST POP PUSH1 0x40 MLOAD DUP1 PUSH1 0x40 ADD PUSH1 0x40 MSTORE DUP1 PUSH1 0xB DUP2 MSTORE PUSH1 0x20 ADD PUSH32 0x53696D706C65546F6B656E000000000000000000000000000000000000000000 DUP2 MSTORE POP PUSH1 0x40 MLOAD DUP1 PUSH1 0x40 ADD PUSH1 0x40 MSTORE DUP1 PUSH1 0x3 DUP2 MSTORE PUSH1 0x20 ADD PUSH32 0x53494D0000000000000000000000000000000000000000000000000000000000 DUP2 MSTORE POP PUSH1 0x12 DUP3 PUSH1 0x2 SWAP1 DUP2 PUSH3 0x91 SWAP2 SWAP1 PUSH3 0x46D JUMP JUMPDEST POP DUP2 PUSH1 0x3 SWAP1 DUP2 PUSH3 0xA3 SWAP2 SWAP1 PUSH3 0x46D JUMP JUMPDEST POP DUP1 PUSH1 0x4 PUSH1 0x0 PUSH2 0x100 EXP DUP2 SLOAD DUP2 PUSH1 0xFF MUL NOT AND SWAP1 DUP4 PUSH1 0xFF AND MUL OR SWAP1 SSTORE POP POP POP POP PUSH3 0x103 CALLER PUSH3 0xD7 PUSH3 0x109 PUSH1 0x20 SHL PUSH1 0x20 SHR JUMP JUMPDEST PUSH1 0xFF AND PUSH1 0xA PUSH3 0xE8 SWAP2 SWAP1 PUSH3 0x6D7 JUMP JUMPDEST PUSH2 0x2710 PUSH3 0xF7 SWAP2 SWAP1 PUSH3 0x728 JUMP JUMPDEST PUSH3 0x120 PUSH1 0x20 SHL PUSH1 0x20 SHR JUMP JUMPDEST PUSH3 0x814 JUMP JUMPDEST PUSH1 0x0 PUSH1 0x4 PUSH1 0x0 SWAP1 SLOAD SWAP1 PUSH2 0x100 EXP SWAP1 DIV PUSH1 0xFF AND SWAP1 POP SWAP1 JUMP JUMPDEST DUP1 PUSH1 0x0 DUP1 DUP3 DUP3 SLOAD PUSH3 0x133 SWAP2 SWAP1 PUSH3 0x789 JUMP JUMPDEST SWAP3 POP POP DUP2 SWAP1 SSTORE POP DUP1 PUSH1 0x1 PUSH1 0x0 DUP5 PUSH20 0xFFFFFFFFFFFFFFFFFFFFFFFFFFFFFFFFFFFFFFFF AND PUSH20 0xFFFFFFFFFFFFFFFFFFFFFFFFFFFFFFFFFFFFFFFF AND DUP2 MSTORE PUSH1 0x20 ADD SWAP1 DUP2 MSTORE PUSH1 0x20 ADD PUSH1 0x0 KECCAK256 PUSH1 0x0 DUP3 DUP3 SLOAD ADD SWAP3 POP POP DUP2 SWAP1 SSTORE POP DUP2 PUSH20 0xFFFFFFFFFFFFFFFFFFFFFFFFFFFFFFFFFFFFFFFF AND PUSH1 0x0 PUSH20 0xFFFFFFFFFFFFFFFFFFFFFFFFFFFFFFFFFFFFFFFF AND PUSH32 0xDDF252AD1BE2C89B69C2B068FC378DAA952BA7F163C4A11628F55A4DF523B3EF DUP4 PUSH1 0x40 MLOAD PUSH3 0x1E7 SWAP2 SWAP1 PUSH3 0x7F7 JUMP JUMPDEST PUSH1 0x40 MLOAD DUP1 SWAP2 SUB SWAP1 LOG3 POP POP JUMP JUMPDEST PUSH1 0x0 DUP2 MLOAD SWAP1 POP SWAP2 SWAP1 POP JUMP JUMPDEST PUSH32 0x4E487B7100000000000000000000000000000000000000000000000000000000 PUSH1 0x0 MSTORE PUSH1 0x41 PUSH1 0x4 MSTORE PUSH1 0x24 PUSH1 0x0 REVERT JUMPDEST PUSH32 0x4E487B7100000000000000000000000000000000000000000000000000000000 PUSH1 0x0 MSTORE PUSH1 0x22 PUSH1 0x4 MSTORE PUSH1 0x24 PUSH1 0x0 REVERT JUMPDEST PUSH1 0x0 PUSH1 0x2 DUP3 DIV SWAP1 POP PUSH1 0x1 DUP3 AND DUP1 PUSH3 0x275 JUMPI PUSH1 0x7F DUP3 AND SWAP2 POP JUMPDEST PUSH1 0x20 DUP3 LT DUP2 SUB PUSH3 0x28B JUMPI PUSH3 0x28A PUSH3 0x22D JUMP JUMPDEST JUMPDEST POP SWAP2 SWAP1 POP JUMP JUMPDEST PUSH1 0x0 DUP2 SWAP1 POP DUP2 PUSH1 0x0 MSTORE PUSH1 0x20 PUSH1 0x0 KECCAK256 SWAP1 POP SWAP2 SWAP1 POP JUMP JUMPDEST PUSH1 0x0 PUSH1 0x20 PUSH1 0x1F DUP4 ADD DIV SWAP1 POP SWAP2 SWAP1 POP JUMP JUMPDEST PUSH1 0x0 DUP3 DUP3 SHL SWAP1 POP SWAP3 SWAP2 POP POP JUMP JUMPDEST PUSH1 0x0 PUSH1 0x8 DUP4 MUL PUSH3 0x2F5 PUSH32 0xFFFFFFFFFFFFFFFFFFFFFFFFFFFFFFFFFFFFFFFFFFFFFFFFFFFFFFFFFFFFFFFF DUP3 PUSH3 0x2B6 JUMP JUMPDEST PUSH3 0x301 DUP7 DUP4 PUSH3 0x2B6 JUMP JUMPDEST SWAP6 POP DUP1 NOT DUP5 AND SWAP4 POP DUP1 DUP7 AND DUP5 OR SWAP3 POP POP POP SWAP4 SWAP3 POP POP POP JUMP JUMPDEST PUSH1 0x0 DUP2 SWAP1 POP SWAP2 SWAP1 POP JUMP JUMPDEST PUSH1 0x0 DUP2 SWAP1 POP SWAP2 SWAP1 POP JUMP JUMPDEST PUSH1 0x0 PUSH3 0x34E PUSH3 0x348 PUSH3 0x342 DUP5 PUSH3 0x319 JUMP JUMPDEST PUSH3 0x323 JUMP JUMPDEST PUSH3 0x319 JUMP JUMPDEST SWAP1 POP SWAP2 SWAP1 POP JUMP JUMPDEST PUSH1 0x0 DUP2 SWAP1 POP SWAP2 SWAP1 POP JUMP JUMPDEST PUSH3 0x36A DUP4 PUSH3 0x32D JUMP JUMPDEST PUSH3 0x382 PUSH3 0x379 DUP3 PUSH3 0x355 JUMP JUMPDEST DUP5 DUP5 SLOAD PUSH3 0x2C3 JUMP JUMPDEST DUP3 SSTORE POP POP POP POP JUMP JUMPDEST PUSH1 0x0 SWAP1 JUMP JUMPDEST PUSH3 0x399 PUSH3 0x38A JUMP JUMPDEST PUSH3 0x3A6 DUP2 DUP5 DUP5 PUSH3 0x35F JUMP JUMPDEST POP POP POP JUMP JUMPDEST JUMPDEST DUP2 DUP2 LT ISZERO PUSH3 0x3CE JUMPI PUSH3 0x3C2 PUSH1 0x0 DUP3 PUSH3 0x38F JUMP JUMPDEST PUSH1 0x1 DUP2 ADD SWAP1 POP PUSH3 0x3AC JUMP JUMPDEST POP POP JUMP JUMPDEST PUSH1 0x1F DUP3 GT ISZERO PUSH3 0x41D JUMPI PUSH3 0x3E7 DUP2 PUSH3 0x291 JUMP JUMPDEST PUSH3 0x3F2 DUP5 PUSH3 0x2A6 JUMP JUMPDEST DUP2 ADD PUSH1 0x20 DUP6 LT ISZERO PUSH3 0x402 JUMPI DUP2 SWAP1 POP JUMPDEST PUSH3 0x41A PUSH3 0x411 DUP6 PUSH3 0x2A6 JUMP JUMPDEST DUP4 ADD DUP3 PUSH3 0x3AB JUMP JUMPDEST POP POP JUMPDEST POP POP POP JUMP JUMPDEST PUSH1 0x0 DUP3 DUP3 SHR SWAP1 POP SWAP3 SWAP2 POP POP JUMP JUMPDEST PUSH1 0x0 PUSH3 0x442 PUSH1 0x0 NOT DUP5 PUSH1 0x8 MUL PUSH3 0x422 JUMP JUMPDEST NOT DUP1 DUP4 AND SWAP2 POP POP SWAP3 SWAP2 POP POP JUMP JUMPDEST PUSH1 0x0 PUSH3 0x45D DUP4 DUP4 PUSH3 0x42F JUMP JUMPDEST SWAP2 POP DUP3 PUSH1 0x2 MUL DUP3 OR SWAP1 POP SWAP3 SWAP2 POP POP JUMP JUMPDEST PUSH3 0x478 DUP3 PUSH3 0x1F3 JUMP JUMPDEST PUSH8 0xFFFFFFFFFFFFFFFF DUP2 GT ISZERO PUSH3 0x494 JUMPI PUSH3 0x493 PUSH3 0x1FE JUMP JUMPDEST JUMPDEST PUSH3 0x4A0 DUP3 SLOAD PUSH3 0x25C JUMP JUMPDEST PUSH3 0x4AD DUP3 DUP3 DUP6 PUSH3 0x3D2 JUMP JUMPDEST PUSH1 0x0 PUSH1 0x20 SWAP1 POP PUSH1 0x1F DUP4 GT PUSH1 0x1 DUP2 EQ PUSH3 0x4E5 JUMPI PUSH1 0x0 DUP5 ISZERO PUSH3 0x4D0 JUMPI DUP3 DUP8 ADD MLOAD SWAP1 POP JUMPDEST PUSH3 0x4DC DUP6 DUP3 PUSH3 0x44F JUMP JUMPDEST DUP7 SSTORE POP PUSH3 0x54C JUMP JUMPDEST PUSH1 0x1F NOT DUP5 AND PUSH3 0x4F5 DUP7 PUSH3 0x291 JUMP JUMPDEST PUSH1 0x0 JUMPDEST DUP3 DUP2 LT ISZERO PUSH3 0x51F JUMPI DUP5 DUP10 ADD MLOAD DUP3 SSTORE PUSH1 0x1 DUP3 ADD SWAP2 POP PUSH1 0x20 DUP6 ADD SWAP5 POP PUSH1 0x20 DUP2 ADD SWAP1 POP PUSH3 0x4F8 JUMP JUMPDEST DUP7 DUP4 LT ISZERO PUSH3 0x53F JUMPI DUP5 DUP10 ADD MLOAD PUSH3 0x53B PUSH1 0x1F DUP10 AND DUP3 PUSH3 0x42F JUMP JUMPDEST DUP4 SSTORE POP JUMPDEST PUSH1 0x1 PUSH1 0x2 DUP9 MUL ADD DUP9 SSTORE POP POP POP JUMPDEST POP POP POP POP POP POP JUMP JUMPDEST PUSH32 0x4E487B7100000000000000000000000000000000000000000000000000000000 PUSH1 0x0 MSTORE PUSH1 0x11 PUSH1 0x4 MSTORE PUSH1 0x24 PUSH1 0x0 REVERT JUMPDEST PUSH1 0x0 DUP2 PUSH1 0x1 SHR SWAP1 POP SWAP2 SWAP1 POP JUMP JUMPDEST PUSH1 0x0 DUP1 DUP3 SWAP2 POP DUP4 SWAP1 POP JUMPDEST PUSH1 0x1 DUP6 GT ISZERO PUSH3 0x5E2 JUMPI DUP1 DUP7 DIV DUP2 GT ISZERO PUSH3 0x5BA JUMPI PUSH3 0x5B9 PUSH3 0x554 JUMP JUMPDEST JUMPDEST PUSH1 0x1 DUP6 AND ISZERO PUSH3 0x5CA JUMPI DUP1 DUP3 MUL SWAP2 POP JUMPDEST DUP1 DUP2 MUL SWAP1 POP PUSH3 0x5DA DUP6 PUSH3 0x583 JUMP JUMPDEST SWAP5 POP PUSH3 0x59A JUMP JUMPDEST SWAP5 POP SWAP5 SWAP3 POP POP POP JUMP JUMPDEST PUSH1 0x0 DUP3 PUSH3 0x5FD JUMPI PUSH1 0x1 SWAP1 POP PUSH3 0x6D0 JUMP JUMPDEST DUP2 PUSH3 0x60D JUMPI PUSH1 0x0 SWAP1 POP PUSH3 0x6D0 JUMP JUMPDEST DUP2 PUSH1 0x1 DUP2 EQ PUSH3 0x626 JUMPI PUSH1 0x2 DUP2 EQ PUSH3 0x631 JUMPI PUSH3 0x667 JUMP JUMPDEST PUSH1 0x1 SWAP2 POP POP PUSH3 0x6D0 JUMP JUMPDEST PUSH1 0xFF DUP5 GT ISZERO PUSH3 0x646 JUMPI PUSH3 0x645 PUSH3 0x554 JUMP JUMPDEST JUMPDEST DUP4 PUSH1 0x2 EXP SWAP2 POP DUP5 DUP3 GT ISZERO PUSH3 0x660 JUMPI PUSH3 0x65F PUSH3 0x554 JUMP JUMPDEST JUMPDEST POP PUSH3 0x6D0 JUMP JUMPDEST POP PUSH1 0x20 DUP4 LT PUSH2 0x133 DUP4 LT AND PUSH1 0x4E DUP5 LT PUSH1 0xB DUP5 LT AND OR ISZERO PUSH3 0x6A1 JUMPI DUP3 DUP3 EXP SWAP1 POP DUP4 DUP2 GT ISZERO PUSH3 0x69B JUMPI PUSH3 0x69A PUSH3 0x554 JUMP JUMPDEST JUMPDEST PUSH3 0x6D0 JUMP JUMPDEST PUSH3 0x6B0 DUP5 DUP5 DUP5 PUSH1 0x1 PUSH3 0x590 JUMP JUMPDEST SWAP3 POP SWAP1 POP DUP2 DUP5 DIV DUP2 GT ISZERO PUSH3 0x6CA JUMPI PUSH3 0x6C9 PUSH3 0x554 JUMP JUMPDEST JUMPDEST DUP2 DUP2 MUL SWAP1 POP JUMPDEST SWAP4 SWAP3 POP POP POP JUMP JUMPDEST PUSH1 0x0 PUSH3 0x6E4 DUP3 PUSH3 0x319 JUMP JUMPDEST SWAP2 POP PUSH3 0x6F1 DUP4 PUSH3 0x319 JUMP JUMPDEST SWAP3 POP PUSH3 0x720 PUSH32 0xFFFFFFFFFFFFFFFFFFFFFFFFFFFFFFFFFFFFFFFFFFFFFFFFFFFFFFFFFFFFFFFF DUP5 DUP5 PUSH3 0x5EB JUMP JUMPDEST SWAP1 POP SWAP3 SWAP2 POP POP JUMP JUMPDEST PUSH1 0x0 PUSH3 0x735 DUP3 PUSH3 0x319 JUMP JUMPDEST SWAP2 POP PUSH3 0x742 DUP4 PUSH3 0x319 JUMP JUMPDEST SWAP3 POP DUP2 PUSH32 0xFFFFFFFFFFFFFFFFFFFFFFFFFFFFFFFFFFFFFFFFFFFFFFFFFFFFFFFFFFFFFFFF DIV DUP4 GT DUP3 ISZERO ISZERO AND ISZERO PUSH3 0x77E JUMPI PUSH3 0x77D PUSH3 0x554 JUMP JUMPDEST JUMPDEST DUP3 DUP3 MUL SWAP1 POP SWAP3 SWAP2 POP POP JUMP JUMPDEST PUSH1 0x0 PUSH3 0x796 DUP3 PUSH3 0x319 JUMP JUMPDEST SWAP2 POP PUSH3 0x7A3 DUP4 PUSH3 0x319 JUMP JUMPDEST SWAP3 POP DUP3 PUSH32 0xFFFFFFFFFFFFFFFFFFFFFFFFFFFFFFFFFFFFFFFFFFFFFFFFFFFFFFFFFFFFFFFF SUB DUP3 GT ISZERO PUSH3 0x7DB JUMPI PUSH3 0x7DA PUSH3 0x554 JUMP JUMPDEST JUMPDEST DUP3 DUP3 ADD SWAP1 POP SWAP3 SWAP2 POP POP JUMP JUMPDEST PUSH3 0x7F1 DUP2 PUSH3 0x319 JUMP JUMPDEST DUP3 MSTORE POP POP JUMP JUMPDEST PUSH1 0x0 PUSH1 0x20 DUP3 ADD SWAP1 POP PUSH3 0x80E PUSH1 0x0 DUP4 ADD DUP5 PUSH3 0x7E6 JUMP JUMPDEST SWAP3 SWAP2 POP POP JUMP JUMPDEST PUSH2 0x4FE DUP1 PUSH3 0x824 PUSH1 0x0 CODECOPY PUSH1 0x0 RETURN INVALID PUSH1 0x80 PUSH1 0x40 MSTORE CALLVALUE DUP1 ISZERO PUSH2 0x10 JUMPI PUSH1 0x0 DUP1 REVERT JUMPDEST POP PUSH1 0x4 CALLDATASIZE LT PUSH2 0x57 JUMPI PUSH1 0x0 CALLDATALOAD PUSH1 0xE0 SHR DUP1 PUSH4 0x18160DDD EQ PUSH2 0x5C JUMPI DUP1 PUSH4 0x313CE567 EQ PUSH2 0x7A JUMPI DUP1 PUSH4 0x36244481 EQ PUSH2 0x98 JUMPI DUP1 PUSH4 0x48A00467 EQ PUSH2 0xB4 JUMPI DUP1 PUSH4 0x70A08231 EQ PUSH2 0xD0 JUMPI JUMPDEST PUSH1 0x0 DUP1 REVERT JUMPDEST PUSH2 0x64 PUSH2 0x100 JUMP JUMPDEST PUSH1 0x40 MLOAD PUSH2 0x71 SWAP2 SWAP1 PUSH2 0x2F5 JUMP JUMPDEST PUSH1 0x40 MLOAD DUP1 SWAP2 SUB SWAP1 RETURN JUMPDEST PUSH2 0x82 PUSH2 0x106 JUMP JUMPDEST PUSH1 0x40 MLOAD PUSH2 0x8F SWAP2 SWAP1 PUSH2 0x32C JUMP JUMPDEST PUSH1 0x40 MLOAD DUP1 SWAP2 SUB SWAP1 RETURN JUMPDEST PUSH2 0xB2 PUSH1 0x4 DUP1 CALLDATASIZE SUB DUP2 ADD SWAP1 PUSH2 0xAD SWAP2 SWAP1 PUSH2 0x3D6 JUMP JUMPDEST PUSH2 0x11D JUMP JUMPDEST STOP JUMPDEST PUSH2 0xCE PUSH1 0x4 DUP1 CALLDATASIZE SUB DUP2 ADD SWAP1 PUSH2 0xC9 SWAP2 SWAP1 PUSH2 0x3D6 JUMP JUMPDEST PUSH2 0x1EC JUMP JUMPDEST STOP JUMPDEST PUSH2 0xEA PUSH1 0x4 DUP1 CALLDATASIZE SUB DUP2 ADD SWAP1 PUSH2 0xE5 SWAP2 SWAP1 PUSH2 0x416 JUMP JUMPDEST PUSH2 0x2C4 JUMP JUMPDEST PUSH1 0x40 MLOAD PUSH2 0xF7 SWAP2 SWAP1 PUSH2 0x2F5 JUMP JUMPDEST PUSH1 0x40 MLOAD DUP1 SWAP2 SUB SWAP1 RETURN JUMPDEST PUSH1 0x0 SLOAD DUP2 JUMP JUMPDEST PUSH1 0x0 PUSH1 0x4 PUSH1 0x0 SWAP1 SLOAD SWAP1 PUSH2 0x100 EXP SWAP1 DIV PUSH1 0xFF AND SWAP1 POP SWAP1 JUMP JUMPDEST DUP1 PUSH1 0x0 DUP1 DUP3 DUP3 SLOAD PUSH2 0x12E SWAP2 SWAP1 PUSH2 0x472 JUMP JUMPDEST SWAP3 POP POP DUP2 SWAP1 SSTORE POP DUP1 PUSH1 0x1 PUSH1 0x0 DUP5 PUSH20 0xFFFFFFFFFFFFFFFFFFFFFFFFFFFFFFFFFFFFFFFF AND PUSH20 0xFFFFFFFFFFFFFFFFFFFFFFFFFFFFFFFFFFFFFFFF AND DUP2 MSTORE PUSH1 0x20 ADD SWAP1 DUP2 MSTORE PUSH1 0x20 ADD PUSH1 0x0 KECCAK256 PUSH1 0x0 DUP3 DUP3 SLOAD ADD SWAP3 POP POP DUP2 SWAP1 SSTORE POP DUP2 PUSH20 0xFFFFFFFFFFFFFFFFFFFFFFFFFFFFFFFFFFFFFFFF AND PUSH1 0x0 PUSH20 0xFFFFFFFFFFFFFFFFFFFFFFFFFFFFFFFFFFFFFFFF AND PUSH32 0xDDF252AD1BE2C89B69C2B068FC378DAA952BA7F163C4A11628F55A4DF523B3EF DUP4 PUSH1 0x40 MLOAD PUSH2 0x1E0 SWAP2 SWAP1 PUSH2 0x2F5 JUMP JUMPDEST PUSH1 0x40 MLOAD DUP1 SWAP2 SUB SWAP1 LOG3 POP POP JUMP JUMPDEST DUP1 PUSH1 0x0 DUP1 DUP3 DUP3 SLOAD PUSH2 0x1FD SWAP2 SWAP1 PUSH2 0x472 JUMP JUMPDEST SWAP3 POP POP DUP2 SWAP1 SSTORE POP DUP1 PUSH1 0x1 PUSH1 0x0 DUP5 PUSH20 0xFFFFFFFFFFFFFFFFFFFFFFFFFFFFFFFFFFFFFFFF AND PUSH20 0xFFFFFFFFFFFFFFFFFFFFFFFFFFFFFFFFFFFFFFFF AND DUP2 MSTORE PUSH1 0x20 ADD SWAP1 DUP2 MSTORE PUSH1 0x20 ADD PUSH1 0x0 KECCAK256 PUSH1 0x0 DUP3 DUP3 SLOAD PUSH2 0x253 SWAP2 SWAP1 PUSH2 0x472 JUMP JUMPDEST SWAP3 POP POP DUP2 SWAP1 SSTORE POP DUP2 PUSH20 0xFFFFFFFFFFFFFFFFFFFFFFFFFFFFFFFFFFFFFFFF AND PUSH1 0x0 PUSH20 0xFFFFFFFFFFFFFFFFFFFFFFFFFFFFFFFFFFFFFFFF AND PUSH32 0xDDF252AD1BE2C89B69C2B068FC378DAA952BA7F163C4A11628F55A4DF523B3EF DUP4 PUSH1 0x40 MLOAD PUSH2 0x2B8 SWAP2 SWAP1 PUSH2 0x2F5 JUMP JUMPDEST PUSH1 0x40 MLOAD DUP1 SWAP2 SUB SWAP1 LOG3 POP POP JUMP JUMPDEST PUSH1 0x1 PUSH1 0x20 MSTORE DUP1 PUSH1 0x0 MSTORE PUSH1 0x40 PUSH1 0x0 KECCAK256 PUSH1 0x0 SWAP2 POP SWAP1 POP SLOAD DUP2 JUMP JUMPDEST PUSH1 0x0 DUP2 SWAP1 POP SWAP2 SWAP1 POP JUMP JUMPDEST PUSH2 0x2EF DUP2 PUSH2 0x2DC JUMP JUMPDEST DUP3 MSTORE POP POP JUMP JUMPDEST PUSH1 0x0 PUSH1 0x20 DUP3 ADD SWAP1 POP PUSH2 0x30A PUSH1 0x0 DUP4 ADD DUP5 PUSH2 0x2E6 JUMP JUMPDEST SWAP3 SWAP2 POP POP JUMP JUMPDEST PUSH1 0x0 PUSH1 0xFF DUP3 AND SWAP1 POP SWAP2 SWAP1 POP JUMP JUMPDEST PUSH2 0x326 DUP2 PUSH2 0x310 JUMP JUMPDEST DUP3 MSTORE POP POP JUMP JUMPDEST PUSH1 0x0 PUSH1 0x20 DUP3 ADD SWAP1 POP PUSH2 0x341 PUSH1 0x0 DUP4 ADD DUP5 PUSH2 0x31D JUMP JUMPDEST SWAP3 SWAP2 POP POP JUMP JUMPDEST PUSH1 0x0 DUP1 REVERT JUMPDEST PUSH1 0x0 PUSH20 0xFFFFFFFFFFFFFFFFFFFFFFFFFFFFFFFFFFFFFFFF DUP3 AND SWAP1 POP SWAP2 SWAP1 POP JUMP JUMPDEST PUSH1 0x0 PUSH2 0x377 DUP3 PUSH2 0x34C JUMP JUMPDEST SWAP1 POP SWAP2 SWAP1 POP JUMP JUMPDEST PUSH2 0x387 DUP2 PUSH2 0x36C JUMP JUMPDEST DUP2 EQ PUSH2 0x392 JUMPI PUSH1 0x0 DUP1 REVERT JUMPDEST POP JUMP JUMPDEST PUSH1 0x0 DUP2 CALLDATALOAD SWAP1 POP PUSH2 0x3A4 DUP2 PUSH2 0x37E JUMP JUMPDEST SWAP3 SWAP2 POP POP JUMP JUMPDEST PUSH2 0x3B3 DUP2 PUSH2 0x2DC JUMP JUMPDEST DUP2 EQ PUSH2 0x3BE JUMPI PUSH1 0x0 DUP1 REVERT JUMPDEST POP JUMP JUMPDEST PUSH1 0x0 DUP2 CALLDATALOAD SWAP1 POP PUSH2 0x3D0 DUP2 PUSH2 0x3AA JUMP JUMPDEST SWAP3 SWAP2 POP POP JUMP JUMPDEST PUSH1 0x0 DUP1 PUSH1 0x40 DUP4 DUP6 SUB SLT ISZERO PUSH2 0x3ED JUMPI PUSH2 0x3EC PUSH2 0x347 JUMP JUMPDEST JUMPDEST PUSH1 0x0 PUSH2 0x3FB DUP6 DUP3 DUP7 ADD PUSH2 0x395 JUMP JUMPDEST SWAP3 POP POP PUSH1 0x20 PUSH2 0x40C DUP6 DUP3 DUP7 ADD PUSH2 0x3C1 JUMP JUMPDEST SWAP2 POP POP SWAP3 POP SWAP3 SWAP1 POP JUMP JUMPDEST PUSH1 0x0 PUSH1 0x20 DUP3 DUP5 SUB SLT ISZERO PUSH2 0x42C JUMPI PUSH2 0x42B PUSH2 0x347 JUMP JUMPDEST JUMPDEST PUSH1 0x0 PUSH2 0x43A DUP5 DUP3 DUP6 ADD PUSH2 0x395 JUMP JUMPDEST SWAP2 POP POP SWAP3 SWAP2 POP POP JUMP JUMPDEST PUSH32 0x4E487B7100000000000000000000000000000000000000000000000000000000 PUSH1 0x0 MSTORE PUSH1 0x11 PUSH1 0x4 MSTORE PUSH1 0x24 PUSH1 0x0 REVERT JUMPDEST PUSH1 0x0 PUSH2 0x47D DUP3 PUSH2 0x2DC JUMP JUMPDEST SWAP2 POP PUSH2 0x488 DUP4 PUSH2 0x2DC JUMP JUMPDEST SWAP3 POP DUP3 PUSH32 0xFFFFFFFFFFFFFFFFFFFFFFFFFFFFFFFFFFFFFFFFFFFFFFFFFFFFFFFFFFFFFFFF SUB DUP3 GT ISZERO PUSH2 0x4BD JUMPI PUSH2 0x4BC PUSH2 0x443 JUMP JUMPDEST JUMPDEST DUP3 DUP3 ADD SWAP1 POP SWAP3 SWAP2 POP POP JUMP INVALID LOG2 PUSH5 0x6970667358 0x22 SLT KECCAK256 0xD2 0xA6 PUSH14 0xDD720FFB397B84415C44F7B0D762 0xEA MLOAD SWAP11 SHL 0xD6 GT 0xA6 BYTE PUSH18 0xDDBBDC120D5C64736F6C634300080F003360 DUP1 PUSH1 0x40 MSTORE CALLVALUE DUP1 ISZERO PUSH2 0x10 JUMPI PUSH1 0x0 DUP1 REVERT JUMPDEST POP PUSH2 0x1F PUSH2 0xBA PUSH1 0x20 SHL PUSH1 0x20 SHR JUMP JUMPDEST PUSH1 0x0 DUP1 PUSH2 0x100 EXP DUP2 SLOAD DUP2 PUSH20 0xFFFFFFFFFFFFFFFFFFFFFFFFFFFFFFFFFFFFFFFF MUL NOT AND SWAP1 DUP4 PUSH20 0xFFFFFFFFFFFFFFFFFFFFFFFFFFFFFFFFFFFFFFFF AND MUL OR SWAP1 SSTORE POP PUSH32 0x4101E71E974F68DF5E9730CC223280B41654676BBB052CDCC735C3337E64D2D9 PUSH1 0x0 DUP1 SLOAD SWAP1 PUSH2 0x100 EXP SWAP1 DIV PUSH20 0xFFFFFFFFFFFFFFFFFFFFFFFFFFFFFFFFFFFFFFFF AND PUSH1 0x40 MLOAD PUSH2 0xAD SWAP2 SWAP1 PUSH2 0x103 JUMP JUMPDEST PUSH1 0x40 MLOAD DUP1 SWAP2 SUB SWAP1 LOG1 PUSH2 0x11E JUMP JUMPDEST PUSH1 0x0 CALLER SWAP1 POP SWAP1 JUMP JUMPDEST PUSH1 0x0 PUSH20 0xFFFFFFFFFFFFFFFFFFFFFFFFFFFFFFFFFFFFFFFF DUP3 AND SWAP1 POP SWAP2 SWAP1 POP JUMP JUMPDEST PUSH1 0x0 PUSH2 0xED DUP3 PUSH2 0xC2 JUMP JUMPDEST SWAP1 POP SWAP2 SWAP1 POP JUMP JUMPDEST PUSH2 0xFD DUP2 PUSH2 0xE2 JUMP JUMPDEST DUP3 MSTORE POP POP JUMP JUMPDEST PUSH1 0x0 PUSH1 0x20 DUP3 ADD SWAP1 POP PUSH2 0x118 PUSH1 0x0 DUP4 ADD DUP5 PUSH2 0xF4 JUMP JUMPDEST SWAP3 SWAP2 POP POP JUMP JUMPDEST PUSH2 0x2E8 DUP1 PUSH2 0x12D PUSH1 0x0 CODECOPY PUSH1 0x0 RETURN INVALID PUSH1 0x80 PUSH1 0x40 MSTORE CALLVALUE DUP1 ISZERO PUSH2 0x10 JUMPI PUSH1 0x0 DUP1 REVERT JUMPDEST POP PUSH1 0x4 CALLDATASIZE LT PUSH2 0x2B JUMPI PUSH1 0x0 CALLDATALOAD PUSH1 0xE0 SHR DUP1 PUSH4 0x2348238C EQ PUSH2 0x30 JUMPI JUMPDEST PUSH1 0x0 DUP1 REVERT JUMPDEST PUSH2 0x4A PUSH1 0x4 DUP1 CALLDATASIZE SUB DUP2 ADD SWAP1 PUSH2 0x45 SWAP2 SWAP1 PUSH2 0x1B8 JUMP JUMPDEST PUSH2 0x4C JUMP JUMPDEST STOP JUMPDEST PUSH1 0x0 PUSH20 0xFFFFFFFFFFFFFFFFFFFFFFFFFFFFFFFFFFFFFFFF AND DUP2 PUSH20 0xFFFFFFFFFFFFFFFFFFFFFFFFFFFFFFFFFFFFFFFF AND SUB PUSH2 0xBB JUMPI PUSH1 0x40 MLOAD PUSH32 0x8C379A000000000000000000000000000000000000000000000000000000000 DUP2 MSTORE PUSH1 0x4 ADD PUSH2 0xB2 SWAP1 PUSH2 0x268 JUMP JUMPDEST PUSH1 0x40 MLOAD DUP1 SWAP2 SUB SWAP1 REVERT JUMPDEST DUP1 PUSH1 0x0 DUP1 PUSH2 0x100 EXP DUP2 SLOAD DUP2 PUSH20 0xFFFFFFFFFFFFFFFFFFFFFFFFFFFFFFFFFFFFFFFF MUL NOT AND SWAP1 DUP4 PUSH20 0xFFFFFFFFFFFFFFFFFFFFFFFFFFFFFFFFFFFFFFFF AND MUL OR SWAP1 SSTORE POP PUSH32 0x4101E71E974F68DF5E9730CC223280B41654676BBB052CDCC735C3337E64D2D9 PUSH1 0x0 DUP1 SLOAD SWAP1 PUSH2 0x100 EXP SWAP1 DIV PUSH20 0xFFFFFFFFFFFFFFFFFFFFFFFFFFFFFFFFFFFFFFFF AND PUSH1 0x40 MLOAD PUSH2 0x14A SWAP2 SWAP1 PUSH2 0x297 JUMP JUMPDEST PUSH1 0x40 MLOAD DUP1 SWAP2 SUB SWAP1 LOG1 POP JUMP JUMPDEST PUSH1 0x0 DUP1 REVERT JUMPDEST PUSH1 0x0 PUSH20 0xFFFFFFFFFFFFFFFFFFFFFFFFFFFFFFFFFFFFFFFF DUP3 AND SWAP1 POP SWAP2 SWAP1 POP JUMP JUMPDEST PUSH1 0x0 PUSH2 0x185 DUP3 PUSH2 0x15A JUMP JUMPDEST SWAP1 POP SWAP2 SWAP1 POP JUMP JUMPDEST PUSH2 0x195 DUP2 PUSH2 0x17A JUMP JUMPDEST DUP2 EQ PUSH2 0x1A0 JUMPI PUSH1 0x0 DUP1 REVERT JUMPDEST POP JUMP JUMPDEST PUSH1 0x0 DUP2 CALLDATALOAD SWAP1 POP PUSH2 0x1B2 DUP2 PUSH2 0x18C JUMP JUMPDEST SWAP3 SWAP2 POP POP JUMP JUMPDEST PUSH1 0x0 PUSH1 0x20 DUP3 DUP5 SUB SLT ISZERO PUSH2 0x1CE JUMPI PUSH2 0x1CD PUSH2 0x155 JUMP JUMPDEST JUMPDEST PUSH1 0x0 PUSH2 0x1DC DUP5 DUP3 DUP6 ADD PUSH2 0x1A3 JUMP JUMPDEST SWAP2 POP POP SWAP3 SWAP2 POP POP JUMP JUMPDEST PUSH1 0x0 DUP3 DUP3 MSTORE PUSH1 0x20 DUP3 ADD SWAP1 POP SWAP3 SWAP2 POP POP JUMP JUMPDEST PUSH32 0x5365636F6E646172793A206E6577207072696D61727920697320746865207A65 PUSH1 0x0 DUP3 ADD MSTORE PUSH32 0x726F206164647265737300000000000000000000000000000000000000000000 PUSH1 0x20 DUP3 ADD MSTORE POP JUMP JUMPDEST PUSH1 0x0 PUSH2 0x252 PUSH1 0x2A DUP4 PUSH2 0x1E5 JUMP JUMPDEST SWAP2 POP PUSH2 0x25D DUP3 PUSH2 0x1F6 JUMP JUMPDEST PUSH1 0x40 DUP3 ADD SWAP1 POP SWAP2 SWAP1 POP JUMP JUMPDEST PUSH1 0x0 PUSH1 0x20 DUP3 ADD SWAP1 POP DUP2 DUP2 SUB PUSH1 0x0 DUP4 ADD MSTORE PUSH2 0x281 DUP2 PUSH2 0x245 JUMP JUMPDEST SWAP1 POP SWAP2 SWAP1 POP JUMP JUMPDEST PUSH2 0x291 DUP2 PUSH2 0x17A JUMP JUMPDEST DUP3 MSTORE POP POP JUMP JUMPDEST PUSH1 0x0 PUSH1 0x20 DUP3 ADD SWAP1 POP PUSH2 0x2AC PUSH1 0x0 DUP4 ADD DUP5 PUSH2 0x288 JUMP JUMPDEST SWAP3 SWAP2 POP POP JUMP INVALID LOG2 PUSH5 0x6970667358 0x22 SLT KECCAK256 STATICCALL 0xD0 DIV EXP 0xE9 0xDF 0xEC 0xD6 PUSH16 0xB9C478BC9D6786B66E6962F00C4B165 0xD4 MLOAD GAS 0xE0 JUMPDEST CHAINID POP PUSH5 0x736F6C6343 STOP ADDMOD 0xF STOP CALLER PUSH1 0x80 PUSH1 0x40 MSTORE CALLVALUE DUP1 ISZERO PUSH2 0x10 JUMPI PUSH1 0x0 DUP1 REVERT JUMPDEST POP PUSH1 0x0 PUSH2 0x21 PUSH2 0xA0 PUSH1 0x20 SHL PUSH1 0x20 SHR JUMP JUMPDEST SWAP1 POP DUP1 PUSH1 0x0 DUP1 PUSH2 0x100 EXP DUP2 SLOAD DUP2 PUSH20 0xFFFFFFFFFFFFFFFFFFFFFFFFFFFFFFFFFFFFFFFF MUL NOT AND SWAP1 DUP4 PUSH20 0xFFFFFFFFFFFFFFFFFFFFFFFFFFFFFFFFFFFFFFFF AND MUL OR SWAP1 SSTORE POP PUSH32 0x4101E71E974F68DF5E9730CC223280B41654676BBB052CDCC735C3337E64D2D9 DUP2 PUSH1 0x40 MLOAD PUSH2 0x92 SWAP2 SWAP1 PUSH2 0xE9 JUMP JUMPDEST PUSH1 0x40 MLOAD DUP1 SWAP2 SUB SWAP1 LOG1 POP PUSH2 0x104 JUMP JUMPDEST PUSH1 0x0 CALLER SWAP1 POP SWAP1 JUMP JUMPDEST PUSH1 0x0 PUSH20 0xFFFFFFFFFFFFFFFFFFFFFFFFFFFFFFFFFFFFFFFF DUP3 AND SWAP1 POP SWAP2 SWAP1 POP JUMP JUMPDEST PUSH1 0x0 PUSH2 0xD3 DUP3 PUSH2 0xA8 JUMP JUMPDEST SWAP1 POP SWAP2 SWAP1 POP JUMP JUMPDEST PUSH2 0xE3 DUP2 PUSH2 0xC8 JUMP JUMPDEST DUP3 MSTORE POP POP JUMP JUMPDEST PUSH1 0x0 PUSH1 0x20 DUP3 ADD SWAP1 POP PUSH2 0xFE PUSH1 0x0 DUP4 ADD DUP5 PUSH2 0xDA JUMP JUMPDEST SWAP3 SWAP2 POP POP JUMP JUMPDEST PUSH2 0x2C8 DUP1 PUSH2 0x113 PUSH1 0x0 CODECOPY PUSH1 0x0 RETURN INVALID PUSH1 0x80 PUSH1 0x40 MSTORE CALLVALUE DUP1 ISZERO PUSH2 0x10 JUMPI PUSH1 0x0 DUP1 REVERT JUMPDEST POP PUSH1 0x4 CALLDATASIZE LT PUSH2 0x2B JUMPI PUSH1 0x0 CALLDATALOAD PUSH1 0xE0 SHR DUP1 PUSH4 0x2348238C EQ PUSH2 0x30 JUMPI JUMPDEST PUSH1 0x0 DUP1 REVERT JUMPDEST PUSH2 0x4A PUSH1 0x4 DUP1 CALLDATASIZE SUB DUP2 ADD SWAP1 PUSH2 0x45 SWAP2 SWAP1 PUSH2 0x198 JUMP JUMPDEST PUSH2 0x4C JUMP JUMPDEST STOP JUMPDEST PUSH1 0x0 PUSH20 0xFFFFFFFFFFFFFFFFFFFFFFFFFFFFFFFFFFFFFFFF AND DUP2 PUSH20 0xFFFFFFFFFFFFFFFFFFFFFFFFFFFFFFFFFFFFFFFF AND SUB PUSH2 0xBB JUMPI PUSH1 0x40 MLOAD PUSH32 0x8C379A000000000000000000000000000000000000000000000000000000000 DUP2 MSTORE PUSH1 0x4 ADD PUSH2 0xB2 SWAP1 PUSH2 0x248 JUMP JUMPDEST PUSH1 0x40 MLOAD DUP1 SWAP2 SUB SWAP1 REVERT JUMPDEST DUP1 PUSH1 0x0 DUP1 PUSH2 0x100 EXP DUP2 SLOAD DUP2 PUSH20 0xFFFFFFFFFFFFFFFFFFFFFFFFFFFFFFFFFFFFFFFF MUL NOT AND SWAP1 DUP4 PUSH20 0xFFFFFFFFFFFFFFFFFFFFFFFFFFFFFFFFFFFFFFFF AND MUL OR SWAP1 SSTORE POP PUSH32 0x4101E71E974F68DF5E9730CC223280B41654676BBB052CDCC735C3337E64D2D9 DUP2 PUSH1 0x40 MLOAD PUSH2 0x12A SWAP2 SWAP1 PUSH2 0x277 JUMP JUMPDEST PUSH1 0x40 MLOAD DUP1 SWAP2 SUB SWAP1 LOG1 POP JUMP JUMPDEST PUSH1 0x0 DUP1 REVERT JUMPDEST PUSH1 0x0 PUSH20 0xFFFFFFFFFFFFFFFFFFFFFFFFFFFFFFFFFFFFFFFF DUP3 AND SWAP1 POP SWAP2 SWAP1 POP JUMP JUMPDEST PUSH1 0x0 PUSH2 0x165 DUP3 PUSH2 0x13A JUMP JUMPDEST SWAP1 POP SWAP2 SWAP1 POP JUMP JUMPDEST PUSH2 0x175 DUP2 PUSH2 0x15A JUMP JUMPDEST DUP2 EQ PUSH2 0x180 JUMPI PUSH1 0x0 DUP1 REVERT JUMPDEST POP JUMP JUMPDEST PUSH1 0x0 DUP2 CALLDATALOAD SWAP1 POP PUSH2 0x192 DUP2 PUSH2 0x16C JUMP JUMPDEST SWAP3 SWAP2 POP POP JUMP JUMPDEST PUSH1 0x0 PUSH1 0x20 DUP3 DUP5 SUB SLT ISZERO PUSH2 0x1AE JUMPI PUSH2 0x1AD PUSH2 0x135 JUMP JUMPDEST JUMPDEST PUSH1 0x0 PUSH2 0x1BC DUP5 DUP3 DUP6 ADD PUSH2 0x183 JUMP JUMPDEST SWAP2 POP POP SWAP3 SWAP2 POP POP JUMP JUMPDEST PUSH1 0x0 DUP3 DUP3 MSTORE PUSH1 0x20 DUP3 ADD SWAP1 POP SWAP3 SWAP2 POP POP JUMP JUMPDEST PUSH32 0x5365636F6E646172793A206E6577207072696D61727920697320746865207A65 PUSH1 0x0 DUP3 ADD MSTORE PUSH32 0x726F206164647265737300000000000000000000000000000000000000000000 PUSH1 0x20 DUP3 ADD MSTORE POP JUMP JUMPDEST PUSH1 0x0 PUSH2 0x232 PUSH1 0x2A DUP4 PUSH2 0x1C5 JUMP JUMPDEST SWAP2 POP PUSH2 0x23D DUP3 PUSH2 0x1D6 JUMP JUMPDEST PUSH1 0x40 DUP3 ADD SWAP1 POP SWAP2 SWAP1 POP JUMP JUMPDEST PUSH1 0x0 PUSH1 0x20 DUP3 ADD SWAP1 POP DUP2 DUP2 SUB PUSH1 0x0 DUP4 ADD MSTORE PUSH2 0x261 DUP2 PUSH2 0x225 JUMP JUMPDEST SWAP1 POP SWAP2 SWAP1 POP JUMP JUMPDEST PUSH2 0x271 DUP2 PUSH2 0x15A JUMP JUMPDEST DUP3 MSTORE POP POP JUMP JUMPDEST PUSH1 0x0 PUSH1 0x20 DUP3 ADD SWAP1 POP PUSH2 0x28C PUSH1 0x0 DUP4 ADD DUP5 PUSH2 0x268 JUMP JUMPDEST SWAP3 SWAP2 POP POP JUMP INVALID LOG2 PUSH5 0x6970667358 0x22 SLT KECCAK256 MSIZE SWAP15 CODECOPY INVALID 0xA7 SWAP6 CREATE MSTORE LOG3 0xE7 DUP5 0x25 PUSH12 0xB8B72D33A65ADEBA74C39252 MOD 0x25 SWAP1 0xBC 0xF6 SWAP14 0xC0 PUSH5 0x736F6C6343 STOP ADDMOD 0xF STOP CALLER LOG2 PUSH5 0x6970667358 0x22 SLT KECCAK256 SWAP15 0xED 0xDC PUSH12 0xCFFA577778C83F36A0B23B1B PUSH12 0xEA73FCDB97F3C606851D757 PUSH32 0xDC0C64736F6C634300080F0033608060405234801561001057600080FD5B5061 DIV DUP8 DUP1 PUSH2 0x20 PUSH1 0x0 CODECOPY PUSH1 0x0 RETURN INVALID PUSH1 0x80 PUSH1 0x40 MSTORE CALLVALUE DUP1 ISZERO PUSH2 0x10 JUMPI PUSH1 0x0 DUP1 REVERT JUMPDEST POP PUSH1 0x4 CALLDATASIZE LT PUSH2 0x4C JUMPI PUSH1 0x0 CALLDATALOAD PUSH1 0xE0 SHR DUP1 PUSH4 0x18160DDD EQ PUSH2 0x51 JUMPI DUP1 PUSH4 0x36244481 EQ PUSH2 0x6F JUMPI DUP1 PUSH4 0x48A00467 EQ PUSH2 0x8B JUMPI DUP1 PUSH4 0x70A08231 EQ PUSH2 0xA7 JUMPI JUMPDEST PUSH1 0x0 DUP1 REVERT JUMPDEST PUSH2 0x59 PUSH2 0xD7 JUMP JUMPDEST PUSH1 0x40 MLOAD PUSH2 0x66 SWAP2 SWAP1 PUSH2 0x2B5 JUMP JUMPDEST PUSH1 0x40 MLOAD DUP1 SWAP2 SUB SWAP1 RETURN JUMPDEST PUSH2 0x89 PUSH1 0x4 DUP1 CALLDATASIZE SUB DUP2 ADD SWAP1 PUSH2 0x84 SWAP2 SWAP1 PUSH2 0x35F JUMP JUMPDEST PUSH2 0xDD JUMP JUMPDEST STOP JUMPDEST PUSH2 0xA5 PUSH1 0x4 DUP1 CALLDATASIZE SUB DUP2 ADD SWAP1 PUSH2 0xA0 SWAP2 SWAP1 PUSH2 0x35F JUMP JUMPDEST PUSH2 0x1AC JUMP JUMPDEST STOP JUMPDEST PUSH2 0xC1 PUSH1 0x4 DUP1 CALLDATASIZE SUB DUP2 ADD SWAP1 PUSH2 0xBC SWAP2 SWAP1 PUSH2 0x39F JUMP JUMPDEST PUSH2 0x284 JUMP JUMPDEST PUSH1 0x40 MLOAD PUSH2 0xCE SWAP2 SWAP1 PUSH2 0x2B5 JUMP JUMPDEST PUSH1 0x40 MLOAD DUP1 SWAP2 SUB SWAP1 RETURN JUMPDEST PUSH1 0x0 SLOAD DUP2 JUMP JUMPDEST DUP1 PUSH1 0x0 DUP1 DUP3 DUP3 SLOAD PUSH2 0xEE SWAP2 SWAP1 PUSH2 0x3FB JUMP JUMPDEST SWAP3 POP POP DUP2 SWAP1 SSTORE POP DUP1 PUSH1 0x1 PUSH1 0x0 DUP5 PUSH20 0xFFFFFFFFFFFFFFFFFFFFFFFFFFFFFFFFFFFFFFFF AND PUSH20 0xFFFFFFFFFFFFFFFFFFFFFFFFFFFFFFFFFFFFFFFF AND DUP2 MSTORE PUSH1 0x20 ADD SWAP1 DUP2 MSTORE PUSH1 0x20 ADD PUSH1 0x0 KECCAK256 PUSH1 0x0 DUP3 DUP3 SLOAD ADD SWAP3 POP POP DUP2 SWAP1 SSTORE POP DUP2 PUSH20 0xFFFFFFFFFFFFFFFFFFFFFFFFFFFFFFFFFFFFFFFF AND PUSH1 0x0 PUSH20 0xFFFFFFFFFFFFFFFFFFFFFFFFFFFFFFFFFFFFFFFF AND PUSH32 0xDDF252AD1BE2C89B69C2B068FC378DAA952BA7F163C4A11628F55A4DF523B3EF DUP4 PUSH1 0x40 MLOAD PUSH2 0x1A0 SWAP2 SWAP1 PUSH2 0x2B5 JUMP JUMPDEST PUSH1 0x40 MLOAD DUP1 SWAP2 SUB SWAP1 LOG3 POP POP JUMP JUMPDEST DUP1 PUSH1 0x0 DUP1 DUP3 DUP3 SLOAD PUSH2 0x1BD SWAP2 SWAP1 PUSH2 0x3FB JUMP JUMPDEST SWAP3 POP POP DUP2 SWAP1 SSTORE POP DUP1 PUSH1 0x1 PUSH1 0x0 DUP5 PUSH20 0xFFFFFFFFFFFFFFFFFFFFFFFFFFFFFFFFFFFFFFFF AND PUSH20 0xFFFFFFFFFFFFFFFFFFFFFFFFFFFFFFFFFFFFFFFF AND DUP2 MSTORE PUSH1 0x20 ADD SWAP1 DUP2 MSTORE PUSH1 0x20 ADD PUSH1 0x0 KECCAK256 PUSH1 0x0 DUP3 DUP3 SLOAD PUSH2 0x213 SWAP2 SWAP1 PUSH2 0x3FB JUMP JUMPDEST SWAP3 POP POP DUP2 SWAP1 SSTORE POP DUP2 PUSH20 0xFFFFFFFFFFFFFFFFFFFFFFFFFFFFFFFFFFFFFFFF AND PUSH1 0x0 PUSH20 0xFFFFFFFFFFFFFFFFFFFFFFFFFFFFFFFFFFFFFFFF AND PUSH32 0xDDF252AD1BE2C89B69C2B068FC378DAA952BA7F163C4A11628F55A4DF523B3EF DUP4 PUSH1 0x40 MLOAD PUSH2 0x278 SWAP2 SWAP1 PUSH2 0x2B5 JUMP JUMPDEST PUSH1 0x40 MLOAD DUP1 SWAP2 SUB SWAP1 LOG3 POP POP JUMP JUMPDEST PUSH1 0x1 PUSH1 0x20 MSTORE DUP1 PUSH1 0x0 MSTORE PUSH1 0x40 PUSH1 0x0 KECCAK256 PUSH1 0x0 SWAP2 POP SWAP1 POP SLOAD DUP2 JUMP JUMPDEST PUSH1 0x0 DUP2 SWAP1 POP SWAP2 SWAP1 POP JUMP JUMPDEST PUSH2 0x2AF DUP2 PUSH2 0x29C JUMP JUMPDEST DUP3 MSTORE POP POP JUMP JUMPDEST PUSH1 0x0 PUSH1 0x20 DUP3 ADD SWAP1 POP PUSH2 0x2CA PUSH1 0x0 DUP4 ADD DUP5 PUSH2 0x2A6 JUMP JUMPDEST SWAP3 SWAP2 POP POP JUMP JUMPDEST PUSH1 0x0 DUP1 REVERT JUMPDEST PUSH1 0x0 PUSH20 0xFFFFFFFFFFFFFFFFFFFFFFFFFFFFFFFFFFFFFFFF DUP3 AND SWAP1 POP SWAP2 SWAP1 POP JUMP JUMPDEST PUSH1 0x0 PUSH2 0x300 DUP3 PUSH2 0x2D5 JUMP JUMPDEST SWAP1 POP SWAP2 SWAP1 POP JUMP JUMPDEST PUSH2 0x310 DUP2 PUSH2 0x2F5 JUMP JUMPDEST DUP2 EQ PUSH2 0x31B JUMPI PUSH1 0x0 DUP1 REVERT JUMPDEST POP JUMP JUMPDEST PUSH1 0x0 DUP2 CALLDATALOAD SWAP1 POP PUSH2 0x32D DUP2 PUSH2 0x307 JUMP JUMPDEST SWAP3 SWAP2 POP POP JUMP JUMPDEST PUSH2 0x33C DUP2 PUSH2 0x29C JUMP JUMPDEST DUP2 EQ PUSH2 0x347 JUMPI PUSH1 0x0 DUP1 REVERT JUMPDEST POP JUMP JUMPDEST PUSH1 0x0 DUP2 CALLDATALOAD SWAP1 POP PUSH2 0x359 DUP2 PUSH2 0x333 JUMP JUMPDEST SWAP3 SWAP2 POP POP JUMP JUMPDEST PUSH1 0x0 DUP1 PUSH1 0x40 DUP4 DUP6 SUB SLT ISZERO PUSH2 0x376 JUMPI PUSH2 0x375 PUSH2 0x2D0 JUMP JUMPDEST JUMPDEST PUSH1 0x0 PUSH2 0x384 DUP6 DUP3 DUP7 ADD PUSH2 0x31E JUMP JUMPDEST SWAP3 POP POP PUSH1 0x20 PUSH2 0x395 DUP6 DUP3 DUP7 ADD PUSH2 0x34A JUMP JUMPDEST SWAP2 POP POP SWAP3 POP SWAP3 SWAP1 POP JUMP JUMPDEST PUSH1 0x0 PUSH1 0x20 DUP3 DUP5 SUB SLT ISZERO PUSH2 0x3B5 JUMPI PUSH2 0x3B4 PUSH2 0x2D0 JUMP JUMPDEST JUMPDEST PUSH1 0x0 PUSH2 0x3C3 DUP5 DUP3 DUP6 ADD PUSH2 0x31E JUMP JUMPDEST SWAP2 POP POP SWAP3 SWAP2 POP POP JUMP JUMPDEST PUSH32 0x4E487B7100000000000000000000000000000000000000000000000000000000 PUSH1 0x0 MSTORE PUSH1 0x11 PUSH1 0x4 MSTORE PUSH1 0x24 PUSH1 0x0 REVERT JUMPDEST PUSH1 0x0 PUSH2 0x406 DUP3 PUSH2 0x29C JUMP JUMPDEST SWAP2 POP PUSH2 0x411 DUP4 PUSH2 0x29C JUMP JUMPDEST SWAP3 POP DUP3 PUSH32 0xFFFFFFFFFFFFFFFFFFFFFFFFFFFFFFFFFFFFFFFFFFFFFFFFFFFFFFFFFFFFFFFF SUB DUP3 GT ISZERO PUSH2 0x446 JUMPI PUSH2 0x445 PUSH2 0x3CC JUMP JUMPDEST JUMPDEST DUP3 DUP3 ADD SWAP1 POP SWAP3 SWAP2 POP POP JUMP INVALID LOG2 PUSH5 0x6970667358 0x22 SLT KECCAK256 0xEE PUSH9 0xB965C52B6A8C041C2D PUSH14 0xD651D53D6063144E1BC7A146132E 0xE LOG3 LOG0 LOG1 PUSH27 0x2864736F6C634300080F0033608060405234801561001057600080 REVERT JUMPDEST POP PUSH2 0x2B0 DUP1 PUSH2 0x20 PUSH1 0x0 CODECOPY PUSH1 0x0 RETURN INVALID PUSH1 0x80 PUSH1 0x40 MSTORE CALLVALUE DUP1 ISZERO PUSH2 0x10 JUMPI PUSH1 0x0 DUP1 REVERT JUMPDEST POP PUSH1 0x4 CALLDATASIZE LT PUSH2 0x40 JUMPI PUSH1 0x0 CALLDATALOAD PUSH1 0xE0 SHR DUP1 PUSH3 0xC3314F EQ PUSH2 0x45 JUMPI DUP1 PUSH4 0x29FCDA33 EQ PUSH2 0x75 JUMPI DUP1 PUSH4 0x76B81449 EQ PUSH2 0xA5 JUMPI JUMPDEST PUSH1 0x0 DUP1 REVERT JUMPDEST PUSH2 0x5F PUSH1 0x4 DUP1 CALLDATASIZE SUB DUP2 ADD SWAP1 PUSH2 0x5A SWAP2 SWAP1 PUSH2 0x18B JUMP JUMPDEST PUSH2 0xD5 JUMP JUMPDEST PUSH1 0x40 MLOAD PUSH2 0x6C SWAP2 SWAP1 PUSH2 0x1DA JUMP JUMPDEST PUSH1 0x40 MLOAD DUP1 SWAP2 SUB SWAP1 RETURN JUMPDEST PUSH2 0x8F PUSH1 0x4 DUP1 CALLDATASIZE SUB DUP2 ADD SWAP1 PUSH2 0x8A SWAP2 SWAP1 PUSH2 0x18B JUMP JUMPDEST PUSH2 0xFC JUMP JUMPDEST PUSH1 0x40 MLOAD PUSH2 0x9C SWAP2 SWAP1 PUSH2 0x1DA JUMP JUMPDEST PUSH1 0x40 MLOAD DUP1 SWAP2 SUB SWAP1 RETURN JUMPDEST PUSH2 0xBF PUSH1 0x4 DUP1 CALLDATASIZE SUB DUP2 ADD SWAP1 PUSH2 0xBA SWAP2 SWAP1 PUSH2 0x18B JUMP JUMPDEST PUSH2 0x123 JUMP JUMPDEST PUSH1 0x40 MLOAD PUSH2 0xCC SWAP2 SWAP1 PUSH2 0x1DA JUMP JUMPDEST PUSH1 0x40 MLOAD DUP1 SWAP2 SUB SWAP1 RETURN JUMPDEST PUSH1 0x0 DUP1 DUP4 SUB PUSH2 0xE7 JUMPI PUSH1 0x0 SWAP1 POP PUSH2 0xF6 JUMP JUMPDEST DUP2 DUP4 PUSH2 0xF3 SWAP2 SWAP1 PUSH2 0x224 JUMP JUMPDEST SWAP1 POP JUMPDEST SWAP3 SWAP2 POP POP JUMP JUMPDEST PUSH1 0x0 DUP1 DUP4 SUB PUSH2 0x10E JUMPI PUSH1 0x0 SWAP1 POP PUSH2 0x11D JUMP JUMPDEST DUP2 DUP4 PUSH2 0x11A SWAP2 SWAP1 PUSH2 0x224 JUMP JUMPDEST SWAP1 POP JUMPDEST SWAP3 SWAP2 POP POP JUMP JUMPDEST PUSH1 0x0 DUP1 DUP4 SUB PUSH2 0x135 JUMPI PUSH1 0x0 SWAP1 POP PUSH2 0x14A JUMP JUMPDEST PUSH1 0x0 DUP3 DUP5 PUSH2 0x143 SWAP2 SWAP1 PUSH2 0x224 JUMP JUMPDEST SWAP1 POP DUP1 SWAP2 POP POP JUMPDEST SWAP3 SWAP2 POP POP JUMP JUMPDEST PUSH1 0x0 DUP1 REVERT JUMPDEST PUSH1 0x0 DUP2 SWAP1 POP SWAP2 SWAP1 POP JUMP JUMPDEST PUSH2 0x168 DUP2 PUSH2 0x155 JUMP JUMPDEST DUP2 EQ PUSH2 0x173 JUMPI PUSH1 0x0 DUP1 REVERT JUMPDEST POP JUMP JUMPDEST PUSH1 0x0 DUP2 CALLDATALOAD SWAP1 POP PUSH2 0x185 DUP2 PUSH2 0x15F JUMP JUMPDEST SWAP3 SWAP2 POP POP JUMP JUMPDEST PUSH1 0x0 DUP1 PUSH1 0x40 DUP4 DUP6 SUB SLT ISZERO PUSH2 0x1A2 JUMPI PUSH2 0x1A1 PUSH2 0x150 JUMP JUMPDEST JUMPDEST PUSH1 0x0 PUSH2 0x1B0 DUP6 DUP3 DUP7 ADD PUSH2 0x176 JUMP JUMPDEST SWAP3 POP POP PUSH1 0x20 PUSH2 0x1C1 DUP6 DUP3 DUP7 ADD PUSH2 0x176 JUMP JUMPDEST SWAP2 POP POP SWAP3 POP SWAP3 SWAP1 POP JUMP JUMPDEST PUSH2 0x1D4 DUP2 PUSH2 0x155 JUMP JUMPDEST DUP3 MSTORE POP POP JUMP JUMPDEST PUSH1 0x0 PUSH1 0x20 DUP3 ADD SWAP1 POP PUSH2 0x1EF PUSH1 0x0 DUP4 ADD DUP5 PUSH2 0x1CB JUMP JUMPDEST SWAP3 SWAP2 POP POP JUMP JUMPDEST PUSH32 0x4E487B7100000000000000000000000000000000000000000000000000000000 PUSH1 0x0 MSTORE PUSH1 0x11 PUSH1 0x4 MSTORE PUSH1 0x24 PUSH1 0x0 REVERT JUMPDEST PUSH1 0x0 PUSH2 0x22F DUP3 PUSH2 0x155 JUMP JUMPDEST SWAP2 POP PUSH2 0x23A DUP4 PUSH2 0x155 JUMP JUMPDEST SWAP3 POP DUP3 PUSH32 0xFFFFFFFFFFFFFFFFFFFFFFFFFFFFFFFFFFFFFFFFFFFFFFFFFFFFFFFFFFFFFFFF SUB DUP3 GT ISZERO PUSH2 0x26F JUMPI PUSH2 0x26E PUSH2 0x1F5 JUMP JUMPDEST JUMPDEST DUP3 DUP3 ADD SWAP1 POP SWAP3 SWAP2 POP POP JUMP INVALID LOG2 PUSH5 0x6970667358 0x22 SLT KECCAK256 0xED DUP13 LOG2 SWAP5 NUMBER DUP7 0xC6 LT PUSH25 0x3809D23A675BF092F89556DB645108CFE1BB235649C0AE6473 PUSH16 0x6C634300080F00336080604052348015 PUSH2 0x10 JUMPI PUSH1 0x0 DUP1 REVERT JUMPDEST POP PUSH2 0x2AB DUP1 PUSH2 0x20 PUSH1 0x0 CODECOPY PUSH1 0x0 RETURN INVALID PUSH1 0x80 PUSH1 0x40 MSTORE CALLVALUE DUP1 ISZERO PUSH2 0x10 JUMPI PUSH1 0x0 DUP1 REVERT JUMPDEST POP PUSH1 0x4 CALLDATASIZE LT PUSH2 0x36 JUMPI PUSH1 0x0 CALLDATALOAD PUSH1 0xE0 SHR DUP1 PUSH4 0x7C26710 EQ PUSH2 0x3B JUMPI DUP1 PUSH4 0xD6238A42 EQ PUSH2 0x6B JUMPI JUMPDEST PUSH1 0x0 DUP1 REVERT JUMPDEST PUSH2 0x55 PUSH1 0x4 DUP1 CALLDATASIZE SUB DUP2 ADD SWAP1 PUSH2 0x50 SWAP2 SWAP1 PUSH2 0x152 JUMP JUMPDEST PUSH2 0x9B JUMP JUMPDEST PUSH1 0x40 MLOAD PUSH2 0x62 SWAP2 SWAP1 PUSH2 0x1A1 JUMP JUMPDEST PUSH1 0x40 MLOAD DUP1 SWAP2 SUB SWAP1 RETURN JUMPDEST PUSH2 0x85 PUSH1 0x4 DUP1 CALLDATASIZE SUB DUP2 ADD SWAP1 PUSH2 0x80 SWAP2 SWAP1 PUSH2 0x152 JUMP JUMPDEST PUSH2 0xD8 JUMP JUMPDEST PUSH1 0x40 MLOAD PUSH2 0x92 SWAP2 SWAP1 PUSH2 0x1A1 JUMP JUMPDEST PUSH1 0x40 MLOAD DUP1 SWAP2 SUB SWAP1 RETURN JUMPDEST PUSH1 0x0 PUSH1 0x1 DUP4 GT ISZERO PUSH2 0xC3 JUMPI PUSH1 0x1 DUP3 GT ISZERO PUSH2 0xC2 JUMPI DUP2 DUP4 PUSH2 0xBB SWAP2 SWAP1 PUSH2 0x1EB JUMP JUMPDEST SWAP1 POP PUSH2 0xD2 JUMP JUMPDEST JUMPDEST DUP2 DUP4 PUSH2 0xCF SWAP2 SWAP1 PUSH2 0x241 JUMP JUMPDEST SWAP1 POP JUMPDEST SWAP3 SWAP2 POP POP JUMP JUMPDEST PUSH1 0x0 PUSH1 0x1 DUP4 GT DUP1 ISZERO PUSH2 0xEA JUMPI POP PUSH1 0x1 DUP3 GT JUMPDEST ISZERO PUSH2 0x102 JUMPI DUP2 DUP4 PUSH2 0xFB SWAP2 SWAP1 PUSH2 0x1EB JUMP JUMPDEST SWAP1 POP PUSH2 0x111 JUMP JUMPDEST DUP2 DUP4 PUSH2 0x10E SWAP2 SWAP1 PUSH2 0x241 JUMP JUMPDEST SWAP1 POP JUMPDEST SWAP3 SWAP2 POP POP JUMP JUMPDEST PUSH1 0x0 DUP1 REVERT JUMPDEST PUSH1 0x0 DUP2 SWAP1 POP SWAP2 SWAP1 POP JUMP JUMPDEST PUSH2 0x12F DUP2 PUSH2 0x11C JUMP JUMPDEST DUP2 EQ PUSH2 0x13A JUMPI PUSH1 0x0 DUP1 REVERT JUMPDEST POP JUMP JUMPDEST PUSH1 0x0 DUP2 CALLDATALOAD SWAP1 POP PUSH2 0x14C DUP2 PUSH2 0x126 JUMP JUMPDEST SWAP3 SWAP2 POP POP JUMP JUMPDEST PUSH1 0x0 DUP1 PUSH1 0x40 DUP4 DUP6 SUB SLT ISZERO PUSH2 0x169 JUMPI PUSH2 0x168 PUSH2 0x117 JUMP JUMPDEST JUMPDEST PUSH1 0x0 PUSH2 0x177 DUP6 DUP3 DUP7 ADD PUSH2 0x13D JUMP JUMPDEST SWAP3 POP POP PUSH1 0x20 PUSH2 0x188 DUP6 DUP3 DUP7 ADD PUSH2 0x13D JUMP JUMPDEST SWAP2 POP POP SWAP3 POP SWAP3 SWAP1 POP JUMP JUMPDEST PUSH2 0x19B DUP2 PUSH2 0x11C JUMP JUMPDEST DUP3 MSTORE POP POP JUMP JUMPDEST PUSH1 0x0 PUSH1 0x20 DUP3 ADD SWAP1 POP PUSH2 0x1B6 PUSH1 0x0 DUP4 ADD DUP5 PUSH2 0x192 JUMP JUMPDEST SWAP3 SWAP2 POP POP JUMP JUMPDEST PUSH32 0x4E487B7100000000000000000000000000000000000000000000000000000000 PUSH1 0x0 MSTORE PUSH1 0x11 PUSH1 0x4 MSTORE PUSH1 0x24 PUSH1 0x0 REVERT JUMPDEST PUSH1 0x0 PUSH2 0x1F6 DUP3 PUSH2 0x11C JUMP JUMPDEST SWAP2 POP PUSH2 0x201 DUP4 PUSH2 0x11C JUMP JUMPDEST SWAP3 POP DUP3 PUSH32 0xFFFFFFFFFFFFFFFFFFFFFFFFFFFFFFFFFFFFFFFFFFFFFFFFFFFFFFFFFFFFFFFF SUB DUP3 GT ISZERO PUSH2 0x236 JUMPI PUSH2 0x235 PUSH2 0x1BC JUMP JUMPDEST JUMPDEST DUP3 DUP3 ADD SWAP1 POP SWAP3 SWAP2 POP POP JUMP JUMPDEST PUSH1 0x0 PUSH2 0x24C DUP3 PUSH2 0x11C JUMP JUMPDEST SWAP2 POP PUSH2 0x257 DUP4 PUSH2 0x11C JUMP JUMPDEST SWAP3 POP DUP3 DUP3 LT ISZERO PUSH2 0x26A JUMPI PUSH2 0x269 PUSH2 0x1BC JUMP JUMPDEST JUMPDEST DUP3 DUP3 SUB SWAP1 POP SWAP3 SWAP2 POP POP JUMP INVALID LOG2 PUSH5 0x6970667358 0x22 SLT KECCAK256 SELFBALANCE PUSH16 0x8BA26FF2BE52A34CBC74D7D917E118DF 0x1E EQ 0xBD PUSH1 0x87 0xBA DUP13 0x2E CALLDATALOAD 0xEE PUSH15 0x74AFDC64736F6C634300080F003360 DUP1 PUSH1 0x40 MSTORE CALLVALUE DUP1 ISZERO PUSH2 0x10 JUMPI PUSH1 0x0 DUP1 REVERT JUMPDEST POP PUSH2 0x7E3 DUP1 PUSH2 0x20 PUSH1 0x0 CODECOPY PUSH1 0x0 RETURN INVALID PUSH1 0x80 PUSH1 0x40 MSTORE CALLVALUE DUP1 ISZERO PUSH2 0x10 JUMPI PUSH1 0x0 DUP1 REVERT JUMPDEST POP PUSH1 0x4 CALLDATASIZE LT PUSH2 0x62 JUMPI PUSH1 0x0 CALLDATALOAD PUSH1 0xE0 SHR DUP1 PUSH4 0x81812FC EQ PUSH2 0x67 JUMPI DUP1 PUSH4 0x42966C68 EQ PUSH2 0x97 JUMPI DUP1 PUSH4 0x6352211E EQ PUSH2 0xB3 JUMPI DUP1 PUSH4 0x68FCD9D2 EQ PUSH2 0xE3 JUMPI DUP1 PUSH4 0x70A08231 EQ PUSH2 0xFF JUMPI DUP1 PUSH4 0xE30081A0 EQ PUSH2 0x12F JUMPI JUMPDEST PUSH1 0x0 DUP1 REVERT JUMPDEST PUSH2 0x81 PUSH1 0x4 DUP1 CALLDATASIZE SUB DUP2 ADD SWAP1 PUSH2 0x7C SWAP2 SWAP1 PUSH2 0x624 JUMP JUMPDEST PUSH2 0x14B JUMP JUMPDEST PUSH1 0x40 MLOAD PUSH2 0x8E SWAP2 SWAP1 PUSH2 0x692 JUMP JUMPDEST PUSH1 0x40 MLOAD DUP1 SWAP2 SUB SWAP1 RETURN JUMPDEST PUSH2 0xB1 PUSH1 0x4 DUP1 CALLDATASIZE SUB DUP2 ADD SWAP1 PUSH2 0xAC SWAP2 SWAP1 PUSH2 0x624 JUMP JUMPDEST PUSH2 0x17E JUMP JUMPDEST STOP JUMPDEST PUSH2 0xCD PUSH1 0x4 DUP1 CALLDATASIZE SUB DUP2 ADD SWAP1 PUSH2 0xC8 SWAP2 SWAP1 PUSH2 0x624 JUMP JUMPDEST PUSH2 0x37D JUMP JUMPDEST PUSH1 0x40 MLOAD PUSH2 0xDA SWAP2 SWAP1 PUSH2 0x692 JUMP JUMPDEST PUSH1 0x40 MLOAD DUP1 SWAP2 SUB SWAP1 RETURN JUMPDEST PUSH2 0xFD PUSH1 0x4 DUP1 CALLDATASIZE SUB DUP2 ADD SWAP1 PUSH2 0xF8 SWAP2 SWAP1 PUSH2 0x624 JUMP JUMPDEST PUSH2 0x3B0 JUMP JUMPDEST STOP JUMPDEST PUSH2 0x119 PUSH1 0x4 DUP1 CALLDATASIZE SUB DUP2 ADD SWAP1 PUSH2 0x114 SWAP2 SWAP1 PUSH2 0x6D9 JUMP JUMPDEST PUSH2 0x57C JUMP JUMPDEST PUSH1 0x40 MLOAD PUSH2 0x126 SWAP2 SWAP1 PUSH2 0x715 JUMP JUMPDEST PUSH1 0x40 MLOAD DUP1 SWAP2 SUB SWAP1 RETURN JUMPDEST PUSH2 0x149 PUSH1 0x4 DUP1 CALLDATASIZE SUB DUP2 ADD SWAP1 PUSH2 0x144 SWAP2 SWAP1 PUSH2 0x6D9 JUMP JUMPDEST PUSH2 0x594 JUMP JUMPDEST STOP JUMPDEST PUSH1 0x2 PUSH1 0x20 MSTORE DUP1 PUSH1 0x0 MSTORE PUSH1 0x40 PUSH1 0x0 KECCAK256 PUSH1 0x0 SWAP2 POP SLOAD SWAP1 PUSH2 0x100 EXP SWAP1 DIV PUSH20 0xFFFFFFFFFFFFFFFFFFFFFFFFFFFFFFFFFFFFFFFF AND DUP2 JUMP JUMPDEST PUSH1 0x0 PUSH1 0x1 PUSH1 0x0 DUP4 DUP2 MSTORE PUSH1 0x20 ADD SWAP1 DUP2 MSTORE PUSH1 0x20 ADD PUSH1 0x0 KECCAK256 PUSH1 0x0 SWAP1 SLOAD SWAP1 PUSH2 0x100 EXP SWAP1 DIV PUSH20 0xFFFFFFFFFFFFFFFFFFFFFFFFFFFFFFFFFFFFFFFF AND SWAP1 POP PUSH1 0x0 PUSH20 0xFFFFFFFFFFFFFFFFFFFFFFFFFFFFFFFFFFFFFFFF AND PUSH1 0x1 PUSH1 0x0 DUP5 DUP2 MSTORE PUSH1 0x20 ADD SWAP1 DUP2 MSTORE PUSH1 0x20 ADD PUSH1 0x0 KECCAK256 PUSH1 0x0 SWAP1 SLOAD SWAP1 PUSH2 0x100 EXP SWAP1 DIV PUSH20 0xFFFFFFFFFFFFFFFFFFFFFFFFFFFFFFFFFFFFFFFF AND PUSH20 0xFFFFFFFFFFFFFFFFFFFFFFFFFFFFFFFFFFFFFFFF AND SUB PUSH2 0x258 JUMPI PUSH1 0x40 MLOAD PUSH32 0x8C379A000000000000000000000000000000000000000000000000000000000 DUP2 MSTORE PUSH1 0x4 ADD PUSH2 0x24F SWAP1 PUSH2 0x78D JUMP JUMPDEST PUSH1 0x40 MLOAD DUP1 SWAP2 SUB SWAP1 REVERT JUMPDEST PUSH1 0x0 DUP1 DUP3 PUSH20 0xFFFFFFFFFFFFFFFFFFFFFFFFFFFFFFFFFFFFFFFF AND PUSH20 0xFFFFFFFFFFFFFFFFFFFFFFFFFFFFFFFFFFFFFFFF AND DUP2 MSTORE PUSH1 0x20 ADD SWAP1 DUP2 MSTORE PUSH1 0x20 ADD PUSH1 0x0 KECCAK256 PUSH1 0x0 DUP2 SLOAD DUP1 SWAP3 SWAP2 SWAP1 PUSH1 0x1 SWAP1 SUB SWAP2 SWAP1 POP SSTORE POP PUSH1 0x1 PUSH1 0x0 DUP4 DUP2 MSTORE PUSH1 0x20 ADD SWAP1 DUP2 MSTORE PUSH1 0x20 ADD PUSH1 0x0 KECCAK256 PUSH1 0x0 PUSH2 0x100 EXP DUP2 SLOAD SWAP1 PUSH20 0xFFFFFFFFFFFFFFFFFFFFFFFFFFFFFFFFFFFFFFFF MUL NOT AND SWAP1 SSTORE PUSH1 0x2 PUSH1 0x0 DUP4 DUP2 MSTORE PUSH1 0x20 ADD SWAP1 DUP2 MSTORE PUSH1 0x20 ADD PUSH1 0x0 KECCAK256 PUSH1 0x0 PUSH2 0x100 EXP DUP2 SLOAD SWAP1 PUSH20 0xFFFFFFFFFFFFFFFFFFFFFFFFFFFFFFFFFFFFFFFF MUL NOT AND SWAP1 SSTORE PUSH1 0x0 PUSH20 0xFFFFFFFFFFFFFFFFFFFFFFFFFFFFFFFFFFFFFFFF AND DUP2 PUSH20 0xFFFFFFFFFFFFFFFFFFFFFFFFFFFFFFFFFFFFFFFF AND PUSH32 0xDDF252AD1BE2C89B69C2B068FC378DAA952BA7F163C4A11628F55A4DF523B3EF DUP5 PUSH1 0x40 MLOAD PUSH2 0x371 SWAP2 SWAP1 PUSH2 0x715 JUMP JUMPDEST PUSH1 0x40 MLOAD DUP1 SWAP2 SUB SWAP1 LOG3 POP POP JUMP JUMPDEST PUSH1 0x1 PUSH1 0x20 MSTORE DUP1 PUSH1 0x0 MSTORE PUSH1 0x40 PUSH1 0x0 KECCAK256 PUSH1 0x0 SWAP2 POP SLOAD SWAP1 PUSH2 0x100 EXP SWAP1 DIV PUSH20 0xFFFFFFFFFFFFFFFFFFFFFFFFFFFFFFFFFFFFFFFF AND DUP2 JUMP JUMPDEST PUSH1 0x0 PUSH1 0x1 PUSH1 0x0 DUP4 DUP2 MSTORE PUSH1 0x20 ADD SWAP1 DUP2 MSTORE PUSH1 0x20 ADD PUSH1 0x0 KECCAK256 PUSH1 0x0 SWAP1 SLOAD SWAP1 PUSH2 0x100 EXP SWAP1 DIV PUSH20 0xFFFFFFFFFFFFFFFFFFFFFFFFFFFFFFFFFFFFFFFF AND SWAP1 POP PUSH1 0x0 PUSH20 0xFFFFFFFFFFFFFFFFFFFFFFFFFFFFFFFFFFFFFFFF AND DUP2 PUSH20 0xFFFFFFFFFFFFFFFFFFFFFFFFFFFFFFFFFFFFFFFF AND SUB PUSH2 0x457 JUMPI PUSH1 0x40 MLOAD PUSH32 0x8C379A000000000000000000000000000000000000000000000000000000000 DUP2 MSTORE PUSH1 0x4 ADD PUSH2 0x44E SWAP1 PUSH2 0x78D JUMP JUMPDEST PUSH1 0x40 MLOAD DUP1 SWAP2 SUB SWAP1 REVERT JUMPDEST PUSH1 0x0 DUP1 DUP3 PUSH20 0xFFFFFFFFFFFFFFFFFFFFFFFFFFFFFFFFFFFFFFFF AND PUSH20 0xFFFFFFFFFFFFFFFFFFFFFFFFFFFFFFFFFFFFFFFF AND DUP2 MSTORE PUSH1 0x20 ADD SWAP1 DUP2 MSTORE PUSH1 0x20 ADD PUSH1 0x0 KECCAK256 PUSH1 0x0 DUP2 SLOAD DUP1 SWAP3 SWAP2 SWAP1 PUSH1 0x1 SWAP1 SUB SWAP2 SWAP1 POP SSTORE POP PUSH1 0x1 PUSH1 0x0 DUP4 DUP2 MSTORE PUSH1 0x20 ADD SWAP1 DUP2 MSTORE PUSH1 0x20 ADD PUSH1 0x0 KECCAK256 PUSH1 0x0 PUSH2 0x100 EXP DUP2 SLOAD SWAP1 PUSH20 0xFFFFFFFFFFFFFFFFFFFFFFFFFFFFFFFFFFFFFFFF MUL NOT AND SWAP1 SSTORE PUSH1 0x2 PUSH1 0x0 DUP4 DUP2 MSTORE PUSH1 0x20 ADD SWAP1 DUP2 MSTORE PUSH1 0x20 ADD PUSH1 0x0 KECCAK256 PUSH1 0x0 PUSH2 0x100 EXP DUP2 SLOAD SWAP1 PUSH20 0xFFFFFFFFFFFFFFFFFFFFFFFFFFFFFFFFFFFFFFFF MUL NOT AND SWAP1 SSTORE PUSH1 0x0 PUSH20 0xFFFFFFFFFFFFFFFFFFFFFFFFFFFFFFFFFFFFFFFF AND DUP2 PUSH20 0xFFFFFFFFFFFFFFFFFFFFFFFFFFFFFFFFFFFFFFFF AND PUSH32 0xDDF252AD1BE2C89B69C2B068FC378DAA952BA7F163C4A11628F55A4DF523B3EF DUP5 PUSH1 0x40 MLOAD PUSH2 0x570 SWAP2 SWAP1 PUSH2 0x715 JUMP JUMPDEST PUSH1 0x40 MLOAD DUP1 SWAP2 SUB SWAP1 LOG3 POP POP JUMP JUMPDEST PUSH1 0x0 PUSH1 0x20 MSTORE DUP1 PUSH1 0x0 MSTORE PUSH1 0x40 PUSH1 0x0 KECCAK256 PUSH1 0x0 SWAP2 POP SWAP1 POP SLOAD DUP2 JUMP JUMPDEST DUP1 PUSH1 0x1 PUSH1 0x0 DUP1 DUP2 MSTORE PUSH1 0x20 ADD SWAP1 DUP2 MSTORE PUSH1 0x20 ADD PUSH1 0x0 KECCAK256 PUSH1 0x0 PUSH2 0x100 EXP DUP2 SLOAD DUP2 PUSH20 0xFFFFFFFFFFFFFFFFFFFFFFFFFFFFFFFFFFFFFFFF MUL NOT AND SWAP1 DUP4 PUSH20 0xFFFFFFFFFFFFFFFFFFFFFFFFFFFFFFFFFFFFFFFF AND MUL OR SWAP1 SSTORE POP POP JUMP JUMPDEST PUSH1 0x0 DUP1 REVERT JUMPDEST PUSH1 0x0 DUP2 SWAP1 POP SWAP2 SWAP1 POP JUMP JUMPDEST PUSH2 0x601 DUP2 PUSH2 0x5EE JUMP JUMPDEST DUP2 EQ PUSH2 0x60C JUMPI PUSH1 0x0 DUP1 REVERT JUMPDEST POP JUMP JUMPDEST PUSH1 0x0 DUP2 CALLDATALOAD SWAP1 POP PUSH2 0x61E DUP2 PUSH2 0x5F8 JUMP JUMPDEST SWAP3 SWAP2 POP POP JUMP JUMPDEST PUSH1 0x0 PUSH1 0x20 DUP3 DUP5 SUB SLT ISZERO PUSH2 0x63A JUMPI PUSH2 0x639 PUSH2 0x5E9 JUMP JUMPDEST JUMPDEST PUSH1 0x0 PUSH2 0x648 DUP5 DUP3 DUP6 ADD PUSH2 0x60F JUMP JUMPDEST SWAP2 POP POP SWAP3 SWAP2 POP POP JUMP JUMPDEST PUSH1 0x0 PUSH20 0xFFFFFFFFFFFFFFFFFFFFFFFFFFFFFFFFFFFFFFFF DUP3 AND SWAP1 POP SWAP2 SWAP1 POP JUMP JUMPDEST PUSH1 0x0 PUSH2 0x67C DUP3 PUSH2 0x651 JUMP JUMPDEST SWAP1 POP SWAP2 SWAP1 POP JUMP JUMPDEST PUSH2 0x68C DUP2 PUSH2 0x671 JUMP JUMPDEST DUP3 MSTORE POP POP JUMP JUMPDEST PUSH1 0x0 PUSH1 0x20 DUP3 ADD SWAP1 POP PUSH2 0x6A7 PUSH1 0x0 DUP4 ADD DUP5 PUSH2 0x683 JUMP JUMPDEST SWAP3 SWAP2 POP POP JUMP JUMPDEST PUSH2 0x6B6 DUP2 PUSH2 0x671 JUMP JUMPDEST DUP2 EQ PUSH2 0x6C1 JUMPI PUSH1 0x0 DUP1 REVERT JUMPDEST POP JUMP JUMPDEST PUSH1 0x0 DUP2 CALLDATALOAD SWAP1 POP PUSH2 0x6D3 DUP2 PUSH2 0x6AD JUMP JUMPDEST SWAP3 SWAP2 POP POP JUMP JUMPDEST PUSH1 0x0 PUSH1 0x20 DUP3 DUP5 SUB SLT ISZERO PUSH2 0x6EF JUMPI PUSH2 0x6EE PUSH2 0x5E9 JUMP JUMPDEST JUMPDEST PUSH1 0x0 PUSH2 0x6FD DUP5 DUP3 DUP6 ADD PUSH2 0x6C4 JUMP JUMPDEST SWAP2 POP POP SWAP3 SWAP2 POP POP JUMP JUMPDEST PUSH2 0x70F DUP2 PUSH2 0x5EE JUMP JUMPDEST DUP3 MSTORE POP POP JUMP JUMPDEST PUSH1 0x0 PUSH1 0x20 DUP3 ADD SWAP1 POP PUSH2 0x72A PUSH1 0x0 DUP4 ADD DUP5 PUSH2 0x706 JUMP JUMPDEST SWAP3 SWAP2 POP POP JUMP JUMPDEST PUSH1 0x0 DUP3 DUP3 MSTORE PUSH1 0x20 DUP3 ADD SWAP1 POP SWAP3 SWAP2 POP POP JUMP JUMPDEST PUSH32 0x4E4F545F4D494E54454400000000000000000000000000000000000000000000 PUSH1 0x0 DUP3 ADD MSTORE POP JUMP JUMPDEST PUSH1 0x0 PUSH2 0x777 PUSH1 0xA DUP4 PUSH2 0x730 JUMP JUMPDEST SWAP2 POP PUSH2 0x782 DUP3 PUSH2 0x741 JUMP JUMPDEST PUSH1 0x20 DUP3 ADD SWAP1 POP SWAP2 SWAP1 POP JUMP JUMPDEST PUSH1 0x0 PUSH1 0x20 DUP3 ADD SWAP1 POP DUP2 DUP2 SUB PUSH1 0x0 DUP4 ADD MSTORE PUSH2 0x7A6 DUP2 PUSH2 0x76A JUMP JUMPDEST SWAP1 POP SWAP2 SWAP1 POP JUMP INVALID LOG2 PUSH5 0x6970667358 0x22 SLT KECCAK256 XOR GT LOG0 SGT 0xF7 EXTCODEHASH 0xC3 0xCD GT 0xC1 PUSH29 0xB8FD0599456CB7017A7DD70A3061AB069BB92BD81B64736F6C63430008 0xF STOP CALLER "
		},
		"gasEstimates": {
			"creation": {
				"codeDepositCost": "3398600",
				"executionCost": "infinite",
				"totalCost": "infinite"
			},
			"external": {
				"computBoolSavedGas()": "infinite",
				"computeCachedSavedGas()": "infinite",
				"computeIfSavedGas()": "infinite",
				"computeReturnGas()": "infinite",
				"computeSimplicationSavedGas()": "infinite",
				"computeSloadSavedGas()": "infinite",
				"computeUncheckedSavedGas()": "infinite",
				"testDemo()": "infinite"
			}
		},
		"methodIdentifiers": {
			"computBoolSavedGas()": "1e346c22",
			"computeCachedSavedGas()": "24887744",
			"computeIfSavedGas()": "3b9883fe",
			"computeReturnGas()": "e833a040",
			"computeSimplicationSavedGas()": "2e2d1803",
			"computeSloadSavedGas()": "8d0cb3d3",
			"computeUncheckedSavedGas()": "62a04d68",
			"testDemo()": "1a0a0878"
		}
	},
	"abi": [
		{
			"anonymous": false,
			"inputs": [
				{
					"indexed": false,
					"internalType": "string",
					"name": "key",
					"type": "string"
				},
				{
					"indexed": false,
					"internalType": "uint256",
					"name": "val",
					"type": "uint256"
				}
			],
			"name": "log_named_uint",
			"type": "event"
		},
		{
			"inputs": [],
			"name": "computBoolSavedGas",
			"outputs": [
				{
					"internalType": "uint256",
					"name": "gasSaved",
					"type": "uint256"
				}
			],
			"stateMutability": "nonpayable",
			"type": "function"
		},
		{
			"inputs": [],
			"name": "computeCachedSavedGas",
			"outputs": [
				{
					"internalType": "uint256",
					"name": "gasSaved",
					"type": "uint256"
				}
			],
			"stateMutability": "nonpayable",
			"type": "function"
		},
		{
			"inputs": [],
			"name": "computeIfSavedGas",
			"outputs": [
				{
					"internalType": "uint256",
					"name": "gasSaved",
					"type": "uint256"
				}
			],
			"stateMutability": "nonpayable",
			"type": "function"
		},
		{
			"inputs": [],
			"name": "computeReturnGas",
			"outputs": [],
			"stateMutability": "nonpayable",
			"type": "function"
		},
		{
			"inputs": [],
			"name": "computeSimplicationSavedGas",
			"outputs": [
				{
					"internalType": "uint256",
					"name": "gasSaved",
					"type": "uint256"
				}
			],
			"stateMutability": "nonpayable",
			"type": "function"
		},
		{
			"inputs": [],
			"name": "computeSloadSavedGas",
			"outputs": [
				{
					"internalType": "uint256",
					"name": "gasSaved",
					"type": "uint256"
				}
			],
			"stateMutability": "nonpayable",
			"type": "function"
		},
		{
			"inputs": [],
			"name": "computeUncheckedSavedGas",
			"outputs": [
				{
					"internalType": "uint256",
					"name": "gasSaved",
					"type": "uint256"
				}
			],
			"stateMutability": "nonpayable",
			"type": "function"
		},
		{
			"inputs": [],
			"name": "testDemo",
			"outputs": [],
			"stateMutability": "nonpayable",
			"type": "function"
		}
	]
}