{
	"tests/IfDemo.sol": {
		"IfDemo": {
			"abi": [
				{
					"inputs": [
						{
							"internalType": "uint256",
							"name": "a",
							"type": "uint256"
						},
						{
							"internalType": "uint256",
							"name": "b",
							"type": "uint256"
						}
					],
					"name": "andCondition",
					"outputs": [
						{
							"internalType": "uint256",
							"name": "",
							"type": "uint256"
						}
					],
					"stateMutability": "pure",
					"type": "function"
				},
				{
					"inputs": [
						{
							"internalType": "uint256",
							"name": "a",
							"type": "uint256"
						},
						{
							"internalType": "uint256",
							"name": "b",
							"type": "uint256"
						}
					],
					"name": "tierCondition",
					"outputs": [
						{
							"internalType": "uint256",
							"name": "",
							"type": "uint256"
						}
					],
					"stateMutability": "pure",
					"type": "function"
				}
			],
			"devdoc": {
				"kind": "dev",
				"methods": {},
				"version": 1
			},
			"evm": {
				"assembly": "    /* \"tests/IfDemo.sol\":67:454  contract IfDemo {... */\n  mstore(0x40, 0x80)\n  callvalue\n  dup1\n  iszero\n  tag_1\n  jumpi\n  0x00\n  dup1\n  revert\ntag_1:\n  pop\n  dataSize(sub_0)\n  dup1\n  dataOffset(sub_0)\n  0x00\n  codecopy\n  0x00\n  return\nstop\n\nsub_0: assembly {\n        /* \"tests/IfDemo.sol\":67:454  contract IfDemo {... */\n      mstore(0x40, 0x80)\n      callvalue\n      dup1\n      iszero\n      tag_1\n      jumpi\n      0x00\n      dup1\n      revert\n    tag_1:\n      pop\n      jumpi(tag_2, lt(calldatasize, 0x04))\n      shr(0xe0, calldataload(0x00))\n      dup1\n      0x07c26710\n      eq\n      tag_3\n      jumpi\n      dup1\n      0xd6238a42\n      eq\n      tag_4\n      jumpi\n    tag_2:\n      0x00\n      dup1\n      revert\n        /* \"tests/IfDemo.sol\":257:452  function tierCondition(uint256 a, uint256 b) public pure returns (uint256){... */\n    tag_3:\n      tag_5\n      0x04\n      dup1\n      calldatasize\n      sub\n      dup2\n      add\n      swap1\n      tag_6\n      swap2\n      swap1\n      tag_7\n      jump\t// in\n    tag_6:\n      tag_8\n      jump\t// in\n    tag_5:\n      mload(0x40)\n      tag_9\n      swap2\n      swap1\n      tag_10\n      jump\t// in\n    tag_9:\n      mload(0x40)\n      dup1\n      swap2\n      sub\n      swap1\n      return\n        /* \"tests/IfDemo.sol\":90:251  function andCondition(uint256 a, uint256 b) public pure returns (uint256) {... */\n    tag_4:\n      tag_11\n      0x04\n      dup1\n      calldatasize\n      sub\n      dup2\n      add\n      swap1\n      tag_12\n      swap2\n      swap1\n      tag_7\n      jump\t// in\n    tag_12:\n      tag_13\n      jump\t// in\n    tag_11:\n      mload(0x40)\n      tag_14\n      swap2\n      swap1\n      tag_10\n      jump\t// in\n    tag_14:\n      mload(0x40)\n      dup1\n      swap2\n      sub\n      swap1\n      return\n        /* \"tests/IfDemo.sol\":257:452  function tierCondition(uint256 a, uint256 b) public pure returns (uint256){... */\n    tag_8:\n        /* \"tests/IfDemo.sol\":323:330  uint256 */\n      0x00\n        /* \"tests/IfDemo.sol\":349:350  1 */\n      0x01\n        /* \"tests/IfDemo.sol\":345:346  a */\n      dup4\n        /* \"tests/IfDemo.sol\":345:350  a > 1 */\n      gt\n        /* \"tests/IfDemo.sol\":341:428  if (a > 1) {... */\n      iszero\n      tag_16\n      jumpi\n        /* \"tests/IfDemo.sol\":374:375  1 */\n      0x01\n        /* \"tests/IfDemo.sol\":370:371  b */\n      dup3\n        /* \"tests/IfDemo.sol\":370:375  b > 1 */\n      gt\n        /* \"tests/IfDemo.sol\":366:418  if (b > 1) {... */\n      iszero\n      tag_17\n      jumpi\n        /* \"tests/IfDemo.sol\":402:403  a */\n      dup3\n        /* \"tests/IfDemo.sol\":395:403  return a */\n      swap1\n      pop\n      jump(tag_15)\n        /* \"tests/IfDemo.sol\":366:418  if (b > 1) {... */\n    tag_17:\n        /* \"tests/IfDemo.sol\":341:428  if (a > 1) {... */\n    tag_16:\n        /* \"tests/IfDemo.sol\":444:445  0 */\n      0x00\n        /* \"tests/IfDemo.sol\":437:445  return 0 */\n      swap1\n      pop\n        /* \"tests/IfDemo.sol\":257:452  function tierCondition(uint256 a, uint256 b) public pure returns (uint256){... */\n    tag_15:\n      swap3\n      swap2\n      pop\n      pop\n      jump\t// out\n        /* \"tests/IfDemo.sol\":90:251  function andCondition(uint256 a, uint256 b) public pure returns (uint256) {... */\n    tag_13:\n        /* \"tests/IfDemo.sol\":155:162  uint256 */\n      0x00\n        /* \"tests/IfDemo.sol\":182:183  1 */\n      0x01\n        /* \"tests/IfDemo.sol\":178:179  a */\n      dup4\n        /* \"tests/IfDemo.sol\":178:183  a > 1 */\n      gt\n        /* \"tests/IfDemo.sol\":178:192  a > 1 && b > 1 */\n      dup1\n      iszero\n      tag_19\n      jumpi\n      pop\n        /* \"tests/IfDemo.sol\":191:192  1 */\n      0x01\n        /* \"tests/IfDemo.sol\":187:188  b */\n      dup3\n        /* \"tests/IfDemo.sol\":187:192  b > 1 */\n      gt\n        /* \"tests/IfDemo.sol\":178:192  a > 1 && b > 1 */\n    tag_19:\n        /* \"tests/IfDemo.sol\":174:227  if (a > 1 && b > 1) {... */\n      iszero\n      tag_20\n      jumpi\n        /* \"tests/IfDemo.sol\":215:216  a */\n      dup3\n        /* \"tests/IfDemo.sol\":208:216  return a */\n      swap1\n      pop\n      jump(tag_18)\n        /* \"tests/IfDemo.sol\":174:227  if (a > 1 && b > 1) {... */\n    tag_20:\n        /* \"tests/IfDemo.sol\":243:244  0 */\n      0x00\n        /* \"tests/IfDemo.sol\":236:244  return 0 */\n      swap1\n      pop\n        /* \"tests/IfDemo.sol\":90:251  function andCondition(uint256 a, uint256 b) public pure returns (uint256) {... */\n    tag_18:\n      swap3\n      swap2\n      pop\n      pop\n      jump\t// out\n        /* \"#utility.yul\":88:205   */\n    tag_22:\n        /* \"#utility.yul\":197:198   */\n      0x00\n        /* \"#utility.yul\":194:195   */\n      dup1\n        /* \"#utility.yul\":187:199   */\n      revert\n        /* \"#utility.yul\":334:411   */\n    tag_24:\n        /* \"#utility.yul\":371:378   */\n      0x00\n        /* \"#utility.yul\":400:405   */\n      dup2\n        /* \"#utility.yul\":389:405   */\n      swap1\n      pop\n        /* \"#utility.yul\":334:411   */\n      swap2\n      swap1\n      pop\n      jump\t// out\n        /* \"#utility.yul\":417:539   */\n    tag_25:\n        /* \"#utility.yul\":490:514   */\n      tag_34\n        /* \"#utility.yul\":508:513   */\n      dup2\n        /* \"#utility.yul\":490:514   */\n      tag_24\n      jump\t// in\n    tag_34:\n        /* \"#utility.yul\":483:488   */\n      dup2\n        /* \"#utility.yul\":480:515   */\n      eq\n        /* \"#utility.yul\":470:533   */\n      tag_35\n      jumpi\n        /* \"#utility.yul\":529:530   */\n      0x00\n        /* \"#utility.yul\":526:527   */\n      dup1\n        /* \"#utility.yul\":519:531   */\n      revert\n        /* \"#utility.yul\":470:533   */\n    tag_35:\n        /* \"#utility.yul\":417:539   */\n      pop\n      jump\t// out\n        /* \"#utility.yul\":545:684   */\n    tag_26:\n        /* \"#utility.yul\":591:596   */\n      0x00\n        /* \"#utility.yul\":629:635   */\n      dup2\n        /* \"#utility.yul\":616:636   */\n      calldataload\n        /* \"#utility.yul\":607:636   */\n      swap1\n      pop\n        /* \"#utility.yul\":645:678   */\n      tag_37\n        /* \"#utility.yul\":672:677   */\n      dup2\n        /* \"#utility.yul\":645:678   */\n      tag_25\n      jump\t// in\n    tag_37:\n        /* \"#utility.yul\":545:684   */\n      swap3\n      swap2\n      pop\n      pop\n      jump\t// out\n        /* \"#utility.yul\":690:1164   */\n    tag_7:\n        /* \"#utility.yul\":758:764   */\n      0x00\n        /* \"#utility.yul\":766:772   */\n      dup1\n        /* \"#utility.yul\":815:817   */\n      0x40\n        /* \"#utility.yul\":803:812   */\n      dup4\n        /* \"#utility.yul\":794:801   */\n      dup6\n        /* \"#utility.yul\":790:813   */\n      sub\n        /* \"#utility.yul\":786:818   */\n      slt\n        /* \"#utility.yul\":783:902   */\n      iszero\n      tag_39\n      jumpi\n        /* \"#utility.yul\":821:900   */\n      tag_40\n      tag_22\n      jump\t// in\n    tag_40:\n        /* \"#utility.yul\":783:902   */\n    tag_39:\n        /* \"#utility.yul\":941:942   */\n      0x00\n        /* \"#utility.yul\":966:1019   */\n      tag_41\n        /* \"#utility.yul\":1011:1018   */\n      dup6\n        /* \"#utility.yul\":1002:1008   */\n      dup3\n        /* \"#utility.yul\":991:1000   */\n      dup7\n        /* \"#utility.yul\":987:1009   */\n      add\n        /* \"#utility.yul\":966:1019   */\n      tag_26\n      jump\t// in\n    tag_41:\n        /* \"#utility.yul\":956:1019   */\n      swap3\n      pop\n        /* \"#utility.yul\":912:1029   */\n      pop\n        /* \"#utility.yul\":1068:1070   */\n      0x20\n        /* \"#utility.yul\":1094:1147   */\n      tag_42\n        /* \"#utility.yul\":1139:1146   */\n      dup6\n        /* \"#utility.yul\":1130:1136   */\n      dup3\n        /* \"#utility.yul\":1119:1128   */\n      dup7\n        /* \"#utility.yul\":1115:1137   */\n      add\n        /* \"#utility.yul\":1094:1147   */\n      tag_26\n      jump\t// in\n    tag_42:\n        /* \"#utility.yul\":1084:1147   */\n      swap2\n      pop\n        /* \"#utility.yul\":1039:1157   */\n      pop\n        /* \"#utility.yul\":690:1164   */\n      swap3\n      pop\n      swap3\n      swap1\n      pop\n      jump\t// out\n        /* \"#utility.yul\":1170:1288   */\n    tag_27:\n        /* \"#utility.yul\":1257:1281   */\n      tag_44\n        /* \"#utility.yul\":1275:1280   */\n      dup2\n        /* \"#utility.yul\":1257:1281   */\n      tag_24\n      jump\t// in\n    tag_44:\n        /* \"#utility.yul\":1252:1255   */\n      dup3\n        /* \"#utility.yul\":1245:1282   */\n      mstore\n        /* \"#utility.yul\":1170:1288   */\n      pop\n      pop\n      jump\t// out\n        /* \"#utility.yul\":1294:1516   */\n    tag_10:\n        /* \"#utility.yul\":1387:1391   */\n      0x00\n        /* \"#utility.yul\":1425:1427   */\n      0x20\n        /* \"#utility.yul\":1414:1423   */\n      dup3\n        /* \"#utility.yul\":1410:1428   */\n      add\n        /* \"#utility.yul\":1402:1428   */\n      swap1\n      pop\n        /* \"#utility.yul\":1438:1509   */\n      tag_46\n        /* \"#utility.yul\":1506:1507   */\n      0x00\n        /* \"#utility.yul\":1495:1504   */\n      dup4\n        /* \"#utility.yul\":1491:1508   */\n      add\n        /* \"#utility.yul\":1482:1488   */\n      dup5\n        /* \"#utility.yul\":1438:1509   */\n      tag_27\n      jump\t// in\n    tag_46:\n        /* \"#utility.yul\":1294:1516   */\n      swap3\n      swap2\n      pop\n      pop\n      jump\t// out\n\n    auxdata: 0xa26469706673582212204934ad42cf6d52cd232b3ece3854745ead162c3396ac24736d14554bc2b0d7c264736f6c634300080f0033\n}\n",
				"bytecode": {
					"linkReferences": {},
					"object": "608060405234801561001057600080fd5b506101c8806100206000396000f3fe608060405234801561001057600080fd5b50600436106100365760003560e01c806307c267101461003b578063d6238a421461006b575b600080fd5b61005560048036038101906100509190610128565b61009b565b6040516100629190610177565b60405180910390f35b61008560048036038101906100809190610128565b6100c3565b6040516100929190610177565b60405180910390f35b600060018311156100b85760018211156100b7578290506100bd565b5b600090505b92915050565b60006001831180156100d55750600182115b156100e2578290506100e7565b600090505b92915050565b600080fd5b6000819050919050565b610105816100f2565b811461011057600080fd5b50565b600081359050610122816100fc565b92915050565b6000806040838503121561013f5761013e6100ed565b5b600061014d85828601610113565b925050602061015e85828601610113565b9150509250929050565b610171816100f2565b82525050565b600060208201905061018c6000830184610168565b9291505056fea26469706673582212204934ad42cf6d52cd232b3ece3854745ead162c3396ac24736d14554bc2b0d7c264736f6c634300080f0033",
					"opcodes": "PUSH1 0x80 PUSH1 0x40 MSTORE CALLVALUE DUP1 ISZERO PUSH2 0x10 JUMPI PUSH1 0x0 DUP1 REVERT JUMPDEST POP PUSH2 0x1C8 DUP1 PUSH2 0x20 PUSH1 0x0 CODECOPY PUSH1 0x0 RETURN INVALID PUSH1 0x80 PUSH1 0x40 MSTORE CALLVALUE DUP1 ISZERO PUSH2 0x10 JUMPI PUSH1 0x0 DUP1 REVERT JUMPDEST POP PUSH1 0x4 CALLDATASIZE LT PUSH2 0x36 JUMPI PUSH1 0x0 CALLDATALOAD PUSH1 0xE0 SHR DUP1 PUSH4 0x7C26710 EQ PUSH2 0x3B JUMPI DUP1 PUSH4 0xD6238A42 EQ PUSH2 0x6B JUMPI JUMPDEST PUSH1 0x0 DUP1 REVERT JUMPDEST PUSH2 0x55 PUSH1 0x4 DUP1 CALLDATASIZE SUB DUP2 ADD SWAP1 PUSH2 0x50 SWAP2 SWAP1 PUSH2 0x128 JUMP JUMPDEST PUSH2 0x9B JUMP JUMPDEST PUSH1 0x40 MLOAD PUSH2 0x62 SWAP2 SWAP1 PUSH2 0x177 JUMP JUMPDEST PUSH1 0x40 MLOAD DUP1 SWAP2 SUB SWAP1 RETURN JUMPDEST PUSH2 0x85 PUSH1 0x4 DUP1 CALLDATASIZE SUB DUP2 ADD SWAP1 PUSH2 0x80 SWAP2 SWAP1 PUSH2 0x128 JUMP JUMPDEST PUSH2 0xC3 JUMP JUMPDEST PUSH1 0x40 MLOAD PUSH2 0x92 SWAP2 SWAP1 PUSH2 0x177 JUMP JUMPDEST PUSH1 0x40 MLOAD DUP1 SWAP2 SUB SWAP1 RETURN JUMPDEST PUSH1 0x0 PUSH1 0x1 DUP4 GT ISZERO PUSH2 0xB8 JUMPI PUSH1 0x1 DUP3 GT ISZERO PUSH2 0xB7 JUMPI DUP3 SWAP1 POP PUSH2 0xBD JUMP JUMPDEST JUMPDEST PUSH1 0x0 SWAP1 POP JUMPDEST SWAP3 SWAP2 POP POP JUMP JUMPDEST PUSH1 0x0 PUSH1 0x1 DUP4 GT DUP1 ISZERO PUSH2 0xD5 JUMPI POP PUSH1 0x1 DUP3 GT JUMPDEST ISZERO PUSH2 0xE2 JUMPI DUP3 SWAP1 POP PUSH2 0xE7 JUMP JUMPDEST PUSH1 0x0 SWAP1 POP JUMPDEST SWAP3 SWAP2 POP POP JUMP JUMPDEST PUSH1 0x0 DUP1 REVERT JUMPDEST PUSH1 0x0 DUP2 SWAP1 POP SWAP2 SWAP1 POP JUMP JUMPDEST PUSH2 0x105 DUP2 PUSH2 0xF2 JUMP JUMPDEST DUP2 EQ PUSH2 0x110 JUMPI PUSH1 0x0 DUP1 REVERT JUMPDEST POP JUMP JUMPDEST PUSH1 0x0 DUP2 CALLDATALOAD SWAP1 POP PUSH2 0x122 DUP2 PUSH2 0xFC JUMP JUMPDEST SWAP3 SWAP2 POP POP JUMP JUMPDEST PUSH1 0x0 DUP1 PUSH1 0x40 DUP4 DUP6 SUB SLT ISZERO PUSH2 0x13F JUMPI PUSH2 0x13E PUSH2 0xED JUMP JUMPDEST JUMPDEST PUSH1 0x0 PUSH2 0x14D DUP6 DUP3 DUP7 ADD PUSH2 0x113 JUMP JUMPDEST SWAP3 POP POP PUSH1 0x20 PUSH2 0x15E DUP6 DUP3 DUP7 ADD PUSH2 0x113 JUMP JUMPDEST SWAP2 POP POP SWAP3 POP SWAP3 SWAP1 POP JUMP JUMPDEST PUSH2 0x171 DUP2 PUSH2 0xF2 JUMP JUMPDEST DUP3 MSTORE POP POP JUMP JUMPDEST PUSH1 0x0 PUSH1 0x20 DUP3 ADD SWAP1 POP PUSH2 0x18C PUSH1 0x0 DUP4 ADD DUP5 PUSH2 0x168 JUMP JUMPDEST SWAP3 SWAP2 POP POP JUMP INVALID LOG2 PUSH5 0x6970667358 0x22 SLT KECCAK256 0x49 CALLVALUE 0xAD TIMESTAMP 0xCF PUSH14 0x52CD232B3ECE3854745EAD162C33 SWAP7 0xAC 0x24 PUSH20 0x6D14554BC2B0D7C264736F6C634300080F003300 "
				},
				"gasEstimates": {
					"creation": {
						"codeDepositCost": "91200",
						"executionCost": "141",
						"totalCost": "91341"
					},
					"external": {
						"andCondition(uint256,uint256)": "infinite",
						"tierCondition(uint256,uint256)": "infinite"
					}
				},
				"methodIdentifiers": {
					"andCondition(uint256,uint256)": "d6238a42",
					"tierCondition(uint256,uint256)": "07c26710"
				}
			},
			"storageLayout": {
				"storage": [],
				"types": null
			},
			"userdoc": {
				"kind": "user",
				"methods": {},
				"version": 1
			}
		}
	}
}