{
	"tests/ERC20DetailedDemo.sol": {
		"ERC20DetailedDemo": {
			"abi": [
				{
					"inputs": [
						{
							"internalType": "string",
							"name": "name",
							"type": "string"
						},
						{
							"internalType": "string",
							"name": "symbol",
							"type": "string"
						},
						{
							"internalType": "uint8",
							"name": "decimal",
							"type": "uint8"
						}
					],
					"stateMutability": "nonpayable",
					"type": "constructor"
				},
				{
					"inputs": [],
					"name": "decimals",
					"outputs": [
						{
							"internalType": "uint8",
							"name": "",
							"type": "uint8"
						}
					],
					"stateMutability": "view",
					"type": "function"
				}
			],
			"devdoc": {
				"kind": "dev",
				"methods": {
					"constructor": {
						"details": "Sets the values for `name`, `symbol`, and `decimals`. All three of these values are immutable: they can only be set once during construction."
					}
				},
				"version": 1
			},
			"evm": {
				"assembly": "    /* \"tests/ERC20DetailedDemo.sol\":68:614  contract ERC20DetailedDemo {... */\n  mstore(0x40, 0x80)\n    /* \"tests/ERC20DetailedDemo.sol\":370:524  constructor (string memory name, string memory symbol, uint8 decimal) {... */\n  callvalue\n  dup1\n  iszero\n  tag_1\n  jumpi\n  0x00\n  dup1\n  revert\ntag_1:\n  pop\n  mload(0x40)\n  sub(codesize, bytecodeSize)\n  dup1\n  bytecodeSize\n  dup4\n  codecopy\n  dup2\n  dup2\n  add\n  0x40\n  mstore\n  dup2\n  add\n  swap1\n  tag_2\n  swap2\n  swap1\n  tag_3\n  jump\t// in\ntag_2:\n    /* \"tests/ERC20DetailedDemo.sol\":458:462  name */\n  dup3\n    /* \"tests/ERC20DetailedDemo.sol\":450:455  _name */\n  0x00\n    /* \"tests/ERC20DetailedDemo.sol\":450:462  _name = name */\n  swap1\n  dup2\n  tag_6\n  swap2\n  swap1\n  tag_7\n  jump\t// in\ntag_6:\n  pop\n    /* \"tests/ERC20DetailedDemo.sol\":482:488  symbol */\n  dup2\n    /* \"tests/ERC20DetailedDemo.sol\":472:479  _symbol */\n  0x01\n    /* \"tests/ERC20DetailedDemo.sol\":472:488  _symbol = symbol */\n  swap1\n  dup2\n  tag_8\n  swap2\n  swap1\n  tag_7\n  jump\t// in\ntag_8:\n  pop\n    /* \"tests/ERC20DetailedDemo.sol\":510:517  decimal */\n  dup1\n    /* \"tests/ERC20DetailedDemo.sol\":498:507  _decimals */\n  0x02\n  0x00\n    /* \"tests/ERC20DetailedDemo.sol\":498:517  _decimals = decimal */\n  0x0100\n  exp\n  dup2\n  sload\n  dup2\n  0xff\n  mul\n  not\n  and\n  swap1\n  dup4\n  0xff\n  and\n  mul\n  or\n  swap1\n  sstore\n  pop\n    /* \"tests/ERC20DetailedDemo.sol\":370:524  constructor (string memory name, string memory symbol, uint8 decimal) {... */\n  pop\n  pop\n  pop\n    /* \"tests/ERC20DetailedDemo.sol\":68:614  contract ERC20DetailedDemo {... */\n  jump(tag_9)\n    /* \"#utility.yul\":7:82   */\ntag_10:\n    /* \"#utility.yul\":40:46   */\n  0x00\n    /* \"#utility.yul\":73:75   */\n  0x40\n    /* \"#utility.yul\":67:76   */\n  mload\n    /* \"#utility.yul\":57:76   */\n  swap1\n  pop\n    /* \"#utility.yul\":7:82   */\n  swap1\n  jump\t// out\n    /* \"#utility.yul\":88:205   */\ntag_11:\n    /* \"#utility.yul\":197:198   */\n  0x00\n    /* \"#utility.yul\":194:195   */\n  dup1\n    /* \"#utility.yul\":187:199   */\n  revert\n    /* \"#utility.yul\":211:328   */\ntag_12:\n    /* \"#utility.yul\":320:321   */\n  0x00\n    /* \"#utility.yul\":317:318   */\n  dup1\n    /* \"#utility.yul\":310:322   */\n  revert\n    /* \"#utility.yul\":334:451   */\ntag_13:\n    /* \"#utility.yul\":443:444   */\n  0x00\n    /* \"#utility.yul\":440:441   */\n  dup1\n    /* \"#utility.yul\":433:445   */\n  revert\n    /* \"#utility.yul\":457:574   */\ntag_14:\n    /* \"#utility.yul\":566:567   */\n  0x00\n    /* \"#utility.yul\":563:564   */\n  dup1\n    /* \"#utility.yul\":556:568   */\n  revert\n    /* \"#utility.yul\":580:682   */\ntag_15:\n    /* \"#utility.yul\":621:627   */\n  0x00\n    /* \"#utility.yul\":672:674   */\n  0x1f\n    /* \"#utility.yul\":668:675   */\n  not\n    /* \"#utility.yul\":663:665   */\n  0x1f\n    /* \"#utility.yul\":656:661   */\n  dup4\n    /* \"#utility.yul\":652:666   */\n  add\n    /* \"#utility.yul\":648:676   */\n  and\n    /* \"#utility.yul\":638:676   */\n  swap1\n  pop\n    /* \"#utility.yul\":580:682   */\n  swap2\n  swap1\n  pop\n  jump\t// out\n    /* \"#utility.yul\":688:868   */\ntag_16:\n    /* \"#utility.yul\":736:813   */\n  0x4e487b7100000000000000000000000000000000000000000000000000000000\n    /* \"#utility.yul\":733:734   */\n  0x00\n    /* \"#utility.yul\":726:814   */\n  mstore\n    /* \"#utility.yul\":833:837   */\n  0x41\n    /* \"#utility.yul\":830:831   */\n  0x04\n    /* \"#utility.yul\":823:838   */\n  mstore\n    /* \"#utility.yul\":857:861   */\n  0x24\n    /* \"#utility.yul\":854:855   */\n  0x00\n    /* \"#utility.yul\":847:862   */\n  revert\n    /* \"#utility.yul\":874:1155   */\ntag_17:\n    /* \"#utility.yul\":957:984   */\n  tag_54\n    /* \"#utility.yul\":979:983   */\n  dup3\n    /* \"#utility.yul\":957:984   */\n  tag_15\n  jump\t// in\ntag_54:\n    /* \"#utility.yul\":949:955   */\n  dup2\n    /* \"#utility.yul\":945:985   */\n  add\n    /* \"#utility.yul\":1087:1093   */\n  dup2\n    /* \"#utility.yul\":1075:1085   */\n  dup2\n    /* \"#utility.yul\":1072:1094   */\n  lt\n    /* \"#utility.yul\":1051:1069   */\n  0xffffffffffffffff\n    /* \"#utility.yul\":1039:1049   */\n  dup3\n    /* \"#utility.yul\":1036:1070   */\n  gt\n    /* \"#utility.yul\":1033:1095   */\n  or\n    /* \"#utility.yul\":1030:1118   */\n  iszero\n  tag_55\n  jumpi\n    /* \"#utility.yul\":1098:1116   */\n  tag_56\n  tag_16\n  jump\t// in\ntag_56:\n    /* \"#utility.yul\":1030:1118   */\ntag_55:\n    /* \"#utility.yul\":1138:1148   */\n  dup1\n    /* \"#utility.yul\":1134:1136   */\n  0x40\n    /* \"#utility.yul\":1127:1149   */\n  mstore\n    /* \"#utility.yul\":917:1155   */\n  pop\n    /* \"#utility.yul\":874:1155   */\n  pop\n  pop\n  jump\t// out\n    /* \"#utility.yul\":1161:1290   */\ntag_18:\n    /* \"#utility.yul\":1195:1201   */\n  0x00\n    /* \"#utility.yul\":1222:1242   */\n  tag_58\n  tag_10\n  jump\t// in\ntag_58:\n    /* \"#utility.yul\":1212:1242   */\n  swap1\n  pop\n    /* \"#utility.yul\":1251:1284   */\n  tag_59\n    /* \"#utility.yul\":1279:1283   */\n  dup3\n    /* \"#utility.yul\":1271:1277   */\n  dup3\n    /* \"#utility.yul\":1251:1284   */\n  tag_17\n  jump\t// in\ntag_59:\n    /* \"#utility.yul\":1161:1290   */\n  swap2\n  swap1\n  pop\n  jump\t// out\n    /* \"#utility.yul\":1296:1604   */\ntag_19:\n    /* \"#utility.yul\":1358:1362   */\n  0x00\n    /* \"#utility.yul\":1448:1466   */\n  0xffffffffffffffff\n    /* \"#utility.yul\":1440:1446   */\n  dup3\n    /* \"#utility.yul\":1437:1467   */\n  gt\n    /* \"#utility.yul\":1434:1490   */\n  iszero\n  tag_61\n  jumpi\n    /* \"#utility.yul\":1470:1488   */\n  tag_62\n  tag_16\n  jump\t// in\ntag_62:\n    /* \"#utility.yul\":1434:1490   */\ntag_61:\n    /* \"#utility.yul\":1508:1537   */\n  tag_63\n    /* \"#utility.yul\":1530:1536   */\n  dup3\n    /* \"#utility.yul\":1508:1537   */\n  tag_15\n  jump\t// in\ntag_63:\n    /* \"#utility.yul\":1500:1537   */\n  swap1\n  pop\n    /* \"#utility.yul\":1592:1596   */\n  0x20\n    /* \"#utility.yul\":1586:1590   */\n  dup2\n    /* \"#utility.yul\":1582:1597   */\n  add\n    /* \"#utility.yul\":1574:1597   */\n  swap1\n  pop\n    /* \"#utility.yul\":1296:1604   */\n  swap2\n  swap1\n  pop\n  jump\t// out\n    /* \"#utility.yul\":1610:1917   */\ntag_20:\n    /* \"#utility.yul\":1678:1679   */\n  0x00\n    /* \"#utility.yul\":1688:1801   */\ntag_65:\n    /* \"#utility.yul\":1702:1708   */\n  dup4\n    /* \"#utility.yul\":1699:1700   */\n  dup2\n    /* \"#utility.yul\":1696:1709   */\n  lt\n    /* \"#utility.yul\":1688:1801   */\n  iszero\n  tag_67\n  jumpi\n    /* \"#utility.yul\":1787:1788   */\n  dup1\n    /* \"#utility.yul\":1782:1785   */\n  dup3\n    /* \"#utility.yul\":1778:1789   */\n  add\n    /* \"#utility.yul\":1772:1790   */\n  mload\n    /* \"#utility.yul\":1768:1769   */\n  dup2\n    /* \"#utility.yul\":1763:1766   */\n  dup5\n    /* \"#utility.yul\":1759:1770   */\n  add\n    /* \"#utility.yul\":1752:1791   */\n  mstore\n    /* \"#utility.yul\":1724:1726   */\n  0x20\n    /* \"#utility.yul\":1721:1722   */\n  dup2\n    /* \"#utility.yul\":1717:1727   */\n  add\n    /* \"#utility.yul\":1712:1727   */\n  swap1\n  pop\n    /* \"#utility.yul\":1688:1801   */\n  jump(tag_65)\ntag_67:\n    /* \"#utility.yul\":1819:1825   */\n  dup4\n    /* \"#utility.yul\":1816:1817   */\n  dup2\n    /* \"#utility.yul\":1813:1826   */\n  gt\n    /* \"#utility.yul\":1810:1911   */\n  iszero\n  tag_68\n  jumpi\n    /* \"#utility.yul\":1899:1900   */\n  0x00\n    /* \"#utility.yul\":1890:1896   */\n  dup5\n    /* \"#utility.yul\":1885:1888   */\n  dup5\n    /* \"#utility.yul\":1881:1897   */\n  add\n    /* \"#utility.yul\":1874:1901   */\n  mstore\n    /* \"#utility.yul\":1810:1911   */\ntag_68:\n    /* \"#utility.yul\":1659:1917   */\n  pop\n    /* \"#utility.yul\":1610:1917   */\n  pop\n  pop\n  pop\n  jump\t// out\n    /* \"#utility.yul\":1923:2344   */\ntag_21:\n    /* \"#utility.yul\":2012:2017   */\n  0x00\n    /* \"#utility.yul\":2037:2103   */\n  tag_70\n    /* \"#utility.yul\":2053:2102   */\n  tag_71\n    /* \"#utility.yul\":2095:2101   */\n  dup5\n    /* \"#utility.yul\":2053:2102   */\n  tag_19\n  jump\t// in\ntag_71:\n    /* \"#utility.yul\":2037:2103   */\n  tag_18\n  jump\t// in\ntag_70:\n    /* \"#utility.yul\":2028:2103   */\n  swap1\n  pop\n    /* \"#utility.yul\":2126:2132   */\n  dup3\n    /* \"#utility.yul\":2119:2124   */\n  dup2\n    /* \"#utility.yul\":2112:2133   */\n  mstore\n    /* \"#utility.yul\":2164:2168   */\n  0x20\n    /* \"#utility.yul\":2157:2162   */\n  dup2\n    /* \"#utility.yul\":2153:2169   */\n  add\n    /* \"#utility.yul\":2202:2205   */\n  dup5\n    /* \"#utility.yul\":2193:2199   */\n  dup5\n    /* \"#utility.yul\":2188:2191   */\n  dup5\n    /* \"#utility.yul\":2184:2200   */\n  add\n    /* \"#utility.yul\":2181:2206   */\n  gt\n    /* \"#utility.yul\":2178:2290   */\n  iszero\n  tag_72\n  jumpi\n    /* \"#utility.yul\":2209:2288   */\n  tag_73\n  tag_14\n  jump\t// in\ntag_73:\n    /* \"#utility.yul\":2178:2290   */\ntag_72:\n    /* \"#utility.yul\":2299:2338   */\n  tag_74\n    /* \"#utility.yul\":2331:2337   */\n  dup5\n    /* \"#utility.yul\":2326:2329   */\n  dup3\n    /* \"#utility.yul\":2321:2324   */\n  dup6\n    /* \"#utility.yul\":2299:2338   */\n  tag_20\n  jump\t// in\ntag_74:\n    /* \"#utility.yul\":2018:2344   */\n  pop\n    /* \"#utility.yul\":1923:2344   */\n  swap4\n  swap3\n  pop\n  pop\n  pop\n  jump\t// out\n    /* \"#utility.yul\":2364:2719   */\ntag_22:\n    /* \"#utility.yul\":2431:2436   */\n  0x00\n    /* \"#utility.yul\":2480:2483   */\n  dup3\n    /* \"#utility.yul\":2473:2477   */\n  0x1f\n    /* \"#utility.yul\":2465:2471   */\n  dup4\n    /* \"#utility.yul\":2461:2478   */\n  add\n    /* \"#utility.yul\":2457:2484   */\n  slt\n    /* \"#utility.yul\":2447:2569   */\n  tag_76\n  jumpi\n    /* \"#utility.yul\":2488:2567   */\n  tag_77\n  tag_13\n  jump\t// in\ntag_77:\n    /* \"#utility.yul\":2447:2569   */\ntag_76:\n    /* \"#utility.yul\":2598:2604   */\n  dup2\n    /* \"#utility.yul\":2592:2605   */\n  mload\n    /* \"#utility.yul\":2623:2713   */\n  tag_78\n    /* \"#utility.yul\":2709:2712   */\n  dup5\n    /* \"#utility.yul\":2701:2707   */\n  dup3\n    /* \"#utility.yul\":2694:2698   */\n  0x20\n    /* \"#utility.yul\":2686:2692   */\n  dup7\n    /* \"#utility.yul\":2682:2699   */\n  add\n    /* \"#utility.yul\":2623:2713   */\n  tag_21\n  jump\t// in\ntag_78:\n    /* \"#utility.yul\":2614:2713   */\n  swap2\n  pop\n    /* \"#utility.yul\":2437:2719   */\n  pop\n    /* \"#utility.yul\":2364:2719   */\n  swap3\n  swap2\n  pop\n  pop\n  jump\t// out\n    /* \"#utility.yul\":2725:2811   */\ntag_23:\n    /* \"#utility.yul\":2760:2767   */\n  0x00\n    /* \"#utility.yul\":2800:2804   */\n  0xff\n    /* \"#utility.yul\":2793:2798   */\n  dup3\n    /* \"#utility.yul\":2789:2805   */\n  and\n    /* \"#utility.yul\":2778:2805   */\n  swap1\n  pop\n    /* \"#utility.yul\":2725:2811   */\n  swap2\n  swap1\n  pop\n  jump\t// out\n    /* \"#utility.yul\":2817:2935   */\ntag_24:\n    /* \"#utility.yul\":2888:2910   */\n  tag_81\n    /* \"#utility.yul\":2904:2909   */\n  dup2\n    /* \"#utility.yul\":2888:2910   */\n  tag_23\n  jump\t// in\ntag_81:\n    /* \"#utility.yul\":2881:2886   */\n  dup2\n    /* \"#utility.yul\":2878:2911   */\n  eq\n    /* \"#utility.yul\":2868:2929   */\n  tag_82\n  jumpi\n    /* \"#utility.yul\":2925:2926   */\n  0x00\n    /* \"#utility.yul\":2922:2923   */\n  dup1\n    /* \"#utility.yul\":2915:2927   */\n  revert\n    /* \"#utility.yul\":2868:2929   */\ntag_82:\n    /* \"#utility.yul\":2817:2935   */\n  pop\n  jump\t// out\n    /* \"#utility.yul\":2941:3080   */\ntag_25:\n    /* \"#utility.yul\":2996:3001   */\n  0x00\n    /* \"#utility.yul\":3027:3033   */\n  dup2\n    /* \"#utility.yul\":3021:3034   */\n  mload\n    /* \"#utility.yul\":3012:3034   */\n  swap1\n  pop\n    /* \"#utility.yul\":3043:3074   */\n  tag_84\n    /* \"#utility.yul\":3068:3073   */\n  dup2\n    /* \"#utility.yul\":3043:3074   */\n  tag_24\n  jump\t// in\ntag_84:\n    /* \"#utility.yul\":2941:3080   */\n  swap3\n  swap2\n  pop\n  pop\n  jump\t// out\n    /* \"#utility.yul\":3086:4091   */\ntag_3:\n    /* \"#utility.yul\":3192:3198   */\n  0x00\n    /* \"#utility.yul\":3200:3206   */\n  dup1\n    /* \"#utility.yul\":3208:3214   */\n  0x00\n    /* \"#utility.yul\":3257:3259   */\n  0x60\n    /* \"#utility.yul\":3245:3254   */\n  dup5\n    /* \"#utility.yul\":3236:3243   */\n  dup7\n    /* \"#utility.yul\":3232:3255   */\n  sub\n    /* \"#utility.yul\":3228:3260   */\n  slt\n    /* \"#utility.yul\":3225:3344   */\n  iszero\n  tag_86\n  jumpi\n    /* \"#utility.yul\":3263:3342   */\n  tag_87\n  tag_11\n  jump\t// in\ntag_87:\n    /* \"#utility.yul\":3225:3344   */\ntag_86:\n    /* \"#utility.yul\":3404:3405   */\n  0x00\n    /* \"#utility.yul\":3393:3402   */\n  dup5\n    /* \"#utility.yul\":3389:3406   */\n  add\n    /* \"#utility.yul\":3383:3407   */\n  mload\n    /* \"#utility.yul\":3434:3452   */\n  0xffffffffffffffff\n    /* \"#utility.yul\":3426:3432   */\n  dup2\n    /* \"#utility.yul\":3423:3453   */\n  gt\n    /* \"#utility.yul\":3420:3537   */\n  iszero\n  tag_88\n  jumpi\n    /* \"#utility.yul\":3456:3535   */\n  tag_89\n  tag_12\n  jump\t// in\ntag_89:\n    /* \"#utility.yul\":3420:3537   */\ntag_88:\n    /* \"#utility.yul\":3561:3635   */\n  tag_90\n    /* \"#utility.yul\":3627:3634   */\n  dup7\n    /* \"#utility.yul\":3618:3624   */\n  dup3\n    /* \"#utility.yul\":3607:3616   */\n  dup8\n    /* \"#utility.yul\":3603:3625   */\n  add\n    /* \"#utility.yul\":3561:3635   */\n  tag_22\n  jump\t// in\ntag_90:\n    /* \"#utility.yul\":3551:3635   */\n  swap4\n  pop\n    /* \"#utility.yul\":3354:3645   */\n  pop\n    /* \"#utility.yul\":3705:3707   */\n  0x20\n    /* \"#utility.yul\":3694:3703   */\n  dup5\n    /* \"#utility.yul\":3690:3708   */\n  add\n    /* \"#utility.yul\":3684:3709   */\n  mload\n    /* \"#utility.yul\":3736:3754   */\n  0xffffffffffffffff\n    /* \"#utility.yul\":3728:3734   */\n  dup2\n    /* \"#utility.yul\":3725:3755   */\n  gt\n    /* \"#utility.yul\":3722:3839   */\n  iszero\n  tag_91\n  jumpi\n    /* \"#utility.yul\":3758:3837   */\n  tag_92\n  tag_12\n  jump\t// in\ntag_92:\n    /* \"#utility.yul\":3722:3839   */\ntag_91:\n    /* \"#utility.yul\":3863:3937   */\n  tag_93\n    /* \"#utility.yul\":3929:3936   */\n  dup7\n    /* \"#utility.yul\":3920:3926   */\n  dup3\n    /* \"#utility.yul\":3909:3918   */\n  dup8\n    /* \"#utility.yul\":3905:3927   */\n  add\n    /* \"#utility.yul\":3863:3937   */\n  tag_22\n  jump\t// in\ntag_93:\n    /* \"#utility.yul\":3853:3937   */\n  swap3\n  pop\n    /* \"#utility.yul\":3655:3947   */\n  pop\n    /* \"#utility.yul\":3986:3988   */\n  0x40\n    /* \"#utility.yul\":4012:4074   */\n  tag_94\n    /* \"#utility.yul\":4066:4073   */\n  dup7\n    /* \"#utility.yul\":4057:4063   */\n  dup3\n    /* \"#utility.yul\":4046:4055   */\n  dup8\n    /* \"#utility.yul\":4042:4064   */\n  add\n    /* \"#utility.yul\":4012:4074   */\n  tag_25\n  jump\t// in\ntag_94:\n    /* \"#utility.yul\":4002:4074   */\n  swap2\n  pop\n    /* \"#utility.yul\":3957:4084   */\n  pop\n    /* \"#utility.yul\":3086:4091   */\n  swap3\n  pop\n  swap3\n  pop\n  swap3\n  jump\t// out\n    /* \"#utility.yul\":4097:4196   */\ntag_26:\n    /* \"#utility.yul\":4149:4155   */\n  0x00\n    /* \"#utility.yul\":4183:4188   */\n  dup2\n    /* \"#utility.yul\":4177:4189   */\n  mload\n    /* \"#utility.yul\":4167:4189   */\n  swap1\n  pop\n    /* \"#utility.yul\":4097:4196   */\n  swap2\n  swap1\n  pop\n  jump\t// out\n    /* \"#utility.yul\":4202:4382   */\ntag_27:\n    /* \"#utility.yul\":4250:4327   */\n  0x4e487b7100000000000000000000000000000000000000000000000000000000\n    /* \"#utility.yul\":4247:4248   */\n  0x00\n    /* \"#utility.yul\":4240:4328   */\n  mstore\n    /* \"#utility.yul\":4347:4351   */\n  0x22\n    /* \"#utility.yul\":4344:4345   */\n  0x04\n    /* \"#utility.yul\":4337:4352   */\n  mstore\n    /* \"#utility.yul\":4371:4375   */\n  0x24\n    /* \"#utility.yul\":4368:4369   */\n  0x00\n    /* \"#utility.yul\":4361:4376   */\n  revert\n    /* \"#utility.yul\":4388:4708   */\ntag_28:\n    /* \"#utility.yul\":4432:4438   */\n  0x00\n    /* \"#utility.yul\":4469:4470   */\n  0x02\n    /* \"#utility.yul\":4463:4467   */\n  dup3\n    /* \"#utility.yul\":4459:4471   */\n  div\n    /* \"#utility.yul\":4449:4471   */\n  swap1\n  pop\n    /* \"#utility.yul\":4516:4517   */\n  0x01\n    /* \"#utility.yul\":4510:4514   */\n  dup3\n    /* \"#utility.yul\":4506:4518   */\n  and\n    /* \"#utility.yul\":4537:4555   */\n  dup1\n    /* \"#utility.yul\":4527:4608   */\n  tag_98\n  jumpi\n    /* \"#utility.yul\":4593:4597   */\n  0x7f\n    /* \"#utility.yul\":4585:4591   */\n  dup3\n    /* \"#utility.yul\":4581:4598   */\n  and\n    /* \"#utility.yul\":4571:4598   */\n  swap2\n  pop\n    /* \"#utility.yul\":4527:4608   */\ntag_98:\n    /* \"#utility.yul\":4655:4657   */\n  0x20\n    /* \"#utility.yul\":4647:4653   */\n  dup3\n    /* \"#utility.yul\":4644:4658   */\n  lt\n    /* \"#utility.yul\":4624:4642   */\n  dup2\n    /* \"#utility.yul\":4621:4659   */\n  sub\n    /* \"#utility.yul\":4618:4702   */\n  tag_99\n  jumpi\n    /* \"#utility.yul\":4674:4692   */\n  tag_100\n  tag_27\n  jump\t// in\ntag_100:\n    /* \"#utility.yul\":4618:4702   */\ntag_99:\n    /* \"#utility.yul\":4439:4708   */\n  pop\n    /* \"#utility.yul\":4388:4708   */\n  swap2\n  swap1\n  pop\n  jump\t// out\n    /* \"#utility.yul\":4714:4855   */\ntag_29:\n    /* \"#utility.yul\":4763:4767   */\n  0x00\n    /* \"#utility.yul\":4786:4789   */\n  dup2\n    /* \"#utility.yul\":4778:4789   */\n  swap1\n  pop\n    /* \"#utility.yul\":4809:4812   */\n  dup2\n    /* \"#utility.yul\":4806:4807   */\n  0x00\n    /* \"#utility.yul\":4799:4813   */\n  mstore\n    /* \"#utility.yul\":4843:4847   */\n  0x20\n    /* \"#utility.yul\":4840:4841   */\n  0x00\n    /* \"#utility.yul\":4830:4848   */\n  keccak256\n    /* \"#utility.yul\":4822:4848   */\n  swap1\n  pop\n    /* \"#utility.yul\":4714:4855   */\n  swap2\n  swap1\n  pop\n  jump\t// out\n    /* \"#utility.yul\":4861:4954   */\ntag_30:\n    /* \"#utility.yul\":4898:4904   */\n  0x00\n    /* \"#utility.yul\":4945:4947   */\n  0x20\n    /* \"#utility.yul\":4940:4942   */\n  0x1f\n    /* \"#utility.yul\":4933:4938   */\n  dup4\n    /* \"#utility.yul\":4929:4943   */\n  add\n    /* \"#utility.yul\":4925:4948   */\n  div\n    /* \"#utility.yul\":4915:4948   */\n  swap1\n  pop\n    /* \"#utility.yul\":4861:4954   */\n  swap2\n  swap1\n  pop\n  jump\t// out\n    /* \"#utility.yul\":4960:5067   */\ntag_31:\n    /* \"#utility.yul\":5004:5012   */\n  0x00\n    /* \"#utility.yul\":5054:5059   */\n  dup3\n    /* \"#utility.yul\":5048:5052   */\n  dup3\n    /* \"#utility.yul\":5044:5060   */\n  shl\n    /* \"#utility.yul\":5023:5060   */\n  swap1\n  pop\n    /* \"#utility.yul\":4960:5067   */\n  swap3\n  swap2\n  pop\n  pop\n  jump\t// out\n    /* \"#utility.yul\":5073:5466   */\ntag_32:\n    /* \"#utility.yul\":5142:5148   */\n  0x00\n    /* \"#utility.yul\":5192:5193   */\n  0x08\n    /* \"#utility.yul\":5180:5190   */\n  dup4\n    /* \"#utility.yul\":5176:5194   */\n  mul\n    /* \"#utility.yul\":5215:5312   */\n  tag_105\n    /* \"#utility.yul\":5245:5311   */\n  0xffffffffffffffffffffffffffffffffffffffffffffffffffffffffffffffff\n    /* \"#utility.yul\":5234:5243   */\n  dup3\n    /* \"#utility.yul\":5215:5312   */\n  tag_31\n  jump\t// in\ntag_105:\n    /* \"#utility.yul\":5333:5372   */\n  tag_106\n    /* \"#utility.yul\":5363:5371   */\n  dup7\n    /* \"#utility.yul\":5352:5361   */\n  dup4\n    /* \"#utility.yul\":5333:5372   */\n  tag_31\n  jump\t// in\ntag_106:\n    /* \"#utility.yul\":5321:5372   */\n  swap6\n  pop\n    /* \"#utility.yul\":5405:5409   */\n  dup1\n    /* \"#utility.yul\":5401:5410   */\n  not\n    /* \"#utility.yul\":5394:5399   */\n  dup5\n    /* \"#utility.yul\":5390:5411   */\n  and\n    /* \"#utility.yul\":5381:5411   */\n  swap4\n  pop\n    /* \"#utility.yul\":5454:5458   */\n  dup1\n    /* \"#utility.yul\":5444:5452   */\n  dup7\n    /* \"#utility.yul\":5440:5459   */\n  and\n    /* \"#utility.yul\":5433:5438   */\n  dup5\n    /* \"#utility.yul\":5430:5460   */\n  or\n    /* \"#utility.yul\":5420:5460   */\n  swap3\n  pop\n    /* \"#utility.yul\":5149:5466   */\n  pop\n  pop\n    /* \"#utility.yul\":5073:5466   */\n  swap4\n  swap3\n  pop\n  pop\n  pop\n  jump\t// out\n    /* \"#utility.yul\":5472:5549   */\ntag_33:\n    /* \"#utility.yul\":5509:5516   */\n  0x00\n    /* \"#utility.yul\":5538:5543   */\n  dup2\n    /* \"#utility.yul\":5527:5543   */\n  swap1\n  pop\n    /* \"#utility.yul\":5472:5549   */\n  swap2\n  swap1\n  pop\n  jump\t// out\n    /* \"#utility.yul\":5555:5615   */\ntag_34:\n    /* \"#utility.yul\":5583:5586   */\n  0x00\n    /* \"#utility.yul\":5604:5609   */\n  dup2\n    /* \"#utility.yul\":5597:5609   */\n  swap1\n  pop\n    /* \"#utility.yul\":5555:5615   */\n  swap2\n  swap1\n  pop\n  jump\t// out\n    /* \"#utility.yul\":5621:5763   */\ntag_35:\n    /* \"#utility.yul\":5671:5680   */\n  0x00\n    /* \"#utility.yul\":5704:5757   */\n  tag_110\n    /* \"#utility.yul\":5722:5756   */\n  tag_111\n    /* \"#utility.yul\":5731:5755   */\n  tag_112\n    /* \"#utility.yul\":5749:5754   */\n  dup5\n    /* \"#utility.yul\":5731:5755   */\n  tag_33\n  jump\t// in\ntag_112:\n    /* \"#utility.yul\":5722:5756   */\n  tag_34\n  jump\t// in\ntag_111:\n    /* \"#utility.yul\":5704:5757   */\n  tag_33\n  jump\t// in\ntag_110:\n    /* \"#utility.yul\":5691:5757   */\n  swap1\n  pop\n    /* \"#utility.yul\":5621:5763   */\n  swap2\n  swap1\n  pop\n  jump\t// out\n    /* \"#utility.yul\":5769:5844   */\ntag_36:\n    /* \"#utility.yul\":5812:5815   */\n  0x00\n    /* \"#utility.yul\":5833:5838   */\n  dup2\n    /* \"#utility.yul\":5826:5838   */\n  swap1\n  pop\n    /* \"#utility.yul\":5769:5844   */\n  swap2\n  swap1\n  pop\n  jump\t// out\n    /* \"#utility.yul\":5850:6119   */\ntag_37:\n    /* \"#utility.yul\":5960:5999   */\n  tag_115\n    /* \"#utility.yul\":5991:5998   */\n  dup4\n    /* \"#utility.yul\":5960:5999   */\n  tag_35\n  jump\t// in\ntag_115:\n    /* \"#utility.yul\":6021:6112   */\n  tag_116\n    /* \"#utility.yul\":6070:6111   */\n  tag_117\n    /* \"#utility.yul\":6094:6110   */\n  dup3\n    /* \"#utility.yul\":6070:6111   */\n  tag_36\n  jump\t// in\ntag_117:\n    /* \"#utility.yul\":6062:6068   */\n  dup5\n    /* \"#utility.yul\":6055:6059   */\n  dup5\n    /* \"#utility.yul\":6049:6060   */\n  sload\n    /* \"#utility.yul\":6021:6112   */\n  tag_32\n  jump\t// in\ntag_116:\n    /* \"#utility.yul\":6015:6019   */\n  dup3\n    /* \"#utility.yul\":6008:6113   */\n  sstore\n    /* \"#utility.yul\":5926:6119   */\n  pop\n    /* \"#utility.yul\":5850:6119   */\n  pop\n  pop\n  pop\n  jump\t// out\n    /* \"#utility.yul\":6125:6198   */\ntag_38:\n    /* \"#utility.yul\":6170:6173   */\n  0x00\n    /* \"#utility.yul\":6125:6198   */\n  swap1\n  jump\t// out\n    /* \"#utility.yul\":6204:6393   */\ntag_39:\n    /* \"#utility.yul\":6281:6313   */\n  tag_120\n  tag_38\n  jump\t// in\ntag_120:\n    /* \"#utility.yul\":6322:6387   */\n  tag_121\n    /* \"#utility.yul\":6380:6386   */\n  dup2\n    /* \"#utility.yul\":6372:6378   */\n  dup5\n    /* \"#utility.yul\":6366:6370   */\n  dup5\n    /* \"#utility.yul\":6322:6387   */\n  tag_37\n  jump\t// in\ntag_121:\n    /* \"#utility.yul\":6257:6393   */\n  pop\n    /* \"#utility.yul\":6204:6393   */\n  pop\n  pop\n  jump\t// out\n    /* \"#utility.yul\":6399:6585   */\ntag_40:\n    /* \"#utility.yul\":6459:6579   */\ntag_123:\n    /* \"#utility.yul\":6476:6479   */\n  dup2\n    /* \"#utility.yul\":6469:6474   */\n  dup2\n    /* \"#utility.yul\":6466:6480   */\n  lt\n    /* \"#utility.yul\":6459:6579   */\n  iszero\n  tag_125\n  jumpi\n    /* \"#utility.yul\":6530:6569   */\n  tag_126\n    /* \"#utility.yul\":6567:6568   */\n  0x00\n    /* \"#utility.yul\":6560:6565   */\n  dup3\n    /* \"#utility.yul\":6530:6569   */\n  tag_39\n  jump\t// in\ntag_126:\n    /* \"#utility.yul\":6503:6504   */\n  0x01\n    /* \"#utility.yul\":6496:6501   */\n  dup2\n    /* \"#utility.yul\":6492:6505   */\n  add\n    /* \"#utility.yul\":6483:6505   */\n  swap1\n  pop\n    /* \"#utility.yul\":6459:6579   */\n  jump(tag_123)\ntag_125:\n    /* \"#utility.yul\":6399:6585   */\n  pop\n  pop\n  jump\t// out\n    /* \"#utility.yul\":6591:7134   */\ntag_41:\n    /* \"#utility.yul\":6692:6694   */\n  0x1f\n    /* \"#utility.yul\":6687:6690   */\n  dup3\n    /* \"#utility.yul\":6684:6695   */\n  gt\n    /* \"#utility.yul\":6681:7127   */\n  iszero\n  tag_128\n  jumpi\n    /* \"#utility.yul\":6726:6764   */\n  tag_129\n    /* \"#utility.yul\":6758:6763   */\n  dup2\n    /* \"#utility.yul\":6726:6764   */\n  tag_29\n  jump\t// in\ntag_129:\n    /* \"#utility.yul\":6810:6839   */\n  tag_130\n    /* \"#utility.yul\":6828:6838   */\n  dup5\n    /* \"#utility.yul\":6810:6839   */\n  tag_30\n  jump\t// in\ntag_130:\n    /* \"#utility.yul\":6800:6808   */\n  dup2\n    /* \"#utility.yul\":6796:6840   */\n  add\n    /* \"#utility.yul\":6993:6995   */\n  0x20\n    /* \"#utility.yul\":6981:6991   */\n  dup6\n    /* \"#utility.yul\":6978:6996   */\n  lt\n    /* \"#utility.yul\":6975:7024   */\n  iszero\n  tag_131\n  jumpi\n    /* \"#utility.yul\":7014:7022   */\n  dup2\n    /* \"#utility.yul\":6999:7022   */\n  swap1\n  pop\n    /* \"#utility.yul\":6975:7024   */\ntag_131:\n    /* \"#utility.yul\":7037:7117   */\n  tag_132\n    /* \"#utility.yul\":7093:7115   */\n  tag_133\n    /* \"#utility.yul\":7111:7114   */\n  dup6\n    /* \"#utility.yul\":7093:7115   */\n  tag_30\n  jump\t// in\ntag_133:\n    /* \"#utility.yul\":7083:7091   */\n  dup4\n    /* \"#utility.yul\":7079:7116   */\n  add\n    /* \"#utility.yul\":7066:7077   */\n  dup3\n    /* \"#utility.yul\":7037:7117   */\n  tag_40\n  jump\t// in\ntag_132:\n    /* \"#utility.yul\":6696:7127   */\n  pop\n  pop\n    /* \"#utility.yul\":6681:7127   */\ntag_128:\n    /* \"#utility.yul\":6591:7134   */\n  pop\n  pop\n  pop\n  jump\t// out\n    /* \"#utility.yul\":7140:7257   */\ntag_42:\n    /* \"#utility.yul\":7194:7202   */\n  0x00\n    /* \"#utility.yul\":7244:7249   */\n  dup3\n    /* \"#utility.yul\":7238:7242   */\n  dup3\n    /* \"#utility.yul\":7234:7250   */\n  shr\n    /* \"#utility.yul\":7213:7250   */\n  swap1\n  pop\n    /* \"#utility.yul\":7140:7257   */\n  swap3\n  swap2\n  pop\n  pop\n  jump\t// out\n    /* \"#utility.yul\":7263:7432   */\ntag_43:\n    /* \"#utility.yul\":7307:7313   */\n  0x00\n    /* \"#utility.yul\":7340:7391   */\n  tag_136\n    /* \"#utility.yul\":7388:7389   */\n  0x00\n    /* \"#utility.yul\":7384:7390   */\n  not\n    /* \"#utility.yul\":7376:7381   */\n  dup5\n    /* \"#utility.yul\":7373:7374   */\n  0x08\n    /* \"#utility.yul\":7369:7382   */\n  mul\n    /* \"#utility.yul\":7340:7391   */\n  tag_42\n  jump\t// in\ntag_136:\n    /* \"#utility.yul\":7336:7392   */\n  not\n    /* \"#utility.yul\":7421:7425   */\n  dup1\n    /* \"#utility.yul\":7415:7419   */\n  dup4\n    /* \"#utility.yul\":7411:7426   */\n  and\n    /* \"#utility.yul\":7401:7426   */\n  swap2\n  pop\n    /* \"#utility.yul\":7314:7432   */\n  pop\n    /* \"#utility.yul\":7263:7432   */\n  swap3\n  swap2\n  pop\n  pop\n  jump\t// out\n    /* \"#utility.yul\":7437:7732   */\ntag_44:\n    /* \"#utility.yul\":7513:7517   */\n  0x00\n    /* \"#utility.yul\":7659:7688   */\n  tag_138\n    /* \"#utility.yul\":7684:7687   */\n  dup4\n    /* \"#utility.yul\":7678:7682   */\n  dup4\n    /* \"#utility.yul\":7659:7688   */\n  tag_43\n  jump\t// in\ntag_138:\n    /* \"#utility.yul\":7651:7688   */\n  swap2\n  pop\n    /* \"#utility.yul\":7721:7724   */\n  dup3\n    /* \"#utility.yul\":7718:7719   */\n  0x02\n    /* \"#utility.yul\":7714:7725   */\n  mul\n    /* \"#utility.yul\":7708:7712   */\n  dup3\n    /* \"#utility.yul\":7705:7726   */\n  or\n    /* \"#utility.yul\":7697:7726   */\n  swap1\n  pop\n    /* \"#utility.yul\":7437:7732   */\n  swap3\n  swap2\n  pop\n  pop\n  jump\t// out\n    /* \"#utility.yul\":7737:9132   */\ntag_7:\n    /* \"#utility.yul\":7854:7891   */\n  tag_140\n    /* \"#utility.yul\":7887:7890   */\n  dup3\n    /* \"#utility.yul\":7854:7891   */\n  tag_26\n  jump\t// in\ntag_140:\n    /* \"#utility.yul\":7956:7974   */\n  0xffffffffffffffff\n    /* \"#utility.yul\":7948:7954   */\n  dup2\n    /* \"#utility.yul\":7945:7975   */\n  gt\n    /* \"#utility.yul\":7942:7998   */\n  iszero\n  tag_141\n  jumpi\n    /* \"#utility.yul\":7978:7996   */\n  tag_142\n  tag_16\n  jump\t// in\ntag_142:\n    /* \"#utility.yul\":7942:7998   */\ntag_141:\n    /* \"#utility.yul\":8022:8060   */\n  tag_143\n    /* \"#utility.yul\":8054:8058   */\n  dup3\n    /* \"#utility.yul\":8048:8059   */\n  sload\n    /* \"#utility.yul\":8022:8060   */\n  tag_28\n  jump\t// in\ntag_143:\n    /* \"#utility.yul\":8107:8174   */\n  tag_144\n    /* \"#utility.yul\":8167:8173   */\n  dup3\n    /* \"#utility.yul\":8159:8165   */\n  dup3\n    /* \"#utility.yul\":8153:8157   */\n  dup6\n    /* \"#utility.yul\":8107:8174   */\n  tag_41\n  jump\t// in\ntag_144:\n    /* \"#utility.yul\":8201:8202   */\n  0x00\n    /* \"#utility.yul\":8225:8229   */\n  0x20\n    /* \"#utility.yul\":8212:8229   */\n  swap1\n  pop\n    /* \"#utility.yul\":8257:8259   */\n  0x1f\n    /* \"#utility.yul\":8249:8255   */\n  dup4\n    /* \"#utility.yul\":8246:8260   */\n  gt\n    /* \"#utility.yul\":8274:8275   */\n  0x01\n    /* \"#utility.yul\":8269:8887   */\n  dup2\n  eq\n  tag_146\n  jumpi\n    /* \"#utility.yul\":8931:8932   */\n  0x00\n    /* \"#utility.yul\":8948:8954   */\n  dup5\n    /* \"#utility.yul\":8945:9022   */\n  iszero\n  tag_147\n  jumpi\n    /* \"#utility.yul\":8997:9006   */\n  dup3\n    /* \"#utility.yul\":8992:8995   */\n  dup8\n    /* \"#utility.yul\":8988:9007   */\n  add\n    /* \"#utility.yul\":8982:9008   */\n  mload\n    /* \"#utility.yul\":8973:9008   */\n  swap1\n  pop\n    /* \"#utility.yul\":8945:9022   */\ntag_147:\n    /* \"#utility.yul\":9048:9115   */\n  tag_148\n    /* \"#utility.yul\":9108:9114   */\n  dup6\n    /* \"#utility.yul\":9101:9106   */\n  dup3\n    /* \"#utility.yul\":9048:9115   */\n  tag_44\n  jump\t// in\ntag_148:\n    /* \"#utility.yul\":9042:9046   */\n  dup7\n    /* \"#utility.yul\":9035:9116   */\n  sstore\n    /* \"#utility.yul\":8904:9126   */\n  pop\n    /* \"#utility.yul\":8239:9126   */\n  jump(tag_145)\n    /* \"#utility.yul\":8269:8887   */\ntag_146:\n    /* \"#utility.yul\":8321:8325   */\n  0x1f\n    /* \"#utility.yul\":8317:8326   */\n  not\n    /* \"#utility.yul\":8309:8315   */\n  dup5\n    /* \"#utility.yul\":8305:8327   */\n  and\n    /* \"#utility.yul\":8355:8392   */\n  tag_149\n    /* \"#utility.yul\":8387:8391   */\n  dup7\n    /* \"#utility.yul\":8355:8392   */\n  tag_29\n  jump\t// in\ntag_149:\n    /* \"#utility.yul\":8414:8415   */\n  0x00\n    /* \"#utility.yul\":8428:8636   */\ntag_150:\n    /* \"#utility.yul\":8442:8449   */\n  dup3\n    /* \"#utility.yul\":8439:8440   */\n  dup2\n    /* \"#utility.yul\":8436:8450   */\n  lt\n    /* \"#utility.yul\":8428:8636   */\n  iszero\n  tag_152\n  jumpi\n    /* \"#utility.yul\":8521:8530   */\n  dup5\n    /* \"#utility.yul\":8516:8519   */\n  dup10\n    /* \"#utility.yul\":8512:8531   */\n  add\n    /* \"#utility.yul\":8506:8532   */\n  mload\n    /* \"#utility.yul\":8498:8504   */\n  dup3\n    /* \"#utility.yul\":8491:8533   */\n  sstore\n    /* \"#utility.yul\":8572:8573   */\n  0x01\n    /* \"#utility.yul\":8564:8570   */\n  dup3\n    /* \"#utility.yul\":8560:8574   */\n  add\n    /* \"#utility.yul\":8550:8574   */\n  swap2\n  pop\n    /* \"#utility.yul\":8619:8621   */\n  0x20\n    /* \"#utility.yul\":8608:8617   */\n  dup6\n    /* \"#utility.yul\":8604:8622   */\n  add\n    /* \"#utility.yul\":8591:8622   */\n  swap5\n  pop\n    /* \"#utility.yul\":8465:8469   */\n  0x20\n    /* \"#utility.yul\":8462:8463   */\n  dup2\n    /* \"#utility.yul\":8458:8470   */\n  add\n    /* \"#utility.yul\":8453:8470   */\n  swap1\n  pop\n    /* \"#utility.yul\":8428:8636   */\n  jump(tag_150)\ntag_152:\n    /* \"#utility.yul\":8664:8670   */\n  dup7\n    /* \"#utility.yul\":8655:8662   */\n  dup4\n    /* \"#utility.yul\":8652:8671   */\n  lt\n    /* \"#utility.yul\":8649:8828   */\n  iszero\n  tag_153\n  jumpi\n    /* \"#utility.yul\":8722:8731   */\n  dup5\n    /* \"#utility.yul\":8717:8720   */\n  dup10\n    /* \"#utility.yul\":8713:8732   */\n  add\n    /* \"#utility.yul\":8707:8733   */\n  mload\n    /* \"#utility.yul\":8765:8813   */\n  tag_154\n    /* \"#utility.yul\":8807:8811   */\n  0x1f\n    /* \"#utility.yul\":8799:8805   */\n  dup10\n    /* \"#utility.yul\":8795:8812   */\n  and\n    /* \"#utility.yul\":8784:8793   */\n  dup3\n    /* \"#utility.yul\":8765:8813   */\n  tag_43\n  jump\t// in\ntag_154:\n    /* \"#utility.yul\":8757:8763   */\n  dup4\n    /* \"#utility.yul\":8750:8814   */\n  sstore\n    /* \"#utility.yul\":8672:8828   */\n  pop\n    /* \"#utility.yul\":8649:8828   */\ntag_153:\n    /* \"#utility.yul\":8874:8875   */\n  0x01\n    /* \"#utility.yul\":8870:8871   */\n  0x02\n    /* \"#utility.yul\":8862:8868   */\n  dup9\n    /* \"#utility.yul\":8858:8872   */\n  mul\n    /* \"#utility.yul\":8854:8876   */\n  add\n    /* \"#utility.yul\":8848:8852   */\n  dup9\n    /* \"#utility.yul\":8841:8877   */\n  sstore\n    /* \"#utility.yul\":8276:8887   */\n  pop\n  pop\n  pop\n    /* \"#utility.yul\":8239:9126   */\ntag_145:\n  pop\n    /* \"#utility.yul\":7829:9132   */\n  pop\n  pop\n  pop\n    /* \"#utility.yul\":7737:9132   */\n  pop\n  pop\n  jump\t// out\n    /* \"tests/ERC20DetailedDemo.sol\":68:614  contract ERC20DetailedDemo {... */\ntag_9:\n  dataSize(sub_0)\n  dup1\n  dataOffset(sub_0)\n  0x00\n  codecopy\n  0x00\n  return\nstop\n\nsub_0: assembly {\n        /* \"tests/ERC20DetailedDemo.sol\":68:614  contract ERC20DetailedDemo {... */\n      mstore(0x40, 0x80)\n      callvalue\n      dup1\n      iszero\n      tag_1\n      jumpi\n      0x00\n      dup1\n      revert\n    tag_1:\n      pop\n      jumpi(tag_2, lt(calldatasize, 0x04))\n      shr(0xe0, calldataload(0x00))\n      dup1\n      0x313ce567\n      eq\n      tag_3\n      jumpi\n    tag_2:\n      0x00\n      dup1\n      revert\n        /* \"tests/ERC20DetailedDemo.sol\":530:611  function decimals() public view returns (uint8) {... */\n    tag_3:\n      tag_4\n      tag_5\n      jump\t// in\n    tag_4:\n      mload(0x40)\n      tag_6\n      swap2\n      swap1\n      tag_7\n      jump\t// in\n    tag_6:\n      mload(0x40)\n      dup1\n      swap2\n      sub\n      swap1\n      return\n    tag_5:\n        /* \"tests/ERC20DetailedDemo.sol\":571:576  uint8 */\n      0x00\n        /* \"tests/ERC20DetailedDemo.sol\":595:604  _decimals */\n      0x02\n      0x00\n      swap1\n      sload\n      swap1\n      0x0100\n      exp\n      swap1\n      div\n      0xff\n      and\n        /* \"tests/ERC20DetailedDemo.sol\":588:604  return _decimals */\n      swap1\n      pop\n        /* \"tests/ERC20DetailedDemo.sol\":530:611  function decimals() public view returns (uint8) {... */\n      swap1\n      jump\t// out\n        /* \"#utility.yul\":7:93   */\n    tag_9:\n        /* \"#utility.yul\":42:49   */\n      0x00\n        /* \"#utility.yul\":82:86   */\n      0xff\n        /* \"#utility.yul\":75:80   */\n      dup3\n        /* \"#utility.yul\":71:87   */\n      and\n        /* \"#utility.yul\":60:87   */\n      swap1\n      pop\n        /* \"#utility.yul\":7:93   */\n      swap2\n      swap1\n      pop\n      jump\t// out\n        /* \"#utility.yul\":99:211   */\n    tag_10:\n        /* \"#utility.yul\":182:204   */\n      tag_14\n        /* \"#utility.yul\":198:203   */\n      dup2\n        /* \"#utility.yul\":182:204   */\n      tag_9\n      jump\t// in\n    tag_14:\n        /* \"#utility.yul\":177:180   */\n      dup3\n        /* \"#utility.yul\":170:205   */\n      mstore\n        /* \"#utility.yul\":99:211   */\n      pop\n      pop\n      jump\t// out\n        /* \"#utility.yul\":217:431   */\n    tag_7:\n        /* \"#utility.yul\":306:310   */\n      0x00\n        /* \"#utility.yul\":344:346   */\n      0x20\n        /* \"#utility.yul\":333:342   */\n      dup3\n        /* \"#utility.yul\":329:347   */\n      add\n        /* \"#utility.yul\":321:347   */\n      swap1\n      pop\n        /* \"#utility.yul\":357:424   */\n      tag_16\n        /* \"#utility.yul\":421:422   */\n      0x00\n        /* \"#utility.yul\":410:419   */\n      dup4\n        /* \"#utility.yul\":406:423   */\n      add\n        /* \"#utility.yul\":397:403   */\n      dup5\n        /* \"#utility.yul\":357:424   */\n      tag_10\n      jump\t// in\n    tag_16:\n        /* \"#utility.yul\":217:431   */\n      swap3\n      swap2\n      pop\n      pop\n      jump\t// out\n\n    auxdata: 0xa2646970667358221220c437cf6db6c895376d2a51d34de4ab1405d512c0417e47da386ac4a582e950ca64736f6c634300080f0033\n}\n",
				"bytecode": {
					"linkReferences": {},
					"object": "608060405234801561001057600080fd5b5060405161067f38038061067f8339818101604052810190610032919061022c565b826000908161004191906104d8565b50816001908161005191906104d8565b5080600260006101000a81548160ff021916908360ff1602179055505050506105aa565b6000604051905090565b600080fd5b600080fd5b600080fd5b600080fd5b6000601f19601f8301169050919050565b7f4e487b7100000000000000000000000000000000000000000000000000000000600052604160045260246000fd5b6100dc82610093565b810181811067ffffffffffffffff821117156100fb576100fa6100a4565b5b80604052505050565b600061010e610075565b905061011a82826100d3565b919050565b600067ffffffffffffffff82111561013a576101396100a4565b5b61014382610093565b9050602081019050919050565b60005b8381101561016e578082015181840152602081019050610153565b8381111561017d576000848401525b50505050565b60006101966101918461011f565b610104565b9050828152602081018484840111156101b2576101b161008e565b5b6101bd848285610150565b509392505050565b600082601f8301126101da576101d9610089565b5b81516101ea848260208601610183565b91505092915050565b600060ff82169050919050565b610209816101f3565b811461021457600080fd5b50565b60008151905061022681610200565b92915050565b6000806000606084860312156102455761024461007f565b5b600084015167ffffffffffffffff81111561026357610262610084565b5b61026f868287016101c5565b935050602084015167ffffffffffffffff8111156102905761028f610084565b5b61029c868287016101c5565b92505060406102ad86828701610217565b9150509250925092565b600081519050919050565b7f4e487b7100000000000000000000000000000000000000000000000000000000600052602260045260246000fd5b6000600282049050600182168061030957607f821691505b60208210810361031c5761031b6102c2565b5b50919050565b60008190508160005260206000209050919050565b60006020601f8301049050919050565b600082821b905092915050565b6000600883026103847fffffffffffffffffffffffffffffffffffffffffffffffffffffffffffffffff82610347565b61038e8683610347565b95508019841693508086168417925050509392505050565b6000819050919050565b6000819050919050565b60006103d56103d06103cb846103a6565b6103b0565b6103a6565b9050919050565b6000819050919050565b6103ef836103ba565b6104036103fb826103dc565b848454610354565b825550505050565b600090565b61041861040b565b6104238184846103e6565b505050565b5b818110156104475761043c600082610410565b600181019050610429565b5050565b601f82111561048c5761045d81610322565b61046684610337565b81016020851015610475578190505b61048961048185610337565b830182610428565b50505b505050565b600082821c905092915050565b60006104af60001984600802610491565b1980831691505092915050565b60006104c8838361049e565b9150826002028217905092915050565b6104e1826102b7565b67ffffffffffffffff8111156104fa576104f96100a4565b5b61050482546102f1565b61050f82828561044b565b600060209050601f8311600181146105425760008415610530578287015190505b61053a85826104bc565b8655506105a2565b601f19841661055086610322565b60005b8281101561057857848901518255600182019150602085019450602081019050610553565b868310156105955784890151610591601f89168261049e565b8355505b6001600288020188555050505b505050505050565b60c7806105b86000396000f3fe6080604052348015600f57600080fd5b506004361060285760003560e01c8063313ce56714602d575b600080fd5b60336047565b604051603e91906078565b60405180910390f35b6000600260009054906101000a900460ff16905090565b600060ff82169050919050565b607281605e565b82525050565b6000602082019050608b6000830184606b565b9291505056fea2646970667358221220c437cf6db6c895376d2a51d34de4ab1405d512c0417e47da386ac4a582e950ca64736f6c634300080f0033",
					"opcodes": "PUSH1 0x80 PUSH1 0x40 MSTORE CALLVALUE DUP1 ISZERO PUSH2 0x10 JUMPI PUSH1 0x0 DUP1 REVERT JUMPDEST POP PUSH1 0x40 MLOAD PUSH2 0x67F CODESIZE SUB DUP1 PUSH2 0x67F DUP4 CODECOPY DUP2 DUP2 ADD PUSH1 0x40 MSTORE DUP2 ADD SWAP1 PUSH2 0x32 SWAP2 SWAP1 PUSH2 0x22C JUMP JUMPDEST DUP3 PUSH1 0x0 SWAP1 DUP2 PUSH2 0x41 SWAP2 SWAP1 PUSH2 0x4D8 JUMP JUMPDEST POP DUP2 PUSH1 0x1 SWAP1 DUP2 PUSH2 0x51 SWAP2 SWAP1 PUSH2 0x4D8 JUMP JUMPDEST POP DUP1 PUSH1 0x2 PUSH1 0x0 PUSH2 0x100 EXP DUP2 SLOAD DUP2 PUSH1 0xFF MUL NOT AND SWAP1 DUP4 PUSH1 0xFF AND MUL OR SWAP1 SSTORE POP POP POP POP PUSH2 0x5AA JUMP JUMPDEST PUSH1 0x0 PUSH1 0x40 MLOAD SWAP1 POP SWAP1 JUMP JUMPDEST PUSH1 0x0 DUP1 REVERT JUMPDEST PUSH1 0x0 DUP1 REVERT JUMPDEST PUSH1 0x0 DUP1 REVERT JUMPDEST PUSH1 0x0 DUP1 REVERT JUMPDEST PUSH1 0x0 PUSH1 0x1F NOT PUSH1 0x1F DUP4 ADD AND SWAP1 POP SWAP2 SWAP1 POP JUMP JUMPDEST PUSH32 0x4E487B7100000000000000000000000000000000000000000000000000000000 PUSH1 0x0 MSTORE PUSH1 0x41 PUSH1 0x4 MSTORE PUSH1 0x24 PUSH1 0x0 REVERT JUMPDEST PUSH2 0xDC DUP3 PUSH2 0x93 JUMP JUMPDEST DUP2 ADD DUP2 DUP2 LT PUSH8 0xFFFFFFFFFFFFFFFF DUP3 GT OR ISZERO PUSH2 0xFB JUMPI PUSH2 0xFA PUSH2 0xA4 JUMP JUMPDEST JUMPDEST DUP1 PUSH1 0x40 MSTORE POP POP POP JUMP JUMPDEST PUSH1 0x0 PUSH2 0x10E PUSH2 0x75 JUMP JUMPDEST SWAP1 POP PUSH2 0x11A DUP3 DUP3 PUSH2 0xD3 JUMP JUMPDEST SWAP2 SWAP1 POP JUMP JUMPDEST PUSH1 0x0 PUSH8 0xFFFFFFFFFFFFFFFF DUP3 GT ISZERO PUSH2 0x13A JUMPI PUSH2 0x139 PUSH2 0xA4 JUMP JUMPDEST JUMPDEST PUSH2 0x143 DUP3 PUSH2 0x93 JUMP JUMPDEST SWAP1 POP PUSH1 0x20 DUP2 ADD SWAP1 POP SWAP2 SWAP1 POP JUMP JUMPDEST PUSH1 0x0 JUMPDEST DUP4 DUP2 LT ISZERO PUSH2 0x16E JUMPI DUP1 DUP3 ADD MLOAD DUP2 DUP5 ADD MSTORE PUSH1 0x20 DUP2 ADD SWAP1 POP PUSH2 0x153 JUMP JUMPDEST DUP4 DUP2 GT ISZERO PUSH2 0x17D JUMPI PUSH1 0x0 DUP5 DUP5 ADD MSTORE JUMPDEST POP POP POP POP JUMP JUMPDEST PUSH1 0x0 PUSH2 0x196 PUSH2 0x191 DUP5 PUSH2 0x11F JUMP JUMPDEST PUSH2 0x104 JUMP JUMPDEST SWAP1 POP DUP3 DUP2 MSTORE PUSH1 0x20 DUP2 ADD DUP5 DUP5 DUP5 ADD GT ISZERO PUSH2 0x1B2 JUMPI PUSH2 0x1B1 PUSH2 0x8E JUMP JUMPDEST JUMPDEST PUSH2 0x1BD DUP5 DUP3 DUP6 PUSH2 0x150 JUMP JUMPDEST POP SWAP4 SWAP3 POP POP POP JUMP JUMPDEST PUSH1 0x0 DUP3 PUSH1 0x1F DUP4 ADD SLT PUSH2 0x1DA JUMPI PUSH2 0x1D9 PUSH2 0x89 JUMP JUMPDEST JUMPDEST DUP2 MLOAD PUSH2 0x1EA DUP5 DUP3 PUSH1 0x20 DUP7 ADD PUSH2 0x183 JUMP JUMPDEST SWAP2 POP POP SWAP3 SWAP2 POP POP JUMP JUMPDEST PUSH1 0x0 PUSH1 0xFF DUP3 AND SWAP1 POP SWAP2 SWAP1 POP JUMP JUMPDEST PUSH2 0x209 DUP2 PUSH2 0x1F3 JUMP JUMPDEST DUP2 EQ PUSH2 0x214 JUMPI PUSH1 0x0 DUP1 REVERT JUMPDEST POP JUMP JUMPDEST PUSH1 0x0 DUP2 MLOAD SWAP1 POP PUSH2 0x226 DUP2 PUSH2 0x200 JUMP JUMPDEST SWAP3 SWAP2 POP POP JUMP JUMPDEST PUSH1 0x0 DUP1 PUSH1 0x0 PUSH1 0x60 DUP5 DUP7 SUB SLT ISZERO PUSH2 0x245 JUMPI PUSH2 0x244 PUSH2 0x7F JUMP JUMPDEST JUMPDEST PUSH1 0x0 DUP5 ADD MLOAD PUSH8 0xFFFFFFFFFFFFFFFF DUP2 GT ISZERO PUSH2 0x263 JUMPI PUSH2 0x262 PUSH2 0x84 JUMP JUMPDEST JUMPDEST PUSH2 0x26F DUP7 DUP3 DUP8 ADD PUSH2 0x1C5 JUMP JUMPDEST SWAP4 POP POP PUSH1 0x20 DUP5 ADD MLOAD PUSH8 0xFFFFFFFFFFFFFFFF DUP2 GT ISZERO PUSH2 0x290 JUMPI PUSH2 0x28F PUSH2 0x84 JUMP JUMPDEST JUMPDEST PUSH2 0x29C DUP7 DUP3 DUP8 ADD PUSH2 0x1C5 JUMP JUMPDEST SWAP3 POP POP PUSH1 0x40 PUSH2 0x2AD DUP7 DUP3 DUP8 ADD PUSH2 0x217 JUMP JUMPDEST SWAP2 POP POP SWAP3 POP SWAP3 POP SWAP3 JUMP JUMPDEST PUSH1 0x0 DUP2 MLOAD SWAP1 POP SWAP2 SWAP1 POP JUMP JUMPDEST PUSH32 0x4E487B7100000000000000000000000000000000000000000000000000000000 PUSH1 0x0 MSTORE PUSH1 0x22 PUSH1 0x4 MSTORE PUSH1 0x24 PUSH1 0x0 REVERT JUMPDEST PUSH1 0x0 PUSH1 0x2 DUP3 DIV SWAP1 POP PUSH1 0x1 DUP3 AND DUP1 PUSH2 0x309 JUMPI PUSH1 0x7F DUP3 AND SWAP2 POP JUMPDEST PUSH1 0x20 DUP3 LT DUP2 SUB PUSH2 0x31C JUMPI PUSH2 0x31B PUSH2 0x2C2 JUMP JUMPDEST JUMPDEST POP SWAP2 SWAP1 POP JUMP JUMPDEST PUSH1 0x0 DUP2 SWAP1 POP DUP2 PUSH1 0x0 MSTORE PUSH1 0x20 PUSH1 0x0 KECCAK256 SWAP1 POP SWAP2 SWAP1 POP JUMP JUMPDEST PUSH1 0x0 PUSH1 0x20 PUSH1 0x1F DUP4 ADD DIV SWAP1 POP SWAP2 SWAP1 POP JUMP JUMPDEST PUSH1 0x0 DUP3 DUP3 SHL SWAP1 POP SWAP3 SWAP2 POP POP JUMP JUMPDEST PUSH1 0x0 PUSH1 0x8 DUP4 MUL PUSH2 0x384 PUSH32 0xFFFFFFFFFFFFFFFFFFFFFFFFFFFFFFFFFFFFFFFFFFFFFFFFFFFFFFFFFFFFFFFF DUP3 PUSH2 0x347 JUMP JUMPDEST PUSH2 0x38E DUP7 DUP4 PUSH2 0x347 JUMP JUMPDEST SWAP6 POP DUP1 NOT DUP5 AND SWAP4 POP DUP1 DUP7 AND DUP5 OR SWAP3 POP POP POP SWAP4 SWAP3 POP POP POP JUMP JUMPDEST PUSH1 0x0 DUP2 SWAP1 POP SWAP2 SWAP1 POP JUMP JUMPDEST PUSH1 0x0 DUP2 SWAP1 POP SWAP2 SWAP1 POP JUMP JUMPDEST PUSH1 0x0 PUSH2 0x3D5 PUSH2 0x3D0 PUSH2 0x3CB DUP5 PUSH2 0x3A6 JUMP JUMPDEST PUSH2 0x3B0 JUMP JUMPDEST PUSH2 0x3A6 JUMP JUMPDEST SWAP1 POP SWAP2 SWAP1 POP JUMP JUMPDEST PUSH1 0x0 DUP2 SWAP1 POP SWAP2 SWAP1 POP JUMP JUMPDEST PUSH2 0x3EF DUP4 PUSH2 0x3BA JUMP JUMPDEST PUSH2 0x403 PUSH2 0x3FB DUP3 PUSH2 0x3DC JUMP JUMPDEST DUP5 DUP5 SLOAD PUSH2 0x354 JUMP JUMPDEST DUP3 SSTORE POP POP POP POP JUMP JUMPDEST PUSH1 0x0 SWAP1 JUMP JUMPDEST PUSH2 0x418 PUSH2 0x40B JUMP JUMPDEST PUSH2 0x423 DUP2 DUP5 DUP5 PUSH2 0x3E6 JUMP JUMPDEST POP POP POP JUMP JUMPDEST JUMPDEST DUP2 DUP2 LT ISZERO PUSH2 0x447 JUMPI PUSH2 0x43C PUSH1 0x0 DUP3 PUSH2 0x410 JUMP JUMPDEST PUSH1 0x1 DUP2 ADD SWAP1 POP PUSH2 0x429 JUMP JUMPDEST POP POP JUMP JUMPDEST PUSH1 0x1F DUP3 GT ISZERO PUSH2 0x48C JUMPI PUSH2 0x45D DUP2 PUSH2 0x322 JUMP JUMPDEST PUSH2 0x466 DUP5 PUSH2 0x337 JUMP JUMPDEST DUP2 ADD PUSH1 0x20 DUP6 LT ISZERO PUSH2 0x475 JUMPI DUP2 SWAP1 POP JUMPDEST PUSH2 0x489 PUSH2 0x481 DUP6 PUSH2 0x337 JUMP JUMPDEST DUP4 ADD DUP3 PUSH2 0x428 JUMP JUMPDEST POP POP JUMPDEST POP POP POP JUMP JUMPDEST PUSH1 0x0 DUP3 DUP3 SHR SWAP1 POP SWAP3 SWAP2 POP POP JUMP JUMPDEST PUSH1 0x0 PUSH2 0x4AF PUSH1 0x0 NOT DUP5 PUSH1 0x8 MUL PUSH2 0x491 JUMP JUMPDEST NOT DUP1 DUP4 AND SWAP2 POP POP SWAP3 SWAP2 POP POP JUMP JUMPDEST PUSH1 0x0 PUSH2 0x4C8 DUP4 DUP4 PUSH2 0x49E JUMP JUMPDEST SWAP2 POP DUP3 PUSH1 0x2 MUL DUP3 OR SWAP1 POP SWAP3 SWAP2 POP POP JUMP JUMPDEST PUSH2 0x4E1 DUP3 PUSH2 0x2B7 JUMP JUMPDEST PUSH8 0xFFFFFFFFFFFFFFFF DUP2 GT ISZERO PUSH2 0x4FA JUMPI PUSH2 0x4F9 PUSH2 0xA4 JUMP JUMPDEST JUMPDEST PUSH2 0x504 DUP3 SLOAD PUSH2 0x2F1 JUMP JUMPDEST PUSH2 0x50F DUP3 DUP3 DUP6 PUSH2 0x44B JUMP JUMPDEST PUSH1 0x0 PUSH1 0x20 SWAP1 POP PUSH1 0x1F DUP4 GT PUSH1 0x1 DUP2 EQ PUSH2 0x542 JUMPI PUSH1 0x0 DUP5 ISZERO PUSH2 0x530 JUMPI DUP3 DUP8 ADD MLOAD SWAP1 POP JUMPDEST PUSH2 0x53A DUP6 DUP3 PUSH2 0x4BC JUMP JUMPDEST DUP7 SSTORE POP PUSH2 0x5A2 JUMP JUMPDEST PUSH1 0x1F NOT DUP5 AND PUSH2 0x550 DUP7 PUSH2 0x322 JUMP JUMPDEST PUSH1 0x0 JUMPDEST DUP3 DUP2 LT ISZERO PUSH2 0x578 JUMPI DUP5 DUP10 ADD MLOAD DUP3 SSTORE PUSH1 0x1 DUP3 ADD SWAP2 POP PUSH1 0x20 DUP6 ADD SWAP5 POP PUSH1 0x20 DUP2 ADD SWAP1 POP PUSH2 0x553 JUMP JUMPDEST DUP7 DUP4 LT ISZERO PUSH2 0x595 JUMPI DUP5 DUP10 ADD MLOAD PUSH2 0x591 PUSH1 0x1F DUP10 AND DUP3 PUSH2 0x49E JUMP JUMPDEST DUP4 SSTORE POP JUMPDEST PUSH1 0x1 PUSH1 0x2 DUP9 MUL ADD DUP9 SSTORE POP POP POP JUMPDEST POP POP POP POP POP POP JUMP JUMPDEST PUSH1 0xC7 DUP1 PUSH2 0x5B8 PUSH1 0x0 CODECOPY PUSH1 0x0 RETURN INVALID PUSH1 0x80 PUSH1 0x40 MSTORE CALLVALUE DUP1 ISZERO PUSH1 0xF JUMPI PUSH1 0x0 DUP1 REVERT JUMPDEST POP PUSH1 0x4 CALLDATASIZE LT PUSH1 0x28 JUMPI PUSH1 0x0 CALLDATALOAD PUSH1 0xE0 SHR DUP1 PUSH4 0x313CE567 EQ PUSH1 0x2D JUMPI JUMPDEST PUSH1 0x0 DUP1 REVERT JUMPDEST PUSH1 0x33 PUSH1 0x47 JUMP JUMPDEST PUSH1 0x40 MLOAD PUSH1 0x3E SWAP2 SWAP1 PUSH1 0x78 JUMP JUMPDEST PUSH1 0x40 MLOAD DUP1 SWAP2 SUB SWAP1 RETURN JUMPDEST PUSH1 0x0 PUSH1 0x2 PUSH1 0x0 SWAP1 SLOAD SWAP1 PUSH2 0x100 EXP SWAP1 DIV PUSH1 0xFF AND SWAP1 POP SWAP1 JUMP JUMPDEST PUSH1 0x0 PUSH1 0xFF DUP3 AND SWAP1 POP SWAP2 SWAP1 POP JUMP JUMPDEST PUSH1 0x72 DUP2 PUSH1 0x5E JUMP JUMPDEST DUP3 MSTORE POP POP JUMP JUMPDEST PUSH1 0x0 PUSH1 0x20 DUP3 ADD SWAP1 POP PUSH1 0x8B PUSH1 0x0 DUP4 ADD DUP5 PUSH1 0x6B JUMP JUMPDEST SWAP3 SWAP2 POP POP JUMP INVALID LOG2 PUSH5 0x6970667358 0x22 SLT KECCAK256 0xC4 CALLDATACOPY 0xCF PUSH14 0xB6C895376D2A51D34DE4AB1405D5 SLT 0xC0 COINBASE PUSH31 0x47DA386AC4A582E950CA64736F6C634300080F003300000000000000000000 "
				},
				"gasEstimates": {
					"creation": {
						"codeDepositCost": "39800",
						"executionCost": "infinite",
						"totalCost": "infinite"
					},
					"external": {
						"decimals()": "2457"
					}
				},
				"methodIdentifiers": {
					"decimals()": "313ce567"
				}
			},
			"storageLayout": {
				"storage": [
					{
						"astId": 3,
						"contract": "tests/ERC20DetailedDemo.sol:ERC20DetailedDemo",
						"label": "_name",
						"offset": 0,
						"slot": "0",
						"type": "t_string_storage"
					},
					{
						"astId": 5,
						"contract": "tests/ERC20DetailedDemo.sol:ERC20DetailedDemo",
						"label": "_symbol",
						"offset": 0,
						"slot": "1",
						"type": "t_string_storage"
					},
					{
						"astId": 7,
						"contract": "tests/ERC20DetailedDemo.sol:ERC20DetailedDemo",
						"label": "_decimals",
						"offset": 0,
						"slot": "2",
						"type": "t_uint8"
					}
				],
				"types": {
					"t_string_storage": {
						"encoding": "bytes",
						"label": "string",
						"numberOfBytes": "32"
					},
					"t_uint8": {
						"encoding": "inplace",
						"label": "uint8",
						"numberOfBytes": "1"
					}
				}
			},
			"userdoc": {
				"kind": "user",
				"methods": {},
				"version": 1
			}
		}
	}
}