{
	"tests/SimpleTest.sol": {
		"SimpleTest": {
			"abi": [
				{
					"anonymous": false,
					"inputs": [
						{
							"indexed": false,
							"internalType": "string",
							"name": "key",
							"type": "string"
						},
						{
							"indexed": false,
							"internalType": "uint256",
							"name": "val",
							"type": "uint256"
						}
					],
					"name": "log_named_uint",
					"type": "event"
				},
				{
					"inputs": [
						{
							"internalType": "uint256",
							"name": "a",
							"type": "uint256"
						},
						{
							"internalType": "uint256",
							"name": "b",
							"type": "uint256"
						}
					],
					"name": "add1",
					"outputs": [
						{
							"internalType": "uint256",
							"name": "",
							"type": "uint256"
						}
					],
					"stateMutability": "nonpayable",
					"type": "function"
				},
				{
					"inputs": [
						{
							"internalType": "uint256",
							"name": "a",
							"type": "uint256"
						},
						{
							"internalType": "uint256",
							"name": "b",
							"type": "uint256"
						}
					],
					"name": "add2",
					"outputs": [
						{
							"internalType": "uint256",
							"name": "c",
							"type": "uint256"
						}
					],
					"stateMutability": "nonpayable",
					"type": "function"
				},
				{
					"inputs": [
						{
							"internalType": "uint256",
							"name": "a",
							"type": "uint256"
						},
						{
							"internalType": "uint256",
							"name": "b",
							"type": "uint256"
						}
					],
					"name": "add3",
					"outputs": [
						{
							"internalType": "uint256",
							"name": "",
							"type": "uint256"
						}
					],
					"stateMutability": "nonpayable",
					"type": "function"
				}
			],
			"devdoc": {
				"kind": "dev",
				"methods": {},
				"version": 1
			},
			"evm": {
				"assembly": "    /* \"tests/SimpleTest.sol\":118:669  contract SimpleTest is GasMeasure {... */\n  mstore(0x40, 0x80)\n  callvalue\n  dup1\n  iszero\n  tag_1\n  jumpi\n  0x00\n  dup1\n  revert\ntag_1:\n  pop\n  dataSize(sub_0)\n  dup1\n  dataOffset(sub_0)\n  0x00\n  codecopy\n  0x00\n  return\nstop\n\nsub_0: assembly {\n        /* \"tests/SimpleTest.sol\":118:669  contract SimpleTest is GasMeasure {... */\n      mstore(0x40, 0x80)\n      callvalue\n      dup1\n      iszero\n      tag_1\n      jumpi\n      0x00\n      dup1\n      revert\n    tag_1:\n      pop\n      jumpi(tag_2, lt(calldatasize, 0x04))\n      shr(0xe0, calldataload(0x00))\n      dup1\n      0xc3314f\n      eq\n      tag_3\n      jumpi\n      dup1\n      0x29fcda33\n      eq\n      tag_4\n      jumpi\n      dup1\n      0x76b81449\n      eq\n      tag_5\n      jumpi\n    tag_2:\n      0x00\n      dup1\n      revert\n        /* \"tests/SimpleTest.sol\":515:667  function add3(uint256 a, uint256 b) public logs_gas returns (uint256) {... */\n    tag_3:\n      tag_6\n      0x04\n      dup1\n      calldatasize\n      sub\n      dup2\n      add\n      swap1\n      tag_7\n      swap2\n      swap1\n      tag_8\n      jump\t// in\n    tag_7:\n      tag_9\n      jump\t// in\n    tag_6:\n      mload(0x40)\n      tag_10\n      swap2\n      swap1\n      tag_11\n      jump\t// in\n    tag_10:\n      mload(0x40)\n      dup1\n      swap2\n      sub\n      swap1\n      return\n        /* \"tests/SimpleTest.sol\":340:509  function add2(uint256 a, uint256 b) public logs_gas returns (uint256 c) {... */\n    tag_4:\n      tag_12\n      0x04\n      dup1\n      calldatasize\n      sub\n      dup2\n      add\n      swap1\n      tag_13\n      swap2\n      swap1\n      tag_8\n      jump\t// in\n    tag_13:\n      tag_14\n      jump\t// in\n    tag_12:\n      mload(0x40)\n      tag_15\n      swap2\n      swap1\n      tag_11\n      jump\t// in\n    tag_15:\n      mload(0x40)\n      dup1\n      swap2\n      sub\n      swap1\n      return\n        /* \"tests/SimpleTest.sol\":159:334  function add1(uint256 a, uint256 b) public logs_gas returns (uint256) {... */\n    tag_5:\n      tag_16\n      0x04\n      dup1\n      calldatasize\n      sub\n      dup2\n      add\n      swap1\n      tag_17\n      swap2\n      swap1\n      tag_8\n      jump\t// in\n    tag_17:\n      tag_18\n      jump\t// in\n    tag_16:\n      mload(0x40)\n      tag_19\n      swap2\n      swap1\n      tag_11\n      jump\t// in\n    tag_19:\n      mload(0x40)\n      dup1\n      swap2\n      sub\n      swap1\n      return\n        /* \"tests/SimpleTest.sol\":515:667  function add3(uint256 a, uint256 b) public logs_gas returns (uint256) {... */\n    tag_9:\n        /* \"tests/SimpleTest.sol\":576:583  uint256 */\n      0x00\n        /* \"tests/utils/GasMeasure.sol\":183:196  uint startGas */\n      dup1\n        /* \"tests/utils/GasMeasure.sol\":199:208  gasleft() */\n      gas\n        /* \"tests/utils/GasMeasure.sol\":183:208  uint startGas = gasleft() */\n      swap1\n      pop\n        /* \"tests/SimpleTest.sol\":602:603  0 */\n      0x00\n        /* \"tests/SimpleTest.sol\":599:600  a */\n      dup5\n        /* \"tests/SimpleTest.sol\":599:603  a==0 */\n      sub\n        /* \"tests/SimpleTest.sol\":595:638  if (a==0) {... */\n      tag_22\n      jumpi\n        /* \"tests/SimpleTest.sol\":626:627  0 */\n      0x00\n        /* \"tests/SimpleTest.sol\":619:627  return 0 */\n      swap2\n      pop\n      jump(tag_21)\n        /* \"tests/SimpleTest.sol\":595:638  if (a==0) {... */\n    tag_22:\n        /* \"tests/SimpleTest.sol\":659:660  b */\n      dup3\n        /* \"tests/SimpleTest.sol\":655:656  a */\n      dup5\n        /* \"tests/SimpleTest.sol\":655:660  a + b */\n      tag_23\n      swap2\n      swap1\n      tag_24\n      jump\t// in\n    tag_23:\n        /* \"tests/SimpleTest.sol\":648:660  return a + b */\n      swap2\n      pop\n        /* \"tests/utils/GasMeasure.sol\":218:219  _ */\n    tag_21:\n        /* \"tests/utils/GasMeasure.sol\":229:240  uint endGas */\n      0x00\n        /* \"tests/utils/GasMeasure.sol\":243:252  gasleft() */\n      gas\n        /* \"tests/utils/GasMeasure.sol\":229:252  uint endGas = gasleft() */\n      swap1\n      pop\n        /* \"tests/utils/GasMeasure.sol\":267:307  log_named_uint(\"gas\", startGas - endGas) */\n      0xb2de2fbe801a0df6c0cbddfd448ba3c41d48a040ca35c56c8196ef0fcae721a8\n        /* \"tests/utils/GasMeasure.sol\":300:306  endGas */\n      dup2\n        /* \"tests/utils/GasMeasure.sol\":289:297  startGas */\n      dup4\n        /* \"tests/utils/GasMeasure.sol\":289:306  startGas - endGas */\n      tag_25\n      swap2\n      swap1\n      tag_26\n      jump\t// in\n    tag_25:\n        /* \"tests/utils/GasMeasure.sol\":267:307  log_named_uint(\"gas\", startGas - endGas) */\n      mload(0x40)\n      tag_27\n      swap2\n      swap1\n      tag_28\n      jump\t// in\n    tag_27:\n      mload(0x40)\n      dup1\n      swap2\n      sub\n      swap1\n      log1\n        /* \"tests/utils/GasMeasure.sol\":173:314  {... */\n      pop\n      pop\n        /* \"tests/SimpleTest.sol\":515:667  function add3(uint256 a, uint256 b) public logs_gas returns (uint256) {... */\n      swap3\n      swap2\n      pop\n      pop\n      jump\t// out\n        /* \"tests/SimpleTest.sol\":340:509  function add2(uint256 a, uint256 b) public logs_gas returns (uint256 c) {... */\n    tag_14:\n        /* \"tests/SimpleTest.sol\":401:410  uint256 c */\n      0x00\n        /* \"tests/utils/GasMeasure.sol\":183:196  uint startGas */\n      dup1\n        /* \"tests/utils/GasMeasure.sol\":199:208  gasleft() */\n      gas\n        /* \"tests/utils/GasMeasure.sol\":183:208  uint startGas = gasleft() */\n      swap1\n      pop\n        /* \"tests/SimpleTest.sol\":429:430  0 */\n      0x00\n        /* \"tests/SimpleTest.sol\":426:427  a */\n      dup5\n        /* \"tests/SimpleTest.sol\":426:430  a==0 */\n      sub\n        /* \"tests/SimpleTest.sol\":422:465  if (a==0) {... */\n      tag_31\n      jumpi\n        /* \"tests/SimpleTest.sol\":453:454  0 */\n      0x00\n        /* \"tests/SimpleTest.sol\":446:454  return 0 */\n      swap2\n      pop\n      jump(tag_30)\n        /* \"tests/SimpleTest.sol\":422:465  if (a==0) {... */\n    tag_31:\n        /* \"tests/SimpleTest.sol\":483:484  b */\n      dup3\n        /* \"tests/SimpleTest.sol\":479:480  a */\n      dup5\n        /* \"tests/SimpleTest.sol\":479:484  a + b */\n      tag_32\n      swap2\n      swap1\n      tag_24\n      jump\t// in\n    tag_32:\n        /* \"tests/SimpleTest.sol\":475:484  c = a + b */\n      swap2\n      pop\n        /* \"tests/utils/GasMeasure.sol\":218:219  _ */\n    tag_30:\n        /* \"tests/utils/GasMeasure.sol\":229:240  uint endGas */\n      0x00\n        /* \"tests/utils/GasMeasure.sol\":243:252  gasleft() */\n      gas\n        /* \"tests/utils/GasMeasure.sol\":229:252  uint endGas = gasleft() */\n      swap1\n      pop\n        /* \"tests/utils/GasMeasure.sol\":267:307  log_named_uint(\"gas\", startGas - endGas) */\n      0xb2de2fbe801a0df6c0cbddfd448ba3c41d48a040ca35c56c8196ef0fcae721a8\n        /* \"tests/utils/GasMeasure.sol\":300:306  endGas */\n      dup2\n        /* \"tests/utils/GasMeasure.sol\":289:297  startGas */\n      dup4\n        /* \"tests/utils/GasMeasure.sol\":289:306  startGas - endGas */\n      tag_33\n      swap2\n      swap1\n      tag_26\n      jump\t// in\n    tag_33:\n        /* \"tests/utils/GasMeasure.sol\":267:307  log_named_uint(\"gas\", startGas - endGas) */\n      mload(0x40)\n      tag_34\n      swap2\n      swap1\n      tag_28\n      jump\t// in\n    tag_34:\n      mload(0x40)\n      dup1\n      swap2\n      sub\n      swap1\n      log1\n        /* \"tests/utils/GasMeasure.sol\":173:314  {... */\n      pop\n      pop\n        /* \"tests/SimpleTest.sol\":340:509  function add2(uint256 a, uint256 b) public logs_gas returns (uint256 c) {... */\n      swap3\n      swap2\n      pop\n      pop\n      jump\t// out\n        /* \"tests/SimpleTest.sol\":159:334  function add1(uint256 a, uint256 b) public logs_gas returns (uint256) {... */\n    tag_18:\n        /* \"tests/SimpleTest.sol\":220:227  uint256 */\n      0x00\n        /* \"tests/utils/GasMeasure.sol\":183:196  uint startGas */\n      dup1\n        /* \"tests/utils/GasMeasure.sol\":199:208  gasleft() */\n      gas\n        /* \"tests/utils/GasMeasure.sol\":183:208  uint startGas = gasleft() */\n      swap1\n      pop\n        /* \"tests/SimpleTest.sol\":246:247  0 */\n      0x00\n        /* \"tests/SimpleTest.sol\":243:244  a */\n      dup5\n        /* \"tests/SimpleTest.sol\":243:247  a==0 */\n      sub\n        /* \"tests/SimpleTest.sol\":239:282  if (a==0) {... */\n      tag_37\n      jumpi\n        /* \"tests/SimpleTest.sol\":270:271  0 */\n      0x00\n        /* \"tests/SimpleTest.sol\":263:271  return 0 */\n      swap2\n      pop\n      jump(tag_36)\n        /* \"tests/SimpleTest.sol\":239:282  if (a==0) {... */\n    tag_37:\n        /* \"tests/SimpleTest.sol\":292:301  uint256 c */\n      0x00\n        /* \"tests/SimpleTest.sol\":308:309  b */\n      dup4\n        /* \"tests/SimpleTest.sol\":304:305  a */\n      dup6\n        /* \"tests/SimpleTest.sol\":304:309  a + b */\n      tag_38\n      swap2\n      swap1\n      tag_24\n      jump\t// in\n    tag_38:\n        /* \"tests/SimpleTest.sol\":292:309  uint256 c = a + b */\n      swap1\n      pop\n        /* \"tests/SimpleTest.sol\":326:327  c */\n      dup1\n        /* \"tests/SimpleTest.sol\":319:327  return c */\n      swap3\n      pop\n      pop\n        /* \"tests/utils/GasMeasure.sol\":218:219  _ */\n    tag_36:\n        /* \"tests/utils/GasMeasure.sol\":229:240  uint endGas */\n      0x00\n        /* \"tests/utils/GasMeasure.sol\":243:252  gasleft() */\n      gas\n        /* \"tests/utils/GasMeasure.sol\":229:252  uint endGas = gasleft() */\n      swap1\n      pop\n        /* \"tests/utils/GasMeasure.sol\":267:307  log_named_uint(\"gas\", startGas - endGas) */\n      0xb2de2fbe801a0df6c0cbddfd448ba3c41d48a040ca35c56c8196ef0fcae721a8\n        /* \"tests/utils/GasMeasure.sol\":300:306  endGas */\n      dup2\n        /* \"tests/utils/GasMeasure.sol\":289:297  startGas */\n      dup4\n        /* \"tests/utils/GasMeasure.sol\":289:306  startGas - endGas */\n      tag_39\n      swap2\n      swap1\n      tag_26\n      jump\t// in\n    tag_39:\n        /* \"tests/utils/GasMeasure.sol\":267:307  log_named_uint(\"gas\", startGas - endGas) */\n      mload(0x40)\n      tag_40\n      swap2\n      swap1\n      tag_28\n      jump\t// in\n    tag_40:\n      mload(0x40)\n      dup1\n      swap2\n      sub\n      swap1\n      log1\n        /* \"tests/utils/GasMeasure.sol\":173:314  {... */\n      pop\n      pop\n        /* \"tests/SimpleTest.sol\":159:334  function add1(uint256 a, uint256 b) public logs_gas returns (uint256) {... */\n      swap3\n      swap2\n      pop\n      pop\n      jump\t// out\n        /* \"#utility.yul\":88:205   */\n    tag_42:\n        /* \"#utility.yul\":197:198   */\n      0x00\n        /* \"#utility.yul\":194:195   */\n      dup1\n        /* \"#utility.yul\":187:199   */\n      revert\n        /* \"#utility.yul\":334:411   */\n    tag_44:\n        /* \"#utility.yul\":371:378   */\n      0x00\n        /* \"#utility.yul\":400:405   */\n      dup2\n        /* \"#utility.yul\":389:405   */\n      swap1\n      pop\n        /* \"#utility.yul\":334:411   */\n      swap2\n      swap1\n      pop\n      jump\t// out\n        /* \"#utility.yul\":417:539   */\n    tag_45:\n        /* \"#utility.yul\":490:514   */\n      tag_58\n        /* \"#utility.yul\":508:513   */\n      dup2\n        /* \"#utility.yul\":490:514   */\n      tag_44\n      jump\t// in\n    tag_58:\n        /* \"#utility.yul\":483:488   */\n      dup2\n        /* \"#utility.yul\":480:515   */\n      eq\n        /* \"#utility.yul\":470:533   */\n      tag_59\n      jumpi\n        /* \"#utility.yul\":529:530   */\n      0x00\n        /* \"#utility.yul\":526:527   */\n      dup1\n        /* \"#utility.yul\":519:531   */\n      revert\n        /* \"#utility.yul\":470:533   */\n    tag_59:\n        /* \"#utility.yul\":417:539   */\n      pop\n      jump\t// out\n        /* \"#utility.yul\":545:684   */\n    tag_46:\n        /* \"#utility.yul\":591:596   */\n      0x00\n        /* \"#utility.yul\":629:635   */\n      dup2\n        /* \"#utility.yul\":616:636   */\n      calldataload\n        /* \"#utility.yul\":607:636   */\n      swap1\n      pop\n        /* \"#utility.yul\":645:678   */\n      tag_61\n        /* \"#utility.yul\":672:677   */\n      dup2\n        /* \"#utility.yul\":645:678   */\n      tag_45\n      jump\t// in\n    tag_61:\n        /* \"#utility.yul\":545:684   */\n      swap3\n      swap2\n      pop\n      pop\n      jump\t// out\n        /* \"#utility.yul\":690:1164   */\n    tag_8:\n        /* \"#utility.yul\":758:764   */\n      0x00\n        /* \"#utility.yul\":766:772   */\n      dup1\n        /* \"#utility.yul\":815:817   */\n      0x40\n        /* \"#utility.yul\":803:812   */\n      dup4\n        /* \"#utility.yul\":794:801   */\n      dup6\n        /* \"#utility.yul\":790:813   */\n      sub\n        /* \"#utility.yul\":786:818   */\n      slt\n        /* \"#utility.yul\":783:902   */\n      iszero\n      tag_63\n      jumpi\n        /* \"#utility.yul\":821:900   */\n      tag_64\n      tag_42\n      jump\t// in\n    tag_64:\n        /* \"#utility.yul\":783:902   */\n    tag_63:\n        /* \"#utility.yul\":941:942   */\n      0x00\n        /* \"#utility.yul\":966:1019   */\n      tag_65\n        /* \"#utility.yul\":1011:1018   */\n      dup6\n        /* \"#utility.yul\":1002:1008   */\n      dup3\n        /* \"#utility.yul\":991:1000   */\n      dup7\n        /* \"#utility.yul\":987:1009   */\n      add\n        /* \"#utility.yul\":966:1019   */\n      tag_46\n      jump\t// in\n    tag_65:\n        /* \"#utility.yul\":956:1019   */\n      swap3\n      pop\n        /* \"#utility.yul\":912:1029   */\n      pop\n        /* \"#utility.yul\":1068:1070   */\n      0x20\n        /* \"#utility.yul\":1094:1147   */\n      tag_66\n        /* \"#utility.yul\":1139:1146   */\n      dup6\n        /* \"#utility.yul\":1130:1136   */\n      dup3\n        /* \"#utility.yul\":1119:1128   */\n      dup7\n        /* \"#utility.yul\":1115:1137   */\n      add\n        /* \"#utility.yul\":1094:1147   */\n      tag_46\n      jump\t// in\n    tag_66:\n        /* \"#utility.yul\":1084:1147   */\n      swap2\n      pop\n        /* \"#utility.yul\":1039:1157   */\n      pop\n        /* \"#utility.yul\":690:1164   */\n      swap3\n      pop\n      swap3\n      swap1\n      pop\n      jump\t// out\n        /* \"#utility.yul\":1170:1288   */\n    tag_47:\n        /* \"#utility.yul\":1257:1281   */\n      tag_68\n        /* \"#utility.yul\":1275:1280   */\n      dup2\n        /* \"#utility.yul\":1257:1281   */\n      tag_44\n      jump\t// in\n    tag_68:\n        /* \"#utility.yul\":1252:1255   */\n      dup3\n        /* \"#utility.yul\":1245:1282   */\n      mstore\n        /* \"#utility.yul\":1170:1288   */\n      pop\n      pop\n      jump\t// out\n        /* \"#utility.yul\":1294:1516   */\n    tag_11:\n        /* \"#utility.yul\":1387:1391   */\n      0x00\n        /* \"#utility.yul\":1425:1427   */\n      0x20\n        /* \"#utility.yul\":1414:1423   */\n      dup3\n        /* \"#utility.yul\":1410:1428   */\n      add\n        /* \"#utility.yul\":1402:1428   */\n      swap1\n      pop\n        /* \"#utility.yul\":1438:1509   */\n      tag_70\n        /* \"#utility.yul\":1506:1507   */\n      0x00\n        /* \"#utility.yul\":1495:1504   */\n      dup4\n        /* \"#utility.yul\":1491:1508   */\n      add\n        /* \"#utility.yul\":1482:1488   */\n      dup5\n        /* \"#utility.yul\":1438:1509   */\n      tag_47\n      jump\t// in\n    tag_70:\n        /* \"#utility.yul\":1294:1516   */\n      swap3\n      swap2\n      pop\n      pop\n      jump\t// out\n        /* \"#utility.yul\":1522:1702   */\n    tag_48:\n        /* \"#utility.yul\":1570:1647   */\n      0x4e487b7100000000000000000000000000000000000000000000000000000000\n        /* \"#utility.yul\":1567:1568   */\n      0x00\n        /* \"#utility.yul\":1560:1648   */\n      mstore\n        /* \"#utility.yul\":1667:1671   */\n      0x11\n        /* \"#utility.yul\":1664:1665   */\n      0x04\n        /* \"#utility.yul\":1657:1672   */\n      mstore\n        /* \"#utility.yul\":1691:1695   */\n      0x24\n        /* \"#utility.yul\":1688:1689   */\n      0x00\n        /* \"#utility.yul\":1681:1696   */\n      revert\n        /* \"#utility.yul\":1708:2013   */\n    tag_24:\n        /* \"#utility.yul\":1748:1751   */\n      0x00\n        /* \"#utility.yul\":1767:1787   */\n      tag_73\n        /* \"#utility.yul\":1785:1786   */\n      dup3\n        /* \"#utility.yul\":1767:1787   */\n      tag_44\n      jump\t// in\n    tag_73:\n        /* \"#utility.yul\":1762:1787   */\n      swap2\n      pop\n        /* \"#utility.yul\":1801:1821   */\n      tag_74\n        /* \"#utility.yul\":1819:1820   */\n      dup4\n        /* \"#utility.yul\":1801:1821   */\n      tag_44\n      jump\t// in\n    tag_74:\n        /* \"#utility.yul\":1796:1821   */\n      swap3\n      pop\n        /* \"#utility.yul\":1955:1956   */\n      dup3\n        /* \"#utility.yul\":1887:1953   */\n      0xffffffffffffffffffffffffffffffffffffffffffffffffffffffffffffffff\n        /* \"#utility.yul\":1883:1957   */\n      sub\n        /* \"#utility.yul\":1880:1881   */\n      dup3\n        /* \"#utility.yul\":1877:1958   */\n      gt\n        /* \"#utility.yul\":1874:1981   */\n      iszero\n      tag_75\n      jumpi\n        /* \"#utility.yul\":1961:1979   */\n      tag_76\n      tag_48\n      jump\t// in\n    tag_76:\n        /* \"#utility.yul\":1874:1981   */\n    tag_75:\n        /* \"#utility.yul\":2005:2006   */\n      dup3\n        /* \"#utility.yul\":2002:2003   */\n      dup3\n        /* \"#utility.yul\":1998:2007   */\n      add\n        /* \"#utility.yul\":1991:2007   */\n      swap1\n      pop\n        /* \"#utility.yul\":1708:2013   */\n      swap3\n      swap2\n      pop\n      pop\n      jump\t// out\n        /* \"#utility.yul\":2019:2210   */\n    tag_26:\n        /* \"#utility.yul\":2059:2063   */\n      0x00\n        /* \"#utility.yul\":2079:2099   */\n      tag_78\n        /* \"#utility.yul\":2097:2098   */\n      dup3\n        /* \"#utility.yul\":2079:2099   */\n      tag_44\n      jump\t// in\n    tag_78:\n        /* \"#utility.yul\":2074:2099   */\n      swap2\n      pop\n        /* \"#utility.yul\":2113:2133   */\n      tag_79\n        /* \"#utility.yul\":2131:2132   */\n      dup4\n        /* \"#utility.yul\":2113:2133   */\n      tag_44\n      jump\t// in\n    tag_79:\n        /* \"#utility.yul\":2108:2133   */\n      swap3\n      pop\n        /* \"#utility.yul\":2152:2153   */\n      dup3\n        /* \"#utility.yul\":2149:2150   */\n      dup3\n        /* \"#utility.yul\":2146:2154   */\n      lt\n        /* \"#utility.yul\":2143:2177   */\n      iszero\n      tag_80\n      jumpi\n        /* \"#utility.yul\":2157:2175   */\n      tag_81\n      tag_48\n      jump\t// in\n    tag_81:\n        /* \"#utility.yul\":2143:2177   */\n    tag_80:\n        /* \"#utility.yul\":2202:2203   */\n      dup3\n        /* \"#utility.yul\":2199:2200   */\n      dup3\n        /* \"#utility.yul\":2195:2204   */\n      sub\n        /* \"#utility.yul\":2187:2204   */\n      swap1\n      pop\n        /* \"#utility.yul\":2019:2210   */\n      swap3\n      swap2\n      pop\n      pop\n      jump\t// out\n        /* \"#utility.yul\":2216:2385   */\n    tag_49:\n        /* \"#utility.yul\":2300:2311   */\n      0x00\n        /* \"#utility.yul\":2334:2340   */\n      dup3\n        /* \"#utility.yul\":2329:2332   */\n      dup3\n        /* \"#utility.yul\":2322:2341   */\n      mstore\n        /* \"#utility.yul\":2374:2378   */\n      0x20\n        /* \"#utility.yul\":2369:2372   */\n      dup3\n        /* \"#utility.yul\":2365:2379   */\n      add\n        /* \"#utility.yul\":2350:2379   */\n      swap1\n      pop\n        /* \"#utility.yul\":2216:2385   */\n      swap3\n      swap2\n      pop\n      pop\n      jump\t// out\n        /* \"#utility.yul\":2391:2544   */\n    tag_50:\n        /* \"#utility.yul\":2531:2536   */\n      0x6761730000000000000000000000000000000000000000000000000000000000\n        /* \"#utility.yul\":2527:2528   */\n      0x00\n        /* \"#utility.yul\":2519:2525   */\n      dup3\n        /* \"#utility.yul\":2515:2529   */\n      add\n        /* \"#utility.yul\":2508:2537   */\n      mstore\n        /* \"#utility.yul\":2391:2544   */\n      pop\n      jump\t// out\n        /* \"#utility.yul\":2550:2915   */\n    tag_51:\n        /* \"#utility.yul\":2692:2695   */\n      0x00\n        /* \"#utility.yul\":2713:2779   */\n      tag_85\n        /* \"#utility.yul\":2777:2778   */\n      0x03\n        /* \"#utility.yul\":2772:2775   */\n      dup4\n        /* \"#utility.yul\":2713:2779   */\n      tag_49\n      jump\t// in\n    tag_85:\n        /* \"#utility.yul\":2706:2779   */\n      swap2\n      pop\n        /* \"#utility.yul\":2788:2881   */\n      tag_86\n        /* \"#utility.yul\":2877:2880   */\n      dup3\n        /* \"#utility.yul\":2788:2881   */\n      tag_50\n      jump\t// in\n    tag_86:\n        /* \"#utility.yul\":2906:2908   */\n      0x20\n        /* \"#utility.yul\":2901:2904   */\n      dup3\n        /* \"#utility.yul\":2897:2909   */\n      add\n        /* \"#utility.yul\":2890:2909   */\n      swap1\n      pop\n        /* \"#utility.yul\":2550:2915   */\n      swap2\n      swap1\n      pop\n      jump\t// out\n        /* \"#utility.yul\":2921:3450   */\n    tag_28:\n        /* \"#utility.yul\":3115:3119   */\n      0x00\n        /* \"#utility.yul\":3153:3155   */\n      0x40\n        /* \"#utility.yul\":3142:3151   */\n      dup3\n        /* \"#utility.yul\":3138:3156   */\n      add\n        /* \"#utility.yul\":3130:3156   */\n      swap1\n      pop\n        /* \"#utility.yul\":3202:3211   */\n      dup2\n        /* \"#utility.yul\":3196:3200   */\n      dup2\n        /* \"#utility.yul\":3192:3212   */\n      sub\n        /* \"#utility.yul\":3188:3189   */\n      0x00\n        /* \"#utility.yul\":3177:3186   */\n      dup4\n        /* \"#utility.yul\":3173:3190   */\n      add\n        /* \"#utility.yul\":3166:3213   */\n      mstore\n        /* \"#utility.yul\":3230:3361   */\n      tag_88\n        /* \"#utility.yul\":3356:3360   */\n      dup2\n        /* \"#utility.yul\":3230:3361   */\n      tag_51\n      jump\t// in\n    tag_88:\n        /* \"#utility.yul\":3222:3361   */\n      swap1\n      pop\n        /* \"#utility.yul\":3371:3443   */\n      tag_89\n        /* \"#utility.yul\":3439:3441   */\n      0x20\n        /* \"#utility.yul\":3428:3437   */\n      dup4\n        /* \"#utility.yul\":3424:3442   */\n      add\n        /* \"#utility.yul\":3415:3421   */\n      dup5\n        /* \"#utility.yul\":3371:3443   */\n      tag_47\n      jump\t// in\n    tag_89:\n        /* \"#utility.yul\":2921:3450   */\n      swap3\n      swap2\n      pop\n      pop\n      jump\t// out\n\n    auxdata: 0xa2646970667358221220cdc13b2d17690100033b98e4d2ba4687819d6d62daf82f36920a90e1011c697c64736f6c634300080f0033\n}\n",
				"bytecode": {
					"linkReferences": {},
					"object": "608060405234801561001057600080fd5b50610459806100206000396000f3fe608060405234801561001057600080fd5b50600436106100405760003560e01c8062c3314f1461004557806329fcda331461007557806376b81449146100a5575b600080fd5b61005f600480360381019061005a9190610275565b6100d5565b60405161006c91906102c4565b60405180910390f35b61008f600480360381019061008a9190610275565b61014a565b60405161009c91906102c4565b60405180910390f35b6100bf60048036038101906100ba9190610275565b6101bf565b6040516100cc91906102c4565b60405180910390f35b6000805a9050600084036100ec57600091506100fb565b82846100f8919061030e565b91505b60005a90507fb2de2fbe801a0df6c0cbddfd448ba3c41d48a040ca35c56c8196ef0fcae721a8818361012d9190610364565b60405161013a91906103f5565b60405180910390a1505092915050565b6000805a9050600084036101615760009150610170565b828461016d919061030e565b91505b60005a90507fb2de2fbe801a0df6c0cbddfd448ba3c41d48a040ca35c56c8196ef0fcae721a881836101a29190610364565b6040516101af91906103f5565b60405180910390a1505092915050565b6000805a9050600084036101d657600091506101eb565b600083856101e4919061030e565b9050809250505b60005a90507fb2de2fbe801a0df6c0cbddfd448ba3c41d48a040ca35c56c8196ef0fcae721a8818361021d9190610364565b60405161022a91906103f5565b60405180910390a1505092915050565b600080fd5b6000819050919050565b6102528161023f565b811461025d57600080fd5b50565b60008135905061026f81610249565b92915050565b6000806040838503121561028c5761028b61023a565b5b600061029a85828601610260565b92505060206102ab85828601610260565b9150509250929050565b6102be8161023f565b82525050565b60006020820190506102d960008301846102b5565b92915050565b7f4e487b7100000000000000000000000000000000000000000000000000000000600052601160045260246000fd5b60006103198261023f565b91506103248361023f565b9250827fffffffffffffffffffffffffffffffffffffffffffffffffffffffffffffffff03821115610359576103586102df565b5b828201905092915050565b600061036f8261023f565b915061037a8361023f565b92508282101561038d5761038c6102df565b5b828203905092915050565b600082825260208201905092915050565b7f6761730000000000000000000000000000000000000000000000000000000000600082015250565b60006103df600383610398565b91506103ea826103a9565b602082019050919050565b6000604082019050818103600083015261040e816103d2565b905061041d60208301846102b5565b9291505056fea2646970667358221220cdc13b2d17690100033b98e4d2ba4687819d6d62daf82f36920a90e1011c697c64736f6c634300080f0033",
					"opcodes": "PUSH1 0x80 PUSH1 0x40 MSTORE CALLVALUE DUP1 ISZERO PUSH2 0x10 JUMPI PUSH1 0x0 DUP1 REVERT JUMPDEST POP PUSH2 0x459 DUP1 PUSH2 0x20 PUSH1 0x0 CODECOPY PUSH1 0x0 RETURN INVALID PUSH1 0x80 PUSH1 0x40 MSTORE CALLVALUE DUP1 ISZERO PUSH2 0x10 JUMPI PUSH1 0x0 DUP1 REVERT JUMPDEST POP PUSH1 0x4 CALLDATASIZE LT PUSH2 0x40 JUMPI PUSH1 0x0 CALLDATALOAD PUSH1 0xE0 SHR DUP1 PUSH3 0xC3314F EQ PUSH2 0x45 JUMPI DUP1 PUSH4 0x29FCDA33 EQ PUSH2 0x75 JUMPI DUP1 PUSH4 0x76B81449 EQ PUSH2 0xA5 JUMPI JUMPDEST PUSH1 0x0 DUP1 REVERT JUMPDEST PUSH2 0x5F PUSH1 0x4 DUP1 CALLDATASIZE SUB DUP2 ADD SWAP1 PUSH2 0x5A SWAP2 SWAP1 PUSH2 0x275 JUMP JUMPDEST PUSH2 0xD5 JUMP JUMPDEST PUSH1 0x40 MLOAD PUSH2 0x6C SWAP2 SWAP1 PUSH2 0x2C4 JUMP JUMPDEST PUSH1 0x40 MLOAD DUP1 SWAP2 SUB SWAP1 RETURN JUMPDEST PUSH2 0x8F PUSH1 0x4 DUP1 CALLDATASIZE SUB DUP2 ADD SWAP1 PUSH2 0x8A SWAP2 SWAP1 PUSH2 0x275 JUMP JUMPDEST PUSH2 0x14A JUMP JUMPDEST PUSH1 0x40 MLOAD PUSH2 0x9C SWAP2 SWAP1 PUSH2 0x2C4 JUMP JUMPDEST PUSH1 0x40 MLOAD DUP1 SWAP2 SUB SWAP1 RETURN JUMPDEST PUSH2 0xBF PUSH1 0x4 DUP1 CALLDATASIZE SUB DUP2 ADD SWAP1 PUSH2 0xBA SWAP2 SWAP1 PUSH2 0x275 JUMP JUMPDEST PUSH2 0x1BF JUMP JUMPDEST PUSH1 0x40 MLOAD PUSH2 0xCC SWAP2 SWAP1 PUSH2 0x2C4 JUMP JUMPDEST PUSH1 0x40 MLOAD DUP1 SWAP2 SUB SWAP1 RETURN JUMPDEST PUSH1 0x0 DUP1 GAS SWAP1 POP PUSH1 0x0 DUP5 SUB PUSH2 0xEC JUMPI PUSH1 0x0 SWAP2 POP PUSH2 0xFB JUMP JUMPDEST DUP3 DUP5 PUSH2 0xF8 SWAP2 SWAP1 PUSH2 0x30E JUMP JUMPDEST SWAP2 POP JUMPDEST PUSH1 0x0 GAS SWAP1 POP PUSH32 0xB2DE2FBE801A0DF6C0CBDDFD448BA3C41D48A040CA35C56C8196EF0FCAE721A8 DUP2 DUP4 PUSH2 0x12D SWAP2 SWAP1 PUSH2 0x364 JUMP JUMPDEST PUSH1 0x40 MLOAD PUSH2 0x13A SWAP2 SWAP1 PUSH2 0x3F5 JUMP JUMPDEST PUSH1 0x40 MLOAD DUP1 SWAP2 SUB SWAP1 LOG1 POP POP SWAP3 SWAP2 POP POP JUMP JUMPDEST PUSH1 0x0 DUP1 GAS SWAP1 POP PUSH1 0x0 DUP5 SUB PUSH2 0x161 JUMPI PUSH1 0x0 SWAP2 POP PUSH2 0x170 JUMP JUMPDEST DUP3 DUP5 PUSH2 0x16D SWAP2 SWAP1 PUSH2 0x30E JUMP JUMPDEST SWAP2 POP JUMPDEST PUSH1 0x0 GAS SWAP1 POP PUSH32 0xB2DE2FBE801A0DF6C0CBDDFD448BA3C41D48A040CA35C56C8196EF0FCAE721A8 DUP2 DUP4 PUSH2 0x1A2 SWAP2 SWAP1 PUSH2 0x364 JUMP JUMPDEST PUSH1 0x40 MLOAD PUSH2 0x1AF SWAP2 SWAP1 PUSH2 0x3F5 JUMP JUMPDEST PUSH1 0x40 MLOAD DUP1 SWAP2 SUB SWAP1 LOG1 POP POP SWAP3 SWAP2 POP POP JUMP JUMPDEST PUSH1 0x0 DUP1 GAS SWAP1 POP PUSH1 0x0 DUP5 SUB PUSH2 0x1D6 JUMPI PUSH1 0x0 SWAP2 POP PUSH2 0x1EB JUMP JUMPDEST PUSH1 0x0 DUP4 DUP6 PUSH2 0x1E4 SWAP2 SWAP1 PUSH2 0x30E JUMP JUMPDEST SWAP1 POP DUP1 SWAP3 POP POP JUMPDEST PUSH1 0x0 GAS SWAP1 POP PUSH32 0xB2DE2FBE801A0DF6C0CBDDFD448BA3C41D48A040CA35C56C8196EF0FCAE721A8 DUP2 DUP4 PUSH2 0x21D SWAP2 SWAP1 PUSH2 0x364 JUMP JUMPDEST PUSH1 0x40 MLOAD PUSH2 0x22A SWAP2 SWAP1 PUSH2 0x3F5 JUMP JUMPDEST PUSH1 0x40 MLOAD DUP1 SWAP2 SUB SWAP1 LOG1 POP POP SWAP3 SWAP2 POP POP JUMP JUMPDEST PUSH1 0x0 DUP1 REVERT JUMPDEST PUSH1 0x0 DUP2 SWAP1 POP SWAP2 SWAP1 POP JUMP JUMPDEST PUSH2 0x252 DUP2 PUSH2 0x23F JUMP JUMPDEST DUP2 EQ PUSH2 0x25D JUMPI PUSH1 0x0 DUP1 REVERT JUMPDEST POP JUMP JUMPDEST PUSH1 0x0 DUP2 CALLDATALOAD SWAP1 POP PUSH2 0x26F DUP2 PUSH2 0x249 JUMP JUMPDEST SWAP3 SWAP2 POP POP JUMP JUMPDEST PUSH1 0x0 DUP1 PUSH1 0x40 DUP4 DUP6 SUB SLT ISZERO PUSH2 0x28C JUMPI PUSH2 0x28B PUSH2 0x23A JUMP JUMPDEST JUMPDEST PUSH1 0x0 PUSH2 0x29A DUP6 DUP3 DUP7 ADD PUSH2 0x260 JUMP JUMPDEST SWAP3 POP POP PUSH1 0x20 PUSH2 0x2AB DUP6 DUP3 DUP7 ADD PUSH2 0x260 JUMP JUMPDEST SWAP2 POP POP SWAP3 POP SWAP3 SWAP1 POP JUMP JUMPDEST PUSH2 0x2BE DUP2 PUSH2 0x23F JUMP JUMPDEST DUP3 MSTORE POP POP JUMP JUMPDEST PUSH1 0x0 PUSH1 0x20 DUP3 ADD SWAP1 POP PUSH2 0x2D9 PUSH1 0x0 DUP4 ADD DUP5 PUSH2 0x2B5 JUMP JUMPDEST SWAP3 SWAP2 POP POP JUMP JUMPDEST PUSH32 0x4E487B7100000000000000000000000000000000000000000000000000000000 PUSH1 0x0 MSTORE PUSH1 0x11 PUSH1 0x4 MSTORE PUSH1 0x24 PUSH1 0x0 REVERT JUMPDEST PUSH1 0x0 PUSH2 0x319 DUP3 PUSH2 0x23F JUMP JUMPDEST SWAP2 POP PUSH2 0x324 DUP4 PUSH2 0x23F JUMP JUMPDEST SWAP3 POP DUP3 PUSH32 0xFFFFFFFFFFFFFFFFFFFFFFFFFFFFFFFFFFFFFFFFFFFFFFFFFFFFFFFFFFFFFFFF SUB DUP3 GT ISZERO PUSH2 0x359 JUMPI PUSH2 0x358 PUSH2 0x2DF JUMP JUMPDEST JUMPDEST DUP3 DUP3 ADD SWAP1 POP SWAP3 SWAP2 POP POP JUMP JUMPDEST PUSH1 0x0 PUSH2 0x36F DUP3 PUSH2 0x23F JUMP JUMPDEST SWAP2 POP PUSH2 0x37A DUP4 PUSH2 0x23F JUMP JUMPDEST SWAP3 POP DUP3 DUP3 LT ISZERO PUSH2 0x38D JUMPI PUSH2 0x38C PUSH2 0x2DF JUMP JUMPDEST JUMPDEST DUP3 DUP3 SUB SWAP1 POP SWAP3 SWAP2 POP POP JUMP JUMPDEST PUSH1 0x0 DUP3 DUP3 MSTORE PUSH1 0x20 DUP3 ADD SWAP1 POP SWAP3 SWAP2 POP POP JUMP JUMPDEST PUSH32 0x6761730000000000000000000000000000000000000000000000000000000000 PUSH1 0x0 DUP3 ADD MSTORE POP JUMP JUMPDEST PUSH1 0x0 PUSH2 0x3DF PUSH1 0x3 DUP4 PUSH2 0x398 JUMP JUMPDEST SWAP2 POP PUSH2 0x3EA DUP3 PUSH2 0x3A9 JUMP JUMPDEST PUSH1 0x20 DUP3 ADD SWAP1 POP SWAP2 SWAP1 POP JUMP JUMPDEST PUSH1 0x0 PUSH1 0x40 DUP3 ADD SWAP1 POP DUP2 DUP2 SUB PUSH1 0x0 DUP4 ADD MSTORE PUSH2 0x40E DUP2 PUSH2 0x3D2 JUMP JUMPDEST SWAP1 POP PUSH2 0x41D PUSH1 0x20 DUP4 ADD DUP5 PUSH2 0x2B5 JUMP JUMPDEST SWAP3 SWAP2 POP POP JUMP INVALID LOG2 PUSH5 0x6970667358 0x22 SLT KECCAK256 0xCD 0xC1 EXTCODESIZE 0x2D OR PUSH10 0x100033B98E4D2BA4687 DUP2 SWAP14 PUSH14 0x62DAF82F36920A90E1011C697C64 PUSH20 0x6F6C634300080F00330000000000000000000000 "
				},
				"gasEstimates": {
					"creation": {
						"codeDepositCost": "222600",
						"executionCost": "263",
						"totalCost": "222863"
					},
					"external": {
						"add1(uint256,uint256)": "infinite",
						"add2(uint256,uint256)": "infinite",
						"add3(uint256,uint256)": "infinite"
					}
				},
				"methodIdentifiers": {
					"add1(uint256,uint256)": "76b81449",
					"add2(uint256,uint256)": "29fcda33",
					"add3(uint256,uint256)": "00c3314f"
				}
			},
			"storageLayout": {
				"storage": [],
				"types": null
			},
			"userdoc": {
				"kind": "user",
				"methods": {},
				"version": 1
			}
		}
	}
}