{
	"tests/CachedResultDemo.sol": {
		"CachedResultDemo": {
			"abi": [
				{
					"anonymous": false,
					"inputs": [
						{
							"indexed": true,
							"internalType": "address",
							"name": "from",
							"type": "address"
						},
						{
							"indexed": true,
							"internalType": "address",
							"name": "to",
							"type": "address"
						},
						{
							"indexed": false,
							"internalType": "uint256",
							"name": "amount",
							"type": "uint256"
						}
					],
					"name": "Transfer",
					"type": "event"
				},
				{
					"anonymous": false,
					"inputs": [
						{
							"indexed": false,
							"internalType": "string",
							"name": "key",
							"type": "string"
						},
						{
							"indexed": false,
							"internalType": "uint256",
							"name": "val",
							"type": "uint256"
						}
					],
					"name": "log_named_uint",
					"type": "event"
				},
				{
					"inputs": [
						{
							"internalType": "address",
							"name": "",
							"type": "address"
						}
					],
					"name": "balanceOf",
					"outputs": [
						{
							"internalType": "uint256",
							"name": "",
							"type": "uint256"
						}
					],
					"stateMutability": "view",
					"type": "function"
				},
				{
					"inputs": [
						{
							"internalType": "uint256",
							"name": "id",
							"type": "uint256"
						}
					],
					"name": "burn",
					"outputs": [],
					"stateMutability": "nonpayable",
					"type": "function"
				},
				{
					"inputs": [
						{
							"internalType": "uint256",
							"name": "id",
							"type": "uint256"
						}
					],
					"name": "burnUseCached",
					"outputs": [],
					"stateMutability": "nonpayable",
					"type": "function"
				},
				{
					"inputs": [
						{
							"internalType": "uint256",
							"name": "",
							"type": "uint256"
						}
					],
					"name": "getApproved",
					"outputs": [
						{
							"internalType": "address",
							"name": "",
							"type": "address"
						}
					],
					"stateMutability": "view",
					"type": "function"
				},
				{
					"inputs": [
						{
							"internalType": "uint256",
							"name": "",
							"type": "uint256"
						}
					],
					"name": "ownerOf",
					"outputs": [
						{
							"internalType": "address",
							"name": "",
							"type": "address"
						}
					],
					"stateMutability": "view",
					"type": "function"
				},
				{
					"inputs": [
						{
							"internalType": "address",
							"name": "_a",
							"type": "address"
						}
					],
					"name": "setAddress",
					"outputs": [],
					"stateMutability": "nonpayable",
					"type": "function"
				},
				{
					"inputs": [],
					"name": "setUp",
					"outputs": [],
					"stateMutability": "nonpayable",
					"type": "function"
				}
			],
			"devdoc": {
				"kind": "dev",
				"methods": {},
				"version": 1
			},
			"evm": {
				"assembly": "    /* \"tests/CachedResultDemo.sol\":119:1417  contract CachedResultDemo is GasMeasure {... */\n  mstore(0x40, 0x80)\n  callvalue\n  dup1\n  iszero\n  tag_1\n  jumpi\n  0x00\n  dup1\n  revert\ntag_1:\n  pop\n  dataSize(sub_0)\n  dup1\n  dataOffset(sub_0)\n  0x00\n  codecopy\n  0x00\n  return\nstop\n\nsub_0: assembly {\n        /* \"tests/CachedResultDemo.sol\":119:1417  contract CachedResultDemo is GasMeasure {... */\n      mstore(0x40, 0x80)\n      callvalue\n      dup1\n      iszero\n      tag_1\n      jumpi\n      0x00\n      dup1\n      revert\n    tag_1:\n      pop\n      jumpi(tag_2, lt(calldatasize, 0x04))\n      shr(0xe0, calldataload(0x00))\n      dup1\n      0x6352211e\n      gt\n      tag_10\n      jumpi\n      dup1\n      0x6352211e\n      eq\n      tag_6\n      jumpi\n      dup1\n      0x68fcd9d2\n      eq\n      tag_7\n      jumpi\n      dup1\n      0x70a08231\n      eq\n      tag_8\n      jumpi\n      dup1\n      0xe30081a0\n      eq\n      tag_9\n      jumpi\n      jump(tag_2)\n    tag_10:\n      dup1\n      0x081812fc\n      eq\n      tag_3\n      jumpi\n      dup1\n      0x0a9254e4\n      eq\n      tag_4\n      jumpi\n      dup1\n      0x42966c68\n      eq\n      tag_5\n      jumpi\n    tag_2:\n      0x00\n      dup1\n      revert\n        /* \"tests/CachedResultDemo.sol\":343:389  mapping(uint256 => address) public getApproved */\n    tag_3:\n      tag_11\n      0x04\n      dup1\n      calldatasize\n      sub\n      dup2\n      add\n      swap1\n      tag_12\n      swap2\n      swap1\n      tag_13\n      jump\t// in\n    tag_12:\n      tag_14\n      jump\t// in\n    tag_11:\n      mload(0x40)\n      tag_15\n      swap2\n      swap1\n      tag_16\n      jump\t// in\n    tag_15:\n      mload(0x40)\n      dup1\n      swap2\n      sub\n      swap1\n      return\n        /* \"tests/CachedResultDemo.sol\":396:464  function setUp() public {... */\n    tag_4:\n      tag_17\n      tag_18\n      jump\t// in\n    tag_17:\n      stop\n        /* \"tests/CachedResultDemo.sol\":633:1004  function burn(uint256 id) public logs_gas {... */\n    tag_5:\n      tag_19\n      0x04\n      dup1\n      calldatasize\n      sub\n      dup2\n      add\n      swap1\n      tag_20\n      swap2\n      swap1\n      tag_13\n      jump\t// in\n    tag_20:\n      tag_21\n      jump\t// in\n    tag_19:\n      stop\n        /* \"tests/CachedResultDemo.sol\":295:337  mapping(uint256 => address) public ownerOf */\n    tag_6:\n      tag_22\n      0x04\n      dup1\n      calldatasize\n      sub\n      dup2\n      add\n      swap1\n      tag_23\n      swap2\n      swap1\n      tag_13\n      jump\t// in\n    tag_23:\n      tag_24\n      jump\t// in\n    tag_22:\n      mload(0x40)\n      tag_25\n      swap2\n      swap1\n      tag_16\n      jump\t// in\n    tag_25:\n      mload(0x40)\n      dup1\n      swap2\n      sub\n      swap1\n      return\n        /* \"tests/CachedResultDemo.sol\":1049:1414  function burnUseCached(uint256 id) public {... */\n    tag_7:\n      tag_26\n      0x04\n      dup1\n      calldatasize\n      sub\n      dup2\n      add\n      swap1\n      tag_27\n      swap2\n      swap1\n      tag_13\n      jump\t// in\n    tag_27:\n      tag_28\n      jump\t// in\n    tag_26:\n      stop\n        /* \"tests/CachedResultDemo.sol\":245:289  mapping(address => uint256) public balanceOf */\n    tag_8:\n      tag_29\n      0x04\n      dup1\n      calldatasize\n      sub\n      dup2\n      add\n      swap1\n      tag_30\n      swap2\n      swap1\n      tag_31\n      jump\t// in\n    tag_30:\n      tag_32\n      jump\t// in\n    tag_29:\n      mload(0x40)\n      tag_33\n      swap2\n      swap1\n      tag_34\n      jump\t// in\n    tag_33:\n      mload(0x40)\n      dup1\n      swap2\n      sub\n      swap1\n      return\n        /* \"tests/CachedResultDemo.sol\":470:550  function setAddress(address _a) public logs_gas {... */\n    tag_9:\n      tag_35\n      0x04\n      dup1\n      calldatasize\n      sub\n      dup2\n      add\n      swap1\n      tag_36\n      swap2\n      swap1\n      tag_31\n      jump\t// in\n    tag_36:\n      tag_37\n      jump\t// in\n    tag_35:\n      stop\n        /* \"tests/CachedResultDemo.sol\":343:389  mapping(uint256 => address) public getApproved */\n    tag_14:\n      mstore(0x20, 0x02)\n      dup1\n      0x00\n      mstore\n      keccak256(0x00, 0x40)\n      0x00\n      swap2\n      pop\n      sload\n      swap1\n      0x0100\n      exp\n      swap1\n      div\n      0xffffffffffffffffffffffffffffffffffffffff\n      and\n      dup2\n      jump\t// out\n        /* \"tests/CachedResultDemo.sol\":396:464  function setUp() public {... */\n    tag_18:\n        /* \"tests/CachedResultDemo.sol\":430:457  setAddress(address(0xBEEF)) */\n      tag_39\n        /* \"tests/CachedResultDemo.sol\":449:455  0xBEEF */\n      0xbeef\n        /* \"tests/CachedResultDemo.sol\":430:440  setAddress */\n      tag_37\n        /* \"tests/CachedResultDemo.sol\":430:457  setAddress(address(0xBEEF)) */\n      jump\t// in\n    tag_39:\n        /* \"tests/CachedResultDemo.sol\":396:464  function setUp() public {... */\n      jump\t// out\n        /* \"tests/CachedResultDemo.sol\":633:1004  function burn(uint256 id) public logs_gas {... */\n    tag_21:\n        /* \"tests/utils/GasMeasure.sol\":183:196  uint startGas */\n      0x00\n        /* \"tests/utils/GasMeasure.sol\":199:208  gasleft() */\n      gas\n        /* \"tests/utils/GasMeasure.sol\":183:208  uint startGas = gasleft() */\n      swap1\n      pop\n        /* \"tests/CachedResultDemo.sol\":685:698  address owner */\n      0x00\n        /* \"tests/CachedResultDemo.sol\":701:708  ownerOf */\n      0x01\n        /* \"tests/CachedResultDemo.sol\":701:712  ownerOf[id] */\n      0x00\n        /* \"tests/CachedResultDemo.sol\":709:711  id */\n      dup5\n        /* \"tests/CachedResultDemo.sol\":701:712  ownerOf[id] */\n      dup2\n      mstore\n      0x20\n      add\n      swap1\n      dup2\n      mstore\n      0x20\n      add\n      0x00\n      keccak256\n      0x00\n      swap1\n      sload\n      swap1\n      0x0100\n      exp\n      swap1\n      div\n      0xffffffffffffffffffffffffffffffffffffffff\n      and\n        /* \"tests/CachedResultDemo.sol\":685:712  address owner = ownerOf[id] */\n      swap1\n      pop\n        /* \"tests/CachedResultDemo.sol\":754:755  0 */\n      0x00\n        /* \"tests/CachedResultDemo.sol\":731:756  ownerOf[id] != address(0) */\n      0xffffffffffffffffffffffffffffffffffffffff\n      and\n        /* \"tests/CachedResultDemo.sol\":731:738  ownerOf */\n      0x01\n        /* \"tests/CachedResultDemo.sol\":731:742  ownerOf[id] */\n      0x00\n        /* \"tests/CachedResultDemo.sol\":739:741  id */\n      dup6\n        /* \"tests/CachedResultDemo.sol\":731:742  ownerOf[id] */\n      dup2\n      mstore\n      0x20\n      add\n      swap1\n      dup2\n      mstore\n      0x20\n      add\n      0x00\n      keccak256\n      0x00\n      swap1\n      sload\n      swap1\n      0x0100\n      exp\n      swap1\n      div\n      0xffffffffffffffffffffffffffffffffffffffff\n      and\n        /* \"tests/CachedResultDemo.sol\":731:756  ownerOf[id] != address(0) */\n      0xffffffffffffffffffffffffffffffffffffffff\n      and\n      sub\n        /* \"tests/CachedResultDemo.sol\":723:771  require(ownerOf[id] != address(0), \"NOT_MINTED\") */\n      tag_42\n      jumpi\n      mload(0x40)\n      0x08c379a000000000000000000000000000000000000000000000000000000000\n      dup2\n      mstore\n      0x04\n      add\n      tag_43\n      swap1\n      tag_44\n      jump\t// in\n    tag_43:\n      mload(0x40)\n      dup1\n      swap2\n      sub\n      swap1\n      revert\n    tag_42:\n        /* \"tests/CachedResultDemo.sol\":861:870  balanceOf */\n      0x00\n        /* \"tests/CachedResultDemo.sol\":861:877  balanceOf[owner] */\n      dup1\n        /* \"tests/CachedResultDemo.sol\":871:876  owner */\n      dup3\n        /* \"tests/CachedResultDemo.sol\":861:877  balanceOf[owner] */\n      0xffffffffffffffffffffffffffffffffffffffff\n      and\n      0xffffffffffffffffffffffffffffffffffffffff\n      and\n      dup2\n      mstore\n      0x20\n      add\n      swap1\n      dup2\n      mstore\n      0x20\n      add\n      0x00\n      keccak256\n      0x00\n        /* \"tests/CachedResultDemo.sol\":861:879  balanceOf[owner]-- */\n      dup2\n      sload\n      dup1\n      swap3\n      swap2\n      swap1\n      0x01\n      swap1\n      sub\n      swap2\n      swap1\n      pop\n      sstore\n      pop\n        /* \"tests/CachedResultDemo.sol\":907:914  ownerOf */\n      0x01\n        /* \"tests/CachedResultDemo.sol\":907:918  ownerOf[id] */\n      0x00\n        /* \"tests/CachedResultDemo.sol\":915:917  id */\n      dup5\n        /* \"tests/CachedResultDemo.sol\":907:918  ownerOf[id] */\n      dup2\n      mstore\n      0x20\n      add\n      swap1\n      dup2\n      mstore\n      0x20\n      add\n      0x00\n      keccak256\n      0x00\n        /* \"tests/CachedResultDemo.sol\":900:918  delete ownerOf[id] */\n      0x0100\n      exp\n      dup2\n      sload\n      swap1\n      0xffffffffffffffffffffffffffffffffffffffff\n      mul\n      not\n      and\n      swap1\n      sstore\n        /* \"tests/CachedResultDemo.sol\":935:946  getApproved */\n      0x02\n        /* \"tests/CachedResultDemo.sol\":935:950  getApproved[id] */\n      0x00\n        /* \"tests/CachedResultDemo.sol\":947:949  id */\n      dup5\n        /* \"tests/CachedResultDemo.sol\":935:950  getApproved[id] */\n      dup2\n      mstore\n      0x20\n      add\n      swap1\n      dup2\n      mstore\n      0x20\n      add\n      0x00\n      keccak256\n      0x00\n        /* \"tests/CachedResultDemo.sol\":928:950  delete getApproved[id] */\n      0x0100\n      exp\n      dup2\n      sload\n      swap1\n      0xffffffffffffffffffffffffffffffffffffffff\n      mul\n      not\n      and\n      swap1\n      sstore\n        /* \"tests/CachedResultDemo.sol\":990:991  0 */\n      0x00\n        /* \"tests/CachedResultDemo.sol\":966:997  Transfer(owner, address(0), id) */\n      0xffffffffffffffffffffffffffffffffffffffff\n      and\n        /* \"tests/CachedResultDemo.sol\":975:980  owner */\n      dup2\n        /* \"tests/CachedResultDemo.sol\":966:997  Transfer(owner, address(0), id) */\n      0xffffffffffffffffffffffffffffffffffffffff\n      and\n      0xddf252ad1be2c89b69c2b068fc378daa952ba7f163c4a11628f55a4df523b3ef\n        /* \"tests/CachedResultDemo.sol\":994:996  id */\n      dup6\n        /* \"tests/CachedResultDemo.sol\":966:997  Transfer(owner, address(0), id) */\n      mload(0x40)\n      tag_45\n      swap2\n      swap1\n      tag_34\n      jump\t// in\n    tag_45:\n      mload(0x40)\n      dup1\n      swap2\n      sub\n      swap1\n      log3\n        /* \"tests/CachedResultDemo.sol\":675:1004  {... */\n      pop\n        /* \"tests/utils/GasMeasure.sol\":229:240  uint endGas */\n      0x00\n        /* \"tests/utils/GasMeasure.sol\":243:252  gasleft() */\n      gas\n        /* \"tests/utils/GasMeasure.sol\":229:252  uint endGas = gasleft() */\n      swap1\n      pop\n        /* \"tests/utils/GasMeasure.sol\":267:307  log_named_uint(\"gas\", startGas - endGas) */\n      0xb2de2fbe801a0df6c0cbddfd448ba3c41d48a040ca35c56c8196ef0fcae721a8\n        /* \"tests/utils/GasMeasure.sol\":300:306  endGas */\n      dup2\n        /* \"tests/utils/GasMeasure.sol\":289:297  startGas */\n      dup4\n        /* \"tests/utils/GasMeasure.sol\":289:306  startGas - endGas */\n      tag_46\n      swap2\n      swap1\n      tag_47\n      jump\t// in\n    tag_46:\n        /* \"tests/utils/GasMeasure.sol\":267:307  log_named_uint(\"gas\", startGas - endGas) */\n      mload(0x40)\n      tag_48\n      swap2\n      swap1\n      tag_49\n      jump\t// in\n    tag_48:\n      mload(0x40)\n      dup1\n      swap2\n      sub\n      swap1\n      log1\n        /* \"tests/utils/GasMeasure.sol\":173:314  {... */\n      pop\n      pop\n        /* \"tests/CachedResultDemo.sol\":633:1004  function burn(uint256 id) public logs_gas {... */\n      pop\n      jump\t// out\n        /* \"tests/CachedResultDemo.sol\":295:337  mapping(uint256 => address) public ownerOf */\n    tag_24:\n      mstore(0x20, 0x01)\n      dup1\n      0x00\n      mstore\n      keccak256(0x00, 0x40)\n      0x00\n      swap2\n      pop\n      sload\n      swap1\n      0x0100\n      exp\n      swap1\n      div\n      0xffffffffffffffffffffffffffffffffffffffff\n      and\n      dup2\n      jump\t// out\n        /* \"tests/CachedResultDemo.sol\":1049:1414  function burnUseCached(uint256 id) public {... */\n    tag_28:\n        /* \"tests/CachedResultDemo.sol\":1101:1114  address owner */\n      0x00\n        /* \"tests/CachedResultDemo.sol\":1117:1124  ownerOf */\n      0x01\n        /* \"tests/CachedResultDemo.sol\":1117:1128  ownerOf[id] */\n      0x00\n        /* \"tests/CachedResultDemo.sol\":1125:1127  id */\n      dup4\n        /* \"tests/CachedResultDemo.sol\":1117:1128  ownerOf[id] */\n      dup2\n      mstore\n      0x20\n      add\n      swap1\n      dup2\n      mstore\n      0x20\n      add\n      0x00\n      keccak256\n      0x00\n      swap1\n      sload\n      swap1\n      0x0100\n      exp\n      swap1\n      div\n      0xffffffffffffffffffffffffffffffffffffffff\n      and\n        /* \"tests/CachedResultDemo.sol\":1101:1128  address owner = ownerOf[id] */\n      swap1\n      pop\n        /* \"tests/CachedResultDemo.sol\":1164:1165  0 */\n      0x00\n        /* \"tests/CachedResultDemo.sol\":1147:1166  owner != address(0) */\n      0xffffffffffffffffffffffffffffffffffffffff\n      and\n        /* \"tests/CachedResultDemo.sol\":1147:1152  owner */\n      dup2\n        /* \"tests/CachedResultDemo.sol\":1147:1166  owner != address(0) */\n      0xffffffffffffffffffffffffffffffffffffffff\n      and\n      sub\n        /* \"tests/CachedResultDemo.sol\":1139:1181  require(owner != address(0), \"NOT_MINTED\") */\n      tag_51\n      jumpi\n      mload(0x40)\n      0x08c379a000000000000000000000000000000000000000000000000000000000\n      dup2\n      mstore\n      0x04\n      add\n      tag_52\n      swap1\n      tag_44\n      jump\t// in\n    tag_52:\n      mload(0x40)\n      dup1\n      swap2\n      sub\n      swap1\n      revert\n    tag_51:\n        /* \"tests/CachedResultDemo.sol\":1271:1280  balanceOf */\n      0x00\n        /* \"tests/CachedResultDemo.sol\":1271:1287  balanceOf[owner] */\n      dup1\n        /* \"tests/CachedResultDemo.sol\":1281:1286  owner */\n      dup3\n        /* \"tests/CachedResultDemo.sol\":1271:1287  balanceOf[owner] */\n      0xffffffffffffffffffffffffffffffffffffffff\n      and\n      0xffffffffffffffffffffffffffffffffffffffff\n      and\n      dup2\n      mstore\n      0x20\n      add\n      swap1\n      dup2\n      mstore\n      0x20\n      add\n      0x00\n      keccak256\n      0x00\n        /* \"tests/CachedResultDemo.sol\":1271:1289  balanceOf[owner]-- */\n      dup2\n      sload\n      dup1\n      swap3\n      swap2\n      swap1\n      0x01\n      swap1\n      sub\n      swap2\n      swap1\n      pop\n      sstore\n      pop\n        /* \"tests/CachedResultDemo.sol\":1317:1324  ownerOf */\n      0x01\n        /* \"tests/CachedResultDemo.sol\":1317:1328  ownerOf[id] */\n      0x00\n        /* \"tests/CachedResultDemo.sol\":1325:1327  id */\n      dup4\n        /* \"tests/CachedResultDemo.sol\":1317:1328  ownerOf[id] */\n      dup2\n      mstore\n      0x20\n      add\n      swap1\n      dup2\n      mstore\n      0x20\n      add\n      0x00\n      keccak256\n      0x00\n        /* \"tests/CachedResultDemo.sol\":1310:1328  delete ownerOf[id] */\n      0x0100\n      exp\n      dup2\n      sload\n      swap1\n      0xffffffffffffffffffffffffffffffffffffffff\n      mul\n      not\n      and\n      swap1\n      sstore\n        /* \"tests/CachedResultDemo.sol\":1345:1356  getApproved */\n      0x02\n        /* \"tests/CachedResultDemo.sol\":1345:1360  getApproved[id] */\n      0x00\n        /* \"tests/CachedResultDemo.sol\":1357:1359  id */\n      dup4\n        /* \"tests/CachedResultDemo.sol\":1345:1360  getApproved[id] */\n      dup2\n      mstore\n      0x20\n      add\n      swap1\n      dup2\n      mstore\n      0x20\n      add\n      0x00\n      keccak256\n      0x00\n        /* \"tests/CachedResultDemo.sol\":1338:1360  delete getApproved[id] */\n      0x0100\n      exp\n      dup2\n      sload\n      swap1\n      0xffffffffffffffffffffffffffffffffffffffff\n      mul\n      not\n      and\n      swap1\n      sstore\n        /* \"tests/CachedResultDemo.sol\":1400:1401  0 */\n      0x00\n        /* \"tests/CachedResultDemo.sol\":1376:1407  Transfer(owner, address(0), id) */\n      0xffffffffffffffffffffffffffffffffffffffff\n      and\n        /* \"tests/CachedResultDemo.sol\":1385:1390  owner */\n      dup2\n        /* \"tests/CachedResultDemo.sol\":1376:1407  Transfer(owner, address(0), id) */\n      0xffffffffffffffffffffffffffffffffffffffff\n      and\n      0xddf252ad1be2c89b69c2b068fc378daa952ba7f163c4a11628f55a4df523b3ef\n        /* \"tests/CachedResultDemo.sol\":1404:1406  id */\n      dup5\n        /* \"tests/CachedResultDemo.sol\":1376:1407  Transfer(owner, address(0), id) */\n      mload(0x40)\n      tag_53\n      swap2\n      swap1\n      tag_34\n      jump\t// in\n    tag_53:\n      mload(0x40)\n      dup1\n      swap2\n      sub\n      swap1\n      log3\n        /* \"tests/CachedResultDemo.sol\":1091:1414  {... */\n      pop\n        /* \"tests/CachedResultDemo.sol\":1049:1414  function burnUseCached(uint256 id) public {... */\n      pop\n      jump\t// out\n        /* \"tests/CachedResultDemo.sol\":245:289  mapping(address => uint256) public balanceOf */\n    tag_32:\n      mstore(0x20, 0x00)\n      dup1\n      0x00\n      mstore\n      keccak256(0x00, 0x40)\n      0x00\n      swap2\n      pop\n      swap1\n      pop\n      sload\n      dup2\n      jump\t// out\n        /* \"tests/CachedResultDemo.sol\":470:550  function setAddress(address _a) public logs_gas {... */\n    tag_37:\n        /* \"tests/utils/GasMeasure.sol\":183:196  uint startGas */\n      0x00\n        /* \"tests/utils/GasMeasure.sol\":199:208  gasleft() */\n      gas\n        /* \"tests/utils/GasMeasure.sol\":183:208  uint startGas = gasleft() */\n      swap1\n      pop\n        /* \"tests/CachedResultDemo.sol\":541:543  _a */\n      dup2\n        /* \"tests/CachedResultDemo.sol\":528:535  ownerOf */\n      0x01\n        /* \"tests/CachedResultDemo.sol\":528:538  ownerOf[0] */\n      0x00\n        /* \"tests/CachedResultDemo.sol\":536:537  0 */\n      dup1\n        /* \"tests/CachedResultDemo.sol\":528:538  ownerOf[0] */\n      dup2\n      mstore\n      0x20\n      add\n      swap1\n      dup2\n      mstore\n      0x20\n      add\n      0x00\n      keccak256\n      0x00\n        /* \"tests/CachedResultDemo.sol\":528:543  ownerOf[0] = _a */\n      0x0100\n      exp\n      dup2\n      sload\n      dup2\n      0xffffffffffffffffffffffffffffffffffffffff\n      mul\n      not\n      and\n      swap1\n      dup4\n      0xffffffffffffffffffffffffffffffffffffffff\n      and\n      mul\n      or\n      swap1\n      sstore\n      pop\n        /* \"tests/utils/GasMeasure.sol\":229:240  uint endGas */\n      0x00\n        /* \"tests/utils/GasMeasure.sol\":243:252  gasleft() */\n      gas\n        /* \"tests/utils/GasMeasure.sol\":229:252  uint endGas = gasleft() */\n      swap1\n      pop\n        /* \"tests/utils/GasMeasure.sol\":267:307  log_named_uint(\"gas\", startGas - endGas) */\n      0xb2de2fbe801a0df6c0cbddfd448ba3c41d48a040ca35c56c8196ef0fcae721a8\n        /* \"tests/utils/GasMeasure.sol\":300:306  endGas */\n      dup2\n        /* \"tests/utils/GasMeasure.sol\":289:297  startGas */\n      dup4\n        /* \"tests/utils/GasMeasure.sol\":289:306  startGas - endGas */\n      tag_56\n      swap2\n      swap1\n      tag_47\n      jump\t// in\n    tag_56:\n        /* \"tests/utils/GasMeasure.sol\":267:307  log_named_uint(\"gas\", startGas - endGas) */\n      mload(0x40)\n      tag_57\n      swap2\n      swap1\n      tag_49\n      jump\t// in\n    tag_57:\n      mload(0x40)\n      dup1\n      swap2\n      sub\n      swap1\n      log1\n        /* \"tests/utils/GasMeasure.sol\":173:314  {... */\n      pop\n      pop\n        /* \"tests/CachedResultDemo.sol\":470:550  function setAddress(address _a) public logs_gas {... */\n      pop\n      jump\t// out\n        /* \"#utility.yul\":88:205   */\n    tag_59:\n        /* \"#utility.yul\":197:198   */\n      0x00\n        /* \"#utility.yul\":194:195   */\n      dup1\n        /* \"#utility.yul\":187:199   */\n      revert\n        /* \"#utility.yul\":334:411   */\n    tag_61:\n        /* \"#utility.yul\":371:378   */\n      0x00\n        /* \"#utility.yul\":400:405   */\n      dup2\n        /* \"#utility.yul\":389:405   */\n      swap1\n      pop\n        /* \"#utility.yul\":334:411   */\n      swap2\n      swap1\n      pop\n      jump\t// out\n        /* \"#utility.yul\":417:539   */\n    tag_62:\n        /* \"#utility.yul\":490:514   */\n      tag_82\n        /* \"#utility.yul\":508:513   */\n      dup2\n        /* \"#utility.yul\":490:514   */\n      tag_61\n      jump\t// in\n    tag_82:\n        /* \"#utility.yul\":483:488   */\n      dup2\n        /* \"#utility.yul\":480:515   */\n      eq\n        /* \"#utility.yul\":470:533   */\n      tag_83\n      jumpi\n        /* \"#utility.yul\":529:530   */\n      0x00\n        /* \"#utility.yul\":526:527   */\n      dup1\n        /* \"#utility.yul\":519:531   */\n      revert\n        /* \"#utility.yul\":470:533   */\n    tag_83:\n        /* \"#utility.yul\":417:539   */\n      pop\n      jump\t// out\n        /* \"#utility.yul\":545:684   */\n    tag_63:\n        /* \"#utility.yul\":591:596   */\n      0x00\n        /* \"#utility.yul\":629:635   */\n      dup2\n        /* \"#utility.yul\":616:636   */\n      calldataload\n        /* \"#utility.yul\":607:636   */\n      swap1\n      pop\n        /* \"#utility.yul\":645:678   */\n      tag_85\n        /* \"#utility.yul\":672:677   */\n      dup2\n        /* \"#utility.yul\":645:678   */\n      tag_62\n      jump\t// in\n    tag_85:\n        /* \"#utility.yul\":545:684   */\n      swap3\n      swap2\n      pop\n      pop\n      jump\t// out\n        /* \"#utility.yul\":690:1019   */\n    tag_13:\n        /* \"#utility.yul\":749:755   */\n      0x00\n        /* \"#utility.yul\":798:800   */\n      0x20\n        /* \"#utility.yul\":786:795   */\n      dup3\n        /* \"#utility.yul\":777:784   */\n      dup5\n        /* \"#utility.yul\":773:796   */\n      sub\n        /* \"#utility.yul\":769:801   */\n      slt\n        /* \"#utility.yul\":766:885   */\n      iszero\n      tag_87\n      jumpi\n        /* \"#utility.yul\":804:883   */\n      tag_88\n      tag_59\n      jump\t// in\n    tag_88:\n        /* \"#utility.yul\":766:885   */\n    tag_87:\n        /* \"#utility.yul\":924:925   */\n      0x00\n        /* \"#utility.yul\":949:1002   */\n      tag_89\n        /* \"#utility.yul\":994:1001   */\n      dup5\n        /* \"#utility.yul\":985:991   */\n      dup3\n        /* \"#utility.yul\":974:983   */\n      dup6\n        /* \"#utility.yul\":970:992   */\n      add\n        /* \"#utility.yul\":949:1002   */\n      tag_63\n      jump\t// in\n    tag_89:\n        /* \"#utility.yul\":939:1002   */\n      swap2\n      pop\n        /* \"#utility.yul\":895:1012   */\n      pop\n        /* \"#utility.yul\":690:1019   */\n      swap3\n      swap2\n      pop\n      pop\n      jump\t// out\n        /* \"#utility.yul\":1025:1151   */\n    tag_64:\n        /* \"#utility.yul\":1062:1069   */\n      0x00\n        /* \"#utility.yul\":1102:1144   */\n      0xffffffffffffffffffffffffffffffffffffffff\n        /* \"#utility.yul\":1095:1100   */\n      dup3\n        /* \"#utility.yul\":1091:1145   */\n      and\n        /* \"#utility.yul\":1080:1145   */\n      swap1\n      pop\n        /* \"#utility.yul\":1025:1151   */\n      swap2\n      swap1\n      pop\n      jump\t// out\n        /* \"#utility.yul\":1157:1253   */\n    tag_65:\n        /* \"#utility.yul\":1194:1201   */\n      0x00\n        /* \"#utility.yul\":1223:1247   */\n      tag_92\n        /* \"#utility.yul\":1241:1246   */\n      dup3\n        /* \"#utility.yul\":1223:1247   */\n      tag_64\n      jump\t// in\n    tag_92:\n        /* \"#utility.yul\":1212:1247   */\n      swap1\n      pop\n        /* \"#utility.yul\":1157:1253   */\n      swap2\n      swap1\n      pop\n      jump\t// out\n        /* \"#utility.yul\":1259:1377   */\n    tag_66:\n        /* \"#utility.yul\":1346:1370   */\n      tag_94\n        /* \"#utility.yul\":1364:1369   */\n      dup2\n        /* \"#utility.yul\":1346:1370   */\n      tag_65\n      jump\t// in\n    tag_94:\n        /* \"#utility.yul\":1341:1344   */\n      dup3\n        /* \"#utility.yul\":1334:1371   */\n      mstore\n        /* \"#utility.yul\":1259:1377   */\n      pop\n      pop\n      jump\t// out\n        /* \"#utility.yul\":1383:1605   */\n    tag_16:\n        /* \"#utility.yul\":1476:1480   */\n      0x00\n        /* \"#utility.yul\":1514:1516   */\n      0x20\n        /* \"#utility.yul\":1503:1512   */\n      dup3\n        /* \"#utility.yul\":1499:1517   */\n      add\n        /* \"#utility.yul\":1491:1517   */\n      swap1\n      pop\n        /* \"#utility.yul\":1527:1598   */\n      tag_96\n        /* \"#utility.yul\":1595:1596   */\n      0x00\n        /* \"#utility.yul\":1584:1593   */\n      dup4\n        /* \"#utility.yul\":1580:1597   */\n      add\n        /* \"#utility.yul\":1571:1577   */\n      dup5\n        /* \"#utility.yul\":1527:1598   */\n      tag_66\n      jump\t// in\n    tag_96:\n        /* \"#utility.yul\":1383:1605   */\n      swap3\n      swap2\n      pop\n      pop\n      jump\t// out\n        /* \"#utility.yul\":1611:1733   */\n    tag_67:\n        /* \"#utility.yul\":1684:1708   */\n      tag_98\n        /* \"#utility.yul\":1702:1707   */\n      dup2\n        /* \"#utility.yul\":1684:1708   */\n      tag_65\n      jump\t// in\n    tag_98:\n        /* \"#utility.yul\":1677:1682   */\n      dup2\n        /* \"#utility.yul\":1674:1709   */\n      eq\n        /* \"#utility.yul\":1664:1727   */\n      tag_99\n      jumpi\n        /* \"#utility.yul\":1723:1724   */\n      0x00\n        /* \"#utility.yul\":1720:1721   */\n      dup1\n        /* \"#utility.yul\":1713:1725   */\n      revert\n        /* \"#utility.yul\":1664:1727   */\n    tag_99:\n        /* \"#utility.yul\":1611:1733   */\n      pop\n      jump\t// out\n        /* \"#utility.yul\":1739:1878   */\n    tag_68:\n        /* \"#utility.yul\":1785:1790   */\n      0x00\n        /* \"#utility.yul\":1823:1829   */\n      dup2\n        /* \"#utility.yul\":1810:1830   */\n      calldataload\n        /* \"#utility.yul\":1801:1830   */\n      swap1\n      pop\n        /* \"#utility.yul\":1839:1872   */\n      tag_101\n        /* \"#utility.yul\":1866:1871   */\n      dup2\n        /* \"#utility.yul\":1839:1872   */\n      tag_67\n      jump\t// in\n    tag_101:\n        /* \"#utility.yul\":1739:1878   */\n      swap3\n      swap2\n      pop\n      pop\n      jump\t// out\n        /* \"#utility.yul\":1884:2213   */\n    tag_31:\n        /* \"#utility.yul\":1943:1949   */\n      0x00\n        /* \"#utility.yul\":1992:1994   */\n      0x20\n        /* \"#utility.yul\":1980:1989   */\n      dup3\n        /* \"#utility.yul\":1971:1978   */\n      dup5\n        /* \"#utility.yul\":1967:1990   */\n      sub\n        /* \"#utility.yul\":1963:1995   */\n      slt\n        /* \"#utility.yul\":1960:2079   */\n      iszero\n      tag_103\n      jumpi\n        /* \"#utility.yul\":1998:2077   */\n      tag_104\n      tag_59\n      jump\t// in\n    tag_104:\n        /* \"#utility.yul\":1960:2079   */\n    tag_103:\n        /* \"#utility.yul\":2118:2119   */\n      0x00\n        /* \"#utility.yul\":2143:2196   */\n      tag_105\n        /* \"#utility.yul\":2188:2195   */\n      dup5\n        /* \"#utility.yul\":2179:2185   */\n      dup3\n        /* \"#utility.yul\":2168:2177   */\n      dup6\n        /* \"#utility.yul\":2164:2186   */\n      add\n        /* \"#utility.yul\":2143:2196   */\n      tag_68\n      jump\t// in\n    tag_105:\n        /* \"#utility.yul\":2133:2196   */\n      swap2\n      pop\n        /* \"#utility.yul\":2089:2206   */\n      pop\n        /* \"#utility.yul\":1884:2213   */\n      swap3\n      swap2\n      pop\n      pop\n      jump\t// out\n        /* \"#utility.yul\":2219:2337   */\n    tag_69:\n        /* \"#utility.yul\":2306:2330   */\n      tag_107\n        /* \"#utility.yul\":2324:2329   */\n      dup2\n        /* \"#utility.yul\":2306:2330   */\n      tag_61\n      jump\t// in\n    tag_107:\n        /* \"#utility.yul\":2301:2304   */\n      dup3\n        /* \"#utility.yul\":2294:2331   */\n      mstore\n        /* \"#utility.yul\":2219:2337   */\n      pop\n      pop\n      jump\t// out\n        /* \"#utility.yul\":2343:2565   */\n    tag_34:\n        /* \"#utility.yul\":2436:2440   */\n      0x00\n        /* \"#utility.yul\":2474:2476   */\n      0x20\n        /* \"#utility.yul\":2463:2472   */\n      dup3\n        /* \"#utility.yul\":2459:2477   */\n      add\n        /* \"#utility.yul\":2451:2477   */\n      swap1\n      pop\n        /* \"#utility.yul\":2487:2558   */\n      tag_109\n        /* \"#utility.yul\":2555:2556   */\n      0x00\n        /* \"#utility.yul\":2544:2553   */\n      dup4\n        /* \"#utility.yul\":2540:2557   */\n      add\n        /* \"#utility.yul\":2531:2537   */\n      dup5\n        /* \"#utility.yul\":2487:2558   */\n      tag_69\n      jump\t// in\n    tag_109:\n        /* \"#utility.yul\":2343:2565   */\n      swap3\n      swap2\n      pop\n      pop\n      jump\t// out\n        /* \"#utility.yul\":2571:2740   */\n    tag_70:\n        /* \"#utility.yul\":2655:2666   */\n      0x00\n        /* \"#utility.yul\":2689:2695   */\n      dup3\n        /* \"#utility.yul\":2684:2687   */\n      dup3\n        /* \"#utility.yul\":2677:2696   */\n      mstore\n        /* \"#utility.yul\":2729:2733   */\n      0x20\n        /* \"#utility.yul\":2724:2727   */\n      dup3\n        /* \"#utility.yul\":2720:2734   */\n      add\n        /* \"#utility.yul\":2705:2734   */\n      swap1\n      pop\n        /* \"#utility.yul\":2571:2740   */\n      swap3\n      swap2\n      pop\n      pop\n      jump\t// out\n        /* \"#utility.yul\":2746:2906   */\n    tag_71:\n        /* \"#utility.yul\":2886:2898   */\n      0x4e4f545f4d494e54454400000000000000000000000000000000000000000000\n        /* \"#utility.yul\":2882:2883   */\n      0x00\n        /* \"#utility.yul\":2874:2880   */\n      dup3\n        /* \"#utility.yul\":2870:2884   */\n      add\n        /* \"#utility.yul\":2863:2899   */\n      mstore\n        /* \"#utility.yul\":2746:2906   */\n      pop\n      jump\t// out\n        /* \"#utility.yul\":2912:3278   */\n    tag_72:\n        /* \"#utility.yul\":3054:3057   */\n      0x00\n        /* \"#utility.yul\":3075:3142   */\n      tag_113\n        /* \"#utility.yul\":3139:3141   */\n      0x0a\n        /* \"#utility.yul\":3134:3137   */\n      dup4\n        /* \"#utility.yul\":3075:3142   */\n      tag_70\n      jump\t// in\n    tag_113:\n        /* \"#utility.yul\":3068:3142   */\n      swap2\n      pop\n        /* \"#utility.yul\":3151:3244   */\n      tag_114\n        /* \"#utility.yul\":3240:3243   */\n      dup3\n        /* \"#utility.yul\":3151:3244   */\n      tag_71\n      jump\t// in\n    tag_114:\n        /* \"#utility.yul\":3269:3271   */\n      0x20\n        /* \"#utility.yul\":3264:3267   */\n      dup3\n        /* \"#utility.yul\":3260:3272   */\n      add\n        /* \"#utility.yul\":3253:3272   */\n      swap1\n      pop\n        /* \"#utility.yul\":2912:3278   */\n      swap2\n      swap1\n      pop\n      jump\t// out\n        /* \"#utility.yul\":3284:3703   */\n    tag_44:\n        /* \"#utility.yul\":3450:3454   */\n      0x00\n        /* \"#utility.yul\":3488:3490   */\n      0x20\n        /* \"#utility.yul\":3477:3486   */\n      dup3\n        /* \"#utility.yul\":3473:3491   */\n      add\n        /* \"#utility.yul\":3465:3491   */\n      swap1\n      pop\n        /* \"#utility.yul\":3537:3546   */\n      dup2\n        /* \"#utility.yul\":3531:3535   */\n      dup2\n        /* \"#utility.yul\":3527:3547   */\n      sub\n        /* \"#utility.yul\":3523:3524   */\n      0x00\n        /* \"#utility.yul\":3512:3521   */\n      dup4\n        /* \"#utility.yul\":3508:3525   */\n      add\n        /* \"#utility.yul\":3501:3548   */\n      mstore\n        /* \"#utility.yul\":3565:3696   */\n      tag_116\n        /* \"#utility.yul\":3691:3695   */\n      dup2\n        /* \"#utility.yul\":3565:3696   */\n      tag_72\n      jump\t// in\n    tag_116:\n        /* \"#utility.yul\":3557:3696   */\n      swap1\n      pop\n        /* \"#utility.yul\":3284:3703   */\n      swap2\n      swap1\n      pop\n      jump\t// out\n        /* \"#utility.yul\":3709:3889   */\n    tag_73:\n        /* \"#utility.yul\":3757:3834   */\n      0x4e487b7100000000000000000000000000000000000000000000000000000000\n        /* \"#utility.yul\":3754:3755   */\n      0x00\n        /* \"#utility.yul\":3747:3835   */\n      mstore\n        /* \"#utility.yul\":3854:3858   */\n      0x11\n        /* \"#utility.yul\":3851:3852   */\n      0x04\n        /* \"#utility.yul\":3844:3859   */\n      mstore\n        /* \"#utility.yul\":3878:3882   */\n      0x24\n        /* \"#utility.yul\":3875:3876   */\n      0x00\n        /* \"#utility.yul\":3868:3883   */\n      revert\n        /* \"#utility.yul\":3895:4086   */\n    tag_47:\n        /* \"#utility.yul\":3935:3939   */\n      0x00\n        /* \"#utility.yul\":3955:3975   */\n      tag_119\n        /* \"#utility.yul\":3973:3974   */\n      dup3\n        /* \"#utility.yul\":3955:3975   */\n      tag_61\n      jump\t// in\n    tag_119:\n        /* \"#utility.yul\":3950:3975   */\n      swap2\n      pop\n        /* \"#utility.yul\":3989:4009   */\n      tag_120\n        /* \"#utility.yul\":4007:4008   */\n      dup4\n        /* \"#utility.yul\":3989:4009   */\n      tag_61\n      jump\t// in\n    tag_120:\n        /* \"#utility.yul\":3984:4009   */\n      swap3\n      pop\n        /* \"#utility.yul\":4028:4029   */\n      dup3\n        /* \"#utility.yul\":4025:4026   */\n      dup3\n        /* \"#utility.yul\":4022:4030   */\n      lt\n        /* \"#utility.yul\":4019:4053   */\n      iszero\n      tag_121\n      jumpi\n        /* \"#utility.yul\":4033:4051   */\n      tag_122\n      tag_73\n      jump\t// in\n    tag_122:\n        /* \"#utility.yul\":4019:4053   */\n    tag_121:\n        /* \"#utility.yul\":4078:4079   */\n      dup3\n        /* \"#utility.yul\":4075:4076   */\n      dup3\n        /* \"#utility.yul\":4071:4080   */\n      sub\n        /* \"#utility.yul\":4063:4080   */\n      swap1\n      pop\n        /* \"#utility.yul\":3895:4086   */\n      swap3\n      swap2\n      pop\n      pop\n      jump\t// out\n        /* \"#utility.yul\":4092:4245   */\n    tag_74:\n        /* \"#utility.yul\":4232:4237   */\n      0x6761730000000000000000000000000000000000000000000000000000000000\n        /* \"#utility.yul\":4228:4229   */\n      0x00\n        /* \"#utility.yul\":4220:4226   */\n      dup3\n        /* \"#utility.yul\":4216:4230   */\n      add\n        /* \"#utility.yul\":4209:4238   */\n      mstore\n        /* \"#utility.yul\":4092:4245   */\n      pop\n      jump\t// out\n        /* \"#utility.yul\":4251:4616   */\n    tag_75:\n        /* \"#utility.yul\":4393:4396   */\n      0x00\n        /* \"#utility.yul\":4414:4480   */\n      tag_125\n        /* \"#utility.yul\":4478:4479   */\n      0x03\n        /* \"#utility.yul\":4473:4476   */\n      dup4\n        /* \"#utility.yul\":4414:4480   */\n      tag_70\n      jump\t// in\n    tag_125:\n        /* \"#utility.yul\":4407:4480   */\n      swap2\n      pop\n        /* \"#utility.yul\":4489:4582   */\n      tag_126\n        /* \"#utility.yul\":4578:4581   */\n      dup3\n        /* \"#utility.yul\":4489:4582   */\n      tag_74\n      jump\t// in\n    tag_126:\n        /* \"#utility.yul\":4607:4609   */\n      0x20\n        /* \"#utility.yul\":4602:4605   */\n      dup3\n        /* \"#utility.yul\":4598:4610   */\n      add\n        /* \"#utility.yul\":4591:4610   */\n      swap1\n      pop\n        /* \"#utility.yul\":4251:4616   */\n      swap2\n      swap1\n      pop\n      jump\t// out\n        /* \"#utility.yul\":4622:5151   */\n    tag_49:\n        /* \"#utility.yul\":4816:4820   */\n      0x00\n        /* \"#utility.yul\":4854:4856   */\n      0x40\n        /* \"#utility.yul\":4843:4852   */\n      dup3\n        /* \"#utility.yul\":4839:4857   */\n      add\n        /* \"#utility.yul\":4831:4857   */\n      swap1\n      pop\n        /* \"#utility.yul\":4903:4912   */\n      dup2\n        /* \"#utility.yul\":4897:4901   */\n      dup2\n        /* \"#utility.yul\":4893:4913   */\n      sub\n        /* \"#utility.yul\":4889:4890   */\n      0x00\n        /* \"#utility.yul\":4878:4887   */\n      dup4\n        /* \"#utility.yul\":4874:4891   */\n      add\n        /* \"#utility.yul\":4867:4914   */\n      mstore\n        /* \"#utility.yul\":4931:5062   */\n      tag_128\n        /* \"#utility.yul\":5057:5061   */\n      dup2\n        /* \"#utility.yul\":4931:5062   */\n      tag_75\n      jump\t// in\n    tag_128:\n        /* \"#utility.yul\":4923:5062   */\n      swap1\n      pop\n        /* \"#utility.yul\":5072:5144   */\n      tag_129\n        /* \"#utility.yul\":5140:5142   */\n      0x20\n        /* \"#utility.yul\":5129:5138   */\n      dup4\n        /* \"#utility.yul\":5125:5143   */\n      add\n        /* \"#utility.yul\":5116:5122   */\n      dup5\n        /* \"#utility.yul\":5072:5144   */\n      tag_69\n      jump\t// in\n    tag_129:\n        /* \"#utility.yul\":4622:5151   */\n      swap3\n      swap2\n      pop\n      pop\n      jump\t// out\n\n    auxdata: 0xa26469706673582212209af7f126994e87562ecde84553439b3721fcd73c65939957d70a5f7b71c92fa964736f6c634300080f0033\n}\n",
				"bytecode": {
					"linkReferences": {},
					"object": "608060405234801561001057600080fd5b5061098e806100206000396000f3fe608060405234801561001057600080fd5b506004361061007d5760003560e01c80636352211e1161005b5780636352211e146100d857806368fcd9d21461010857806370a0823114610124578063e30081a0146101545761007d565b8063081812fc146100825780630a9254e4146100b257806342966c68146100bc575b600080fd5b61009c600480360381019061009791906106f2565b610170565b6040516100a99190610760565b60405180910390f35b6100ba6101a3565b005b6100d660048036038101906100d191906106f2565b6101b0565b005b6100f260048036038101906100ed91906106f2565b6103fd565b6040516100ff9190610760565b60405180910390f35b610122600480360381019061011d91906106f2565b610430565b005b61013e600480360381019061013991906107a7565b6105fc565b60405161014b91906107e3565b60405180910390f35b61016e600480360381019061016991906107a7565b610614565b005b60026020528060005260406000206000915054906101000a900473ffffffffffffffffffffffffffffffffffffffff1681565b6101ae61beef610614565b565b60005a905060006001600084815260200190815260200160002060009054906101000a900473ffffffffffffffffffffffffffffffffffffffff169050600073ffffffffffffffffffffffffffffffffffffffff166001600085815260200190815260200160002060009054906101000a900473ffffffffffffffffffffffffffffffffffffffff1673ffffffffffffffffffffffffffffffffffffffff160361028f576040517f08c379a00000000000000000000000000000000000000000000000000000000081526004016102869061085b565b60405180910390fd5b6000808273ffffffffffffffffffffffffffffffffffffffff1673ffffffffffffffffffffffffffffffffffffffff16815260200190815260200160002060008154809291906001900391905055506001600084815260200190815260200160002060006101000a81549073ffffffffffffffffffffffffffffffffffffffff02191690556002600084815260200190815260200160002060006101000a81549073ffffffffffffffffffffffffffffffffffffffff0219169055600073ffffffffffffffffffffffffffffffffffffffff168173ffffffffffffffffffffffffffffffffffffffff167fddf252ad1be2c89b69c2b068fc378daa952ba7f163c4a11628f55a4df523b3ef856040516103a891906107e3565b60405180910390a35060005a90507fb2de2fbe801a0df6c0cbddfd448ba3c41d48a040ca35c56c8196ef0fcae721a881836103e391906108aa565b6040516103f0919061092a565b60405180910390a1505050565b60016020528060005260406000206000915054906101000a900473ffffffffffffffffffffffffffffffffffffffff1681565b60006001600083815260200190815260200160002060009054906101000a900473ffffffffffffffffffffffffffffffffffffffff169050600073ffffffffffffffffffffffffffffffffffffffff168173ffffffffffffffffffffffffffffffffffffffff16036104d7576040517f08c379a00000000000000000000000000000000000000000000000000000000081526004016104ce9061085b565b60405180910390fd5b6000808273ffffffffffffffffffffffffffffffffffffffff1673ffffffffffffffffffffffffffffffffffffffff16815260200190815260200160002060008154809291906001900391905055506001600083815260200190815260200160002060006101000a81549073ffffffffffffffffffffffffffffffffffffffff02191690556002600083815260200190815260200160002060006101000a81549073ffffffffffffffffffffffffffffffffffffffff0219169055600073ffffffffffffffffffffffffffffffffffffffff168173ffffffffffffffffffffffffffffffffffffffff167fddf252ad1be2c89b69c2b068fc378daa952ba7f163c4a11628f55a4df523b3ef846040516105f091906107e3565b60405180910390a35050565b60006020528060005260406000206000915090505481565b60005a9050816001600080815260200190815260200160002060006101000a81548173ffffffffffffffffffffffffffffffffffffffff021916908373ffffffffffffffffffffffffffffffffffffffff16021790555060005a90507fb2de2fbe801a0df6c0cbddfd448ba3c41d48a040ca35c56c8196ef0fcae721a8818361069d91906108aa565b6040516106aa919061092a565b60405180910390a1505050565b600080fd5b6000819050919050565b6106cf816106bc565b81146106da57600080fd5b50565b6000813590506106ec816106c6565b92915050565b600060208284031215610708576107076106b7565b5b6000610716848285016106dd565b91505092915050565b600073ffffffffffffffffffffffffffffffffffffffff82169050919050565b600061074a8261071f565b9050919050565b61075a8161073f565b82525050565b60006020820190506107756000830184610751565b92915050565b6107848161073f565b811461078f57600080fd5b50565b6000813590506107a18161077b565b92915050565b6000602082840312156107bd576107bc6106b7565b5b60006107cb84828501610792565b91505092915050565b6107dd816106bc565b82525050565b60006020820190506107f860008301846107d4565b92915050565b600082825260208201905092915050565b7f4e4f545f4d494e54454400000000000000000000000000000000000000000000600082015250565b6000610845600a836107fe565b91506108508261080f565b602082019050919050565b6000602082019050818103600083015261087481610838565b9050919050565b7f4e487b7100000000000000000000000000000000000000000000000000000000600052601160045260246000fd5b60006108b5826106bc565b91506108c0836106bc565b9250828210156108d3576108d261087b565b5b828203905092915050565b7f6761730000000000000000000000000000000000000000000000000000000000600082015250565b60006109146003836107fe565b915061091f826108de565b602082019050919050565b6000604082019050818103600083015261094381610907565b905061095260208301846107d4565b9291505056fea26469706673582212209af7f126994e87562ecde84553439b3721fcd73c65939957d70a5f7b71c92fa964736f6c634300080f0033",
					"opcodes": "PUSH1 0x80 PUSH1 0x40 MSTORE CALLVALUE DUP1 ISZERO PUSH2 0x10 JUMPI PUSH1 0x0 DUP1 REVERT JUMPDEST POP PUSH2 0x98E DUP1 PUSH2 0x20 PUSH1 0x0 CODECOPY PUSH1 0x0 RETURN INVALID PUSH1 0x80 PUSH1 0x40 MSTORE CALLVALUE DUP1 ISZERO PUSH2 0x10 JUMPI PUSH1 0x0 DUP1 REVERT JUMPDEST POP PUSH1 0x4 CALLDATASIZE LT PUSH2 0x7D JUMPI PUSH1 0x0 CALLDATALOAD PUSH1 0xE0 SHR DUP1 PUSH4 0x6352211E GT PUSH2 0x5B JUMPI DUP1 PUSH4 0x6352211E EQ PUSH2 0xD8 JUMPI DUP1 PUSH4 0x68FCD9D2 EQ PUSH2 0x108 JUMPI DUP1 PUSH4 0x70A08231 EQ PUSH2 0x124 JUMPI DUP1 PUSH4 0xE30081A0 EQ PUSH2 0x154 JUMPI PUSH2 0x7D JUMP JUMPDEST DUP1 PUSH4 0x81812FC EQ PUSH2 0x82 JUMPI DUP1 PUSH4 0xA9254E4 EQ PUSH2 0xB2 JUMPI DUP1 PUSH4 0x42966C68 EQ PUSH2 0xBC JUMPI JUMPDEST PUSH1 0x0 DUP1 REVERT JUMPDEST PUSH2 0x9C PUSH1 0x4 DUP1 CALLDATASIZE SUB DUP2 ADD SWAP1 PUSH2 0x97 SWAP2 SWAP1 PUSH2 0x6F2 JUMP JUMPDEST PUSH2 0x170 JUMP JUMPDEST PUSH1 0x40 MLOAD PUSH2 0xA9 SWAP2 SWAP1 PUSH2 0x760 JUMP JUMPDEST PUSH1 0x40 MLOAD DUP1 SWAP2 SUB SWAP1 RETURN JUMPDEST PUSH2 0xBA PUSH2 0x1A3 JUMP JUMPDEST STOP JUMPDEST PUSH2 0xD6 PUSH1 0x4 DUP1 CALLDATASIZE SUB DUP2 ADD SWAP1 PUSH2 0xD1 SWAP2 SWAP1 PUSH2 0x6F2 JUMP JUMPDEST PUSH2 0x1B0 JUMP JUMPDEST STOP JUMPDEST PUSH2 0xF2 PUSH1 0x4 DUP1 CALLDATASIZE SUB DUP2 ADD SWAP1 PUSH2 0xED SWAP2 SWAP1 PUSH2 0x6F2 JUMP JUMPDEST PUSH2 0x3FD JUMP JUMPDEST PUSH1 0x40 MLOAD PUSH2 0xFF SWAP2 SWAP1 PUSH2 0x760 JUMP JUMPDEST PUSH1 0x40 MLOAD DUP1 SWAP2 SUB SWAP1 RETURN JUMPDEST PUSH2 0x122 PUSH1 0x4 DUP1 CALLDATASIZE SUB DUP2 ADD SWAP1 PUSH2 0x11D SWAP2 SWAP1 PUSH2 0x6F2 JUMP JUMPDEST PUSH2 0x430 JUMP JUMPDEST STOP JUMPDEST PUSH2 0x13E PUSH1 0x4 DUP1 CALLDATASIZE SUB DUP2 ADD SWAP1 PUSH2 0x139 SWAP2 SWAP1 PUSH2 0x7A7 JUMP JUMPDEST PUSH2 0x5FC JUMP JUMPDEST PUSH1 0x40 MLOAD PUSH2 0x14B SWAP2 SWAP1 PUSH2 0x7E3 JUMP JUMPDEST PUSH1 0x40 MLOAD DUP1 SWAP2 SUB SWAP1 RETURN JUMPDEST PUSH2 0x16E PUSH1 0x4 DUP1 CALLDATASIZE SUB DUP2 ADD SWAP1 PUSH2 0x169 SWAP2 SWAP1 PUSH2 0x7A7 JUMP JUMPDEST PUSH2 0x614 JUMP JUMPDEST STOP JUMPDEST PUSH1 0x2 PUSH1 0x20 MSTORE DUP1 PUSH1 0x0 MSTORE PUSH1 0x40 PUSH1 0x0 KECCAK256 PUSH1 0x0 SWAP2 POP SLOAD SWAP1 PUSH2 0x100 EXP SWAP1 DIV PUSH20 0xFFFFFFFFFFFFFFFFFFFFFFFFFFFFFFFFFFFFFFFF AND DUP2 JUMP JUMPDEST PUSH2 0x1AE PUSH2 0xBEEF PUSH2 0x614 JUMP JUMPDEST JUMP JUMPDEST PUSH1 0x0 GAS SWAP1 POP PUSH1 0x0 PUSH1 0x1 PUSH1 0x0 DUP5 DUP2 MSTORE PUSH1 0x20 ADD SWAP1 DUP2 MSTORE PUSH1 0x20 ADD PUSH1 0x0 KECCAK256 PUSH1 0x0 SWAP1 SLOAD SWAP1 PUSH2 0x100 EXP SWAP1 DIV PUSH20 0xFFFFFFFFFFFFFFFFFFFFFFFFFFFFFFFFFFFFFFFF AND SWAP1 POP PUSH1 0x0 PUSH20 0xFFFFFFFFFFFFFFFFFFFFFFFFFFFFFFFFFFFFFFFF AND PUSH1 0x1 PUSH1 0x0 DUP6 DUP2 MSTORE PUSH1 0x20 ADD SWAP1 DUP2 MSTORE PUSH1 0x20 ADD PUSH1 0x0 KECCAK256 PUSH1 0x0 SWAP1 SLOAD SWAP1 PUSH2 0x100 EXP SWAP1 DIV PUSH20 0xFFFFFFFFFFFFFFFFFFFFFFFFFFFFFFFFFFFFFFFF AND PUSH20 0xFFFFFFFFFFFFFFFFFFFFFFFFFFFFFFFFFFFFFFFF AND SUB PUSH2 0x28F JUMPI PUSH1 0x40 MLOAD PUSH32 0x8C379A000000000000000000000000000000000000000000000000000000000 DUP2 MSTORE PUSH1 0x4 ADD PUSH2 0x286 SWAP1 PUSH2 0x85B JUMP JUMPDEST PUSH1 0x40 MLOAD DUP1 SWAP2 SUB SWAP1 REVERT JUMPDEST PUSH1 0x0 DUP1 DUP3 PUSH20 0xFFFFFFFFFFFFFFFFFFFFFFFFFFFFFFFFFFFFFFFF AND PUSH20 0xFFFFFFFFFFFFFFFFFFFFFFFFFFFFFFFFFFFFFFFF AND DUP2 MSTORE PUSH1 0x20 ADD SWAP1 DUP2 MSTORE PUSH1 0x20 ADD PUSH1 0x0 KECCAK256 PUSH1 0x0 DUP2 SLOAD DUP1 SWAP3 SWAP2 SWAP1 PUSH1 0x1 SWAP1 SUB SWAP2 SWAP1 POP SSTORE POP PUSH1 0x1 PUSH1 0x0 DUP5 DUP2 MSTORE PUSH1 0x20 ADD SWAP1 DUP2 MSTORE PUSH1 0x20 ADD PUSH1 0x0 KECCAK256 PUSH1 0x0 PUSH2 0x100 EXP DUP2 SLOAD SWAP1 PUSH20 0xFFFFFFFFFFFFFFFFFFFFFFFFFFFFFFFFFFFFFFFF MUL NOT AND SWAP1 SSTORE PUSH1 0x2 PUSH1 0x0 DUP5 DUP2 MSTORE PUSH1 0x20 ADD SWAP1 DUP2 MSTORE PUSH1 0x20 ADD PUSH1 0x0 KECCAK256 PUSH1 0x0 PUSH2 0x100 EXP DUP2 SLOAD SWAP1 PUSH20 0xFFFFFFFFFFFFFFFFFFFFFFFFFFFFFFFFFFFFFFFF MUL NOT AND SWAP1 SSTORE PUSH1 0x0 PUSH20 0xFFFFFFFFFFFFFFFFFFFFFFFFFFFFFFFFFFFFFFFF AND DUP2 PUSH20 0xFFFFFFFFFFFFFFFFFFFFFFFFFFFFFFFFFFFFFFFF AND PUSH32 0xDDF252AD1BE2C89B69C2B068FC378DAA952BA7F163C4A11628F55A4DF523B3EF DUP6 PUSH1 0x40 MLOAD PUSH2 0x3A8 SWAP2 SWAP1 PUSH2 0x7E3 JUMP JUMPDEST PUSH1 0x40 MLOAD DUP1 SWAP2 SUB SWAP1 LOG3 POP PUSH1 0x0 GAS SWAP1 POP PUSH32 0xB2DE2FBE801A0DF6C0CBDDFD448BA3C41D48A040CA35C56C8196EF0FCAE721A8 DUP2 DUP4 PUSH2 0x3E3 SWAP2 SWAP1 PUSH2 0x8AA JUMP JUMPDEST PUSH1 0x40 MLOAD PUSH2 0x3F0 SWAP2 SWAP1 PUSH2 0x92A JUMP JUMPDEST PUSH1 0x40 MLOAD DUP1 SWAP2 SUB SWAP1 LOG1 POP POP POP JUMP JUMPDEST PUSH1 0x1 PUSH1 0x20 MSTORE DUP1 PUSH1 0x0 MSTORE PUSH1 0x40 PUSH1 0x0 KECCAK256 PUSH1 0x0 SWAP2 POP SLOAD SWAP1 PUSH2 0x100 EXP SWAP1 DIV PUSH20 0xFFFFFFFFFFFFFFFFFFFFFFFFFFFFFFFFFFFFFFFF AND DUP2 JUMP JUMPDEST PUSH1 0x0 PUSH1 0x1 PUSH1 0x0 DUP4 DUP2 MSTORE PUSH1 0x20 ADD SWAP1 DUP2 MSTORE PUSH1 0x20 ADD PUSH1 0x0 KECCAK256 PUSH1 0x0 SWAP1 SLOAD SWAP1 PUSH2 0x100 EXP SWAP1 DIV PUSH20 0xFFFFFFFFFFFFFFFFFFFFFFFFFFFFFFFFFFFFFFFF AND SWAP1 POP PUSH1 0x0 PUSH20 0xFFFFFFFFFFFFFFFFFFFFFFFFFFFFFFFFFFFFFFFF AND DUP2 PUSH20 0xFFFFFFFFFFFFFFFFFFFFFFFFFFFFFFFFFFFFFFFF AND SUB PUSH2 0x4D7 JUMPI PUSH1 0x40 MLOAD PUSH32 0x8C379A000000000000000000000000000000000000000000000000000000000 DUP2 MSTORE PUSH1 0x4 ADD PUSH2 0x4CE SWAP1 PUSH2 0x85B JUMP JUMPDEST PUSH1 0x40 MLOAD DUP1 SWAP2 SUB SWAP1 REVERT JUMPDEST PUSH1 0x0 DUP1 DUP3 PUSH20 0xFFFFFFFFFFFFFFFFFFFFFFFFFFFFFFFFFFFFFFFF AND PUSH20 0xFFFFFFFFFFFFFFFFFFFFFFFFFFFFFFFFFFFFFFFF AND DUP2 MSTORE PUSH1 0x20 ADD SWAP1 DUP2 MSTORE PUSH1 0x20 ADD PUSH1 0x0 KECCAK256 PUSH1 0x0 DUP2 SLOAD DUP1 SWAP3 SWAP2 SWAP1 PUSH1 0x1 SWAP1 SUB SWAP2 SWAP1 POP SSTORE POP PUSH1 0x1 PUSH1 0x0 DUP4 DUP2 MSTORE PUSH1 0x20 ADD SWAP1 DUP2 MSTORE PUSH1 0x20 ADD PUSH1 0x0 KECCAK256 PUSH1 0x0 PUSH2 0x100 EXP DUP2 SLOAD SWAP1 PUSH20 0xFFFFFFFFFFFFFFFFFFFFFFFFFFFFFFFFFFFFFFFF MUL NOT AND SWAP1 SSTORE PUSH1 0x2 PUSH1 0x0 DUP4 DUP2 MSTORE PUSH1 0x20 ADD SWAP1 DUP2 MSTORE PUSH1 0x20 ADD PUSH1 0x0 KECCAK256 PUSH1 0x0 PUSH2 0x100 EXP DUP2 SLOAD SWAP1 PUSH20 0xFFFFFFFFFFFFFFFFFFFFFFFFFFFFFFFFFFFFFFFF MUL NOT AND SWAP1 SSTORE PUSH1 0x0 PUSH20 0xFFFFFFFFFFFFFFFFFFFFFFFFFFFFFFFFFFFFFFFF AND DUP2 PUSH20 0xFFFFFFFFFFFFFFFFFFFFFFFFFFFFFFFFFFFFFFFF AND PUSH32 0xDDF252AD1BE2C89B69C2B068FC378DAA952BA7F163C4A11628F55A4DF523B3EF DUP5 PUSH1 0x40 MLOAD PUSH2 0x5F0 SWAP2 SWAP1 PUSH2 0x7E3 JUMP JUMPDEST PUSH1 0x40 MLOAD DUP1 SWAP2 SUB SWAP1 LOG3 POP POP JUMP JUMPDEST PUSH1 0x0 PUSH1 0x20 MSTORE DUP1 PUSH1 0x0 MSTORE PUSH1 0x40 PUSH1 0x0 KECCAK256 PUSH1 0x0 SWAP2 POP SWAP1 POP SLOAD DUP2 JUMP JUMPDEST PUSH1 0x0 GAS SWAP1 POP DUP2 PUSH1 0x1 PUSH1 0x0 DUP1 DUP2 MSTORE PUSH1 0x20 ADD SWAP1 DUP2 MSTORE PUSH1 0x20 ADD PUSH1 0x0 KECCAK256 PUSH1 0x0 PUSH2 0x100 EXP DUP2 SLOAD DUP2 PUSH20 0xFFFFFFFFFFFFFFFFFFFFFFFFFFFFFFFFFFFFFFFF MUL NOT AND SWAP1 DUP4 PUSH20 0xFFFFFFFFFFFFFFFFFFFFFFFFFFFFFFFFFFFFFFFF AND MUL OR SWAP1 SSTORE POP PUSH1 0x0 GAS SWAP1 POP PUSH32 0xB2DE2FBE801A0DF6C0CBDDFD448BA3C41D48A040CA35C56C8196EF0FCAE721A8 DUP2 DUP4 PUSH2 0x69D SWAP2 SWAP1 PUSH2 0x8AA JUMP JUMPDEST PUSH1 0x40 MLOAD PUSH2 0x6AA SWAP2 SWAP1 PUSH2 0x92A JUMP JUMPDEST PUSH1 0x40 MLOAD DUP1 SWAP2 SUB SWAP1 LOG1 POP POP POP JUMP JUMPDEST PUSH1 0x0 DUP1 REVERT JUMPDEST PUSH1 0x0 DUP2 SWAP1 POP SWAP2 SWAP1 POP JUMP JUMPDEST PUSH2 0x6CF DUP2 PUSH2 0x6BC JUMP JUMPDEST DUP2 EQ PUSH2 0x6DA JUMPI PUSH1 0x0 DUP1 REVERT JUMPDEST POP JUMP JUMPDEST PUSH1 0x0 DUP2 CALLDATALOAD SWAP1 POP PUSH2 0x6EC DUP2 PUSH2 0x6C6 JUMP JUMPDEST SWAP3 SWAP2 POP POP JUMP JUMPDEST PUSH1 0x0 PUSH1 0x20 DUP3 DUP5 SUB SLT ISZERO PUSH2 0x708 JUMPI PUSH2 0x707 PUSH2 0x6B7 JUMP JUMPDEST JUMPDEST PUSH1 0x0 PUSH2 0x716 DUP5 DUP3 DUP6 ADD PUSH2 0x6DD JUMP JUMPDEST SWAP2 POP POP SWAP3 SWAP2 POP POP JUMP JUMPDEST PUSH1 0x0 PUSH20 0xFFFFFFFFFFFFFFFFFFFFFFFFFFFFFFFFFFFFFFFF DUP3 AND SWAP1 POP SWAP2 SWAP1 POP JUMP JUMPDEST PUSH1 0x0 PUSH2 0x74A DUP3 PUSH2 0x71F JUMP JUMPDEST SWAP1 POP SWAP2 SWAP1 POP JUMP JUMPDEST PUSH2 0x75A DUP2 PUSH2 0x73F JUMP JUMPDEST DUP3 MSTORE POP POP JUMP JUMPDEST PUSH1 0x0 PUSH1 0x20 DUP3 ADD SWAP1 POP PUSH2 0x775 PUSH1 0x0 DUP4 ADD DUP5 PUSH2 0x751 JUMP JUMPDEST SWAP3 SWAP2 POP POP JUMP JUMPDEST PUSH2 0x784 DUP2 PUSH2 0x73F JUMP JUMPDEST DUP2 EQ PUSH2 0x78F JUMPI PUSH1 0x0 DUP1 REVERT JUMPDEST POP JUMP JUMPDEST PUSH1 0x0 DUP2 CALLDATALOAD SWAP1 POP PUSH2 0x7A1 DUP2 PUSH2 0x77B JUMP JUMPDEST SWAP3 SWAP2 POP POP JUMP JUMPDEST PUSH1 0x0 PUSH1 0x20 DUP3 DUP5 SUB SLT ISZERO PUSH2 0x7BD JUMPI PUSH2 0x7BC PUSH2 0x6B7 JUMP JUMPDEST JUMPDEST PUSH1 0x0 PUSH2 0x7CB DUP5 DUP3 DUP6 ADD PUSH2 0x792 JUMP JUMPDEST SWAP2 POP POP SWAP3 SWAP2 POP POP JUMP JUMPDEST PUSH2 0x7DD DUP2 PUSH2 0x6BC JUMP JUMPDEST DUP3 MSTORE POP POP JUMP JUMPDEST PUSH1 0x0 PUSH1 0x20 DUP3 ADD SWAP1 POP PUSH2 0x7F8 PUSH1 0x0 DUP4 ADD DUP5 PUSH2 0x7D4 JUMP JUMPDEST SWAP3 SWAP2 POP POP JUMP JUMPDEST PUSH1 0x0 DUP3 DUP3 MSTORE PUSH1 0x20 DUP3 ADD SWAP1 POP SWAP3 SWAP2 POP POP JUMP JUMPDEST PUSH32 0x4E4F545F4D494E54454400000000000000000000000000000000000000000000 PUSH1 0x0 DUP3 ADD MSTORE POP JUMP JUMPDEST PUSH1 0x0 PUSH2 0x845 PUSH1 0xA DUP4 PUSH2 0x7FE JUMP JUMPDEST SWAP2 POP PUSH2 0x850 DUP3 PUSH2 0x80F JUMP JUMPDEST PUSH1 0x20 DUP3 ADD SWAP1 POP SWAP2 SWAP1 POP JUMP JUMPDEST PUSH1 0x0 PUSH1 0x20 DUP3 ADD SWAP1 POP DUP2 DUP2 SUB PUSH1 0x0 DUP4 ADD MSTORE PUSH2 0x874 DUP2 PUSH2 0x838 JUMP JUMPDEST SWAP1 POP SWAP2 SWAP1 POP JUMP JUMPDEST PUSH32 0x4E487B7100000000000000000000000000000000000000000000000000000000 PUSH1 0x0 MSTORE PUSH1 0x11 PUSH1 0x4 MSTORE PUSH1 0x24 PUSH1 0x0 REVERT JUMPDEST PUSH1 0x0 PUSH2 0x8B5 DUP3 PUSH2 0x6BC JUMP JUMPDEST SWAP2 POP PUSH2 0x8C0 DUP4 PUSH2 0x6BC JUMP JUMPDEST SWAP3 POP DUP3 DUP3 LT ISZERO PUSH2 0x8D3 JUMPI PUSH2 0x8D2 PUSH2 0x87B JUMP JUMPDEST JUMPDEST DUP3 DUP3 SUB SWAP1 POP SWAP3 SWAP2 POP POP JUMP JUMPDEST PUSH32 0x6761730000000000000000000000000000000000000000000000000000000000 PUSH1 0x0 DUP3 ADD MSTORE POP JUMP JUMPDEST PUSH1 0x0 PUSH2 0x914 PUSH1 0x3 DUP4 PUSH2 0x7FE JUMP JUMPDEST SWAP2 POP PUSH2 0x91F DUP3 PUSH2 0x8DE JUMP JUMPDEST PUSH1 0x20 DUP3 ADD SWAP1 POP SWAP2 SWAP1 POP JUMP JUMPDEST PUSH1 0x0 PUSH1 0x40 DUP3 ADD SWAP1 POP DUP2 DUP2 SUB PUSH1 0x0 DUP4 ADD MSTORE PUSH2 0x943 DUP2 PUSH2 0x907 JUMP JUMPDEST SWAP1 POP PUSH2 0x952 PUSH1 0x20 DUP4 ADD DUP5 PUSH2 0x7D4 JUMP JUMPDEST SWAP3 SWAP2 POP POP JUMP INVALID LOG2 PUSH5 0x6970667358 0x22 SLT KECCAK256 SWAP11 0xF7 CALL 0x26 SWAP10 0x4E DUP8 JUMP 0x2E 0xCD 0xE8 GASLIMIT MSTORE8 NUMBER SWAP12 CALLDATACOPY 0x21 0xFC 0xD7 EXTCODECOPY PUSH6 0x939957D70A5F PUSH28 0x71C92FA964736F6C634300080F003300000000000000000000000000 "
				},
				"gasEstimates": {
					"creation": {
						"codeDepositCost": "489200",
						"executionCost": "524",
						"totalCost": "489724"
					},
					"external": {
						"balanceOf(address)": "2858",
						"burn(uint256)": "infinite",
						"burnUseCached(uint256)": "infinite",
						"getApproved(uint256)": "2840",
						"ownerOf(uint256)": "2839",
						"setAddress(address)": "infinite",
						"setUp()": "infinite"
					}
				},
				"methodIdentifiers": {
					"balanceOf(address)": "70a08231",
					"burn(uint256)": "42966c68",
					"burnUseCached(uint256)": "68fcd9d2",
					"getApproved(uint256)": "081812fc",
					"ownerOf(uint256)": "6352211e",
					"setAddress(address)": "e30081a0",
					"setUp()": "0a9254e4"
				}
			},
			"storageLayout": {
				"storage": [
					{
						"astId": 17,
						"contract": "tests/CachedResultDemo.sol:CachedResultDemo",
						"label": "balanceOf",
						"offset": 0,
						"slot": "0",
						"type": "t_mapping(t_address,t_uint256)"
					},
					{
						"astId": 21,
						"contract": "tests/CachedResultDemo.sol:CachedResultDemo",
						"label": "ownerOf",
						"offset": 0,
						"slot": "1",
						"type": "t_mapping(t_uint256,t_address)"
					},
					{
						"astId": 25,
						"contract": "tests/CachedResultDemo.sol:CachedResultDemo",
						"label": "getApproved",
						"offset": 0,
						"slot": "2",
						"type": "t_mapping(t_uint256,t_address)"
					}
				],
				"types": {
					"t_address": {
						"encoding": "inplace",
						"label": "address",
						"numberOfBytes": "20"
					},
					"t_mapping(t_address,t_uint256)": {
						"encoding": "mapping",
						"key": "t_address",
						"label": "mapping(address => uint256)",
						"numberOfBytes": "32",
						"value": "t_uint256"
					},
					"t_mapping(t_uint256,t_address)": {
						"encoding": "mapping",
						"key": "t_uint256",
						"label": "mapping(uint256 => address)",
						"numberOfBytes": "32",
						"value": "t_address"
					},
					"t_uint256": {
						"encoding": "inplace",
						"label": "uint256",
						"numberOfBytes": "32"
					}
				}
			},
			"userdoc": {
				"kind": "user",
				"methods": {},
				"version": 1
			}
		}
	}
}