{
	"tests/BeforeTokenDemo.sol": {
		"BeforeTokenDemo": {
			"abi": [
				{
					"inputs": [],
					"stateMutability": "nonpayable",
					"type": "constructor"
				},
				{
					"inputs": [],
					"name": "DECIMALS",
					"outputs": [
						{
							"internalType": "uint8",
							"name": "",
							"type": "uint8"
						}
					],
					"stateMutability": "view",
					"type": "function"
				},
				{
					"inputs": [],
					"name": "INITIAL_SUPPLY",
					"outputs": [
						{
							"internalType": "uint256",
							"name": "",
							"type": "uint256"
						}
					],
					"stateMutability": "view",
					"type": "function"
				}
			],
			"devdoc": {
				"kind": "dev",
				"methods": {
					"constructor": {
						"details": "Constructor that gives msg.sender all of existing tokens."
					}
				},
				"version": 1
			},
			"evm": {
				"assembly": "    /* \"tests/BeforeTokenDemo.sol\":127:512  contract BeforeTokenDemo is ERC20DetailedDemo {... */\n  mstore(0x40, 0x80)\n    /* \"tests/BeforeTokenDemo.sol\":388:510  constructor () public ERC20DetailedDemo(\"SimpleToken\", \"SIM\", DECIMALS) {... */\n  callvalue\n  dup1\n  iszero\n  tag_1\n  jumpi\n  0x00\n  dup1\n  revert\ntag_1:\n  pop\n    /* \"tests/ERC20DetailedDemo.sol\":370:533  constructor (string memory name, string memory symbol, uint8 decimals) public {... */\n  mload(0x40)\n  dup1\n  0x40\n  add\n  0x40\n  mstore\n  dup1\n  0x0b\n  dup2\n  mstore\n  0x20\n  add\n  0x53696d706c65546f6b656e000000000000000000000000000000000000000000\n  dup2\n  mstore\n  pop\n  mload(0x40)\n  dup1\n  0x40\n  add\n  0x40\n  mstore\n  dup1\n  0x03\n  dup2\n  mstore\n  0x20\n  add\n  0x53494d0000000000000000000000000000000000000000000000000000000000\n  dup2\n  mstore\n  pop\n    /* \"tests/BeforeTokenDemo.sol\":213:215  18 */\n  0x12\n    /* \"tests/ERC20DetailedDemo.sol\":466:470  name */\n  dup3\n    /* \"tests/ERC20DetailedDemo.sol\":458:463  _name */\n  0x00\n    /* \"tests/ERC20DetailedDemo.sol\":458:470  _name = name */\n  swap1\n  dup2\n  tag_5\n  swap2\n  swap1\n  tag_6\n  jump\t// in\ntag_5:\n  pop\n    /* \"tests/ERC20DetailedDemo.sol\":490:496  symbol */\n  dup2\n    /* \"tests/ERC20DetailedDemo.sol\":480:487  _symbol */\n  0x01\n    /* \"tests/ERC20DetailedDemo.sol\":480:496  _symbol = symbol */\n  swap1\n  dup2\n  tag_7\n  swap2\n  swap1\n  tag_6\n  jump\t// in\ntag_7:\n  pop\n    /* \"tests/ERC20DetailedDemo.sol\":518:526  decimals */\n  dup1\n    /* \"tests/ERC20DetailedDemo.sol\":506:515  _decimals */\n  0x02\n  0x00\n    /* \"tests/ERC20DetailedDemo.sol\":506:526  _decimals = decimals */\n  0x0100\n  exp\n  dup2\n  sload\n  dup2\n  0xff\n  mul\n  not\n  and\n  swap1\n  dup4\n  0xff\n  and\n  mul\n  or\n  swap1\n  sstore\n  pop\n    /* \"tests/ERC20DetailedDemo.sol\":370:533  constructor (string memory name, string memory symbol, uint8 decimals) public {... */\n  pop\n  pop\n  pop\n    /* \"tests/BeforeTokenDemo.sol\":470:503  _mint(msg.sender, INITIAL_SUPPLY) */\n  tag_9\n    /* \"tests/BeforeTokenDemo.sol\":476:486  msg.sender */\n  caller\n    /* \"tests/BeforeTokenDemo.sol\":213:215  18 */\n  0x12\n    /* \"tests/BeforeTokenDemo.sol\":277:294  uint256(DECIMALS) */\n  0xff\n  and\n    /* \"tests/BeforeTokenDemo.sol\":271:273  10 */\n  0x0a\n    /* \"tests/BeforeTokenDemo.sol\":271:294  10 ** uint256(DECIMALS) */\n  tag_10\n  swap2\n  swap1\n  tag_11\n  jump\t// in\ntag_10:\n    /* \"tests/BeforeTokenDemo.sol\":262:267  10000 */\n  0x2710\n    /* \"tests/BeforeTokenDemo.sol\":262:295  10000 * (10 ** uint256(DECIMALS)) */\n  tag_12\n  swap2\n  swap1\n  tag_13\n  jump\t// in\ntag_12:\n    /* \"tests/BeforeTokenDemo.sol\":470:475  _mint */\n  shl(0x20, tag_14)\n    /* \"tests/BeforeTokenDemo.sol\":470:503  _mint(msg.sender, INITIAL_SUPPLY) */\n  0x20\n  shr\n  jump\t// in\ntag_9:\n    /* \"tests/BeforeTokenDemo.sol\":127:512  contract BeforeTokenDemo is ERC20DetailedDemo {... */\n  jump(tag_15)\n    /* \"tests/ERC20DetailedDemo.sol\":539:678  function _mint(address account, uint256 amount) internal {... */\ntag_14:\n    /* \"tests/ERC20DetailedDemo.sol\":633:634  0 */\n  0x00\n    /* \"tests/ERC20DetailedDemo.sol\":614:635  account != address(0) */\n  0xffffffffffffffffffffffffffffffffffffffff\n  and\n    /* \"tests/ERC20DetailedDemo.sol\":614:621  account */\n  dup3\n    /* \"tests/ERC20DetailedDemo.sol\":614:635  account != address(0) */\n  0xffffffffffffffffffffffffffffffffffffffff\n  and\n  sub\n    /* \"tests/ERC20DetailedDemo.sol\":606:671  require(account != address(0), \"ERC20: mint to the zero address\") */\n  tag_17\n  jumpi\n  mload(0x40)\n  0x08c379a000000000000000000000000000000000000000000000000000000000\n  dup2\n  mstore\n  0x04\n  add\n  tag_18\n  swap1\n  tag_19\n  jump\t// in\ntag_18:\n  mload(0x40)\n  dup1\n  swap2\n  sub\n  swap1\n  revert\ntag_17:\n    /* \"tests/ERC20DetailedDemo.sol\":539:678  function _mint(address account, uint256 amount) internal {... */\n  pop\n  pop\n  jump\t// out\n    /* \"#utility.yul\":7:106   */\ntag_20:\n    /* \"#utility.yul\":59:65   */\n  0x00\n    /* \"#utility.yul\":93:98   */\n  dup2\n    /* \"#utility.yul\":87:99   */\n  mload\n    /* \"#utility.yul\":77:99   */\n  swap1\n  pop\n    /* \"#utility.yul\":7:106   */\n  swap2\n  swap1\n  pop\n  jump\t// out\n    /* \"#utility.yul\":112:292   */\ntag_21:\n    /* \"#utility.yul\":160:237   */\n  0x4e487b7100000000000000000000000000000000000000000000000000000000\n    /* \"#utility.yul\":157:158   */\n  0x00\n    /* \"#utility.yul\":150:238   */\n  mstore\n    /* \"#utility.yul\":257:261   */\n  0x41\n    /* \"#utility.yul\":254:255   */\n  0x04\n    /* \"#utility.yul\":247:262   */\n  mstore\n    /* \"#utility.yul\":281:285   */\n  0x24\n    /* \"#utility.yul\":278:279   */\n  0x00\n    /* \"#utility.yul\":271:286   */\n  revert\n    /* \"#utility.yul\":298:478   */\ntag_22:\n    /* \"#utility.yul\":346:423   */\n  0x4e487b7100000000000000000000000000000000000000000000000000000000\n    /* \"#utility.yul\":343:344   */\n  0x00\n    /* \"#utility.yul\":336:424   */\n  mstore\n    /* \"#utility.yul\":443:447   */\n  0x22\n    /* \"#utility.yul\":440:441   */\n  0x04\n    /* \"#utility.yul\":433:448   */\n  mstore\n    /* \"#utility.yul\":467:471   */\n  0x24\n    /* \"#utility.yul\":464:465   */\n  0x00\n    /* \"#utility.yul\":457:472   */\n  revert\n    /* \"#utility.yul\":484:804   */\ntag_23:\n    /* \"#utility.yul\":528:534   */\n  0x00\n    /* \"#utility.yul\":565:566   */\n  0x02\n    /* \"#utility.yul\":559:563   */\n  dup3\n    /* \"#utility.yul\":555:567   */\n  div\n    /* \"#utility.yul\":545:567   */\n  swap1\n  pop\n    /* \"#utility.yul\":612:613   */\n  0x01\n    /* \"#utility.yul\":606:610   */\n  dup3\n    /* \"#utility.yul\":602:614   */\n  and\n    /* \"#utility.yul\":633:651   */\n  dup1\n    /* \"#utility.yul\":623:704   */\n  tag_52\n  jumpi\n    /* \"#utility.yul\":689:693   */\n  0x7f\n    /* \"#utility.yul\":681:687   */\n  dup3\n    /* \"#utility.yul\":677:694   */\n  and\n    /* \"#utility.yul\":667:694   */\n  swap2\n  pop\n    /* \"#utility.yul\":623:704   */\ntag_52:\n    /* \"#utility.yul\":751:753   */\n  0x20\n    /* \"#utility.yul\":743:749   */\n  dup3\n    /* \"#utility.yul\":740:754   */\n  lt\n    /* \"#utility.yul\":720:738   */\n  dup2\n    /* \"#utility.yul\":717:755   */\n  sub\n    /* \"#utility.yul\":714:798   */\n  tag_53\n  jumpi\n    /* \"#utility.yul\":770:788   */\n  tag_54\n  tag_22\n  jump\t// in\ntag_54:\n    /* \"#utility.yul\":714:798   */\ntag_53:\n    /* \"#utility.yul\":535:804   */\n  pop\n    /* \"#utility.yul\":484:804   */\n  swap2\n  swap1\n  pop\n  jump\t// out\n    /* \"#utility.yul\":810:951   */\ntag_24:\n    /* \"#utility.yul\":859:863   */\n  0x00\n    /* \"#utility.yul\":882:885   */\n  dup2\n    /* \"#utility.yul\":874:885   */\n  swap1\n  pop\n    /* \"#utility.yul\":905:908   */\n  dup2\n    /* \"#utility.yul\":902:903   */\n  0x00\n    /* \"#utility.yul\":895:909   */\n  mstore\n    /* \"#utility.yul\":939:943   */\n  0x20\n    /* \"#utility.yul\":936:937   */\n  0x00\n    /* \"#utility.yul\":926:944   */\n  keccak256\n    /* \"#utility.yul\":918:944   */\n  swap1\n  pop\n    /* \"#utility.yul\":810:951   */\n  swap2\n  swap1\n  pop\n  jump\t// out\n    /* \"#utility.yul\":957:1050   */\ntag_25:\n    /* \"#utility.yul\":994:1000   */\n  0x00\n    /* \"#utility.yul\":1041:1043   */\n  0x20\n    /* \"#utility.yul\":1036:1038   */\n  0x1f\n    /* \"#utility.yul\":1029:1034   */\n  dup4\n    /* \"#utility.yul\":1025:1039   */\n  add\n    /* \"#utility.yul\":1021:1044   */\n  div\n    /* \"#utility.yul\":1011:1044   */\n  swap1\n  pop\n    /* \"#utility.yul\":957:1050   */\n  swap2\n  swap1\n  pop\n  jump\t// out\n    /* \"#utility.yul\":1056:1163   */\ntag_26:\n    /* \"#utility.yul\":1100:1108   */\n  0x00\n    /* \"#utility.yul\":1150:1155   */\n  dup3\n    /* \"#utility.yul\":1144:1148   */\n  dup3\n    /* \"#utility.yul\":1140:1156   */\n  shl\n    /* \"#utility.yul\":1119:1156   */\n  swap1\n  pop\n    /* \"#utility.yul\":1056:1163   */\n  swap3\n  swap2\n  pop\n  pop\n  jump\t// out\n    /* \"#utility.yul\":1169:1562   */\ntag_27:\n    /* \"#utility.yul\":1238:1244   */\n  0x00\n    /* \"#utility.yul\":1288:1289   */\n  0x08\n    /* \"#utility.yul\":1276:1286   */\n  dup4\n    /* \"#utility.yul\":1272:1290   */\n  mul\n    /* \"#utility.yul\":1311:1408   */\n  tag_59\n    /* \"#utility.yul\":1341:1407   */\n  0xffffffffffffffffffffffffffffffffffffffffffffffffffffffffffffffff\n    /* \"#utility.yul\":1330:1339   */\n  dup3\n    /* \"#utility.yul\":1311:1408   */\n  tag_26\n  jump\t// in\ntag_59:\n    /* \"#utility.yul\":1429:1468   */\n  tag_60\n    /* \"#utility.yul\":1459:1467   */\n  dup7\n    /* \"#utility.yul\":1448:1457   */\n  dup4\n    /* \"#utility.yul\":1429:1468   */\n  tag_26\n  jump\t// in\ntag_60:\n    /* \"#utility.yul\":1417:1468   */\n  swap6\n  pop\n    /* \"#utility.yul\":1501:1505   */\n  dup1\n    /* \"#utility.yul\":1497:1506   */\n  not\n    /* \"#utility.yul\":1490:1495   */\n  dup5\n    /* \"#utility.yul\":1486:1507   */\n  and\n    /* \"#utility.yul\":1477:1507   */\n  swap4\n  pop\n    /* \"#utility.yul\":1550:1554   */\n  dup1\n    /* \"#utility.yul\":1540:1548   */\n  dup7\n    /* \"#utility.yul\":1536:1555   */\n  and\n    /* \"#utility.yul\":1529:1534   */\n  dup5\n    /* \"#utility.yul\":1526:1556   */\n  or\n    /* \"#utility.yul\":1516:1556   */\n  swap3\n  pop\n    /* \"#utility.yul\":1245:1562   */\n  pop\n  pop\n    /* \"#utility.yul\":1169:1562   */\n  swap4\n  swap3\n  pop\n  pop\n  pop\n  jump\t// out\n    /* \"#utility.yul\":1568:1645   */\ntag_28:\n    /* \"#utility.yul\":1605:1612   */\n  0x00\n    /* \"#utility.yul\":1634:1639   */\n  dup2\n    /* \"#utility.yul\":1623:1639   */\n  swap1\n  pop\n    /* \"#utility.yul\":1568:1645   */\n  swap2\n  swap1\n  pop\n  jump\t// out\n    /* \"#utility.yul\":1651:1711   */\ntag_29:\n    /* \"#utility.yul\":1679:1682   */\n  0x00\n    /* \"#utility.yul\":1700:1705   */\n  dup2\n    /* \"#utility.yul\":1693:1705   */\n  swap1\n  pop\n    /* \"#utility.yul\":1651:1711   */\n  swap2\n  swap1\n  pop\n  jump\t// out\n    /* \"#utility.yul\":1717:1859   */\ntag_30:\n    /* \"#utility.yul\":1767:1776   */\n  0x00\n    /* \"#utility.yul\":1800:1853   */\n  tag_64\n    /* \"#utility.yul\":1818:1852   */\n  tag_65\n    /* \"#utility.yul\":1827:1851   */\n  tag_66\n    /* \"#utility.yul\":1845:1850   */\n  dup5\n    /* \"#utility.yul\":1827:1851   */\n  tag_28\n  jump\t// in\ntag_66:\n    /* \"#utility.yul\":1818:1852   */\n  tag_29\n  jump\t// in\ntag_65:\n    /* \"#utility.yul\":1800:1853   */\n  tag_28\n  jump\t// in\ntag_64:\n    /* \"#utility.yul\":1787:1853   */\n  swap1\n  pop\n    /* \"#utility.yul\":1717:1859   */\n  swap2\n  swap1\n  pop\n  jump\t// out\n    /* \"#utility.yul\":1865:1940   */\ntag_31:\n    /* \"#utility.yul\":1908:1911   */\n  0x00\n    /* \"#utility.yul\":1929:1934   */\n  dup2\n    /* \"#utility.yul\":1922:1934   */\n  swap1\n  pop\n    /* \"#utility.yul\":1865:1940   */\n  swap2\n  swap1\n  pop\n  jump\t// out\n    /* \"#utility.yul\":1946:2215   */\ntag_32:\n    /* \"#utility.yul\":2056:2095   */\n  tag_69\n    /* \"#utility.yul\":2087:2094   */\n  dup4\n    /* \"#utility.yul\":2056:2095   */\n  tag_30\n  jump\t// in\ntag_69:\n    /* \"#utility.yul\":2117:2208   */\n  tag_70\n    /* \"#utility.yul\":2166:2207   */\n  tag_71\n    /* \"#utility.yul\":2190:2206   */\n  dup3\n    /* \"#utility.yul\":2166:2207   */\n  tag_31\n  jump\t// in\ntag_71:\n    /* \"#utility.yul\":2158:2164   */\n  dup5\n    /* \"#utility.yul\":2151:2155   */\n  dup5\n    /* \"#utility.yul\":2145:2156   */\n  sload\n    /* \"#utility.yul\":2117:2208   */\n  tag_27\n  jump\t// in\ntag_70:\n    /* \"#utility.yul\":2111:2115   */\n  dup3\n    /* \"#utility.yul\":2104:2209   */\n  sstore\n    /* \"#utility.yul\":2022:2215   */\n  pop\n    /* \"#utility.yul\":1946:2215   */\n  pop\n  pop\n  pop\n  jump\t// out\n    /* \"#utility.yul\":2221:2294   */\ntag_33:\n    /* \"#utility.yul\":2266:2269   */\n  0x00\n    /* \"#utility.yul\":2221:2294   */\n  swap1\n  jump\t// out\n    /* \"#utility.yul\":2300:2489   */\ntag_34:\n    /* \"#utility.yul\":2377:2409   */\n  tag_74\n  tag_33\n  jump\t// in\ntag_74:\n    /* \"#utility.yul\":2418:2483   */\n  tag_75\n    /* \"#utility.yul\":2476:2482   */\n  dup2\n    /* \"#utility.yul\":2468:2474   */\n  dup5\n    /* \"#utility.yul\":2462:2466   */\n  dup5\n    /* \"#utility.yul\":2418:2483   */\n  tag_32\n  jump\t// in\ntag_75:\n    /* \"#utility.yul\":2353:2489   */\n  pop\n    /* \"#utility.yul\":2300:2489   */\n  pop\n  pop\n  jump\t// out\n    /* \"#utility.yul\":2495:2681   */\ntag_35:\n    /* \"#utility.yul\":2555:2675   */\ntag_77:\n    /* \"#utility.yul\":2572:2575   */\n  dup2\n    /* \"#utility.yul\":2565:2570   */\n  dup2\n    /* \"#utility.yul\":2562:2576   */\n  lt\n    /* \"#utility.yul\":2555:2675   */\n  iszero\n  tag_79\n  jumpi\n    /* \"#utility.yul\":2626:2665   */\n  tag_80\n    /* \"#utility.yul\":2663:2664   */\n  0x00\n    /* \"#utility.yul\":2656:2661   */\n  dup3\n    /* \"#utility.yul\":2626:2665   */\n  tag_34\n  jump\t// in\ntag_80:\n    /* \"#utility.yul\":2599:2600   */\n  0x01\n    /* \"#utility.yul\":2592:2597   */\n  dup2\n    /* \"#utility.yul\":2588:2601   */\n  add\n    /* \"#utility.yul\":2579:2601   */\n  swap1\n  pop\n    /* \"#utility.yul\":2555:2675   */\n  jump(tag_77)\ntag_79:\n    /* \"#utility.yul\":2495:2681   */\n  pop\n  pop\n  jump\t// out\n    /* \"#utility.yul\":2687:3230   */\ntag_36:\n    /* \"#utility.yul\":2788:2790   */\n  0x1f\n    /* \"#utility.yul\":2783:2786   */\n  dup3\n    /* \"#utility.yul\":2780:2791   */\n  gt\n    /* \"#utility.yul\":2777:3223   */\n  iszero\n  tag_82\n  jumpi\n    /* \"#utility.yul\":2822:2860   */\n  tag_83\n    /* \"#utility.yul\":2854:2859   */\n  dup2\n    /* \"#utility.yul\":2822:2860   */\n  tag_24\n  jump\t// in\ntag_83:\n    /* \"#utility.yul\":2906:2935   */\n  tag_84\n    /* \"#utility.yul\":2924:2934   */\n  dup5\n    /* \"#utility.yul\":2906:2935   */\n  tag_25\n  jump\t// in\ntag_84:\n    /* \"#utility.yul\":2896:2904   */\n  dup2\n    /* \"#utility.yul\":2892:2936   */\n  add\n    /* \"#utility.yul\":3089:3091   */\n  0x20\n    /* \"#utility.yul\":3077:3087   */\n  dup6\n    /* \"#utility.yul\":3074:3092   */\n  lt\n    /* \"#utility.yul\":3071:3120   */\n  iszero\n  tag_85\n  jumpi\n    /* \"#utility.yul\":3110:3118   */\n  dup2\n    /* \"#utility.yul\":3095:3118   */\n  swap1\n  pop\n    /* \"#utility.yul\":3071:3120   */\ntag_85:\n    /* \"#utility.yul\":3133:3213   */\n  tag_86\n    /* \"#utility.yul\":3189:3211   */\n  tag_87\n    /* \"#utility.yul\":3207:3210   */\n  dup6\n    /* \"#utility.yul\":3189:3211   */\n  tag_25\n  jump\t// in\ntag_87:\n    /* \"#utility.yul\":3179:3187   */\n  dup4\n    /* \"#utility.yul\":3175:3212   */\n  add\n    /* \"#utility.yul\":3162:3173   */\n  dup3\n    /* \"#utility.yul\":3133:3213   */\n  tag_35\n  jump\t// in\ntag_86:\n    /* \"#utility.yul\":2792:3223   */\n  pop\n  pop\n    /* \"#utility.yul\":2777:3223   */\ntag_82:\n    /* \"#utility.yul\":2687:3230   */\n  pop\n  pop\n  pop\n  jump\t// out\n    /* \"#utility.yul\":3236:3353   */\ntag_37:\n    /* \"#utility.yul\":3290:3298   */\n  0x00\n    /* \"#utility.yul\":3340:3345   */\n  dup3\n    /* \"#utility.yul\":3334:3338   */\n  dup3\n    /* \"#utility.yul\":3330:3346   */\n  shr\n    /* \"#utility.yul\":3309:3346   */\n  swap1\n  pop\n    /* \"#utility.yul\":3236:3353   */\n  swap3\n  swap2\n  pop\n  pop\n  jump\t// out\n    /* \"#utility.yul\":3359:3528   */\ntag_38:\n    /* \"#utility.yul\":3403:3409   */\n  0x00\n    /* \"#utility.yul\":3436:3487   */\n  tag_90\n    /* \"#utility.yul\":3484:3485   */\n  0x00\n    /* \"#utility.yul\":3480:3486   */\n  not\n    /* \"#utility.yul\":3472:3477   */\n  dup5\n    /* \"#utility.yul\":3469:3470   */\n  0x08\n    /* \"#utility.yul\":3465:3478   */\n  mul\n    /* \"#utility.yul\":3436:3487   */\n  tag_37\n  jump\t// in\ntag_90:\n    /* \"#utility.yul\":3432:3488   */\n  not\n    /* \"#utility.yul\":3517:3521   */\n  dup1\n    /* \"#utility.yul\":3511:3515   */\n  dup4\n    /* \"#utility.yul\":3507:3522   */\n  and\n    /* \"#utility.yul\":3497:3522   */\n  swap2\n  pop\n    /* \"#utility.yul\":3410:3528   */\n  pop\n    /* \"#utility.yul\":3359:3528   */\n  swap3\n  swap2\n  pop\n  pop\n  jump\t// out\n    /* \"#utility.yul\":3533:3828   */\ntag_39:\n    /* \"#utility.yul\":3609:3613   */\n  0x00\n    /* \"#utility.yul\":3755:3784   */\n  tag_92\n    /* \"#utility.yul\":3780:3783   */\n  dup4\n    /* \"#utility.yul\":3774:3778   */\n  dup4\n    /* \"#utility.yul\":3755:3784   */\n  tag_38\n  jump\t// in\ntag_92:\n    /* \"#utility.yul\":3747:3784   */\n  swap2\n  pop\n    /* \"#utility.yul\":3817:3820   */\n  dup3\n    /* \"#utility.yul\":3814:3815   */\n  0x02\n    /* \"#utility.yul\":3810:3821   */\n  mul\n    /* \"#utility.yul\":3804:3808   */\n  dup3\n    /* \"#utility.yul\":3801:3822   */\n  or\n    /* \"#utility.yul\":3793:3822   */\n  swap1\n  pop\n    /* \"#utility.yul\":3533:3828   */\n  swap3\n  swap2\n  pop\n  pop\n  jump\t// out\n    /* \"#utility.yul\":3833:5228   */\ntag_6:\n    /* \"#utility.yul\":3950:3987   */\n  tag_94\n    /* \"#utility.yul\":3983:3986   */\n  dup3\n    /* \"#utility.yul\":3950:3987   */\n  tag_20\n  jump\t// in\ntag_94:\n    /* \"#utility.yul\":4052:4070   */\n  0xffffffffffffffff\n    /* \"#utility.yul\":4044:4050   */\n  dup2\n    /* \"#utility.yul\":4041:4071   */\n  gt\n    /* \"#utility.yul\":4038:4094   */\n  iszero\n  tag_95\n  jumpi\n    /* \"#utility.yul\":4074:4092   */\n  tag_96\n  tag_21\n  jump\t// in\ntag_96:\n    /* \"#utility.yul\":4038:4094   */\ntag_95:\n    /* \"#utility.yul\":4118:4156   */\n  tag_97\n    /* \"#utility.yul\":4150:4154   */\n  dup3\n    /* \"#utility.yul\":4144:4155   */\n  sload\n    /* \"#utility.yul\":4118:4156   */\n  tag_23\n  jump\t// in\ntag_97:\n    /* \"#utility.yul\":4203:4270   */\n  tag_98\n    /* \"#utility.yul\":4263:4269   */\n  dup3\n    /* \"#utility.yul\":4255:4261   */\n  dup3\n    /* \"#utility.yul\":4249:4253   */\n  dup6\n    /* \"#utility.yul\":4203:4270   */\n  tag_36\n  jump\t// in\ntag_98:\n    /* \"#utility.yul\":4297:4298   */\n  0x00\n    /* \"#utility.yul\":4321:4325   */\n  0x20\n    /* \"#utility.yul\":4308:4325   */\n  swap1\n  pop\n    /* \"#utility.yul\":4353:4355   */\n  0x1f\n    /* \"#utility.yul\":4345:4351   */\n  dup4\n    /* \"#utility.yul\":4342:4356   */\n  gt\n    /* \"#utility.yul\":4370:4371   */\n  0x01\n    /* \"#utility.yul\":4365:4983   */\n  dup2\n  eq\n  tag_100\n  jumpi\n    /* \"#utility.yul\":5027:5028   */\n  0x00\n    /* \"#utility.yul\":5044:5050   */\n  dup5\n    /* \"#utility.yul\":5041:5118   */\n  iszero\n  tag_101\n  jumpi\n    /* \"#utility.yul\":5093:5102   */\n  dup3\n    /* \"#utility.yul\":5088:5091   */\n  dup8\n    /* \"#utility.yul\":5084:5103   */\n  add\n    /* \"#utility.yul\":5078:5104   */\n  mload\n    /* \"#utility.yul\":5069:5104   */\n  swap1\n  pop\n    /* \"#utility.yul\":5041:5118   */\ntag_101:\n    /* \"#utility.yul\":5144:5211   */\n  tag_102\n    /* \"#utility.yul\":5204:5210   */\n  dup6\n    /* \"#utility.yul\":5197:5202   */\n  dup3\n    /* \"#utility.yul\":5144:5211   */\n  tag_39\n  jump\t// in\ntag_102:\n    /* \"#utility.yul\":5138:5142   */\n  dup7\n    /* \"#utility.yul\":5131:5212   */\n  sstore\n    /* \"#utility.yul\":5000:5222   */\n  pop\n    /* \"#utility.yul\":4335:5222   */\n  jump(tag_99)\n    /* \"#utility.yul\":4365:4983   */\ntag_100:\n    /* \"#utility.yul\":4417:4421   */\n  0x1f\n    /* \"#utility.yul\":4413:4422   */\n  not\n    /* \"#utility.yul\":4405:4411   */\n  dup5\n    /* \"#utility.yul\":4401:4423   */\n  and\n    /* \"#utility.yul\":4451:4488   */\n  tag_103\n    /* \"#utility.yul\":4483:4487   */\n  dup7\n    /* \"#utility.yul\":4451:4488   */\n  tag_24\n  jump\t// in\ntag_103:\n    /* \"#utility.yul\":4510:4511   */\n  0x00\n    /* \"#utility.yul\":4524:4732   */\ntag_104:\n    /* \"#utility.yul\":4538:4545   */\n  dup3\n    /* \"#utility.yul\":4535:4536   */\n  dup2\n    /* \"#utility.yul\":4532:4546   */\n  lt\n    /* \"#utility.yul\":4524:4732   */\n  iszero\n  tag_106\n  jumpi\n    /* \"#utility.yul\":4617:4626   */\n  dup5\n    /* \"#utility.yul\":4612:4615   */\n  dup10\n    /* \"#utility.yul\":4608:4627   */\n  add\n    /* \"#utility.yul\":4602:4628   */\n  mload\n    /* \"#utility.yul\":4594:4600   */\n  dup3\n    /* \"#utility.yul\":4587:4629   */\n  sstore\n    /* \"#utility.yul\":4668:4669   */\n  0x01\n    /* \"#utility.yul\":4660:4666   */\n  dup3\n    /* \"#utility.yul\":4656:4670   */\n  add\n    /* \"#utility.yul\":4646:4670   */\n  swap2\n  pop\n    /* \"#utility.yul\":4715:4717   */\n  0x20\n    /* \"#utility.yul\":4704:4713   */\n  dup6\n    /* \"#utility.yul\":4700:4718   */\n  add\n    /* \"#utility.yul\":4687:4718   */\n  swap5\n  pop\n    /* \"#utility.yul\":4561:4565   */\n  0x20\n    /* \"#utility.yul\":4558:4559   */\n  dup2\n    /* \"#utility.yul\":4554:4566   */\n  add\n    /* \"#utility.yul\":4549:4566   */\n  swap1\n  pop\n    /* \"#utility.yul\":4524:4732   */\n  jump(tag_104)\ntag_106:\n    /* \"#utility.yul\":4760:4766   */\n  dup7\n    /* \"#utility.yul\":4751:4758   */\n  dup4\n    /* \"#utility.yul\":4748:4767   */\n  lt\n    /* \"#utility.yul\":4745:4924   */\n  iszero\n  tag_107\n  jumpi\n    /* \"#utility.yul\":4818:4827   */\n  dup5\n    /* \"#utility.yul\":4813:4816   */\n  dup10\n    /* \"#utility.yul\":4809:4828   */\n  add\n    /* \"#utility.yul\":4803:4829   */\n  mload\n    /* \"#utility.yul\":4861:4909   */\n  tag_108\n    /* \"#utility.yul\":4903:4907   */\n  0x1f\n    /* \"#utility.yul\":4895:4901   */\n  dup10\n    /* \"#utility.yul\":4891:4908   */\n  and\n    /* \"#utility.yul\":4880:4889   */\n  dup3\n    /* \"#utility.yul\":4861:4909   */\n  tag_38\n  jump\t// in\ntag_108:\n    /* \"#utility.yul\":4853:4859   */\n  dup4\n    /* \"#utility.yul\":4846:4910   */\n  sstore\n    /* \"#utility.yul\":4768:4924   */\n  pop\n    /* \"#utility.yul\":4745:4924   */\ntag_107:\n    /* \"#utility.yul\":4970:4971   */\n  0x01\n    /* \"#utility.yul\":4966:4967   */\n  0x02\n    /* \"#utility.yul\":4958:4964   */\n  dup9\n    /* \"#utility.yul\":4954:4968   */\n  mul\n    /* \"#utility.yul\":4950:4972   */\n  add\n    /* \"#utility.yul\":4944:4948   */\n  dup9\n    /* \"#utility.yul\":4937:4973   */\n  sstore\n    /* \"#utility.yul\":4372:4983   */\n  pop\n  pop\n  pop\n    /* \"#utility.yul\":4335:5222   */\ntag_99:\n  pop\n    /* \"#utility.yul\":3925:5228   */\n  pop\n  pop\n  pop\n    /* \"#utility.yul\":3833:5228   */\n  pop\n  pop\n  jump\t// out\n    /* \"#utility.yul\":5234:5414   */\ntag_40:\n    /* \"#utility.yul\":5282:5359   */\n  0x4e487b7100000000000000000000000000000000000000000000000000000000\n    /* \"#utility.yul\":5279:5280   */\n  0x00\n    /* \"#utility.yul\":5272:5360   */\n  mstore\n    /* \"#utility.yul\":5379:5383   */\n  0x11\n    /* \"#utility.yul\":5376:5377   */\n  0x04\n    /* \"#utility.yul\":5369:5384   */\n  mstore\n    /* \"#utility.yul\":5403:5407   */\n  0x24\n    /* \"#utility.yul\":5400:5401   */\n  0x00\n    /* \"#utility.yul\":5393:5408   */\n  revert\n    /* \"#utility.yul\":5420:5522   */\ntag_41:\n    /* \"#utility.yul\":5462:5470   */\n  0x00\n    /* \"#utility.yul\":5509:5514   */\n  dup2\n    /* \"#utility.yul\":5506:5507   */\n  0x01\n    /* \"#utility.yul\":5502:5515   */\n  shr\n    /* \"#utility.yul\":5481:5515   */\n  swap1\n  pop\n    /* \"#utility.yul\":5420:5522   */\n  swap2\n  swap1\n  pop\n  jump\t// out\n    /* \"#utility.yul\":5528:6376   */\ntag_42:\n    /* \"#utility.yul\":5589:5594   */\n  0x00\n    /* \"#utility.yul\":5596:5600   */\n  dup1\n    /* \"#utility.yul\":5620:5626   */\n  dup3\n    /* \"#utility.yul\":5611:5626   */\n  swap2\n  pop\n    /* \"#utility.yul\":5644:5649   */\n  dup4\n    /* \"#utility.yul\":5635:5649   */\n  swap1\n  pop\n    /* \"#utility.yul\":5658:6370   */\ntag_112:\n    /* \"#utility.yul\":5679:5680   */\n  0x01\n    /* \"#utility.yul\":5669:5677   */\n  dup6\n    /* \"#utility.yul\":5666:5681   */\n  gt\n    /* \"#utility.yul\":5658:6370   */\n  iszero\n  tag_114\n  jumpi\n    /* \"#utility.yul\":5774:5778   */\n  dup1\n    /* \"#utility.yul\":5769:5772   */\n  dup7\n    /* \"#utility.yul\":5765:5779   */\n  div\n    /* \"#utility.yul\":5759:5763   */\n  dup2\n    /* \"#utility.yul\":5756:5780   */\n  gt\n    /* \"#utility.yul\":5753:5803   */\n  iszero\n  tag_115\n  jumpi\n    /* \"#utility.yul\":5783:5801   */\n  tag_116\n  tag_40\n  jump\t// in\ntag_116:\n    /* \"#utility.yul\":5753:5803   */\ntag_115:\n    /* \"#utility.yul\":5833:5834   */\n  0x01\n    /* \"#utility.yul\":5823:5831   */\n  dup6\n    /* \"#utility.yul\":5819:5835   */\n  and\n    /* \"#utility.yul\":5816:6267   */\n  iszero\n  tag_117\n  jumpi\n    /* \"#utility.yul\":6248:6252   */\n  dup1\n    /* \"#utility.yul\":6241:6246   */\n  dup3\n    /* \"#utility.yul\":6237:6253   */\n  mul\n    /* \"#utility.yul\":6228:6253   */\n  swap2\n  pop\n    /* \"#utility.yul\":5816:6267   */\ntag_117:\n    /* \"#utility.yul\":6298:6302   */\n  dup1\n    /* \"#utility.yul\":6292:6296   */\n  dup2\n    /* \"#utility.yul\":6288:6303   */\n  mul\n    /* \"#utility.yul\":6280:6303   */\n  swap1\n  pop\n    /* \"#utility.yul\":6328:6360   */\n  tag_118\n    /* \"#utility.yul\":6351:6359   */\n  dup6\n    /* \"#utility.yul\":6328:6360   */\n  tag_41\n  jump\t// in\ntag_118:\n    /* \"#utility.yul\":6316:6360   */\n  swap5\n  pop\n    /* \"#utility.yul\":5658:6370   */\n  jump(tag_112)\ntag_114:\n    /* \"#utility.yul\":5528:6376   */\n  swap5\n  pop\n  swap5\n  swap3\n  pop\n  pop\n  pop\n  jump\t// out\n    /* \"#utility.yul\":6382:7455   */\ntag_43:\n    /* \"#utility.yul\":6436:6441   */\n  0x00\n    /* \"#utility.yul\":6627:6635   */\n  dup3\n    /* \"#utility.yul\":6617:6657   */\n  tag_120\n  jumpi\n    /* \"#utility.yul\":6648:6649   */\n  0x01\n    /* \"#utility.yul\":6639:6649   */\n  swap1\n  pop\n    /* \"#utility.yul\":6650:6655   */\n  jump(tag_119)\n    /* \"#utility.yul\":6617:6657   */\ntag_120:\n    /* \"#utility.yul\":6676:6680   */\n  dup2\n    /* \"#utility.yul\":6666:6702   */\n  tag_121\n  jumpi\n    /* \"#utility.yul\":6693:6694   */\n  0x00\n    /* \"#utility.yul\":6684:6694   */\n  swap1\n  pop\n    /* \"#utility.yul\":6695:6700   */\n  jump(tag_119)\n    /* \"#utility.yul\":6666:6702   */\ntag_121:\n    /* \"#utility.yul\":6762:6766   */\n  dup2\n    /* \"#utility.yul\":6810:6811   */\n  0x01\n    /* \"#utility.yul\":6805:6832   */\n  dup2\n  eq\n  tag_123\n  jumpi\n    /* \"#utility.yul\":6846:6847   */\n  0x02\n    /* \"#utility.yul\":6841:7032   */\n  dup2\n  eq\n  tag_124\n  jumpi\n    /* \"#utility.yul\":6755:7032   */\n  jump(tag_122)\n    /* \"#utility.yul\":6805:6832   */\ntag_123:\n    /* \"#utility.yul\":6823:6824   */\n  0x01\n    /* \"#utility.yul\":6814:6824   */\n  swap2\n  pop\n    /* \"#utility.yul\":6825:6830   */\n  pop\n  jump(tag_119)\n    /* \"#utility.yul\":6841:7032   */\ntag_124:\n    /* \"#utility.yul\":6886:6889   */\n  0xff\n    /* \"#utility.yul\":6876:6884   */\n  dup5\n    /* \"#utility.yul\":6873:6890   */\n  gt\n    /* \"#utility.yul\":6870:6913   */\n  iszero\n  tag_125\n  jumpi\n    /* \"#utility.yul\":6893:6911   */\n  tag_126\n  tag_40\n  jump\t// in\ntag_126:\n    /* \"#utility.yul\":6870:6913   */\ntag_125:\n    /* \"#utility.yul\":6942:6950   */\n  dup4\n    /* \"#utility.yul\":6939:6940   */\n  0x02\n    /* \"#utility.yul\":6935:6951   */\n  exp\n    /* \"#utility.yul\":6926:6951   */\n  swap2\n  pop\n    /* \"#utility.yul\":6977:6980   */\n  dup5\n    /* \"#utility.yul\":6970:6975   */\n  dup3\n    /* \"#utility.yul\":6967:6981   */\n  gt\n    /* \"#utility.yul\":6964:7004   */\n  iszero\n  tag_127\n  jumpi\n    /* \"#utility.yul\":6984:7002   */\n  tag_128\n  tag_40\n  jump\t// in\ntag_128:\n    /* \"#utility.yul\":6964:7004   */\ntag_127:\n    /* \"#utility.yul\":7017:7022   */\n  pop\n  jump(tag_119)\n    /* \"#utility.yul\":6755:7032   */\ntag_122:\n  pop\n    /* \"#utility.yul\":7141:7143   */\n  0x20\n    /* \"#utility.yul\":7131:7139   */\n  dup4\n    /* \"#utility.yul\":7128:7144   */\n  lt\n    /* \"#utility.yul\":7122:7125   */\n  0x0133\n    /* \"#utility.yul\":7116:7120   */\n  dup4\n    /* \"#utility.yul\":7113:7126   */\n  lt\n    /* \"#utility.yul\":7109:7145   */\n  and\n    /* \"#utility.yul\":7091:7093   */\n  0x4e\n    /* \"#utility.yul\":7081:7089   */\n  dup5\n    /* \"#utility.yul\":7078:7094   */\n  lt\n    /* \"#utility.yul\":7073:7075   */\n  0x0b\n    /* \"#utility.yul\":7067:7071   */\n  dup5\n    /* \"#utility.yul\":7064:7076   */\n  lt\n    /* \"#utility.yul\":7060:7095   */\n  and\n    /* \"#utility.yul\":7044:7155   */\n  or\n    /* \"#utility.yul\":7041:7287   */\n  iszero\n  tag_129\n  jumpi\n    /* \"#utility.yul\":7197:7205   */\n  dup3\n    /* \"#utility.yul\":7191:7195   */\n  dup3\n    /* \"#utility.yul\":7187:7206   */\n  exp\n    /* \"#utility.yul\":7178:7206   */\n  swap1\n  pop\n    /* \"#utility.yul\":7232:7235   */\n  dup4\n    /* \"#utility.yul\":7225:7230   */\n  dup2\n    /* \"#utility.yul\":7222:7236   */\n  gt\n    /* \"#utility.yul\":7219:7259   */\n  iszero\n  tag_130\n  jumpi\n    /* \"#utility.yul\":7239:7257   */\n  tag_131\n  tag_40\n  jump\t// in\ntag_131:\n    /* \"#utility.yul\":7219:7259   */\ntag_130:\n    /* \"#utility.yul\":7272:7277   */\n  jump(tag_119)\n    /* \"#utility.yul\":7041:7287   */\ntag_129:\n    /* \"#utility.yul\":7312:7354   */\n  tag_132\n    /* \"#utility.yul\":7350:7353   */\n  dup5\n    /* \"#utility.yul\":7340:7348   */\n  dup5\n    /* \"#utility.yul\":7334:7338   */\n  dup5\n    /* \"#utility.yul\":7331:7332   */\n  0x01\n    /* \"#utility.yul\":7312:7354   */\n  tag_42\n  jump\t// in\ntag_132:\n    /* \"#utility.yul\":7297:7354   */\n  swap3\n  pop\n  swap1\n  pop\n    /* \"#utility.yul\":7386:7390   */\n  dup2\n    /* \"#utility.yul\":7381:7384   */\n  dup5\n    /* \"#utility.yul\":7377:7391   */\n  div\n    /* \"#utility.yul\":7370:7375   */\n  dup2\n    /* \"#utility.yul\":7367:7392   */\n  gt\n    /* \"#utility.yul\":7364:7415   */\n  iszero\n  tag_133\n  jumpi\n    /* \"#utility.yul\":7395:7413   */\n  tag_134\n  tag_40\n  jump\t// in\ntag_134:\n    /* \"#utility.yul\":7364:7415   */\ntag_133:\n    /* \"#utility.yul\":7444:7448   */\n  dup2\n    /* \"#utility.yul\":7437:7442   */\n  dup2\n    /* \"#utility.yul\":7433:7449   */\n  mul\n    /* \"#utility.yul\":7424:7449   */\n  swap1\n  pop\n    /* \"#utility.yul\":6382:7455   */\ntag_119:\n  swap4\n  swap3\n  pop\n  pop\n  pop\n  jump\t// out\n    /* \"#utility.yul\":7461:7746   */\ntag_11:\n    /* \"#utility.yul\":7521:7526   */\n  0x00\n    /* \"#utility.yul\":7545:7568   */\n  tag_136\n    /* \"#utility.yul\":7563:7567   */\n  dup3\n    /* \"#utility.yul\":7545:7568   */\n  tag_28\n  jump\t// in\ntag_136:\n    /* \"#utility.yul\":7537:7568   */\n  swap2\n  pop\n    /* \"#utility.yul\":7589:7616   */\n  tag_137\n    /* \"#utility.yul\":7607:7615   */\n  dup4\n    /* \"#utility.yul\":7589:7616   */\n  tag_28\n  jump\t// in\ntag_137:\n    /* \"#utility.yul\":7577:7616   */\n  swap3\n  pop\n    /* \"#utility.yul\":7635:7739   */\n  tag_138\n    /* \"#utility.yul\":7672:7738   */\n  0xffffffffffffffffffffffffffffffffffffffffffffffffffffffffffffffff\n    /* \"#utility.yul\":7662:7670   */\n  dup5\n    /* \"#utility.yul\":7656:7660   */\n  dup5\n    /* \"#utility.yul\":7635:7739   */\n  tag_43\n  jump\t// in\ntag_138:\n    /* \"#utility.yul\":7626:7739   */\n  swap1\n  pop\n    /* \"#utility.yul\":7461:7746   */\n  swap3\n  swap2\n  pop\n  pop\n  jump\t// out\n    /* \"#utility.yul\":7752:8100   */\ntag_13:\n    /* \"#utility.yul\":7792:7799   */\n  0x00\n    /* \"#utility.yul\":7815:7835   */\n  tag_140\n    /* \"#utility.yul\":7833:7834   */\n  dup3\n    /* \"#utility.yul\":7815:7835   */\n  tag_28\n  jump\t// in\ntag_140:\n    /* \"#utility.yul\":7810:7835   */\n  swap2\n  pop\n    /* \"#utility.yul\":7849:7869   */\n  tag_141\n    /* \"#utility.yul\":7867:7868   */\n  dup4\n    /* \"#utility.yul\":7849:7869   */\n  tag_28\n  jump\t// in\ntag_141:\n    /* \"#utility.yul\":7844:7869   */\n  swap3\n  pop\n    /* \"#utility.yul\":8037:8038   */\n  dup2\n    /* \"#utility.yul\":7969:8035   */\n  0xffffffffffffffffffffffffffffffffffffffffffffffffffffffffffffffff\n    /* \"#utility.yul\":7965:8039   */\n  div\n    /* \"#utility.yul\":7962:7963   */\n  dup4\n    /* \"#utility.yul\":7959:8040   */\n  gt\n    /* \"#utility.yul\":7954:7955   */\n  dup3\n    /* \"#utility.yul\":7947:7956   */\n  iszero\n    /* \"#utility.yul\":7940:7957   */\n  iszero\n    /* \"#utility.yul\":7936:8041   */\n  and\n    /* \"#utility.yul\":7933:8064   */\n  iszero\n  tag_142\n  jumpi\n    /* \"#utility.yul\":8044:8062   */\n  tag_143\n  tag_40\n  jump\t// in\ntag_143:\n    /* \"#utility.yul\":7933:8064   */\ntag_142:\n    /* \"#utility.yul\":8092:8093   */\n  dup3\n    /* \"#utility.yul\":8089:8090   */\n  dup3\n    /* \"#utility.yul\":8085:8094   */\n  mul\n    /* \"#utility.yul\":8074:8094   */\n  swap1\n  pop\n    /* \"#utility.yul\":7752:8100   */\n  swap3\n  swap2\n  pop\n  pop\n  jump\t// out\n    /* \"#utility.yul\":8106:8275   */\ntag_44:\n    /* \"#utility.yul\":8190:8201   */\n  0x00\n    /* \"#utility.yul\":8224:8230   */\n  dup3\n    /* \"#utility.yul\":8219:8222   */\n  dup3\n    /* \"#utility.yul\":8212:8231   */\n  mstore\n    /* \"#utility.yul\":8264:8268   */\n  0x20\n    /* \"#utility.yul\":8259:8262   */\n  dup3\n    /* \"#utility.yul\":8255:8269   */\n  add\n    /* \"#utility.yul\":8240:8269   */\n  swap1\n  pop\n    /* \"#utility.yul\":8106:8275   */\n  swap3\n  swap2\n  pop\n  pop\n  jump\t// out\n    /* \"#utility.yul\":8281:8462   */\ntag_45:\n    /* \"#utility.yul\":8421:8454   */\n  0x45524332303a206d696e7420746f20746865207a65726f206164647265737300\n    /* \"#utility.yul\":8417:8418   */\n  0x00\n    /* \"#utility.yul\":8409:8415   */\n  dup3\n    /* \"#utility.yul\":8405:8419   */\n  add\n    /* \"#utility.yul\":8398:8455   */\n  mstore\n    /* \"#utility.yul\":8281:8462   */\n  pop\n  jump\t// out\n    /* \"#utility.yul\":8468:8834   */\ntag_46:\n    /* \"#utility.yul\":8610:8613   */\n  0x00\n    /* \"#utility.yul\":8631:8698   */\n  tag_147\n    /* \"#utility.yul\":8695:8697   */\n  0x1f\n    /* \"#utility.yul\":8690:8693   */\n  dup4\n    /* \"#utility.yul\":8631:8698   */\n  tag_44\n  jump\t// in\ntag_147:\n    /* \"#utility.yul\":8624:8698   */\n  swap2\n  pop\n    /* \"#utility.yul\":8707:8800   */\n  tag_148\n    /* \"#utility.yul\":8796:8799   */\n  dup3\n    /* \"#utility.yul\":8707:8800   */\n  tag_45\n  jump\t// in\ntag_148:\n    /* \"#utility.yul\":8825:8827   */\n  0x20\n    /* \"#utility.yul\":8820:8823   */\n  dup3\n    /* \"#utility.yul\":8816:8828   */\n  add\n    /* \"#utility.yul\":8809:8828   */\n  swap1\n  pop\n    /* \"#utility.yul\":8468:8834   */\n  swap2\n  swap1\n  pop\n  jump\t// out\n    /* \"#utility.yul\":8840:9259   */\ntag_19:\n    /* \"#utility.yul\":9006:9010   */\n  0x00\n    /* \"#utility.yul\":9044:9046   */\n  0x20\n    /* \"#utility.yul\":9033:9042   */\n  dup3\n    /* \"#utility.yul\":9029:9047   */\n  add\n    /* \"#utility.yul\":9021:9047   */\n  swap1\n  pop\n    /* \"#utility.yul\":9093:9102   */\n  dup2\n    /* \"#utility.yul\":9087:9091   */\n  dup2\n    /* \"#utility.yul\":9083:9103   */\n  sub\n    /* \"#utility.yul\":9079:9080   */\n  0x00\n    /* \"#utility.yul\":9068:9077   */\n  dup4\n    /* \"#utility.yul\":9064:9081   */\n  add\n    /* \"#utility.yul\":9057:9104   */\n  mstore\n    /* \"#utility.yul\":9121:9252   */\n  tag_150\n    /* \"#utility.yul\":9247:9251   */\n  dup2\n    /* \"#utility.yul\":9121:9252   */\n  tag_46\n  jump\t// in\ntag_150:\n    /* \"#utility.yul\":9113:9252   */\n  swap1\n  pop\n    /* \"#utility.yul\":8840:9259   */\n  swap2\n  swap1\n  pop\n  jump\t// out\n    /* \"tests/BeforeTokenDemo.sol\":127:512  contract BeforeTokenDemo is ERC20DetailedDemo {... */\ntag_15:\n  dataSize(sub_0)\n  dup1\n  dataOffset(sub_0)\n  0x00\n  codecopy\n  0x00\n  return\nstop\n\nsub_0: assembly {\n        /* \"tests/BeforeTokenDemo.sol\":127:512  contract BeforeTokenDemo is ERC20DetailedDemo {... */\n      mstore(0x40, 0x80)\n      callvalue\n      dup1\n      iszero\n      tag_1\n      jumpi\n      0x00\n      dup1\n      revert\n    tag_1:\n      pop\n      jumpi(tag_2, lt(calldatasize, 0x04))\n      shr(0xe0, calldataload(0x00))\n      dup1\n      0x2e0f2625\n      eq\n      tag_3\n      jumpi\n      dup1\n      0x2ff2e9dc\n      eq\n      tag_4\n      jumpi\n    tag_2:\n      0x00\n      dup1\n      revert\n        /* \"tests/BeforeTokenDemo.sol\":180:215  uint8 public constant DECIMALS = 18 */\n    tag_3:\n      tag_5\n      tag_6\n      jump\t// in\n    tag_5:\n      mload(0x40)\n      tag_7\n      swap2\n      swap1\n      tag_8\n      jump\t// in\n    tag_7:\n      mload(0x40)\n      dup1\n      swap2\n      sub\n      swap1\n      return\n        /* \"tests/BeforeTokenDemo.sol\":221:295  uint256 public constant INITIAL_SUPPLY = 10000 * (10 ** uint256(DECIMALS)) */\n    tag_4:\n      tag_9\n      tag_10\n      jump\t// in\n    tag_9:\n      mload(0x40)\n      tag_11\n      swap2\n      swap1\n      tag_12\n      jump\t// in\n    tag_11:\n      mload(0x40)\n      dup1\n      swap2\n      sub\n      swap1\n      return\n        /* \"tests/BeforeTokenDemo.sol\":180:215  uint8 public constant DECIMALS = 18 */\n    tag_6:\n        /* \"tests/BeforeTokenDemo.sol\":213:215  18 */\n      0x12\n        /* \"tests/BeforeTokenDemo.sol\":180:215  uint8 public constant DECIMALS = 18 */\n      dup2\n      jump\t// out\n        /* \"tests/BeforeTokenDemo.sol\":221:295  uint256 public constant INITIAL_SUPPLY = 10000 * (10 ** uint256(DECIMALS)) */\n    tag_10:\n        /* \"tests/BeforeTokenDemo.sol\":213:215  18 */\n      0x12\n        /* \"tests/BeforeTokenDemo.sol\":277:294  uint256(DECIMALS) */\n      0xff\n      and\n        /* \"tests/BeforeTokenDemo.sol\":271:273  10 */\n      0x0a\n        /* \"tests/BeforeTokenDemo.sol\":271:294  10 ** uint256(DECIMALS) */\n      tag_13\n      swap2\n      swap1\n      tag_14\n      jump\t// in\n    tag_13:\n        /* \"tests/BeforeTokenDemo.sol\":262:267  10000 */\n      0x2710\n        /* \"tests/BeforeTokenDemo.sol\":262:295  10000 * (10 ** uint256(DECIMALS)) */\n      tag_15\n      swap2\n      swap1\n      tag_16\n      jump\t// in\n    tag_15:\n        /* \"tests/BeforeTokenDemo.sol\":221:295  uint256 public constant INITIAL_SUPPLY = 10000 * (10 ** uint256(DECIMALS)) */\n      dup2\n      jump\t// out\n        /* \"#utility.yul\":7:93   */\n    tag_17:\n        /* \"#utility.yul\":42:49   */\n      0x00\n        /* \"#utility.yul\":82:86   */\n      0xff\n        /* \"#utility.yul\":75:80   */\n      dup3\n        /* \"#utility.yul\":71:87   */\n      and\n        /* \"#utility.yul\":60:87   */\n      swap1\n      pop\n        /* \"#utility.yul\":7:93   */\n      swap2\n      swap1\n      pop\n      jump\t// out\n        /* \"#utility.yul\":99:211   */\n    tag_18:\n        /* \"#utility.yul\":182:204   */\n      tag_28\n        /* \"#utility.yul\":198:203   */\n      dup2\n        /* \"#utility.yul\":182:204   */\n      tag_17\n      jump\t// in\n    tag_28:\n        /* \"#utility.yul\":177:180   */\n      dup3\n        /* \"#utility.yul\":170:205   */\n      mstore\n        /* \"#utility.yul\":99:211   */\n      pop\n      pop\n      jump\t// out\n        /* \"#utility.yul\":217:431   */\n    tag_8:\n        /* \"#utility.yul\":306:310   */\n      0x00\n        /* \"#utility.yul\":344:346   */\n      0x20\n        /* \"#utility.yul\":333:342   */\n      dup3\n        /* \"#utility.yul\":329:347   */\n      add\n        /* \"#utility.yul\":321:347   */\n      swap1\n      pop\n        /* \"#utility.yul\":357:424   */\n      tag_30\n        /* \"#utility.yul\":421:422   */\n      0x00\n        /* \"#utility.yul\":410:419   */\n      dup4\n        /* \"#utility.yul\":406:423   */\n      add\n        /* \"#utility.yul\":397:403   */\n      dup5\n        /* \"#utility.yul\":357:424   */\n      tag_18\n      jump\t// in\n    tag_30:\n        /* \"#utility.yul\":217:431   */\n      swap3\n      swap2\n      pop\n      pop\n      jump\t// out\n        /* \"#utility.yul\":437:514   */\n    tag_19:\n        /* \"#utility.yul\":474:481   */\n      0x00\n        /* \"#utility.yul\":503:508   */\n      dup2\n        /* \"#utility.yul\":492:508   */\n      swap1\n      pop\n        /* \"#utility.yul\":437:514   */\n      swap2\n      swap1\n      pop\n      jump\t// out\n        /* \"#utility.yul\":520:638   */\n    tag_20:\n        /* \"#utility.yul\":607:631   */\n      tag_33\n        /* \"#utility.yul\":625:630   */\n      dup2\n        /* \"#utility.yul\":607:631   */\n      tag_19\n      jump\t// in\n    tag_33:\n        /* \"#utility.yul\":602:605   */\n      dup3\n        /* \"#utility.yul\":595:632   */\n      mstore\n        /* \"#utility.yul\":520:638   */\n      pop\n      pop\n      jump\t// out\n        /* \"#utility.yul\":644:866   */\n    tag_12:\n        /* \"#utility.yul\":737:741   */\n      0x00\n        /* \"#utility.yul\":775:777   */\n      0x20\n        /* \"#utility.yul\":764:773   */\n      dup3\n        /* \"#utility.yul\":760:778   */\n      add\n        /* \"#utility.yul\":752:778   */\n      swap1\n      pop\n        /* \"#utility.yul\":788:859   */\n      tag_35\n        /* \"#utility.yul\":856:857   */\n      0x00\n        /* \"#utility.yul\":845:854   */\n      dup4\n        /* \"#utility.yul\":841:858   */\n      add\n        /* \"#utility.yul\":832:838   */\n      dup5\n        /* \"#utility.yul\":788:859   */\n      tag_20\n      jump\t// in\n    tag_35:\n        /* \"#utility.yul\":644:866   */\n      swap3\n      swap2\n      pop\n      pop\n      jump\t// out\n        /* \"#utility.yul\":872:1052   */\n    tag_21:\n        /* \"#utility.yul\":920:997   */\n      0x4e487b7100000000000000000000000000000000000000000000000000000000\n        /* \"#utility.yul\":917:918   */\n      0x00\n        /* \"#utility.yul\":910:998   */\n      mstore\n        /* \"#utility.yul\":1017:1021   */\n      0x11\n        /* \"#utility.yul\":1014:1015   */\n      0x04\n        /* \"#utility.yul\":1007:1022   */\n      mstore\n        /* \"#utility.yul\":1041:1045   */\n      0x24\n        /* \"#utility.yul\":1038:1039   */\n      0x00\n        /* \"#utility.yul\":1031:1046   */\n      revert\n        /* \"#utility.yul\":1058:1160   */\n    tag_22:\n        /* \"#utility.yul\":1100:1108   */\n      0x00\n        /* \"#utility.yul\":1147:1152   */\n      dup2\n        /* \"#utility.yul\":1144:1145   */\n      0x01\n        /* \"#utility.yul\":1140:1153   */\n      shr\n        /* \"#utility.yul\":1119:1153   */\n      swap1\n      pop\n        /* \"#utility.yul\":1058:1160   */\n      swap2\n      swap1\n      pop\n      jump\t// out\n        /* \"#utility.yul\":1166:2014   */\n    tag_23:\n        /* \"#utility.yul\":1227:1232   */\n      0x00\n        /* \"#utility.yul\":1234:1238   */\n      dup1\n        /* \"#utility.yul\":1258:1264   */\n      dup3\n        /* \"#utility.yul\":1249:1264   */\n      swap2\n      pop\n        /* \"#utility.yul\":1282:1287   */\n      dup4\n        /* \"#utility.yul\":1273:1287   */\n      swap1\n      pop\n        /* \"#utility.yul\":1296:2008   */\n    tag_39:\n        /* \"#utility.yul\":1317:1318   */\n      0x01\n        /* \"#utility.yul\":1307:1315   */\n      dup6\n        /* \"#utility.yul\":1304:1319   */\n      gt\n        /* \"#utility.yul\":1296:2008   */\n      iszero\n      tag_41\n      jumpi\n        /* \"#utility.yul\":1412:1416   */\n      dup1\n        /* \"#utility.yul\":1407:1410   */\n      dup7\n        /* \"#utility.yul\":1403:1417   */\n      div\n        /* \"#utility.yul\":1397:1401   */\n      dup2\n        /* \"#utility.yul\":1394:1418   */\n      gt\n        /* \"#utility.yul\":1391:1441   */\n      iszero\n      tag_42\n      jumpi\n        /* \"#utility.yul\":1421:1439   */\n      tag_43\n      tag_21\n      jump\t// in\n    tag_43:\n        /* \"#utility.yul\":1391:1441   */\n    tag_42:\n        /* \"#utility.yul\":1471:1472   */\n      0x01\n        /* \"#utility.yul\":1461:1469   */\n      dup6\n        /* \"#utility.yul\":1457:1473   */\n      and\n        /* \"#utility.yul\":1454:1905   */\n      iszero\n      tag_44\n      jumpi\n        /* \"#utility.yul\":1886:1890   */\n      dup1\n        /* \"#utility.yul\":1879:1884   */\n      dup3\n        /* \"#utility.yul\":1875:1891   */\n      mul\n        /* \"#utility.yul\":1866:1891   */\n      swap2\n      pop\n        /* \"#utility.yul\":1454:1905   */\n    tag_44:\n        /* \"#utility.yul\":1936:1940   */\n      dup1\n        /* \"#utility.yul\":1930:1934   */\n      dup2\n        /* \"#utility.yul\":1926:1941   */\n      mul\n        /* \"#utility.yul\":1918:1941   */\n      swap1\n      pop\n        /* \"#utility.yul\":1966:1998   */\n      tag_45\n        /* \"#utility.yul\":1989:1997   */\n      dup6\n        /* \"#utility.yul\":1966:1998   */\n      tag_22\n      jump\t// in\n    tag_45:\n        /* \"#utility.yul\":1954:1998   */\n      swap5\n      pop\n        /* \"#utility.yul\":1296:2008   */\n      jump(tag_39)\n    tag_41:\n        /* \"#utility.yul\":1166:2014   */\n      swap5\n      pop\n      swap5\n      swap3\n      pop\n      pop\n      pop\n      jump\t// out\n        /* \"#utility.yul\":2020:3093   */\n    tag_24:\n        /* \"#utility.yul\":2074:2079   */\n      0x00\n        /* \"#utility.yul\":2265:2273   */\n      dup3\n        /* \"#utility.yul\":2255:2295   */\n      tag_47\n      jumpi\n        /* \"#utility.yul\":2286:2287   */\n      0x01\n        /* \"#utility.yul\":2277:2287   */\n      swap1\n      pop\n        /* \"#utility.yul\":2288:2293   */\n      jump(tag_46)\n        /* \"#utility.yul\":2255:2295   */\n    tag_47:\n        /* \"#utility.yul\":2314:2318   */\n      dup2\n        /* \"#utility.yul\":2304:2340   */\n      tag_48\n      jumpi\n        /* \"#utility.yul\":2331:2332   */\n      0x00\n        /* \"#utility.yul\":2322:2332   */\n      swap1\n      pop\n        /* \"#utility.yul\":2333:2338   */\n      jump(tag_46)\n        /* \"#utility.yul\":2304:2340   */\n    tag_48:\n        /* \"#utility.yul\":2400:2404   */\n      dup2\n        /* \"#utility.yul\":2448:2449   */\n      0x01\n        /* \"#utility.yul\":2443:2470   */\n      dup2\n      eq\n      tag_50\n      jumpi\n        /* \"#utility.yul\":2484:2485   */\n      0x02\n        /* \"#utility.yul\":2479:2670   */\n      dup2\n      eq\n      tag_51\n      jumpi\n        /* \"#utility.yul\":2393:2670   */\n      jump(tag_49)\n        /* \"#utility.yul\":2443:2470   */\n    tag_50:\n        /* \"#utility.yul\":2461:2462   */\n      0x01\n        /* \"#utility.yul\":2452:2462   */\n      swap2\n      pop\n        /* \"#utility.yul\":2463:2468   */\n      pop\n      jump(tag_46)\n        /* \"#utility.yul\":2479:2670   */\n    tag_51:\n        /* \"#utility.yul\":2524:2527   */\n      0xff\n        /* \"#utility.yul\":2514:2522   */\n      dup5\n        /* \"#utility.yul\":2511:2528   */\n      gt\n        /* \"#utility.yul\":2508:2551   */\n      iszero\n      tag_52\n      jumpi\n        /* \"#utility.yul\":2531:2549   */\n      tag_53\n      tag_21\n      jump\t// in\n    tag_53:\n        /* \"#utility.yul\":2508:2551   */\n    tag_52:\n        /* \"#utility.yul\":2580:2588   */\n      dup4\n        /* \"#utility.yul\":2577:2578   */\n      0x02\n        /* \"#utility.yul\":2573:2589   */\n      exp\n        /* \"#utility.yul\":2564:2589   */\n      swap2\n      pop\n        /* \"#utility.yul\":2615:2618   */\n      dup5\n        /* \"#utility.yul\":2608:2613   */\n      dup3\n        /* \"#utility.yul\":2605:2619   */\n      gt\n        /* \"#utility.yul\":2602:2642   */\n      iszero\n      tag_54\n      jumpi\n        /* \"#utility.yul\":2622:2640   */\n      tag_55\n      tag_21\n      jump\t// in\n    tag_55:\n        /* \"#utility.yul\":2602:2642   */\n    tag_54:\n        /* \"#utility.yul\":2655:2660   */\n      pop\n      jump(tag_46)\n        /* \"#utility.yul\":2393:2670   */\n    tag_49:\n      pop\n        /* \"#utility.yul\":2779:2781   */\n      0x20\n        /* \"#utility.yul\":2769:2777   */\n      dup4\n        /* \"#utility.yul\":2766:2782   */\n      lt\n        /* \"#utility.yul\":2760:2763   */\n      0x0133\n        /* \"#utility.yul\":2754:2758   */\n      dup4\n        /* \"#utility.yul\":2751:2764   */\n      lt\n        /* \"#utility.yul\":2747:2783   */\n      and\n        /* \"#utility.yul\":2729:2731   */\n      0x4e\n        /* \"#utility.yul\":2719:2727   */\n      dup5\n        /* \"#utility.yul\":2716:2732   */\n      lt\n        /* \"#utility.yul\":2711:2713   */\n      0x0b\n        /* \"#utility.yul\":2705:2709   */\n      dup5\n        /* \"#utility.yul\":2702:2714   */\n      lt\n        /* \"#utility.yul\":2698:2733   */\n      and\n        /* \"#utility.yul\":2682:2793   */\n      or\n        /* \"#utility.yul\":2679:2925   */\n      iszero\n      tag_56\n      jumpi\n        /* \"#utility.yul\":2835:2843   */\n      dup3\n        /* \"#utility.yul\":2829:2833   */\n      dup3\n        /* \"#utility.yul\":2825:2844   */\n      exp\n        /* \"#utility.yul\":2816:2844   */\n      swap1\n      pop\n        /* \"#utility.yul\":2870:2873   */\n      dup4\n        /* \"#utility.yul\":2863:2868   */\n      dup2\n        /* \"#utility.yul\":2860:2874   */\n      gt\n        /* \"#utility.yul\":2857:2897   */\n      iszero\n      tag_57\n      jumpi\n        /* \"#utility.yul\":2877:2895   */\n      tag_58\n      tag_21\n      jump\t// in\n    tag_58:\n        /* \"#utility.yul\":2857:2897   */\n    tag_57:\n        /* \"#utility.yul\":2910:2915   */\n      jump(tag_46)\n        /* \"#utility.yul\":2679:2925   */\n    tag_56:\n        /* \"#utility.yul\":2950:2992   */\n      tag_59\n        /* \"#utility.yul\":2988:2991   */\n      dup5\n        /* \"#utility.yul\":2978:2986   */\n      dup5\n        /* \"#utility.yul\":2972:2976   */\n      dup5\n        /* \"#utility.yul\":2969:2970   */\n      0x01\n        /* \"#utility.yul\":2950:2992   */\n      tag_23\n      jump\t// in\n    tag_59:\n        /* \"#utility.yul\":2935:2992   */\n      swap3\n      pop\n      swap1\n      pop\n        /* \"#utility.yul\":3024:3028   */\n      dup2\n        /* \"#utility.yul\":3019:3022   */\n      dup5\n        /* \"#utility.yul\":3015:3029   */\n      div\n        /* \"#utility.yul\":3008:3013   */\n      dup2\n        /* \"#utility.yul\":3005:3030   */\n      gt\n        /* \"#utility.yul\":3002:3053   */\n      iszero\n      tag_60\n      jumpi\n        /* \"#utility.yul\":3033:3051   */\n      tag_61\n      tag_21\n      jump\t// in\n    tag_61:\n        /* \"#utility.yul\":3002:3053   */\n    tag_60:\n        /* \"#utility.yul\":3082:3086   */\n      dup2\n        /* \"#utility.yul\":3075:3080   */\n      dup2\n        /* \"#utility.yul\":3071:3087   */\n      mul\n        /* \"#utility.yul\":3062:3087   */\n      swap1\n      pop\n        /* \"#utility.yul\":2020:3093   */\n    tag_46:\n      swap4\n      swap3\n      pop\n      pop\n      pop\n      jump\t// out\n        /* \"#utility.yul\":3099:3384   */\n    tag_14:\n        /* \"#utility.yul\":3159:3164   */\n      0x00\n        /* \"#utility.yul\":3183:3206   */\n      tag_63\n        /* \"#utility.yul\":3201:3205   */\n      dup3\n        /* \"#utility.yul\":3183:3206   */\n      tag_19\n      jump\t// in\n    tag_63:\n        /* \"#utility.yul\":3175:3206   */\n      swap2\n      pop\n        /* \"#utility.yul\":3227:3254   */\n      tag_64\n        /* \"#utility.yul\":3245:3253   */\n      dup4\n        /* \"#utility.yul\":3227:3254   */\n      tag_19\n      jump\t// in\n    tag_64:\n        /* \"#utility.yul\":3215:3254   */\n      swap3\n      pop\n        /* \"#utility.yul\":3273:3377   */\n      tag_65\n        /* \"#utility.yul\":3310:3376   */\n      0xffffffffffffffffffffffffffffffffffffffffffffffffffffffffffffffff\n        /* \"#utility.yul\":3300:3308   */\n      dup5\n        /* \"#utility.yul\":3294:3298   */\n      dup5\n        /* \"#utility.yul\":3273:3377   */\n      tag_24\n      jump\t// in\n    tag_65:\n        /* \"#utility.yul\":3264:3377   */\n      swap1\n      pop\n        /* \"#utility.yul\":3099:3384   */\n      swap3\n      swap2\n      pop\n      pop\n      jump\t// out\n        /* \"#utility.yul\":3390:3738   */\n    tag_16:\n        /* \"#utility.yul\":3430:3437   */\n      0x00\n        /* \"#utility.yul\":3453:3473   */\n      tag_67\n        /* \"#utility.yul\":3471:3472   */\n      dup3\n        /* \"#utility.yul\":3453:3473   */\n      tag_19\n      jump\t// in\n    tag_67:\n        /* \"#utility.yul\":3448:3473   */\n      swap2\n      pop\n        /* \"#utility.yul\":3487:3507   */\n      tag_68\n        /* \"#utility.yul\":3505:3506   */\n      dup4\n        /* \"#utility.yul\":3487:3507   */\n      tag_19\n      jump\t// in\n    tag_68:\n        /* \"#utility.yul\":3482:3507   */\n      swap3\n      pop\n        /* \"#utility.yul\":3675:3676   */\n      dup2\n        /* \"#utility.yul\":3607:3673   */\n      0xffffffffffffffffffffffffffffffffffffffffffffffffffffffffffffffff\n        /* \"#utility.yul\":3603:3677   */\n      div\n        /* \"#utility.yul\":3600:3601   */\n      dup4\n        /* \"#utility.yul\":3597:3678   */\n      gt\n        /* \"#utility.yul\":3592:3593   */\n      dup3\n        /* \"#utility.yul\":3585:3594   */\n      iszero\n        /* \"#utility.yul\":3578:3595   */\n      iszero\n        /* \"#utility.yul\":3574:3679   */\n      and\n        /* \"#utility.yul\":3571:3702   */\n      iszero\n      tag_69\n      jumpi\n        /* \"#utility.yul\":3682:3700   */\n      tag_70\n      tag_21\n      jump\t// in\n    tag_70:\n        /* \"#utility.yul\":3571:3702   */\n    tag_69:\n        /* \"#utility.yul\":3730:3731   */\n      dup3\n        /* \"#utility.yul\":3727:3728   */\n      dup3\n        /* \"#utility.yul\":3723:3732   */\n      mul\n        /* \"#utility.yul\":3712:3732   */\n      swap1\n      pop\n        /* \"#utility.yul\":3390:3738   */\n      swap3\n      swap2\n      pop\n      pop\n      jump\t// out\n\n    auxdata: 0xa2646970667358221220232a9b130e7d2a05301415fd7f530e3e17f414a26b37cf1be535102ca76fbbf264736f6c634300080f0033\n}\n",
				"bytecode": {
					"linkReferences": {},
					"object": "60806040523480156200001157600080fd5b506040518060400160405280600b81526020017f53696d706c65546f6b656e0000000000000000000000000000000000000000008152506040518060400160405280600381526020017f53494d000000000000000000000000000000000000000000000000000000000081525060128260009081620000919190620003eb565b508160019081620000a39190620003eb565b5080600260006101000a81548160ff021916908360ff160217905550505050620000f533601260ff16600a620000da919062000655565b612710620000e99190620006a6565b620000fb60201b60201c565b6200078a565b600073ffffffffffffffffffffffffffffffffffffffff168273ffffffffffffffffffffffffffffffffffffffff16036200016d576040517f08c379a0000000000000000000000000000000000000000000000000000000008152600401620001649062000768565b60405180910390fd5b5050565b600081519050919050565b7f4e487b7100000000000000000000000000000000000000000000000000000000600052604160045260246000fd5b7f4e487b7100000000000000000000000000000000000000000000000000000000600052602260045260246000fd5b60006002820490506001821680620001f357607f821691505b602082108103620002095762000208620001ab565b5b50919050565b60008190508160005260206000209050919050565b60006020601f8301049050919050565b600082821b905092915050565b600060088302620002737fffffffffffffffffffffffffffffffffffffffffffffffffffffffffffffffff8262000234565b6200027f868362000234565b95508019841693508086168417925050509392505050565b6000819050919050565b6000819050919050565b6000620002cc620002c6620002c08462000297565b620002a1565b62000297565b9050919050565b6000819050919050565b620002e883620002ab565b62000300620002f782620002d3565b84845462000241565b825550505050565b600090565b6200031762000308565b62000324818484620002dd565b505050565b5b818110156200034c57620003406000826200030d565b6001810190506200032a565b5050565b601f8211156200039b5762000365816200020f565b620003708462000224565b8101602085101562000380578190505b620003986200038f8562000224565b83018262000329565b50505b505050565b600082821c905092915050565b6000620003c060001984600802620003a0565b1980831691505092915050565b6000620003db8383620003ad565b9150826002028217905092915050565b620003f68262000171565b67ffffffffffffffff8111156200041257620004116200017c565b5b6200041e8254620001da565b6200042b82828562000350565b600060209050601f8311600181146200046357600084156200044e578287015190505b6200045a8582620003cd565b865550620004ca565b601f19841662000473866200020f565b60005b828110156200049d5784890151825560018201915060208501945060208101905062000476565b86831015620004bd5784890151620004b9601f891682620003ad565b8355505b6001600288020188555050505b505050505050565b7f4e487b7100000000000000000000000000000000000000000000000000000000600052601160045260246000fd5b60008160011c9050919050565b6000808291508390505b60018511156200056057808604811115620005385762000537620004d2565b5b6001851615620005485780820291505b8081029050620005588562000501565b945062000518565b94509492505050565b6000826200057b57600190506200064e565b816200058b57600090506200064e565b8160018114620005a45760028114620005af57620005e5565b60019150506200064e565b60ff841115620005c457620005c3620004d2565b5b8360020a915084821115620005de57620005dd620004d2565b5b506200064e565b5060208310610133831016604e8410600b84101617156200061f5782820a905083811115620006195762000618620004d2565b5b6200064e565b6200062e84848460016200050e565b92509050818404811115620006485762000647620004d2565b5b81810290505b9392505050565b6000620006628262000297565b91506200066f8362000297565b92506200069e7fffffffffffffffffffffffffffffffffffffffffffffffffffffffffffffffff848462000569565b905092915050565b6000620006b38262000297565b9150620006c08362000297565b9250817fffffffffffffffffffffffffffffffffffffffffffffffffffffffffffffffff0483118215151615620006fc57620006fb620004d2565b5b828202905092915050565b600082825260208201905092915050565b7f45524332303a206d696e7420746f20746865207a65726f206164647265737300600082015250565b600062000750601f8362000707565b91506200075d8262000718565b602082019050919050565b60006020820190508181036000830152620007838162000741565b9050919050565b610345806200079a6000396000f3fe608060405234801561001057600080fd5b50600436106100365760003560e01c80632e0f26251461003b5780632ff2e9dc14610059575b600080fd5b610043610077565b60405161005091906100b9565b60405180910390f35b61006161007c565b60405161006e91906100ed565b60405180910390f35b601281565b601260ff16600a61008d919061026a565b61271061009a91906102b5565b81565b600060ff82169050919050565b6100b38161009d565b82525050565b60006020820190506100ce60008301846100aa565b92915050565b6000819050919050565b6100e7816100d4565b82525050565b600060208201905061010260008301846100de565b92915050565b7f4e487b7100000000000000000000000000000000000000000000000000000000600052601160045260246000fd5b60008160011c9050919050565b6000808291508390505b600185111561018e5780860481111561016a57610169610108565b5b60018516156101795780820291505b808102905061018785610137565b945061014e565b94509492505050565b6000826101a75760019050610263565b816101b55760009050610263565b81600181146101cb57600281146101d557610204565b6001915050610263565b60ff8411156101e7576101e6610108565b5b8360020a9150848211156101fe576101fd610108565b5b50610263565b5060208310610133831016604e8410600b84101617156102395782820a90508381111561023457610233610108565b5b610263565b6102468484846001610144565b9250905081840481111561025d5761025c610108565b5b81810290505b9392505050565b6000610275826100d4565b9150610280836100d4565b92506102ad7fffffffffffffffffffffffffffffffffffffffffffffffffffffffffffffffff8484610197565b905092915050565b60006102c0826100d4565b91506102cb836100d4565b9250817fffffffffffffffffffffffffffffffffffffffffffffffffffffffffffffffff048311821515161561030457610303610108565b5b82820290509291505056fea2646970667358221220232a9b130e7d2a05301415fd7f530e3e17f414a26b37cf1be535102ca76fbbf264736f6c634300080f0033",
					"opcodes": "PUSH1 0x80 PUSH1 0x40 MSTORE CALLVALUE DUP1 ISZERO PUSH3 0x11 JUMPI PUSH1 0x0 DUP1 REVERT JUMPDEST POP PUSH1 0x40 MLOAD DUP1 PUSH1 0x40 ADD PUSH1 0x40 MSTORE DUP1 PUSH1 0xB DUP2 MSTORE PUSH1 0x20 ADD PUSH32 0x53696D706C65546F6B656E000000000000000000000000000000000000000000 DUP2 MSTORE POP PUSH1 0x40 MLOAD DUP1 PUSH1 0x40 ADD PUSH1 0x40 MSTORE DUP1 PUSH1 0x3 DUP2 MSTORE PUSH1 0x20 ADD PUSH32 0x53494D0000000000000000000000000000000000000000000000000000000000 DUP2 MSTORE POP PUSH1 0x12 DUP3 PUSH1 0x0 SWAP1 DUP2 PUSH3 0x91 SWAP2 SWAP1 PUSH3 0x3EB JUMP JUMPDEST POP DUP2 PUSH1 0x1 SWAP1 DUP2 PUSH3 0xA3 SWAP2 SWAP1 PUSH3 0x3EB JUMP JUMPDEST POP DUP1 PUSH1 0x2 PUSH1 0x0 PUSH2 0x100 EXP DUP2 SLOAD DUP2 PUSH1 0xFF MUL NOT AND SWAP1 DUP4 PUSH1 0xFF AND MUL OR SWAP1 SSTORE POP POP POP POP PUSH3 0xF5 CALLER PUSH1 0x12 PUSH1 0xFF AND PUSH1 0xA PUSH3 0xDA SWAP2 SWAP1 PUSH3 0x655 JUMP JUMPDEST PUSH2 0x2710 PUSH3 0xE9 SWAP2 SWAP1 PUSH3 0x6A6 JUMP JUMPDEST PUSH3 0xFB PUSH1 0x20 SHL PUSH1 0x20 SHR JUMP JUMPDEST PUSH3 0x78A JUMP JUMPDEST PUSH1 0x0 PUSH20 0xFFFFFFFFFFFFFFFFFFFFFFFFFFFFFFFFFFFFFFFF AND DUP3 PUSH20 0xFFFFFFFFFFFFFFFFFFFFFFFFFFFFFFFFFFFFFFFF AND SUB PUSH3 0x16D JUMPI PUSH1 0x40 MLOAD PUSH32 0x8C379A000000000000000000000000000000000000000000000000000000000 DUP2 MSTORE PUSH1 0x4 ADD PUSH3 0x164 SWAP1 PUSH3 0x768 JUMP JUMPDEST PUSH1 0x40 MLOAD DUP1 SWAP2 SUB SWAP1 REVERT JUMPDEST POP POP JUMP JUMPDEST PUSH1 0x0 DUP2 MLOAD SWAP1 POP SWAP2 SWAP1 POP JUMP JUMPDEST PUSH32 0x4E487B7100000000000000000000000000000000000000000000000000000000 PUSH1 0x0 MSTORE PUSH1 0x41 PUSH1 0x4 MSTORE PUSH1 0x24 PUSH1 0x0 REVERT JUMPDEST PUSH32 0x4E487B7100000000000000000000000000000000000000000000000000000000 PUSH1 0x0 MSTORE PUSH1 0x22 PUSH1 0x4 MSTORE PUSH1 0x24 PUSH1 0x0 REVERT JUMPDEST PUSH1 0x0 PUSH1 0x2 DUP3 DIV SWAP1 POP PUSH1 0x1 DUP3 AND DUP1 PUSH3 0x1F3 JUMPI PUSH1 0x7F DUP3 AND SWAP2 POP JUMPDEST PUSH1 0x20 DUP3 LT DUP2 SUB PUSH3 0x209 JUMPI PUSH3 0x208 PUSH3 0x1AB JUMP JUMPDEST JUMPDEST POP SWAP2 SWAP1 POP JUMP JUMPDEST PUSH1 0x0 DUP2 SWAP1 POP DUP2 PUSH1 0x0 MSTORE PUSH1 0x20 PUSH1 0x0 KECCAK256 SWAP1 POP SWAP2 SWAP1 POP JUMP JUMPDEST PUSH1 0x0 PUSH1 0x20 PUSH1 0x1F DUP4 ADD DIV SWAP1 POP SWAP2 SWAP1 POP JUMP JUMPDEST PUSH1 0x0 DUP3 DUP3 SHL SWAP1 POP SWAP3 SWAP2 POP POP JUMP JUMPDEST PUSH1 0x0 PUSH1 0x8 DUP4 MUL PUSH3 0x273 PUSH32 0xFFFFFFFFFFFFFFFFFFFFFFFFFFFFFFFFFFFFFFFFFFFFFFFFFFFFFFFFFFFFFFFF DUP3 PUSH3 0x234 JUMP JUMPDEST PUSH3 0x27F DUP7 DUP4 PUSH3 0x234 JUMP JUMPDEST SWAP6 POP DUP1 NOT DUP5 AND SWAP4 POP DUP1 DUP7 AND DUP5 OR SWAP3 POP POP POP SWAP4 SWAP3 POP POP POP JUMP JUMPDEST PUSH1 0x0 DUP2 SWAP1 POP SWAP2 SWAP1 POP JUMP JUMPDEST PUSH1 0x0 DUP2 SWAP1 POP SWAP2 SWAP1 POP JUMP JUMPDEST PUSH1 0x0 PUSH3 0x2CC PUSH3 0x2C6 PUSH3 0x2C0 DUP5 PUSH3 0x297 JUMP JUMPDEST PUSH3 0x2A1 JUMP JUMPDEST PUSH3 0x297 JUMP JUMPDEST SWAP1 POP SWAP2 SWAP1 POP JUMP JUMPDEST PUSH1 0x0 DUP2 SWAP1 POP SWAP2 SWAP1 POP JUMP JUMPDEST PUSH3 0x2E8 DUP4 PUSH3 0x2AB JUMP JUMPDEST PUSH3 0x300 PUSH3 0x2F7 DUP3 PUSH3 0x2D3 JUMP JUMPDEST DUP5 DUP5 SLOAD PUSH3 0x241 JUMP JUMPDEST DUP3 SSTORE POP POP POP POP JUMP JUMPDEST PUSH1 0x0 SWAP1 JUMP JUMPDEST PUSH3 0x317 PUSH3 0x308 JUMP JUMPDEST PUSH3 0x324 DUP2 DUP5 DUP5 PUSH3 0x2DD JUMP JUMPDEST POP POP POP JUMP JUMPDEST JUMPDEST DUP2 DUP2 LT ISZERO PUSH3 0x34C JUMPI PUSH3 0x340 PUSH1 0x0 DUP3 PUSH3 0x30D JUMP JUMPDEST PUSH1 0x1 DUP2 ADD SWAP1 POP PUSH3 0x32A JUMP JUMPDEST POP POP JUMP JUMPDEST PUSH1 0x1F DUP3 GT ISZERO PUSH3 0x39B JUMPI PUSH3 0x365 DUP2 PUSH3 0x20F JUMP JUMPDEST PUSH3 0x370 DUP5 PUSH3 0x224 JUMP JUMPDEST DUP2 ADD PUSH1 0x20 DUP6 LT ISZERO PUSH3 0x380 JUMPI DUP2 SWAP1 POP JUMPDEST PUSH3 0x398 PUSH3 0x38F DUP6 PUSH3 0x224 JUMP JUMPDEST DUP4 ADD DUP3 PUSH3 0x329 JUMP JUMPDEST POP POP JUMPDEST POP POP POP JUMP JUMPDEST PUSH1 0x0 DUP3 DUP3 SHR SWAP1 POP SWAP3 SWAP2 POP POP JUMP JUMPDEST PUSH1 0x0 PUSH3 0x3C0 PUSH1 0x0 NOT DUP5 PUSH1 0x8 MUL PUSH3 0x3A0 JUMP JUMPDEST NOT DUP1 DUP4 AND SWAP2 POP POP SWAP3 SWAP2 POP POP JUMP JUMPDEST PUSH1 0x0 PUSH3 0x3DB DUP4 DUP4 PUSH3 0x3AD JUMP JUMPDEST SWAP2 POP DUP3 PUSH1 0x2 MUL DUP3 OR SWAP1 POP SWAP3 SWAP2 POP POP JUMP JUMPDEST PUSH3 0x3F6 DUP3 PUSH3 0x171 JUMP JUMPDEST PUSH8 0xFFFFFFFFFFFFFFFF DUP2 GT ISZERO PUSH3 0x412 JUMPI PUSH3 0x411 PUSH3 0x17C JUMP JUMPDEST JUMPDEST PUSH3 0x41E DUP3 SLOAD PUSH3 0x1DA JUMP JUMPDEST PUSH3 0x42B DUP3 DUP3 DUP6 PUSH3 0x350 JUMP JUMPDEST PUSH1 0x0 PUSH1 0x20 SWAP1 POP PUSH1 0x1F DUP4 GT PUSH1 0x1 DUP2 EQ PUSH3 0x463 JUMPI PUSH1 0x0 DUP5 ISZERO PUSH3 0x44E JUMPI DUP3 DUP8 ADD MLOAD SWAP1 POP JUMPDEST PUSH3 0x45A DUP6 DUP3 PUSH3 0x3CD JUMP JUMPDEST DUP7 SSTORE POP PUSH3 0x4CA JUMP JUMPDEST PUSH1 0x1F NOT DUP5 AND PUSH3 0x473 DUP7 PUSH3 0x20F JUMP JUMPDEST PUSH1 0x0 JUMPDEST DUP3 DUP2 LT ISZERO PUSH3 0x49D JUMPI DUP5 DUP10 ADD MLOAD DUP3 SSTORE PUSH1 0x1 DUP3 ADD SWAP2 POP PUSH1 0x20 DUP6 ADD SWAP5 POP PUSH1 0x20 DUP2 ADD SWAP1 POP PUSH3 0x476 JUMP JUMPDEST DUP7 DUP4 LT ISZERO PUSH3 0x4BD JUMPI DUP5 DUP10 ADD MLOAD PUSH3 0x4B9 PUSH1 0x1F DUP10 AND DUP3 PUSH3 0x3AD JUMP JUMPDEST DUP4 SSTORE POP JUMPDEST PUSH1 0x1 PUSH1 0x2 DUP9 MUL ADD DUP9 SSTORE POP POP POP JUMPDEST POP POP POP POP POP POP JUMP JUMPDEST PUSH32 0x4E487B7100000000000000000000000000000000000000000000000000000000 PUSH1 0x0 MSTORE PUSH1 0x11 PUSH1 0x4 MSTORE PUSH1 0x24 PUSH1 0x0 REVERT JUMPDEST PUSH1 0x0 DUP2 PUSH1 0x1 SHR SWAP1 POP SWAP2 SWAP1 POP JUMP JUMPDEST PUSH1 0x0 DUP1 DUP3 SWAP2 POP DUP4 SWAP1 POP JUMPDEST PUSH1 0x1 DUP6 GT ISZERO PUSH3 0x560 JUMPI DUP1 DUP7 DIV DUP2 GT ISZERO PUSH3 0x538 JUMPI PUSH3 0x537 PUSH3 0x4D2 JUMP JUMPDEST JUMPDEST PUSH1 0x1 DUP6 AND ISZERO PUSH3 0x548 JUMPI DUP1 DUP3 MUL SWAP2 POP JUMPDEST DUP1 DUP2 MUL SWAP1 POP PUSH3 0x558 DUP6 PUSH3 0x501 JUMP JUMPDEST SWAP5 POP PUSH3 0x518 JUMP JUMPDEST SWAP5 POP SWAP5 SWAP3 POP POP POP JUMP JUMPDEST PUSH1 0x0 DUP3 PUSH3 0x57B JUMPI PUSH1 0x1 SWAP1 POP PUSH3 0x64E JUMP JUMPDEST DUP2 PUSH3 0x58B JUMPI PUSH1 0x0 SWAP1 POP PUSH3 0x64E JUMP JUMPDEST DUP2 PUSH1 0x1 DUP2 EQ PUSH3 0x5A4 JUMPI PUSH1 0x2 DUP2 EQ PUSH3 0x5AF JUMPI PUSH3 0x5E5 JUMP JUMPDEST PUSH1 0x1 SWAP2 POP POP PUSH3 0x64E JUMP JUMPDEST PUSH1 0xFF DUP5 GT ISZERO PUSH3 0x5C4 JUMPI PUSH3 0x5C3 PUSH3 0x4D2 JUMP JUMPDEST JUMPDEST DUP4 PUSH1 0x2 EXP SWAP2 POP DUP5 DUP3 GT ISZERO PUSH3 0x5DE JUMPI PUSH3 0x5DD PUSH3 0x4D2 JUMP JUMPDEST JUMPDEST POP PUSH3 0x64E JUMP JUMPDEST POP PUSH1 0x20 DUP4 LT PUSH2 0x133 DUP4 LT AND PUSH1 0x4E DUP5 LT PUSH1 0xB DUP5 LT AND OR ISZERO PUSH3 0x61F JUMPI DUP3 DUP3 EXP SWAP1 POP DUP4 DUP2 GT ISZERO PUSH3 0x619 JUMPI PUSH3 0x618 PUSH3 0x4D2 JUMP JUMPDEST JUMPDEST PUSH3 0x64E JUMP JUMPDEST PUSH3 0x62E DUP5 DUP5 DUP5 PUSH1 0x1 PUSH3 0x50E JUMP JUMPDEST SWAP3 POP SWAP1 POP DUP2 DUP5 DIV DUP2 GT ISZERO PUSH3 0x648 JUMPI PUSH3 0x647 PUSH3 0x4D2 JUMP JUMPDEST JUMPDEST DUP2 DUP2 MUL SWAP1 POP JUMPDEST SWAP4 SWAP3 POP POP POP JUMP JUMPDEST PUSH1 0x0 PUSH3 0x662 DUP3 PUSH3 0x297 JUMP JUMPDEST SWAP2 POP PUSH3 0x66F DUP4 PUSH3 0x297 JUMP JUMPDEST SWAP3 POP PUSH3 0x69E PUSH32 0xFFFFFFFFFFFFFFFFFFFFFFFFFFFFFFFFFFFFFFFFFFFFFFFFFFFFFFFFFFFFFFFF DUP5 DUP5 PUSH3 0x569 JUMP JUMPDEST SWAP1 POP SWAP3 SWAP2 POP POP JUMP JUMPDEST PUSH1 0x0 PUSH3 0x6B3 DUP3 PUSH3 0x297 JUMP JUMPDEST SWAP2 POP PUSH3 0x6C0 DUP4 PUSH3 0x297 JUMP JUMPDEST SWAP3 POP DUP2 PUSH32 0xFFFFFFFFFFFFFFFFFFFFFFFFFFFFFFFFFFFFFFFFFFFFFFFFFFFFFFFFFFFFFFFF DIV DUP4 GT DUP3 ISZERO ISZERO AND ISZERO PUSH3 0x6FC JUMPI PUSH3 0x6FB PUSH3 0x4D2 JUMP JUMPDEST JUMPDEST DUP3 DUP3 MUL SWAP1 POP SWAP3 SWAP2 POP POP JUMP JUMPDEST PUSH1 0x0 DUP3 DUP3 MSTORE PUSH1 0x20 DUP3 ADD SWAP1 POP SWAP3 SWAP2 POP POP JUMP JUMPDEST PUSH32 0x45524332303A206D696E7420746F20746865207A65726F206164647265737300 PUSH1 0x0 DUP3 ADD MSTORE POP JUMP JUMPDEST PUSH1 0x0 PUSH3 0x750 PUSH1 0x1F DUP4 PUSH3 0x707 JUMP JUMPDEST SWAP2 POP PUSH3 0x75D DUP3 PUSH3 0x718 JUMP JUMPDEST PUSH1 0x20 DUP3 ADD SWAP1 POP SWAP2 SWAP1 POP JUMP JUMPDEST PUSH1 0x0 PUSH1 0x20 DUP3 ADD SWAP1 POP DUP2 DUP2 SUB PUSH1 0x0 DUP4 ADD MSTORE PUSH3 0x783 DUP2 PUSH3 0x741 JUMP JUMPDEST SWAP1 POP SWAP2 SWAP1 POP JUMP JUMPDEST PUSH2 0x345 DUP1 PUSH3 0x79A PUSH1 0x0 CODECOPY PUSH1 0x0 RETURN INVALID PUSH1 0x80 PUSH1 0x40 MSTORE CALLVALUE DUP1 ISZERO PUSH2 0x10 JUMPI PUSH1 0x0 DUP1 REVERT JUMPDEST POP PUSH1 0x4 CALLDATASIZE LT PUSH2 0x36 JUMPI PUSH1 0x0 CALLDATALOAD PUSH1 0xE0 SHR DUP1 PUSH4 0x2E0F2625 EQ PUSH2 0x3B JUMPI DUP1 PUSH4 0x2FF2E9DC EQ PUSH2 0x59 JUMPI JUMPDEST PUSH1 0x0 DUP1 REVERT JUMPDEST PUSH2 0x43 PUSH2 0x77 JUMP JUMPDEST PUSH1 0x40 MLOAD PUSH2 0x50 SWAP2 SWAP1 PUSH2 0xB9 JUMP JUMPDEST PUSH1 0x40 MLOAD DUP1 SWAP2 SUB SWAP1 RETURN JUMPDEST PUSH2 0x61 PUSH2 0x7C JUMP JUMPDEST PUSH1 0x40 MLOAD PUSH2 0x6E SWAP2 SWAP1 PUSH2 0xED JUMP JUMPDEST PUSH1 0x40 MLOAD DUP1 SWAP2 SUB SWAP1 RETURN JUMPDEST PUSH1 0x12 DUP2 JUMP JUMPDEST PUSH1 0x12 PUSH1 0xFF AND PUSH1 0xA PUSH2 0x8D SWAP2 SWAP1 PUSH2 0x26A JUMP JUMPDEST PUSH2 0x2710 PUSH2 0x9A SWAP2 SWAP1 PUSH2 0x2B5 JUMP JUMPDEST DUP2 JUMP JUMPDEST PUSH1 0x0 PUSH1 0xFF DUP3 AND SWAP1 POP SWAP2 SWAP1 POP JUMP JUMPDEST PUSH2 0xB3 DUP2 PUSH2 0x9D JUMP JUMPDEST DUP3 MSTORE POP POP JUMP JUMPDEST PUSH1 0x0 PUSH1 0x20 DUP3 ADD SWAP1 POP PUSH2 0xCE PUSH1 0x0 DUP4 ADD DUP5 PUSH2 0xAA JUMP JUMPDEST SWAP3 SWAP2 POP POP JUMP JUMPDEST PUSH1 0x0 DUP2 SWAP1 POP SWAP2 SWAP1 POP JUMP JUMPDEST PUSH2 0xE7 DUP2 PUSH2 0xD4 JUMP JUMPDEST DUP3 MSTORE POP POP JUMP JUMPDEST PUSH1 0x0 PUSH1 0x20 DUP3 ADD SWAP1 POP PUSH2 0x102 PUSH1 0x0 DUP4 ADD DUP5 PUSH2 0xDE JUMP JUMPDEST SWAP3 SWAP2 POP POP JUMP JUMPDEST PUSH32 0x4E487B7100000000000000000000000000000000000000000000000000000000 PUSH1 0x0 MSTORE PUSH1 0x11 PUSH1 0x4 MSTORE PUSH1 0x24 PUSH1 0x0 REVERT JUMPDEST PUSH1 0x0 DUP2 PUSH1 0x1 SHR SWAP1 POP SWAP2 SWAP1 POP JUMP JUMPDEST PUSH1 0x0 DUP1 DUP3 SWAP2 POP DUP4 SWAP1 POP JUMPDEST PUSH1 0x1 DUP6 GT ISZERO PUSH2 0x18E JUMPI DUP1 DUP7 DIV DUP2 GT ISZERO PUSH2 0x16A JUMPI PUSH2 0x169 PUSH2 0x108 JUMP JUMPDEST JUMPDEST PUSH1 0x1 DUP6 AND ISZERO PUSH2 0x179 JUMPI DUP1 DUP3 MUL SWAP2 POP JUMPDEST DUP1 DUP2 MUL SWAP1 POP PUSH2 0x187 DUP6 PUSH2 0x137 JUMP JUMPDEST SWAP5 POP PUSH2 0x14E JUMP JUMPDEST SWAP5 POP SWAP5 SWAP3 POP POP POP JUMP JUMPDEST PUSH1 0x0 DUP3 PUSH2 0x1A7 JUMPI PUSH1 0x1 SWAP1 POP PUSH2 0x263 JUMP JUMPDEST DUP2 PUSH2 0x1B5 JUMPI PUSH1 0x0 SWAP1 POP PUSH2 0x263 JUMP JUMPDEST DUP2 PUSH1 0x1 DUP2 EQ PUSH2 0x1CB JUMPI PUSH1 0x2 DUP2 EQ PUSH2 0x1D5 JUMPI PUSH2 0x204 JUMP JUMPDEST PUSH1 0x1 SWAP2 POP POP PUSH2 0x263 JUMP JUMPDEST PUSH1 0xFF DUP5 GT ISZERO PUSH2 0x1E7 JUMPI PUSH2 0x1E6 PUSH2 0x108 JUMP JUMPDEST JUMPDEST DUP4 PUSH1 0x2 EXP SWAP2 POP DUP5 DUP3 GT ISZERO PUSH2 0x1FE JUMPI PUSH2 0x1FD PUSH2 0x108 JUMP JUMPDEST JUMPDEST POP PUSH2 0x263 JUMP JUMPDEST POP PUSH1 0x20 DUP4 LT PUSH2 0x133 DUP4 LT AND PUSH1 0x4E DUP5 LT PUSH1 0xB DUP5 LT AND OR ISZERO PUSH2 0x239 JUMPI DUP3 DUP3 EXP SWAP1 POP DUP4 DUP2 GT ISZERO PUSH2 0x234 JUMPI PUSH2 0x233 PUSH2 0x108 JUMP JUMPDEST JUMPDEST PUSH2 0x263 JUMP JUMPDEST PUSH2 0x246 DUP5 DUP5 DUP5 PUSH1 0x1 PUSH2 0x144 JUMP JUMPDEST SWAP3 POP SWAP1 POP DUP2 DUP5 DIV DUP2 GT ISZERO PUSH2 0x25D JUMPI PUSH2 0x25C PUSH2 0x108 JUMP JUMPDEST JUMPDEST DUP2 DUP2 MUL SWAP1 POP JUMPDEST SWAP4 SWAP3 POP POP POP JUMP JUMPDEST PUSH1 0x0 PUSH2 0x275 DUP3 PUSH2 0xD4 JUMP JUMPDEST SWAP2 POP PUSH2 0x280 DUP4 PUSH2 0xD4 JUMP JUMPDEST SWAP3 POP PUSH2 0x2AD PUSH32 0xFFFFFFFFFFFFFFFFFFFFFFFFFFFFFFFFFFFFFFFFFFFFFFFFFFFFFFFFFFFFFFFF DUP5 DUP5 PUSH2 0x197 JUMP JUMPDEST SWAP1 POP SWAP3 SWAP2 POP POP JUMP JUMPDEST PUSH1 0x0 PUSH2 0x2C0 DUP3 PUSH2 0xD4 JUMP JUMPDEST SWAP2 POP PUSH2 0x2CB DUP4 PUSH2 0xD4 JUMP JUMPDEST SWAP3 POP DUP2 PUSH32 0xFFFFFFFFFFFFFFFFFFFFFFFFFFFFFFFFFFFFFFFFFFFFFFFFFFFFFFFFFFFFFFFF DIV DUP4 GT DUP3 ISZERO ISZERO AND ISZERO PUSH2 0x304 JUMPI PUSH2 0x303 PUSH2 0x108 JUMP JUMPDEST JUMPDEST DUP3 DUP3 MUL SWAP1 POP SWAP3 SWAP2 POP POP JUMP INVALID LOG2 PUSH5 0x6970667358 0x22 SLT KECCAK256 0x23 0x2A SWAP12 SGT 0xE PUSH30 0x2A05301415FD7F530E3E17F414A26B37CF1BE535102CA76FBBF264736F6C PUSH4 0x4300080F STOP CALLER "
				},
				"gasEstimates": {
					"creation": {
						"codeDepositCost": "167400",
						"executionCost": "infinite",
						"totalCost": "infinite"
					},
					"external": {
						"DECIMALS()": "313",
						"INITIAL_SUPPLY()": "infinite"
					}
				},
				"methodIdentifiers": {
					"DECIMALS()": "2e0f2625",
					"INITIAL_SUPPLY()": "2ff2e9dc"
				}
			},
			"storageLayout": {
				"storage": [
					{
						"astId": 40,
						"contract": "tests/BeforeTokenDemo.sol:BeforeTokenDemo",
						"label": "_name",
						"offset": 0,
						"slot": "0",
						"type": "t_string_storage"
					},
					{
						"astId": 42,
						"contract": "tests/BeforeTokenDemo.sol:BeforeTokenDemo",
						"label": "_symbol",
						"offset": 0,
						"slot": "1",
						"type": "t_string_storage"
					},
					{
						"astId": 44,
						"contract": "tests/BeforeTokenDemo.sol:BeforeTokenDemo",
						"label": "_decimals",
						"offset": 0,
						"slot": "2",
						"type": "t_uint8"
					}
				],
				"types": {
					"t_string_storage": {
						"encoding": "bytes",
						"label": "string",
						"numberOfBytes": "32"
					},
					"t_uint8": {
						"encoding": "inplace",
						"label": "uint8",
						"numberOfBytes": "1"
					}
				}
			},
			"userdoc": {
				"kind": "user",
				"methods": {},
				"version": 1
			}
		}
	}
}