{
	"tests/test.sol": {
		"DemoTest": {
			"abi": [
				{
					"anonymous": false,
					"inputs": [
						{
							"indexed": false,
							"internalType": "string",
							"name": "key",
							"type": "string"
						},
						{
							"indexed": false,
							"internalType": "uint256",
							"name": "val",
							"type": "uint256"
						}
					],
					"name": "log_named_uint",
					"type": "event"
				},
				{
					"inputs": [],
					"name": "computeIfSavedGas",
					"outputs": [
						{
							"internalType": "uint256",
							"name": "gasSaved",
							"type": "uint256"
						}
					],
					"stateMutability": "view",
					"type": "function"
				},
				{
					"inputs": [],
					"name": "computeReturnGas",
					"outputs": [],
					"stateMutability": "nonpayable",
					"type": "function"
				},
				{
					"inputs": [],
					"name": "computeUncheckedSavedGas",
					"outputs": [
						{
							"internalType": "uint256",
							"name": "gasSaved",
							"type": "uint256"
						}
					],
					"stateMutability": "nonpayable",
					"type": "function"
				},
				{
					"inputs": [],
					"name": "testDemo",
					"outputs": [],
					"stateMutability": "nonpayable",
					"type": "function"
				}
			],
			"devdoc": {
				"kind": "dev",
				"methods": {},
				"version": 1
			},
			"evm": {
				"assembly": "    /* \"tests/test.sol\":278:2366  contract DemoTest is GasMeasure {... */\n  mstore(0x40, 0x80)\n    /* \"tests/test.sol\":347:366  new UncheckedDemo() */\n  mload(0x40)\n  tag_1\n  swap1\n  tag_2\n  jump\t// in\ntag_1:\n  mload(0x40)\n  dup1\n  swap2\n  sub\n  swap1\n  0x00\n  create\n  dup1\n  iszero\n  dup1\n  iszero\n  tag_3\n  jumpi\n  returndatasize\n  0x00\n  dup1\n  returndatacopy\n  revert(0x00, returndatasize)\ntag_3:\n  pop\n    /* \"tests/test.sol\":317:366  UncheckedDemo uncheckedDemo = new UncheckedDemo() */\n  0x00\n  dup1\n  0x0100\n  exp\n  dup2\n  sload\n  dup2\n  0xffffffffffffffffffffffffffffffffffffffff\n  mul\n  not\n  and\n  swap1\n  dup4\n  0xffffffffffffffffffffffffffffffffffffffff\n  and\n  mul\n  or\n  swap1\n  sstore\n  pop\n    /* \"tests/test.sol\":396:412  new SimpleTest() */\n  mload(0x40)\n  tag_4\n  swap1\n  tag_5\n  jump\t// in\ntag_4:\n  mload(0x40)\n  dup1\n  swap2\n  sub\n  swap1\n  0x00\n  create\n  dup1\n  iszero\n  dup1\n  iszero\n  tag_6\n  jumpi\n  returndatasize\n  0x00\n  dup1\n  returndatacopy\n  revert(0x00, returndatasize)\ntag_6:\n  pop\n    /* \"tests/test.sol\":372:412  SimpleTest simpleTest = new SimpleTest() */\n  0x01\n  exp(0x0100, 0x00)\n  dup2\n  sload\n  dup2\n  0xffffffffffffffffffffffffffffffffffffffff\n  mul\n  not\n  and\n  swap1\n  dup4\n  0xffffffffffffffffffffffffffffffffffffffff\n  and\n  mul\n  or\n  swap1\n  sstore\n  pop\n    /* \"tests/test.sol\":434:446  new IfDemo() */\n  mload(0x40)\n  tag_7\n  swap1\n  tag_8\n  jump\t// in\ntag_7:\n  mload(0x40)\n  dup1\n  swap2\n  sub\n  swap1\n  0x00\n  create\n  dup1\n  iszero\n  dup1\n  iszero\n  tag_9\n  jumpi\n  returndatasize\n  0x00\n  dup1\n  returndatacopy\n  revert(0x00, returndatasize)\ntag_9:\n  pop\n    /* \"tests/test.sol\":418:446  IfDemo ifDemo = new IfDemo() */\n  0x02\n  exp(0x0100, 0x00)\n  dup2\n  sload\n  dup2\n  0xffffffffffffffffffffffffffffffffffffffff\n  mul\n  not\n  and\n  swap1\n  dup4\n  0xffffffffffffffffffffffffffffffffffffffff\n  and\n  mul\n  or\n  swap1\n  sstore\n  pop\n    /* \"tests/test.sol\":278:2366  contract DemoTest is GasMeasure {... */\n  callvalue\n  dup1\n  iszero\n  tag_10\n  jumpi\n  0x00\n  dup1\n  revert\ntag_10:\n  pop\n  jump(tag_11)\ntag_2:\n  dataSize(sub_1)\n  dup1\n  dataOffset(sub_1)\n  dup4\n  codecopy\n  add\n  swap1\n  jump\t// out\ntag_5:\n  dataSize(sub_2)\n  dup1\n  dataOffset(sub_2)\n  dup4\n  codecopy\n  add\n  swap1\n  jump\t// out\ntag_8:\n  dataSize(sub_3)\n  dup1\n  dataOffset(sub_3)\n  dup4\n  codecopy\n  add\n  swap1\n  jump\t// out\ntag_11:\n  dataSize(sub_0)\n  dup1\n  dataOffset(sub_0)\n  0x00\n  codecopy\n  0x00\n  return\nstop\n\nsub_0: assembly {\n        /* \"tests/test.sol\":278:2366  contract DemoTest is GasMeasure {... */\n      mstore(0x40, 0x80)\n      callvalue\n      dup1\n      iszero\n      tag_1\n      jumpi\n      0x00\n      dup1\n      revert\n    tag_1:\n      pop\n      jumpi(tag_2, lt(calldatasize, 0x04))\n      shr(0xe0, calldataload(0x00))\n      dup1\n      0x1a0a0878\n      eq\n      tag_3\n      jumpi\n      dup1\n      0x3b9883fe\n      eq\n      tag_4\n      jumpi\n      dup1\n      0x62a04d68\n      eq\n      tag_5\n      jumpi\n      dup1\n      0xe833a040\n      eq\n      tag_6\n      jumpi\n    tag_2:\n      0x00\n      dup1\n      revert\n        /* \"tests/test.sol\":453:635  function testDemo() public logs_gas {... */\n    tag_3:\n      tag_7\n      tag_8\n      jump\t// in\n    tag_7:\n      stop\n        /* \"tests/test.sol\":1897:2364  function computeIfSavedGas() public view returns(uint gasSaved) {... */\n    tag_4:\n      tag_9\n      tag_10\n      jump\t// in\n    tag_9:\n      mload(0x40)\n      tag_11\n      swap2\n      swap1\n      tag_12\n      jump\t// in\n    tag_11:\n      mload(0x40)\n      dup1\n      swap2\n      sub\n      swap1\n      return\n        /* \"tests/test.sol\":641:1189  function computeUncheckedSavedGas() public returns(uint gasSaved) {... */\n    tag_5:\n      tag_13\n      tag_14\n      jump\t// in\n    tag_13:\n      mload(0x40)\n      tag_15\n      swap2\n      swap1\n      tag_12\n      jump\t// in\n    tag_15:\n      mload(0x40)\n      dup1\n      swap2\n      sub\n      swap1\n      return\n        /* \"tests/test.sol\":1195:1890  function computeReturnGas() public {... */\n    tag_6:\n      tag_16\n      tag_17\n      jump\t// in\n    tag_16:\n      stop\n        /* \"tests/test.sol\":453:635  function testDemo() public logs_gas {... */\n    tag_8:\n        /* \"tests/utils/GasMeasure.sol\":183:196  uint startGas */\n      0x00\n        /* \"tests/utils/GasMeasure.sol\":199:208  gasleft() */\n      gas\n        /* \"tests/utils/GasMeasure.sol\":183:208  uint startGas = gasleft() */\n      swap1\n      pop\n        /* \"tests/test.sol\":499:505  uint a */\n      0x00\n        /* \"tests/test.sol\":508:509  1 */\n      0x01\n        /* \"tests/test.sol\":499:509  uint a = 1 */\n      swap1\n      pop\n        /* \"tests/test.sol\":519:525  uint b */\n      0x00\n        /* \"tests/test.sol\":528:529  2 */\n      0x02\n        /* \"tests/test.sol\":519:529  uint b = 2 */\n      swap1\n      pop\n        /* \"tests/test.sol\":539:550  uint result */\n      0x00\n        /* \"tests/test.sol\":557:558  b */\n      dup2\n        /* \"tests/test.sol\":553:554  a */\n      dup4\n        /* \"tests/test.sol\":553:558  a + b */\n      tag_20\n      swap2\n      swap1\n      tag_21\n      jump\t// in\n    tag_20:\n        /* \"tests/test.sol\":539:558  uint result = a + b */\n      swap1\n      pop\n        /* \"tests/test.sol\":568:574  Assert */\n      linkerSymbol(\"acbfb1c35000d78352310b16a054a6b1066124b9c6f054b10c085f549bff80c6\")\n        /* \"tests/test.sol\":568:580  Assert.equal */\n      0xabcd7960\n        /* \"tests/test.sol\":581:587  result */\n      dup3\n        /* \"tests/test.sol\":594:595  3 */\n      0x03\n        /* \"tests/test.sol\":568:628  Assert.equal(result, uint(3), \"result should be equal to 3\") */\n      mload(0x40)\n      dup4\n      0xffffffff\n      and\n      0xe0\n      shl\n      dup2\n      mstore\n      0x04\n      add\n      tag_22\n      swap3\n      swap2\n      swap1\n      tag_23\n      jump\t// in\n    tag_22:\n      0x20\n      mload(0x40)\n      dup1\n      dup4\n      sub\n      dup2\n      dup7\n      gas\n      delegatecall\n      iszero\n      dup1\n      iszero\n      tag_25\n      jumpi\n      returndatasize\n      0x00\n      dup1\n      returndatacopy\n      revert(0x00, returndatasize)\n    tag_25:\n      pop\n      pop\n      pop\n      pop\n      mload(0x40)\n      returndatasize\n      not(0x1f)\n      0x1f\n      dup3\n      add\n      and\n      dup3\n      add\n      dup1\n      0x40\n      mstore\n      pop\n      dup2\n      add\n      swap1\n      tag_26\n      swap2\n      swap1\n      tag_27\n      jump\t// in\n    tag_26:\n      pop\n        /* \"tests/test.sol\":489:635  {... */\n      pop\n      pop\n      pop\n        /* \"tests/utils/GasMeasure.sol\":229:240  uint endGas */\n      0x00\n        /* \"tests/utils/GasMeasure.sol\":243:252  gasleft() */\n      gas\n        /* \"tests/utils/GasMeasure.sol\":229:252  uint endGas = gasleft() */\n      swap1\n      pop\n        /* \"tests/utils/GasMeasure.sol\":267:307  log_named_uint(\"gas\", startGas - endGas) */\n      0xb2de2fbe801a0df6c0cbddfd448ba3c41d48a040ca35c56c8196ef0fcae721a8\n        /* \"tests/utils/GasMeasure.sol\":300:306  endGas */\n      dup2\n        /* \"tests/utils/GasMeasure.sol\":289:297  startGas */\n      dup4\n        /* \"tests/utils/GasMeasure.sol\":289:306  startGas - endGas */\n      tag_28\n      swap2\n      swap1\n      tag_29\n      jump\t// in\n    tag_28:\n        /* \"tests/utils/GasMeasure.sol\":267:307  log_named_uint(\"gas\", startGas - endGas) */\n      mload(0x40)\n      tag_30\n      swap2\n      swap1\n      tag_31\n      jump\t// in\n    tag_30:\n      mload(0x40)\n      dup1\n      swap2\n      sub\n      swap1\n      log1\n        /* \"tests/utils/GasMeasure.sol\":173:314  {... */\n      pop\n      pop\n        /* \"tests/test.sol\":453:635  function testDemo() public logs_gas {... */\n      jump\t// out\n        /* \"tests/test.sol\":1897:2364  function computeIfSavedGas() public view returns(uint gasSaved) {... */\n    tag_10:\n        /* \"tests/test.sol\":1946:1959  uint gasSaved */\n      0x00\n        /* \"tests/test.sol\":1971:1980  uint256 a */\n      dup1\n        /* \"tests/test.sol\":1983:1984  2 */\n      0x02\n        /* \"tests/test.sol\":1971:1984  uint256 a = 2 */\n      swap1\n      pop\n        /* \"tests/test.sol\":1994:2003  uint256 b */\n      0x00\n        /* \"tests/test.sol\":2006:2007  2 */\n      0x02\n        /* \"tests/test.sol\":1994:2007  uint256 b = 2 */\n      swap1\n      pop\n        /* \"tests/test.sol\":2018:2034  uint256 startGas */\n      0x00\n        /* \"tests/test.sol\":2037:2046  gasleft() */\n      gas\n        /* \"tests/test.sol\":2018:2046  uint256 startGas = gasleft() */\n      swap1\n      pop\n        /* \"tests/test.sol\":2056:2062  ifDemo */\n      0x02\n      0x00\n      swap1\n      sload\n      swap1\n      0x0100\n      exp\n      swap1\n      div\n      0xffffffffffffffffffffffffffffffffffffffff\n      and\n        /* \"tests/test.sol\":2056:2075  ifDemo.andCondition */\n      0xffffffffffffffffffffffffffffffffffffffff\n      and\n      0xd6238a42\n        /* \"tests/test.sol\":2076:2077  a */\n      dup5\n        /* \"tests/test.sol\":2079:2080  b */\n      dup5\n        /* \"tests/test.sol\":2056:2081  ifDemo.andCondition(a, b) */\n      mload(0x40)\n      dup4\n      0xffffffff\n      and\n      0xe0\n      shl\n      dup2\n      mstore\n      0x04\n      add\n      tag_33\n      swap3\n      swap2\n      swap1\n      tag_34\n      jump\t// in\n    tag_33:\n      0x20\n      mload(0x40)\n      dup1\n      dup4\n      sub\n      dup2\n      dup7\n      gas\n      staticcall\n      iszero\n      dup1\n      iszero\n      tag_36\n      jumpi\n      returndatasize\n      0x00\n      dup1\n      returndatacopy\n      revert(0x00, returndatasize)\n    tag_36:\n      pop\n      pop\n      pop\n      pop\n      mload(0x40)\n      returndatasize\n      not(0x1f)\n      0x1f\n      dup3\n      add\n      and\n      dup3\n      add\n      dup1\n      0x40\n      mstore\n      pop\n      dup2\n      add\n      swap1\n      tag_37\n      swap2\n      swap1\n      tag_38\n      jump\t// in\n    tag_37:\n      pop\n        /* \"tests/test.sol\":2091:2105  uint256 endGas */\n      0x00\n        /* \"tests/test.sol\":2108:2117  gasleft() */\n      gas\n        /* \"tests/test.sol\":2091:2117  uint256 endGas = gasleft() */\n      swap1\n      pop\n        /* \"tests/test.sol\":2127:2144  uint256 gasUsage1 */\n      0x00\n        /* \"tests/test.sol\":2158:2164  endGas */\n      dup2\n        /* \"tests/test.sol\":2147:2155  startGas */\n      dup4\n        /* \"tests/test.sol\":2147:2164  startGas - endGas */\n      tag_39\n      swap2\n      swap1\n      tag_29\n      jump\t// in\n    tag_39:\n        /* \"tests/test.sol\":2127:2164  uint256 gasUsage1 = startGas - endGas */\n      swap1\n      pop\n        /* \"tests/test.sol\":2186:2195  gasleft() */\n      gas\n        /* \"tests/test.sol\":2175:2195  startGas = gasleft() */\n      swap3\n      pop\n        /* \"tests/test.sol\":2205:2211  ifDemo */\n      0x02\n      0x00\n      swap1\n      sload\n      swap1\n      0x0100\n      exp\n      swap1\n      div\n      0xffffffffffffffffffffffffffffffffffffffff\n      and\n        /* \"tests/test.sol\":2205:2225  ifDemo.tierCondition */\n      0xffffffffffffffffffffffffffffffffffffffff\n      and\n      0x07c26710\n        /* \"tests/test.sol\":2226:2227  a */\n      dup7\n        /* \"tests/test.sol\":2229:2230  b */\n      dup7\n        /* \"tests/test.sol\":2205:2231  ifDemo.tierCondition(a, b) */\n      mload(0x40)\n      dup4\n      0xffffffff\n      and\n      0xe0\n      shl\n      dup2\n      mstore\n      0x04\n      add\n      tag_40\n      swap3\n      swap2\n      swap1\n      tag_34\n      jump\t// in\n    tag_40:\n      0x20\n      mload(0x40)\n      dup1\n      dup4\n      sub\n      dup2\n      dup7\n      gas\n      staticcall\n      iszero\n      dup1\n      iszero\n      tag_42\n      jumpi\n      returndatasize\n      0x00\n      dup1\n      returndatacopy\n      revert(0x00, returndatasize)\n    tag_42:\n      pop\n      pop\n      pop\n      pop\n      mload(0x40)\n      returndatasize\n      not(0x1f)\n      0x1f\n      dup3\n      add\n      and\n      dup3\n      add\n      dup1\n      0x40\n      mstore\n      pop\n      dup2\n      add\n      swap1\n      tag_43\n      swap2\n      swap1\n      tag_38\n      jump\t// in\n    tag_43:\n      pop\n        /* \"tests/test.sol\":2250:2259  gasleft() */\n      gas\n        /* \"tests/test.sol\":2241:2259  endGas = gasleft() */\n      swap2\n      pop\n        /* \"tests/test.sol\":2269:2286  uint256 gasUsage2 */\n      0x00\n        /* \"tests/test.sol\":2300:2306  endGas */\n      dup3\n        /* \"tests/test.sol\":2289:2297  startGas */\n      dup5\n        /* \"tests/test.sol\":2289:2306  startGas - endGas */\n      tag_44\n      swap2\n      swap1\n      tag_29\n      jump\t// in\n    tag_44:\n        /* \"tests/test.sol\":2269:2306  uint256 gasUsage2 = startGas - endGas */\n      swap1\n      pop\n        /* \"tests/test.sol\":2335:2344  gasUsage2 */\n      dup1\n        /* \"tests/test.sol\":2323:2332  gasUsage1 */\n      dup3\n        /* \"tests/test.sol\":2323:2344  gasUsage1 - gasUsage2 */\n      tag_45\n      swap2\n      swap1\n      tag_29\n      jump\t// in\n    tag_45:\n        /* \"tests/test.sol\":2316:2344  return gasUsage1 - gasUsage2 */\n      swap7\n      pop\n      pop\n      pop\n      pop\n      pop\n      pop\n      pop\n        /* \"tests/test.sol\":1897:2364  function computeIfSavedGas() public view returns(uint gasSaved) {... */\n      swap1\n      jump\t// out\n        /* \"tests/test.sol\":641:1189  function computeUncheckedSavedGas() public returns(uint gasSaved) {... */\n    tag_14:\n        /* \"tests/test.sol\":692:705  uint gasSaved */\n      0x00\n        /* \"tests/test.sol\":717:727  address to */\n      dup1\n        /* \"tests/test.sol\":738:744  0xBEEF */\n      0xbeef\n        /* \"tests/test.sol\":717:745  address to = address(0xBEEF) */\n      swap1\n      pop\n        /* \"tests/test.sol\":755:769  uint256 amount */\n      0x00\n        /* \"tests/test.sol\":772:774  18 */\n      0x12\n        /* \"tests/test.sol\":755:774  uint256 amount = 18 */\n      swap1\n      pop\n        /* \"tests/test.sol\":785:801  uint256 startGas */\n      0x00\n        /* \"tests/test.sol\":804:813  gasleft() */\n      gas\n        /* \"tests/test.sol\":785:813  uint256 startGas = gasleft() */\n      swap1\n      pop\n        /* \"tests/test.sol\":823:836  uncheckedDemo */\n      0x00\n      dup1\n      sload\n      swap1\n      0x0100\n      exp\n      swap1\n      div\n      0xffffffffffffffffffffffffffffffffffffffff\n      and\n        /* \"tests/test.sol\":823:848  uncheckedDemo.checkedMint */\n      0xffffffffffffffffffffffffffffffffffffffff\n      and\n      0x48a00467\n        /* \"tests/test.sol\":849:851  to */\n      dup5\n        /* \"tests/test.sol\":853:859  amount */\n      dup5\n        /* \"tests/test.sol\":823:860  uncheckedDemo.checkedMint(to, amount) */\n      mload(0x40)\n      dup4\n      0xffffffff\n      and\n      0xe0\n      shl\n      dup2\n      mstore\n      0x04\n      add\n      tag_47\n      swap3\n      swap2\n      swap1\n      tag_48\n      jump\t// in\n    tag_47:\n      0x00\n      mload(0x40)\n      dup1\n      dup4\n      sub\n      dup2\n      0x00\n      dup8\n      dup1\n      extcodesize\n      iszero\n      dup1\n      iszero\n      tag_49\n      jumpi\n      0x00\n      dup1\n      revert\n    tag_49:\n      pop\n      gas\n      call\n      iszero\n      dup1\n      iszero\n      tag_51\n      jumpi\n      returndatasize\n      0x00\n      dup1\n      returndatacopy\n      revert(0x00, returndatasize)\n    tag_51:\n      pop\n      pop\n      pop\n      pop\n        /* \"tests/test.sol\":870:884  uint256 endGas */\n      0x00\n        /* \"tests/test.sol\":887:896  gasleft() */\n      gas\n        /* \"tests/test.sol\":870:896  uint256 endGas = gasleft() */\n      swap1\n      pop\n        /* \"tests/test.sol\":906:930  uint256 gasUsage_checked */\n      0x00\n        /* \"tests/test.sol\":944:950  endGas */\n      dup2\n        /* \"tests/test.sol\":933:941  startGas */\n      dup4\n        /* \"tests/test.sol\":933:950  startGas - endGas */\n      tag_52\n      swap2\n      swap1\n      tag_29\n      jump\t// in\n    tag_52:\n        /* \"tests/test.sol\":906:950  uint256 gasUsage_checked = startGas - endGas */\n      swap1\n      pop\n        /* \"tests/test.sol\":972:981  gasleft() */\n      gas\n        /* \"tests/test.sol\":961:981  startGas = gasleft() */\n      swap3\n      pop\n        /* \"tests/test.sol\":991:1004  uncheckedDemo */\n      0x00\n      dup1\n      sload\n      swap1\n      0x0100\n      exp\n      swap1\n      div\n      0xffffffffffffffffffffffffffffffffffffffff\n      and\n        /* \"tests/test.sol\":991:1018  uncheckedDemo.uncheckedMint */\n      0xffffffffffffffffffffffffffffffffffffffff\n      and\n      0x36244481\n        /* \"tests/test.sol\":1019:1021  to */\n      dup7\n        /* \"tests/test.sol\":1023:1029  amount */\n      dup7\n        /* \"tests/test.sol\":991:1030  uncheckedDemo.uncheckedMint(to, amount) */\n      mload(0x40)\n      dup4\n      0xffffffff\n      and\n      0xe0\n      shl\n      dup2\n      mstore\n      0x04\n      add\n      tag_53\n      swap3\n      swap2\n      swap1\n      tag_48\n      jump\t// in\n    tag_53:\n      0x00\n      mload(0x40)\n      dup1\n      dup4\n      sub\n      dup2\n      0x00\n      dup8\n      dup1\n      extcodesize\n      iszero\n      dup1\n      iszero\n      tag_54\n      jumpi\n      0x00\n      dup1\n      revert\n    tag_54:\n      pop\n      gas\n      call\n      iszero\n      dup1\n      iszero\n      tag_56\n      jumpi\n      returndatasize\n      0x00\n      dup1\n      returndatacopy\n      revert(0x00, returndatasize)\n    tag_56:\n      pop\n      pop\n      pop\n      pop\n        /* \"tests/test.sol\":1049:1058  gasleft() */\n      gas\n        /* \"tests/test.sol\":1040:1058  endGas = gasleft() */\n      swap2\n      pop\n        /* \"tests/test.sol\":1068:1094  uint256 gasUsage_unchecked */\n      0x00\n        /* \"tests/test.sol\":1108:1114  endGas */\n      dup3\n        /* \"tests/test.sol\":1097:1105  startGas */\n      dup5\n        /* \"tests/test.sol\":1097:1114  startGas - endGas */\n      tag_57\n      swap2\n      swap1\n      tag_29\n      jump\t// in\n    tag_57:\n        /* \"tests/test.sol\":1068:1114  uint256 gasUsage_unchecked = startGas - endGas */\n      swap1\n      pop\n        /* \"tests/test.sol\":1151:1169  gasUsage_unchecked */\n      dup1\n        /* \"tests/test.sol\":1132:1148  gasUsage_checked */\n      dup3\n        /* \"tests/test.sol\":1132:1169  gasUsage_checked - gasUsage_unchecked */\n      tag_58\n      swap2\n      swap1\n      tag_29\n      jump\t// in\n    tag_58:\n        /* \"tests/test.sol\":1125:1169  return gasUsage_checked - gasUsage_unchecked */\n      swap7\n      pop\n      pop\n      pop\n      pop\n      pop\n      pop\n      pop\n        /* \"tests/test.sol\":641:1189  function computeUncheckedSavedGas() public returns(uint gasSaved) {... */\n      swap1\n      jump\t// out\n        /* \"tests/test.sol\":1195:1890  function computeReturnGas() public {... */\n    tag_17:\n        /* \"tests/test.sol\":1240:1249  uint256 a */\n      0x00\n        /* \"tests/test.sol\":1252:1253  1 */\n      0x01\n        /* \"tests/test.sol\":1240:1253  uint256 a = 1 */\n      swap1\n      pop\n        /* \"tests/test.sol\":1263:1272  uint256 b */\n      0x00\n        /* \"tests/test.sol\":1275:1276  2 */\n      0x02\n        /* \"tests/test.sol\":1263:1276  uint256 b = 2 */\n      swap1\n      pop\n        /* \"tests/test.sol\":1287:1303  uint256 startGas */\n      0x00\n        /* \"tests/test.sol\":1306:1315  gasleft() */\n      gas\n        /* \"tests/test.sol\":1287:1315  uint256 startGas = gasleft() */\n      swap1\n      pop\n        /* \"tests/test.sol\":1325:1335  simpleTest */\n      0x01\n      0x00\n      swap1\n      sload\n      swap1\n      0x0100\n      exp\n      swap1\n      div\n      0xffffffffffffffffffffffffffffffffffffffff\n      and\n        /* \"tests/test.sol\":1325:1340  simpleTest.add1 */\n      0xffffffffffffffffffffffffffffffffffffffff\n      and\n      0x76b81449\n        /* \"tests/test.sol\":1341:1342  a */\n      dup5\n        /* \"tests/test.sol\":1344:1345  b */\n      dup5\n        /* \"tests/test.sol\":1325:1346  simpleTest.add1(a, b) */\n      mload(0x40)\n      dup4\n      0xffffffff\n      and\n      0xe0\n      shl\n      dup2\n      mstore\n      0x04\n      add\n      tag_60\n      swap3\n      swap2\n      swap1\n      tag_34\n      jump\t// in\n    tag_60:\n      0x20\n      mload(0x40)\n      dup1\n      dup4\n      sub\n      dup2\n      dup7\n      gas\n      staticcall\n      iszero\n      dup1\n      iszero\n      tag_62\n      jumpi\n      returndatasize\n      0x00\n      dup1\n      returndatacopy\n      revert(0x00, returndatasize)\n    tag_62:\n      pop\n      pop\n      pop\n      pop\n      mload(0x40)\n      returndatasize\n      not(0x1f)\n      0x1f\n      dup3\n      add\n      and\n      dup3\n      add\n      dup1\n      0x40\n      mstore\n      pop\n      dup2\n      add\n      swap1\n      tag_63\n      swap2\n      swap1\n      tag_38\n      jump\t// in\n    tag_63:\n      pop\n        /* \"tests/test.sol\":1356:1370  uint256 endGas */\n      0x00\n        /* \"tests/test.sol\":1373:1382  gasleft() */\n      gas\n        /* \"tests/test.sol\":1356:1382  uint256 endGas = gasleft() */\n      swap1\n      pop\n        /* \"tests/test.sol\":1392:1409  uint256 gasUsage1 */\n      0x00\n        /* \"tests/test.sol\":1423:1429  endGas */\n      dup2\n        /* \"tests/test.sol\":1412:1420  startGas */\n      dup4\n        /* \"tests/test.sol\":1412:1429  startGas - endGas */\n      tag_64\n      swap2\n      swap1\n      tag_29\n      jump\t// in\n    tag_64:\n        /* \"tests/test.sol\":1392:1429  uint256 gasUsage1 = startGas - endGas */\n      swap1\n      pop\n        /* \"tests/test.sol\":1444:1477  log_named_uint(\"gas1\", gasUsage1) */\n      0xb2de2fbe801a0df6c0cbddfd448ba3c41d48a040ca35c56c8196ef0fcae721a8\n        /* \"tests/test.sol\":1467:1476  gasUsage1 */\n      dup2\n        /* \"tests/test.sol\":1444:1477  log_named_uint(\"gas1\", gasUsage1) */\n      mload(0x40)\n      tag_65\n      swap2\n      swap1\n      tag_66\n      jump\t// in\n    tag_65:\n      mload(0x40)\n      dup1\n      swap2\n      sub\n      swap1\n      log1\n        /* \"tests/test.sol\":1511:1520  gasleft() */\n      gas\n        /* \"tests/test.sol\":1500:1520  startGas = gasleft() */\n      swap3\n      pop\n        /* \"tests/test.sol\":1530:1540  simpleTest */\n      0x01\n      0x00\n      swap1\n      sload\n      swap1\n      0x0100\n      exp\n      swap1\n      div\n      0xffffffffffffffffffffffffffffffffffffffff\n      and\n        /* \"tests/test.sol\":1530:1545  simpleTest.add2 */\n      0xffffffffffffffffffffffffffffffffffffffff\n      and\n      0x29fcda33\n        /* \"tests/test.sol\":1546:1547  a */\n      dup7\n        /* \"tests/test.sol\":1549:1550  b */\n      dup7\n        /* \"tests/test.sol\":1530:1551  simpleTest.add2(a, b) */\n      mload(0x40)\n      dup4\n      0xffffffff\n      and\n      0xe0\n      shl\n      dup2\n      mstore\n      0x04\n      add\n      tag_67\n      swap3\n      swap2\n      swap1\n      tag_34\n      jump\t// in\n    tag_67:\n      0x20\n      mload(0x40)\n      dup1\n      dup4\n      sub\n      dup2\n      dup7\n      gas\n      staticcall\n      iszero\n      dup1\n      iszero\n      tag_69\n      jumpi\n      returndatasize\n      0x00\n      dup1\n      returndatacopy\n      revert(0x00, returndatasize)\n    tag_69:\n      pop\n      pop\n      pop\n      pop\n      mload(0x40)\n      returndatasize\n      not(0x1f)\n      0x1f\n      dup3\n      add\n      and\n      dup3\n      add\n      dup1\n      0x40\n      mstore\n      pop\n      dup2\n      add\n      swap1\n      tag_70\n      swap2\n      swap1\n      tag_38\n      jump\t// in\n    tag_70:\n      pop\n        /* \"tests/test.sol\":1570:1579  gasleft() */\n      gas\n        /* \"tests/test.sol\":1561:1579  endGas = gasleft() */\n      swap2\n      pop\n        /* \"tests/test.sol\":1589:1606  uint256 gasUsage2 */\n      0x00\n        /* \"tests/test.sol\":1620:1626  endGas */\n      dup3\n        /* \"tests/test.sol\":1609:1617  startGas */\n      dup5\n        /* \"tests/test.sol\":1609:1626  startGas - endGas */\n      tag_71\n      swap2\n      swap1\n      tag_29\n      jump\t// in\n    tag_71:\n        /* \"tests/test.sol\":1589:1626  uint256 gasUsage2 = startGas - endGas */\n      swap1\n      pop\n        /* \"tests/test.sol\":1641:1674  log_named_uint(\"gas2\", gasUsage2) */\n      0xb2de2fbe801a0df6c0cbddfd448ba3c41d48a040ca35c56c8196ef0fcae721a8\n        /* \"tests/test.sol\":1664:1673  gasUsage2 */\n      dup2\n        /* \"tests/test.sol\":1641:1674  log_named_uint(\"gas2\", gasUsage2) */\n      mload(0x40)\n      tag_72\n      swap2\n      swap1\n      tag_73\n      jump\t// in\n    tag_72:\n      mload(0x40)\n      dup1\n      swap2\n      sub\n      swap1\n      log1\n        /* \"tests/test.sol\":1708:1717  gasleft() */\n      gas\n        /* \"tests/test.sol\":1697:1717  startGas = gasleft() */\n      swap4\n      pop\n        /* \"tests/test.sol\":1727:1737  simpleTest */\n      0x01\n      0x00\n      swap1\n      sload\n      swap1\n      0x0100\n      exp\n      swap1\n      div\n      0xffffffffffffffffffffffffffffffffffffffff\n      and\n        /* \"tests/test.sol\":1727:1742  simpleTest.add3 */\n      0xffffffffffffffffffffffffffffffffffffffff\n      and\n      0xc3314f\n        /* \"tests/test.sol\":1743:1744  a */\n      dup8\n        /* \"tests/test.sol\":1746:1747  b */\n      dup8\n        /* \"tests/test.sol\":1727:1748  simpleTest.add3(a, b) */\n      mload(0x40)\n      dup4\n      0xffffffff\n      and\n      0xe0\n      shl\n      dup2\n      mstore\n      0x04\n      add\n      tag_74\n      swap3\n      swap2\n      swap1\n      tag_34\n      jump\t// in\n    tag_74:\n      0x20\n      mload(0x40)\n      dup1\n      dup4\n      sub\n      dup2\n      dup7\n      gas\n      staticcall\n      iszero\n      dup1\n      iszero\n      tag_76\n      jumpi\n      returndatasize\n      0x00\n      dup1\n      returndatacopy\n      revert(0x00, returndatasize)\n    tag_76:\n      pop\n      pop\n      pop\n      pop\n      mload(0x40)\n      returndatasize\n      not(0x1f)\n      0x1f\n      dup3\n      add\n      and\n      dup3\n      add\n      dup1\n      0x40\n      mstore\n      pop\n      dup2\n      add\n      swap1\n      tag_77\n      swap2\n      swap1\n      tag_38\n      jump\t// in\n    tag_77:\n      pop\n        /* \"tests/test.sol\":1767:1776  gasleft() */\n      gas\n        /* \"tests/test.sol\":1758:1776  endGas = gasleft() */\n      swap3\n      pop\n        /* \"tests/test.sol\":1786:1803  uint256 gasUsage3 */\n      0x00\n        /* \"tests/test.sol\":1817:1823  endGas */\n      dup4\n        /* \"tests/test.sol\":1806:1814  startGas */\n      dup6\n        /* \"tests/test.sol\":1806:1823  startGas - endGas */\n      tag_78\n      swap2\n      swap1\n      tag_29\n      jump\t// in\n    tag_78:\n        /* \"tests/test.sol\":1786:1823  uint256 gasUsage3 = startGas - endGas */\n      swap1\n      pop\n        /* \"tests/test.sol\":1838:1871  log_named_uint(\"gas3\", gasUsage3) */\n      0xb2de2fbe801a0df6c0cbddfd448ba3c41d48a040ca35c56c8196ef0fcae721a8\n        /* \"tests/test.sol\":1861:1870  gasUsage3 */\n      dup2\n        /* \"tests/test.sol\":1838:1871  log_named_uint(\"gas3\", gasUsage3) */\n      mload(0x40)\n      tag_79\n      swap2\n      swap1\n      tag_80\n      jump\t// in\n    tag_79:\n      mload(0x40)\n      dup1\n      swap2\n      sub\n      swap1\n      log1\n        /* \"tests/test.sol\":1230:1890  {... */\n      pop\n      pop\n      pop\n      pop\n      pop\n      pop\n      pop\n        /* \"tests/test.sol\":1195:1890  function computeReturnGas() public {... */\n      jump\t// out\n        /* \"#utility.yul\":7:84   */\n    tag_81:\n        /* \"#utility.yul\":44:51   */\n      0x00\n        /* \"#utility.yul\":73:78   */\n      dup2\n        /* \"#utility.yul\":62:78   */\n      swap1\n      pop\n        /* \"#utility.yul\":7:84   */\n      swap2\n      swap1\n      pop\n      jump\t// out\n        /* \"#utility.yul\":90:208   */\n    tag_82:\n        /* \"#utility.yul\":177:201   */\n      tag_111\n        /* \"#utility.yul\":195:200   */\n      dup2\n        /* \"#utility.yul\":177:201   */\n      tag_81\n      jump\t// in\n    tag_111:\n        /* \"#utility.yul\":172:175   */\n      dup3\n        /* \"#utility.yul\":165:202   */\n      mstore\n        /* \"#utility.yul\":90:208   */\n      pop\n      pop\n      jump\t// out\n        /* \"#utility.yul\":214:436   */\n    tag_12:\n        /* \"#utility.yul\":307:311   */\n      0x00\n        /* \"#utility.yul\":345:347   */\n      0x20\n        /* \"#utility.yul\":334:343   */\n      dup3\n        /* \"#utility.yul\":330:348   */\n      add\n        /* \"#utility.yul\":322:348   */\n      swap1\n      pop\n        /* \"#utility.yul\":358:429   */\n      tag_113\n        /* \"#utility.yul\":426:427   */\n      0x00\n        /* \"#utility.yul\":415:424   */\n      dup4\n        /* \"#utility.yul\":411:428   */\n      add\n        /* \"#utility.yul\":402:408   */\n      dup5\n        /* \"#utility.yul\":358:429   */\n      tag_82\n      jump\t// in\n    tag_113:\n        /* \"#utility.yul\":214:436   */\n      swap3\n      swap2\n      pop\n      pop\n      jump\t// out\n        /* \"#utility.yul\":442:622   */\n    tag_83:\n        /* \"#utility.yul\":490:567   */\n      0x4e487b7100000000000000000000000000000000000000000000000000000000\n        /* \"#utility.yul\":487:488   */\n      0x00\n        /* \"#utility.yul\":480:568   */\n      mstore\n        /* \"#utility.yul\":587:591   */\n      0x11\n        /* \"#utility.yul\":584:585   */\n      0x04\n        /* \"#utility.yul\":577:592   */\n      mstore\n        /* \"#utility.yul\":611:615   */\n      0x24\n        /* \"#utility.yul\":608:609   */\n      0x00\n        /* \"#utility.yul\":601:616   */\n      revert\n        /* \"#utility.yul\":628:933   */\n    tag_21:\n        /* \"#utility.yul\":668:671   */\n      0x00\n        /* \"#utility.yul\":687:707   */\n      tag_116\n        /* \"#utility.yul\":705:706   */\n      dup3\n        /* \"#utility.yul\":687:707   */\n      tag_81\n      jump\t// in\n    tag_116:\n        /* \"#utility.yul\":682:707   */\n      swap2\n      pop\n        /* \"#utility.yul\":721:741   */\n      tag_117\n        /* \"#utility.yul\":739:740   */\n      dup4\n        /* \"#utility.yul\":721:741   */\n      tag_81\n      jump\t// in\n    tag_117:\n        /* \"#utility.yul\":716:741   */\n      swap3\n      pop\n        /* \"#utility.yul\":875:876   */\n      dup3\n        /* \"#utility.yul\":807:873   */\n      0xffffffffffffffffffffffffffffffffffffffffffffffffffffffffffffffff\n        /* \"#utility.yul\":803:877   */\n      sub\n        /* \"#utility.yul\":800:801   */\n      dup3\n        /* \"#utility.yul\":797:878   */\n      gt\n        /* \"#utility.yul\":794:901   */\n      iszero\n      tag_118\n      jumpi\n        /* \"#utility.yul\":881:899   */\n      tag_119\n      tag_83\n      jump\t// in\n    tag_119:\n        /* \"#utility.yul\":794:901   */\n    tag_118:\n        /* \"#utility.yul\":925:926   */\n      dup3\n        /* \"#utility.yul\":922:923   */\n      dup3\n        /* \"#utility.yul\":918:927   */\n      add\n        /* \"#utility.yul\":911:927   */\n      swap1\n      pop\n        /* \"#utility.yul\":628:933   */\n      swap3\n      swap2\n      pop\n      pop\n      jump\t// out\n        /* \"#utility.yul\":939:1065   */\n    tag_84:\n        /* \"#utility.yul\":1034:1058   */\n      tag_121\n        /* \"#utility.yul\":1052:1057   */\n      dup2\n        /* \"#utility.yul\":1034:1058   */\n      tag_81\n      jump\t// in\n    tag_121:\n        /* \"#utility.yul\":1029:1032   */\n      dup3\n        /* \"#utility.yul\":1022:1059   */\n      mstore\n        /* \"#utility.yul\":939:1065   */\n      pop\n      pop\n      jump\t// out\n        /* \"#utility.yul\":1071:1248   */\n    tag_85:\n        /* \"#utility.yul\":1163:1174   */\n      0x00\n        /* \"#utility.yul\":1197:1203   */\n      dup3\n        /* \"#utility.yul\":1192:1195   */\n      dup3\n        /* \"#utility.yul\":1185:1204   */\n      mstore\n        /* \"#utility.yul\":1237:1241   */\n      0x20\n        /* \"#utility.yul\":1232:1235   */\n      dup3\n        /* \"#utility.yul\":1228:1242   */\n      add\n        /* \"#utility.yul\":1213:1242   */\n      swap1\n      pop\n        /* \"#utility.yul\":1071:1248   */\n      swap3\n      swap2\n      pop\n      pop\n      jump\t// out\n        /* \"#utility.yul\":1254:1431   */\n    tag_86:\n        /* \"#utility.yul\":1394:1423   */\n      0x726573756c742073686f756c6420626520657175616c20746f20330000000000\n        /* \"#utility.yul\":1390:1391   */\n      0x00\n        /* \"#utility.yul\":1382:1388   */\n      dup3\n        /* \"#utility.yul\":1378:1392   */\n      add\n        /* \"#utility.yul\":1371:1424   */\n      mstore\n        /* \"#utility.yul\":1254:1431   */\n      pop\n      jump\t// out\n        /* \"#utility.yul\":1437:1819   */\n    tag_87:\n        /* \"#utility.yul\":1587:1590   */\n      0x00\n        /* \"#utility.yul\":1608:1683   */\n      tag_125\n        /* \"#utility.yul\":1680:1682   */\n      0x1b\n        /* \"#utility.yul\":1675:1678   */\n      dup4\n        /* \"#utility.yul\":1608:1683   */\n      tag_85\n      jump\t// in\n    tag_125:\n        /* \"#utility.yul\":1601:1683   */\n      swap2\n      pop\n        /* \"#utility.yul\":1692:1785   */\n      tag_126\n        /* \"#utility.yul\":1781:1784   */\n      dup3\n        /* \"#utility.yul\":1692:1785   */\n      tag_86\n      jump\t// in\n    tag_126:\n        /* \"#utility.yul\":1810:1812   */\n      0x20\n        /* \"#utility.yul\":1805:1808   */\n      dup3\n        /* \"#utility.yul\":1801:1813   */\n      add\n        /* \"#utility.yul\":1794:1813   */\n      swap1\n      pop\n        /* \"#utility.yul\":1437:1819   */\n      swap2\n      swap1\n      pop\n      jump\t// out\n        /* \"#utility.yul\":1825:2496   */\n    tag_23:\n        /* \"#utility.yul\":2055:2059   */\n      0x00\n        /* \"#utility.yul\":2093:2095   */\n      0x60\n        /* \"#utility.yul\":2082:2091   */\n      dup3\n        /* \"#utility.yul\":2078:2096   */\n      add\n        /* \"#utility.yul\":2070:2096   */\n      swap1\n      pop\n        /* \"#utility.yul\":2106:2185   */\n      tag_128\n        /* \"#utility.yul\":2182:2183   */\n      0x00\n        /* \"#utility.yul\":2171:2180   */\n      dup4\n        /* \"#utility.yul\":2167:2184   */\n      add\n        /* \"#utility.yul\":2158:2164   */\n      dup6\n        /* \"#utility.yul\":2106:2185   */\n      tag_84\n      jump\t// in\n    tag_128:\n        /* \"#utility.yul\":2195:2275   */\n      tag_129\n        /* \"#utility.yul\":2271:2273   */\n      0x20\n        /* \"#utility.yul\":2260:2269   */\n      dup4\n        /* \"#utility.yul\":2256:2274   */\n      add\n        /* \"#utility.yul\":2247:2253   */\n      dup5\n        /* \"#utility.yul\":2195:2275   */\n      tag_84\n      jump\t// in\n    tag_129:\n        /* \"#utility.yul\":2322:2331   */\n      dup2\n        /* \"#utility.yul\":2316:2320   */\n      dup2\n        /* \"#utility.yul\":2312:2332   */\n      sub\n        /* \"#utility.yul\":2307:2309   */\n      0x40\n        /* \"#utility.yul\":2296:2305   */\n      dup4\n        /* \"#utility.yul\":2292:2310   */\n      add\n        /* \"#utility.yul\":2285:2333   */\n      mstore\n        /* \"#utility.yul\":2350:2489   */\n      tag_130\n        /* \"#utility.yul\":2484:2488   */\n      dup2\n        /* \"#utility.yul\":2350:2489   */\n      tag_87\n      jump\t// in\n    tag_130:\n        /* \"#utility.yul\":2342:2489   */\n      swap1\n      pop\n        /* \"#utility.yul\":1825:2496   */\n      swap4\n      swap3\n      pop\n      pop\n      pop\n      jump\t// out\n        /* \"#utility.yul\":2583:2700   */\n    tag_89:\n        /* \"#utility.yul\":2692:2693   */\n      0x00\n        /* \"#utility.yul\":2689:2690   */\n      dup1\n        /* \"#utility.yul\":2682:2694   */\n      revert\n        /* \"#utility.yul\":2829:2919   */\n    tag_91:\n        /* \"#utility.yul\":2863:2870   */\n      0x00\n        /* \"#utility.yul\":2906:2911   */\n      dup2\n        /* \"#utility.yul\":2899:2912   */\n      iszero\n        /* \"#utility.yul\":2892:2913   */\n      iszero\n        /* \"#utility.yul\":2881:2913   */\n      swap1\n      pop\n        /* \"#utility.yul\":2829:2919   */\n      swap2\n      swap1\n      pop\n      jump\t// out\n        /* \"#utility.yul\":2925:3041   */\n    tag_92:\n        /* \"#utility.yul\":2995:3016   */\n      tag_136\n        /* \"#utility.yul\":3010:3015   */\n      dup2\n        /* \"#utility.yul\":2995:3016   */\n      tag_91\n      jump\t// in\n    tag_136:\n        /* \"#utility.yul\":2988:2993   */\n      dup2\n        /* \"#utility.yul\":2985:3017   */\n      eq\n        /* \"#utility.yul\":2975:3035   */\n      tag_137\n      jumpi\n        /* \"#utility.yul\":3031:3032   */\n      0x00\n        /* \"#utility.yul\":3028:3029   */\n      dup1\n        /* \"#utility.yul\":3021:3033   */\n      revert\n        /* \"#utility.yul\":2975:3035   */\n    tag_137:\n        /* \"#utility.yul\":2925:3041   */\n      pop\n      jump\t// out\n        /* \"#utility.yul\":3047:3184   */\n    tag_93:\n        /* \"#utility.yul\":3101:3106   */\n      0x00\n        /* \"#utility.yul\":3132:3138   */\n      dup2\n        /* \"#utility.yul\":3126:3139   */\n      mload\n        /* \"#utility.yul\":3117:3139   */\n      swap1\n      pop\n        /* \"#utility.yul\":3148:3178   */\n      tag_139\n        /* \"#utility.yul\":3172:3177   */\n      dup2\n        /* \"#utility.yul\":3148:3178   */\n      tag_92\n      jump\t// in\n    tag_139:\n        /* \"#utility.yul\":3047:3184   */\n      swap3\n      swap2\n      pop\n      pop\n      jump\t// out\n        /* \"#utility.yul\":3190:3535   */\n    tag_27:\n        /* \"#utility.yul\":3257:3263   */\n      0x00\n        /* \"#utility.yul\":3306:3308   */\n      0x20\n        /* \"#utility.yul\":3294:3303   */\n      dup3\n        /* \"#utility.yul\":3285:3292   */\n      dup5\n        /* \"#utility.yul\":3281:3304   */\n      sub\n        /* \"#utility.yul\":3277:3309   */\n      slt\n        /* \"#utility.yul\":3274:3393   */\n      iszero\n      tag_141\n      jumpi\n        /* \"#utility.yul\":3312:3391   */\n      tag_142\n      tag_89\n      jump\t// in\n    tag_142:\n        /* \"#utility.yul\":3274:3393   */\n    tag_141:\n        /* \"#utility.yul\":3432:3433   */\n      0x00\n        /* \"#utility.yul\":3457:3518   */\n      tag_143\n        /* \"#utility.yul\":3510:3517   */\n      dup5\n        /* \"#utility.yul\":3501:3507   */\n      dup3\n        /* \"#utility.yul\":3490:3499   */\n      dup6\n        /* \"#utility.yul\":3486:3508   */\n      add\n        /* \"#utility.yul\":3457:3518   */\n      tag_93\n      jump\t// in\n    tag_143:\n        /* \"#utility.yul\":3447:3518   */\n      swap2\n      pop\n        /* \"#utility.yul\":3403:3528   */\n      pop\n        /* \"#utility.yul\":3190:3535   */\n      swap3\n      swap2\n      pop\n      pop\n      jump\t// out\n        /* \"#utility.yul\":3541:3732   */\n    tag_29:\n        /* \"#utility.yul\":3581:3585   */\n      0x00\n        /* \"#utility.yul\":3601:3621   */\n      tag_145\n        /* \"#utility.yul\":3619:3620   */\n      dup3\n        /* \"#utility.yul\":3601:3621   */\n      tag_81\n      jump\t// in\n    tag_145:\n        /* \"#utility.yul\":3596:3621   */\n      swap2\n      pop\n        /* \"#utility.yul\":3635:3655   */\n      tag_146\n        /* \"#utility.yul\":3653:3654   */\n      dup4\n        /* \"#utility.yul\":3635:3655   */\n      tag_81\n      jump\t// in\n    tag_146:\n        /* \"#utility.yul\":3630:3655   */\n      swap3\n      pop\n        /* \"#utility.yul\":3674:3675   */\n      dup3\n        /* \"#utility.yul\":3671:3672   */\n      dup3\n        /* \"#utility.yul\":3668:3676   */\n      lt\n        /* \"#utility.yul\":3665:3699   */\n      iszero\n      tag_147\n      jumpi\n        /* \"#utility.yul\":3679:3697   */\n      tag_148\n      tag_83\n      jump\t// in\n    tag_148:\n        /* \"#utility.yul\":3665:3699   */\n    tag_147:\n        /* \"#utility.yul\":3724:3725   */\n      dup3\n        /* \"#utility.yul\":3721:3722   */\n      dup3\n        /* \"#utility.yul\":3717:3726   */\n      sub\n        /* \"#utility.yul\":3709:3726   */\n      swap1\n      pop\n        /* \"#utility.yul\":3541:3732   */\n      swap3\n      swap2\n      pop\n      pop\n      jump\t// out\n        /* \"#utility.yul\":3738:3907   */\n    tag_94:\n        /* \"#utility.yul\":3822:3833   */\n      0x00\n        /* \"#utility.yul\":3856:3862   */\n      dup3\n        /* \"#utility.yul\":3851:3854   */\n      dup3\n        /* \"#utility.yul\":3844:3863   */\n      mstore\n        /* \"#utility.yul\":3896:3900   */\n      0x20\n        /* \"#utility.yul\":3891:3894   */\n      dup3\n        /* \"#utility.yul\":3887:3901   */\n      add\n        /* \"#utility.yul\":3872:3901   */\n      swap1\n      pop\n        /* \"#utility.yul\":3738:3907   */\n      swap3\n      swap2\n      pop\n      pop\n      jump\t// out\n        /* \"#utility.yul\":3913:4066   */\n    tag_95:\n        /* \"#utility.yul\":4053:4058   */\n      0x6761730000000000000000000000000000000000000000000000000000000000\n        /* \"#utility.yul\":4049:4050   */\n      0x00\n        /* \"#utility.yul\":4041:4047   */\n      dup3\n        /* \"#utility.yul\":4037:4051   */\n      add\n        /* \"#utility.yul\":4030:4059   */\n      mstore\n        /* \"#utility.yul\":3913:4066   */\n      pop\n      jump\t// out\n        /* \"#utility.yul\":4072:4437   */\n    tag_96:\n        /* \"#utility.yul\":4214:4217   */\n      0x00\n        /* \"#utility.yul\":4235:4301   */\n      tag_152\n        /* \"#utility.yul\":4299:4300   */\n      0x03\n        /* \"#utility.yul\":4294:4297   */\n      dup4\n        /* \"#utility.yul\":4235:4301   */\n      tag_94\n      jump\t// in\n    tag_152:\n        /* \"#utility.yul\":4228:4301   */\n      swap2\n      pop\n        /* \"#utility.yul\":4310:4403   */\n      tag_153\n        /* \"#utility.yul\":4399:4402   */\n      dup3\n        /* \"#utility.yul\":4310:4403   */\n      tag_95\n      jump\t// in\n    tag_153:\n        /* \"#utility.yul\":4428:4430   */\n      0x20\n        /* \"#utility.yul\":4423:4426   */\n      dup3\n        /* \"#utility.yul\":4419:4431   */\n      add\n        /* \"#utility.yul\":4412:4431   */\n      swap1\n      pop\n        /* \"#utility.yul\":4072:4437   */\n      swap2\n      swap1\n      pop\n      jump\t// out\n        /* \"#utility.yul\":4443:4972   */\n    tag_31:\n        /* \"#utility.yul\":4637:4641   */\n      0x00\n        /* \"#utility.yul\":4675:4677   */\n      0x40\n        /* \"#utility.yul\":4664:4673   */\n      dup3\n        /* \"#utility.yul\":4660:4678   */\n      add\n        /* \"#utility.yul\":4652:4678   */\n      swap1\n      pop\n        /* \"#utility.yul\":4724:4733   */\n      dup2\n        /* \"#utility.yul\":4718:4722   */\n      dup2\n        /* \"#utility.yul\":4714:4734   */\n      sub\n        /* \"#utility.yul\":4710:4711   */\n      0x00\n        /* \"#utility.yul\":4699:4708   */\n      dup4\n        /* \"#utility.yul\":4695:4712   */\n      add\n        /* \"#utility.yul\":4688:4735   */\n      mstore\n        /* \"#utility.yul\":4752:4883   */\n      tag_155\n        /* \"#utility.yul\":4878:4882   */\n      dup2\n        /* \"#utility.yul\":4752:4883   */\n      tag_96\n      jump\t// in\n    tag_155:\n        /* \"#utility.yul\":4744:4883   */\n      swap1\n      pop\n        /* \"#utility.yul\":4893:4965   */\n      tag_156\n        /* \"#utility.yul\":4961:4963   */\n      0x20\n        /* \"#utility.yul\":4950:4959   */\n      dup4\n        /* \"#utility.yul\":4946:4964   */\n      add\n        /* \"#utility.yul\":4937:4943   */\n      dup5\n        /* \"#utility.yul\":4893:4965   */\n      tag_82\n      jump\t// in\n    tag_156:\n        /* \"#utility.yul\":4443:4972   */\n      swap3\n      swap2\n      pop\n      pop\n      jump\t// out\n        /* \"#utility.yul\":4978:5310   */\n    tag_34:\n        /* \"#utility.yul\":5099:5103   */\n      0x00\n        /* \"#utility.yul\":5137:5139   */\n      0x40\n        /* \"#utility.yul\":5126:5135   */\n      dup3\n        /* \"#utility.yul\":5122:5140   */\n      add\n        /* \"#utility.yul\":5114:5140   */\n      swap1\n      pop\n        /* \"#utility.yul\":5150:5221   */\n      tag_158\n        /* \"#utility.yul\":5218:5219   */\n      0x00\n        /* \"#utility.yul\":5207:5216   */\n      dup4\n        /* \"#utility.yul\":5203:5220   */\n      add\n        /* \"#utility.yul\":5194:5200   */\n      dup6\n        /* \"#utility.yul\":5150:5221   */\n      tag_82\n      jump\t// in\n    tag_158:\n        /* \"#utility.yul\":5231:5303   */\n      tag_159\n        /* \"#utility.yul\":5299:5301   */\n      0x20\n        /* \"#utility.yul\":5288:5297   */\n      dup4\n        /* \"#utility.yul\":5284:5302   */\n      add\n        /* \"#utility.yul\":5275:5281   */\n      dup5\n        /* \"#utility.yul\":5231:5303   */\n      tag_82\n      jump\t// in\n    tag_159:\n        /* \"#utility.yul\":4978:5310   */\n      swap4\n      swap3\n      pop\n      pop\n      pop\n      jump\t// out\n        /* \"#utility.yul\":5316:5438   */\n    tag_97:\n        /* \"#utility.yul\":5389:5413   */\n      tag_161\n        /* \"#utility.yul\":5407:5412   */\n      dup2\n        /* \"#utility.yul\":5389:5413   */\n      tag_81\n      jump\t// in\n    tag_161:\n        /* \"#utility.yul\":5382:5387   */\n      dup2\n        /* \"#utility.yul\":5379:5414   */\n      eq\n        /* \"#utility.yul\":5369:5432   */\n      tag_162\n      jumpi\n        /* \"#utility.yul\":5428:5429   */\n      0x00\n        /* \"#utility.yul\":5425:5426   */\n      dup1\n        /* \"#utility.yul\":5418:5430   */\n      revert\n        /* \"#utility.yul\":5369:5432   */\n    tag_162:\n        /* \"#utility.yul\":5316:5438   */\n      pop\n      jump\t// out\n        /* \"#utility.yul\":5444:5587   */\n    tag_98:\n        /* \"#utility.yul\":5501:5506   */\n      0x00\n        /* \"#utility.yul\":5532:5538   */\n      dup2\n        /* \"#utility.yul\":5526:5539   */\n      mload\n        /* \"#utility.yul\":5517:5539   */\n      swap1\n      pop\n        /* \"#utility.yul\":5548:5581   */\n      tag_164\n        /* \"#utility.yul\":5575:5580   */\n      dup2\n        /* \"#utility.yul\":5548:5581   */\n      tag_97\n      jump\t// in\n    tag_164:\n        /* \"#utility.yul\":5444:5587   */\n      swap3\n      swap2\n      pop\n      pop\n      jump\t// out\n        /* \"#utility.yul\":5593:5944   */\n    tag_38:\n        /* \"#utility.yul\":5663:5669   */\n      0x00\n        /* \"#utility.yul\":5712:5714   */\n      0x20\n        /* \"#utility.yul\":5700:5709   */\n      dup3\n        /* \"#utility.yul\":5691:5698   */\n      dup5\n        /* \"#utility.yul\":5687:5710   */\n      sub\n        /* \"#utility.yul\":5683:5715   */\n      slt\n        /* \"#utility.yul\":5680:5799   */\n      iszero\n      tag_166\n      jumpi\n        /* \"#utility.yul\":5718:5797   */\n      tag_167\n      tag_89\n      jump\t// in\n    tag_167:\n        /* \"#utility.yul\":5680:5799   */\n    tag_166:\n        /* \"#utility.yul\":5838:5839   */\n      0x00\n        /* \"#utility.yul\":5863:5927   */\n      tag_168\n        /* \"#utility.yul\":5919:5926   */\n      dup5\n        /* \"#utility.yul\":5910:5916   */\n      dup3\n        /* \"#utility.yul\":5899:5908   */\n      dup6\n        /* \"#utility.yul\":5895:5917   */\n      add\n        /* \"#utility.yul\":5863:5927   */\n      tag_98\n      jump\t// in\n    tag_168:\n        /* \"#utility.yul\":5853:5927   */\n      swap2\n      pop\n        /* \"#utility.yul\":5809:5937   */\n      pop\n        /* \"#utility.yul\":5593:5944   */\n      swap3\n      swap2\n      pop\n      pop\n      jump\t// out\n        /* \"#utility.yul\":5950:6076   */\n    tag_99:\n        /* \"#utility.yul\":5987:5994   */\n      0x00\n        /* \"#utility.yul\":6027:6069   */\n      0xffffffffffffffffffffffffffffffffffffffff\n        /* \"#utility.yul\":6020:6025   */\n      dup3\n        /* \"#utility.yul\":6016:6070   */\n      and\n        /* \"#utility.yul\":6005:6070   */\n      swap1\n      pop\n        /* \"#utility.yul\":5950:6076   */\n      swap2\n      swap1\n      pop\n      jump\t// out\n        /* \"#utility.yul\":6082:6178   */\n    tag_100:\n        /* \"#utility.yul\":6119:6126   */\n      0x00\n        /* \"#utility.yul\":6148:6172   */\n      tag_171\n        /* \"#utility.yul\":6166:6171   */\n      dup3\n        /* \"#utility.yul\":6148:6172   */\n      tag_99\n      jump\t// in\n    tag_171:\n        /* \"#utility.yul\":6137:6172   */\n      swap1\n      pop\n        /* \"#utility.yul\":6082:6178   */\n      swap2\n      swap1\n      pop\n      jump\t// out\n        /* \"#utility.yul\":6184:6302   */\n    tag_101:\n        /* \"#utility.yul\":6271:6295   */\n      tag_173\n        /* \"#utility.yul\":6289:6294   */\n      dup2\n        /* \"#utility.yul\":6271:6295   */\n      tag_100\n      jump\t// in\n    tag_173:\n        /* \"#utility.yul\":6266:6269   */\n      dup3\n        /* \"#utility.yul\":6259:6296   */\n      mstore\n        /* \"#utility.yul\":6184:6302   */\n      pop\n      pop\n      jump\t// out\n        /* \"#utility.yul\":6308:6640   */\n    tag_48:\n        /* \"#utility.yul\":6429:6433   */\n      0x00\n        /* \"#utility.yul\":6467:6469   */\n      0x40\n        /* \"#utility.yul\":6456:6465   */\n      dup3\n        /* \"#utility.yul\":6452:6470   */\n      add\n        /* \"#utility.yul\":6444:6470   */\n      swap1\n      pop\n        /* \"#utility.yul\":6480:6551   */\n      tag_175\n        /* \"#utility.yul\":6548:6549   */\n      0x00\n        /* \"#utility.yul\":6537:6546   */\n      dup4\n        /* \"#utility.yul\":6533:6550   */\n      add\n        /* \"#utility.yul\":6524:6530   */\n      dup6\n        /* \"#utility.yul\":6480:6551   */\n      tag_101\n      jump\t// in\n    tag_175:\n        /* \"#utility.yul\":6561:6633   */\n      tag_176\n        /* \"#utility.yul\":6629:6631   */\n      0x20\n        /* \"#utility.yul\":6618:6627   */\n      dup4\n        /* \"#utility.yul\":6614:6632   */\n      add\n        /* \"#utility.yul\":6605:6611   */\n      dup5\n        /* \"#utility.yul\":6561:6633   */\n      tag_82\n      jump\t// in\n    tag_176:\n        /* \"#utility.yul\":6308:6640   */\n      swap4\n      swap3\n      pop\n      pop\n      pop\n      jump\t// out\n        /* \"#utility.yul\":6646:6800   */\n    tag_102:\n        /* \"#utility.yul\":6786:6792   */\n      0x6761733100000000000000000000000000000000000000000000000000000000\n        /* \"#utility.yul\":6782:6783   */\n      0x00\n        /* \"#utility.yul\":6774:6780   */\n      dup3\n        /* \"#utility.yul\":6770:6784   */\n      add\n        /* \"#utility.yul\":6763:6793   */\n      mstore\n        /* \"#utility.yul\":6646:6800   */\n      pop\n      jump\t// out\n        /* \"#utility.yul\":6806:7171   */\n    tag_103:\n        /* \"#utility.yul\":6948:6951   */\n      0x00\n        /* \"#utility.yul\":6969:7035   */\n      tag_179\n        /* \"#utility.yul\":7033:7034   */\n      0x04\n        /* \"#utility.yul\":7028:7031   */\n      dup4\n        /* \"#utility.yul\":6969:7035   */\n      tag_94\n      jump\t// in\n    tag_179:\n        /* \"#utility.yul\":6962:7035   */\n      swap2\n      pop\n        /* \"#utility.yul\":7044:7137   */\n      tag_180\n        /* \"#utility.yul\":7133:7136   */\n      dup3\n        /* \"#utility.yul\":7044:7137   */\n      tag_102\n      jump\t// in\n    tag_180:\n        /* \"#utility.yul\":7162:7164   */\n      0x20\n        /* \"#utility.yul\":7157:7160   */\n      dup3\n        /* \"#utility.yul\":7153:7165   */\n      add\n        /* \"#utility.yul\":7146:7165   */\n      swap1\n      pop\n        /* \"#utility.yul\":6806:7171   */\n      swap2\n      swap1\n      pop\n      jump\t// out\n        /* \"#utility.yul\":7177:7706   */\n    tag_66:\n        /* \"#utility.yul\":7371:7375   */\n      0x00\n        /* \"#utility.yul\":7409:7411   */\n      0x40\n        /* \"#utility.yul\":7398:7407   */\n      dup3\n        /* \"#utility.yul\":7394:7412   */\n      add\n        /* \"#utility.yul\":7386:7412   */\n      swap1\n      pop\n        /* \"#utility.yul\":7458:7467   */\n      dup2\n        /* \"#utility.yul\":7452:7456   */\n      dup2\n        /* \"#utility.yul\":7448:7468   */\n      sub\n        /* \"#utility.yul\":7444:7445   */\n      0x00\n        /* \"#utility.yul\":7433:7442   */\n      dup4\n        /* \"#utility.yul\":7429:7446   */\n      add\n        /* \"#utility.yul\":7422:7469   */\n      mstore\n        /* \"#utility.yul\":7486:7617   */\n      tag_182\n        /* \"#utility.yul\":7612:7616   */\n      dup2\n        /* \"#utility.yul\":7486:7617   */\n      tag_103\n      jump\t// in\n    tag_182:\n        /* \"#utility.yul\":7478:7617   */\n      swap1\n      pop\n        /* \"#utility.yul\":7627:7699   */\n      tag_183\n        /* \"#utility.yul\":7695:7697   */\n      0x20\n        /* \"#utility.yul\":7684:7693   */\n      dup4\n        /* \"#utility.yul\":7680:7698   */\n      add\n        /* \"#utility.yul\":7671:7677   */\n      dup5\n        /* \"#utility.yul\":7627:7699   */\n      tag_82\n      jump\t// in\n    tag_183:\n        /* \"#utility.yul\":7177:7706   */\n      swap3\n      swap2\n      pop\n      pop\n      jump\t// out\n        /* \"#utility.yul\":7712:7866   */\n    tag_104:\n        /* \"#utility.yul\":7852:7858   */\n      0x6761733200000000000000000000000000000000000000000000000000000000\n        /* \"#utility.yul\":7848:7849   */\n      0x00\n        /* \"#utility.yul\":7840:7846   */\n      dup3\n        /* \"#utility.yul\":7836:7850   */\n      add\n        /* \"#utility.yul\":7829:7859   */\n      mstore\n        /* \"#utility.yul\":7712:7866   */\n      pop\n      jump\t// out\n        /* \"#utility.yul\":7872:8237   */\n    tag_105:\n        /* \"#utility.yul\":8014:8017   */\n      0x00\n        /* \"#utility.yul\":8035:8101   */\n      tag_186\n        /* \"#utility.yul\":8099:8100   */\n      0x04\n        /* \"#utility.yul\":8094:8097   */\n      dup4\n        /* \"#utility.yul\":8035:8101   */\n      tag_94\n      jump\t// in\n    tag_186:\n        /* \"#utility.yul\":8028:8101   */\n      swap2\n      pop\n        /* \"#utility.yul\":8110:8203   */\n      tag_187\n        /* \"#utility.yul\":8199:8202   */\n      dup3\n        /* \"#utility.yul\":8110:8203   */\n      tag_104\n      jump\t// in\n    tag_187:\n        /* \"#utility.yul\":8228:8230   */\n      0x20\n        /* \"#utility.yul\":8223:8226   */\n      dup3\n        /* \"#utility.yul\":8219:8231   */\n      add\n        /* \"#utility.yul\":8212:8231   */\n      swap1\n      pop\n        /* \"#utility.yul\":7872:8237   */\n      swap2\n      swap1\n      pop\n      jump\t// out\n        /* \"#utility.yul\":8243:8772   */\n    tag_73:\n        /* \"#utility.yul\":8437:8441   */\n      0x00\n        /* \"#utility.yul\":8475:8477   */\n      0x40\n        /* \"#utility.yul\":8464:8473   */\n      dup3\n        /* \"#utility.yul\":8460:8478   */\n      add\n        /* \"#utility.yul\":8452:8478   */\n      swap1\n      pop\n        /* \"#utility.yul\":8524:8533   */\n      dup2\n        /* \"#utility.yul\":8518:8522   */\n      dup2\n        /* \"#utility.yul\":8514:8534   */\n      sub\n        /* \"#utility.yul\":8510:8511   */\n      0x00\n        /* \"#utility.yul\":8499:8508   */\n      dup4\n        /* \"#utility.yul\":8495:8512   */\n      add\n        /* \"#utility.yul\":8488:8535   */\n      mstore\n        /* \"#utility.yul\":8552:8683   */\n      tag_189\n        /* \"#utility.yul\":8678:8682   */\n      dup2\n        /* \"#utility.yul\":8552:8683   */\n      tag_105\n      jump\t// in\n    tag_189:\n        /* \"#utility.yul\":8544:8683   */\n      swap1\n      pop\n        /* \"#utility.yul\":8693:8765   */\n      tag_190\n        /* \"#utility.yul\":8761:8763   */\n      0x20\n        /* \"#utility.yul\":8750:8759   */\n      dup4\n        /* \"#utility.yul\":8746:8764   */\n      add\n        /* \"#utility.yul\":8737:8743   */\n      dup5\n        /* \"#utility.yul\":8693:8765   */\n      tag_82\n      jump\t// in\n    tag_190:\n        /* \"#utility.yul\":8243:8772   */\n      swap3\n      swap2\n      pop\n      pop\n      jump\t// out\n        /* \"#utility.yul\":8778:8932   */\n    tag_106:\n        /* \"#utility.yul\":8918:8924   */\n      0x6761733300000000000000000000000000000000000000000000000000000000\n        /* \"#utility.yul\":8914:8915   */\n      0x00\n        /* \"#utility.yul\":8906:8912   */\n      dup3\n        /* \"#utility.yul\":8902:8916   */\n      add\n        /* \"#utility.yul\":8895:8925   */\n      mstore\n        /* \"#utility.yul\":8778:8932   */\n      pop\n      jump\t// out\n        /* \"#utility.yul\":8938:9303   */\n    tag_107:\n        /* \"#utility.yul\":9080:9083   */\n      0x00\n        /* \"#utility.yul\":9101:9167   */\n      tag_193\n        /* \"#utility.yul\":9165:9166   */\n      0x04\n        /* \"#utility.yul\":9160:9163   */\n      dup4\n        /* \"#utility.yul\":9101:9167   */\n      tag_94\n      jump\t// in\n    tag_193:\n        /* \"#utility.yul\":9094:9167   */\n      swap2\n      pop\n        /* \"#utility.yul\":9176:9269   */\n      tag_194\n        /* \"#utility.yul\":9265:9268   */\n      dup3\n        /* \"#utility.yul\":9176:9269   */\n      tag_106\n      jump\t// in\n    tag_194:\n        /* \"#utility.yul\":9294:9296   */\n      0x20\n        /* \"#utility.yul\":9289:9292   */\n      dup3\n        /* \"#utility.yul\":9285:9297   */\n      add\n        /* \"#utility.yul\":9278:9297   */\n      swap1\n      pop\n        /* \"#utility.yul\":8938:9303   */\n      swap2\n      swap1\n      pop\n      jump\t// out\n        /* \"#utility.yul\":9309:9838   */\n    tag_80:\n        /* \"#utility.yul\":9503:9507   */\n      0x00\n        /* \"#utility.yul\":9541:9543   */\n      0x40\n        /* \"#utility.yul\":9530:9539   */\n      dup3\n        /* \"#utility.yul\":9526:9544   */\n      add\n        /* \"#utility.yul\":9518:9544   */\n      swap1\n      pop\n        /* \"#utility.yul\":9590:9599   */\n      dup2\n        /* \"#utility.yul\":9584:9588   */\n      dup2\n        /* \"#utility.yul\":9580:9600   */\n      sub\n        /* \"#utility.yul\":9576:9577   */\n      0x00\n        /* \"#utility.yul\":9565:9574   */\n      dup4\n        /* \"#utility.yul\":9561:9578   */\n      add\n        /* \"#utility.yul\":9554:9601   */\n      mstore\n        /* \"#utility.yul\":9618:9749   */\n      tag_196\n        /* \"#utility.yul\":9744:9748   */\n      dup2\n        /* \"#utility.yul\":9618:9749   */\n      tag_107\n      jump\t// in\n    tag_196:\n        /* \"#utility.yul\":9610:9749   */\n      swap1\n      pop\n        /* \"#utility.yul\":9759:9831   */\n      tag_197\n        /* \"#utility.yul\":9827:9829   */\n      0x20\n        /* \"#utility.yul\":9816:9825   */\n      dup4\n        /* \"#utility.yul\":9812:9830   */\n      add\n        /* \"#utility.yul\":9803:9809   */\n      dup5\n        /* \"#utility.yul\":9759:9831   */\n      tag_82\n      jump\t// in\n    tag_197:\n        /* \"#utility.yul\":9309:9838   */\n      swap3\n      swap2\n      pop\n      pop\n      jump\t// out\n\n    auxdata: 0xa26469706673582212201b6c64839d58fa5735e75c7bd89fe8eb7c452d0d33804a867dc640bfff77ad6f64736f6c634300080f0033\n}\n\nsub_1: assembly {\n        /* \"tests/UncheckedDemo.sol\":67:825  contract UncheckedDemo {... */\n      mstore(0x40, 0x80)\n      callvalue\n      dup1\n      iszero\n      tag_1\n      jumpi\n      0x00\n      dup1\n      revert\n    tag_1:\n      pop\n      dataSize(sub_0)\n      dup1\n      dataOffset(sub_0)\n      0x00\n      codecopy\n      0x00\n      return\n    stop\n\n    sub_0: assembly {\n            /* \"tests/UncheckedDemo.sol\":67:825  contract UncheckedDemo {... */\n          mstore(0x40, 0x80)\n          callvalue\n          dup1\n          iszero\n          tag_1\n          jumpi\n          0x00\n          dup1\n          revert\n        tag_1:\n          pop\n          jumpi(tag_2, lt(calldatasize, 0x04))\n          shr(0xe0, calldataload(0x00))\n          dup1\n          0x18160ddd\n          eq\n          tag_3\n          jumpi\n          dup1\n          0x36244481\n          eq\n          tag_4\n          jumpi\n          dup1\n          0x48a00467\n          eq\n          tag_5\n          jumpi\n          dup1\n          0x70a08231\n          eq\n          tag_6\n          jumpi\n        tag_2:\n          0x00\n          dup1\n          revert\n            /* \"tests/UncheckedDemo.sol\":176:202  uint256 public totalSupply */\n        tag_3:\n          tag_7\n          tag_8\n          jump\t// in\n        tag_7:\n          mload(0x40)\n          tag_9\n          swap2\n          swap1\n          tag_10\n          jump\t// in\n        tag_9:\n          mload(0x40)\n          dup1\n          swap2\n          sub\n          swap1\n          return\n            /* \"tests/UncheckedDemo.sol\":470:823  function uncheckedMint(address to, uint256 amount) public { // transaction cost:36870 gas... */\n        tag_4:\n          tag_11\n          0x04\n          dup1\n          calldatasize\n          sub\n          dup2\n          add\n          swap1\n          tag_12\n          swap2\n          swap1\n          tag_13\n          jump\t// in\n        tag_12:\n          tag_14\n          jump\t// in\n        tag_11:\n          stop\n            /* \"tests/UncheckedDemo.sol\":259:464  function checkedMint(address to, uint256 amount) public { // transaction cost:37080 gas... */\n        tag_5:\n          tag_15\n          0x04\n          dup1\n          calldatasize\n          sub\n          dup2\n          add\n          swap1\n          tag_16\n          swap2\n          swap1\n          tag_13\n          jump\t// in\n        tag_16:\n          tag_17\n          jump\t// in\n        tag_15:\n          stop\n            /* \"tests/UncheckedDemo.sol\":208:252  mapping(address => uint256) public balanceOf */\n        tag_6:\n          tag_18\n          0x04\n          dup1\n          calldatasize\n          sub\n          dup2\n          add\n          swap1\n          tag_19\n          swap2\n          swap1\n          tag_20\n          jump\t// in\n        tag_19:\n          tag_21\n          jump\t// in\n        tag_18:\n          mload(0x40)\n          tag_22\n          swap2\n          swap1\n          tag_10\n          jump\t// in\n        tag_22:\n          mload(0x40)\n          dup1\n          swap2\n          sub\n          swap1\n          return\n            /* \"tests/UncheckedDemo.sol\":176:202  uint256 public totalSupply */\n        tag_8:\n          sload(0x00)\n          dup2\n          jump\t// out\n            /* \"tests/UncheckedDemo.sol\":470:823  function uncheckedMint(address to, uint256 amount) public { // transaction cost:36870 gas... */\n        tag_14:\n            /* \"tests/UncheckedDemo.sol\":583:589  amount */\n          dup1\n            /* \"tests/UncheckedDemo.sol\":568:579  totalSupply */\n          0x00\n          dup1\n            /* \"tests/UncheckedDemo.sol\":568:589  totalSupply += amount */\n          dup3\n          dup3\n          sload\n          tag_24\n          swap2\n          swap1\n          tag_25\n          jump\t// in\n        tag_24:\n          swap3\n          pop\n          pop\n          dup2\n          swap1\n          sstore\n          pop\n            /* \"tests/UncheckedDemo.sol\":752:758  amount */\n          dup1\n            /* \"tests/UncheckedDemo.sol\":735:744  balanceOf */\n          0x01\n            /* \"tests/UncheckedDemo.sol\":735:748  balanceOf[to] */\n          0x00\n            /* \"tests/UncheckedDemo.sol\":745:747  to */\n          dup5\n            /* \"tests/UncheckedDemo.sol\":735:748  balanceOf[to] */\n          0xffffffffffffffffffffffffffffffffffffffff\n          and\n          0xffffffffffffffffffffffffffffffffffffffff\n          and\n          dup2\n          mstore\n          0x20\n          add\n          swap1\n          dup2\n          mstore\n          0x20\n          add\n          0x00\n          keccak256\n          0x00\n            /* \"tests/UncheckedDemo.sol\":735:758  balanceOf[to] += amount */\n          dup3\n          dup3\n          sload\n          add\n          swap3\n          pop\n          pop\n          dup2\n          swap1\n          sstore\n          pop\n            /* \"tests/UncheckedDemo.sol\":805:807  to */\n          dup2\n            /* \"tests/UncheckedDemo.sol\":784:816  Transfer(address(0), to, amount) */\n          0xffffffffffffffffffffffffffffffffffffffff\n          and\n            /* \"tests/UncheckedDemo.sol\":801:802  0 */\n          0x00\n            /* \"tests/UncheckedDemo.sol\":784:816  Transfer(address(0), to, amount) */\n          0xffffffffffffffffffffffffffffffffffffffff\n          and\n          0xddf252ad1be2c89b69c2b068fc378daa952ba7f163c4a11628f55a4df523b3ef\n            /* \"tests/UncheckedDemo.sol\":809:815  amount */\n          dup4\n            /* \"tests/UncheckedDemo.sol\":784:816  Transfer(address(0), to, amount) */\n          mload(0x40)\n          tag_26\n          swap2\n          swap1\n          tag_10\n          jump\t// in\n        tag_26:\n          mload(0x40)\n          dup1\n          swap2\n          sub\n          swap1\n          log3\n            /* \"tests/UncheckedDemo.sol\":470:823  function uncheckedMint(address to, uint256 amount) public { // transaction cost:36870 gas... */\n          pop\n          pop\n          jump\t// out\n            /* \"tests/UncheckedDemo.sol\":259:464  function checkedMint(address to, uint256 amount) public { // transaction cost:37080 gas... */\n        tag_17:\n            /* \"tests/UncheckedDemo.sol\":370:376  amount */\n          dup1\n            /* \"tests/UncheckedDemo.sol\":355:366  totalSupply */\n          0x00\n          dup1\n            /* \"tests/UncheckedDemo.sol\":355:376  totalSupply += amount */\n          dup3\n          dup3\n          sload\n          tag_28\n          swap2\n          swap1\n          tag_25\n          jump\t// in\n        tag_28:\n          swap3\n          pop\n          pop\n          dup2\n          swap1\n          sstore\n          pop\n            /* \"tests/UncheckedDemo.sol\":403:409  amount */\n          dup1\n            /* \"tests/UncheckedDemo.sol\":386:395  balanceOf */\n          0x01\n            /* \"tests/UncheckedDemo.sol\":386:399  balanceOf[to] */\n          0x00\n            /* \"tests/UncheckedDemo.sol\":396:398  to */\n          dup5\n            /* \"tests/UncheckedDemo.sol\":386:399  balanceOf[to] */\n          0xffffffffffffffffffffffffffffffffffffffff\n          and\n          0xffffffffffffffffffffffffffffffffffffffff\n          and\n          dup2\n          mstore\n          0x20\n          add\n          swap1\n          dup2\n          mstore\n          0x20\n          add\n          0x00\n          keccak256\n          0x00\n            /* \"tests/UncheckedDemo.sol\":386:409  balanceOf[to] += amount */\n          dup3\n          dup3\n          sload\n          tag_29\n          swap2\n          swap1\n          tag_25\n          jump\t// in\n        tag_29:\n          swap3\n          pop\n          pop\n          dup2\n          swap1\n          sstore\n          pop\n            /* \"tests/UncheckedDemo.sol\":446:448  to */\n          dup2\n            /* \"tests/UncheckedDemo.sol\":425:457  Transfer(address(0), to, amount) */\n          0xffffffffffffffffffffffffffffffffffffffff\n          and\n            /* \"tests/UncheckedDemo.sol\":442:443  0 */\n          0x00\n            /* \"tests/UncheckedDemo.sol\":425:457  Transfer(address(0), to, amount) */\n          0xffffffffffffffffffffffffffffffffffffffff\n          and\n          0xddf252ad1be2c89b69c2b068fc378daa952ba7f163c4a11628f55a4df523b3ef\n            /* \"tests/UncheckedDemo.sol\":450:456  amount */\n          dup4\n            /* \"tests/UncheckedDemo.sol\":425:457  Transfer(address(0), to, amount) */\n          mload(0x40)\n          tag_30\n          swap2\n          swap1\n          tag_10\n          jump\t// in\n        tag_30:\n          mload(0x40)\n          dup1\n          swap2\n          sub\n          swap1\n          log3\n            /* \"tests/UncheckedDemo.sol\":259:464  function checkedMint(address to, uint256 amount) public { // transaction cost:37080 gas... */\n          pop\n          pop\n          jump\t// out\n            /* \"tests/UncheckedDemo.sol\":208:252  mapping(address => uint256) public balanceOf */\n        tag_21:\n          mstore(0x20, 0x01)\n          dup1\n          0x00\n          mstore\n          keccak256(0x00, 0x40)\n          0x00\n          swap2\n          pop\n          swap1\n          pop\n          sload\n          dup2\n          jump\t// out\n            /* \"#utility.yul\":7:84   */\n        tag_31:\n            /* \"#utility.yul\":44:51   */\n          0x00\n            /* \"#utility.yul\":73:78   */\n          dup2\n            /* \"#utility.yul\":62:78   */\n          swap1\n          pop\n            /* \"#utility.yul\":7:84   */\n          swap2\n          swap1\n          pop\n          jump\t// out\n            /* \"#utility.yul\":90:208   */\n        tag_32:\n            /* \"#utility.yul\":177:201   */\n          tag_46\n            /* \"#utility.yul\":195:200   */\n          dup2\n            /* \"#utility.yul\":177:201   */\n          tag_31\n          jump\t// in\n        tag_46:\n            /* \"#utility.yul\":172:175   */\n          dup3\n            /* \"#utility.yul\":165:202   */\n          mstore\n            /* \"#utility.yul\":90:208   */\n          pop\n          pop\n          jump\t// out\n            /* \"#utility.yul\":214:436   */\n        tag_10:\n            /* \"#utility.yul\":307:311   */\n          0x00\n            /* \"#utility.yul\":345:347   */\n          0x20\n            /* \"#utility.yul\":334:343   */\n          dup3\n            /* \"#utility.yul\":330:348   */\n          add\n            /* \"#utility.yul\":322:348   */\n          swap1\n          pop\n            /* \"#utility.yul\":358:429   */\n          tag_48\n            /* \"#utility.yul\":426:427   */\n          0x00\n            /* \"#utility.yul\":415:424   */\n          dup4\n            /* \"#utility.yul\":411:428   */\n          add\n            /* \"#utility.yul\":402:408   */\n          dup5\n            /* \"#utility.yul\":358:429   */\n          tag_32\n          jump\t// in\n        tag_48:\n            /* \"#utility.yul\":214:436   */\n          swap3\n          swap2\n          pop\n          pop\n          jump\t// out\n            /* \"#utility.yul\":523:640   */\n        tag_34:\n            /* \"#utility.yul\":632:633   */\n          0x00\n            /* \"#utility.yul\":629:630   */\n          dup1\n            /* \"#utility.yul\":622:634   */\n          revert\n            /* \"#utility.yul\":769:895   */\n        tag_36:\n            /* \"#utility.yul\":806:813   */\n          0x00\n            /* \"#utility.yul\":846:888   */\n          0xffffffffffffffffffffffffffffffffffffffff\n            /* \"#utility.yul\":839:844   */\n          dup3\n            /* \"#utility.yul\":835:889   */\n          and\n            /* \"#utility.yul\":824:889   */\n          swap1\n          pop\n            /* \"#utility.yul\":769:895   */\n          swap2\n          swap1\n          pop\n          jump\t// out\n            /* \"#utility.yul\":901:997   */\n        tag_37:\n            /* \"#utility.yul\":938:945   */\n          0x00\n            /* \"#utility.yul\":967:991   */\n          tag_54\n            /* \"#utility.yul\":985:990   */\n          dup3\n            /* \"#utility.yul\":967:991   */\n          tag_36\n          jump\t// in\n        tag_54:\n            /* \"#utility.yul\":956:991   */\n          swap1\n          pop\n            /* \"#utility.yul\":901:997   */\n          swap2\n          swap1\n          pop\n          jump\t// out\n            /* \"#utility.yul\":1003:1125   */\n        tag_38:\n            /* \"#utility.yul\":1076:1100   */\n          tag_56\n            /* \"#utility.yul\":1094:1099   */\n          dup2\n            /* \"#utility.yul\":1076:1100   */\n          tag_37\n          jump\t// in\n        tag_56:\n            /* \"#utility.yul\":1069:1074   */\n          dup2\n            /* \"#utility.yul\":1066:1101   */\n          eq\n            /* \"#utility.yul\":1056:1119   */\n          tag_57\n          jumpi\n            /* \"#utility.yul\":1115:1116   */\n          0x00\n            /* \"#utility.yul\":1112:1113   */\n          dup1\n            /* \"#utility.yul\":1105:1117   */\n          revert\n            /* \"#utility.yul\":1056:1119   */\n        tag_57:\n            /* \"#utility.yul\":1003:1125   */\n          pop\n          jump\t// out\n            /* \"#utility.yul\":1131:1270   */\n        tag_39:\n            /* \"#utility.yul\":1177:1182   */\n          0x00\n            /* \"#utility.yul\":1215:1221   */\n          dup2\n            /* \"#utility.yul\":1202:1222   */\n          calldataload\n            /* \"#utility.yul\":1193:1222   */\n          swap1\n          pop\n            /* \"#utility.yul\":1231:1264   */\n          tag_59\n            /* \"#utility.yul\":1258:1263   */\n          dup2\n            /* \"#utility.yul\":1231:1264   */\n          tag_38\n          jump\t// in\n        tag_59:\n            /* \"#utility.yul\":1131:1270   */\n          swap3\n          swap2\n          pop\n          pop\n          jump\t// out\n            /* \"#utility.yul\":1276:1398   */\n        tag_40:\n            /* \"#utility.yul\":1349:1373   */\n          tag_61\n            /* \"#utility.yul\":1367:1372   */\n          dup2\n            /* \"#utility.yul\":1349:1373   */\n          tag_31\n          jump\t// in\n        tag_61:\n            /* \"#utility.yul\":1342:1347   */\n          dup2\n            /* \"#utility.yul\":1339:1374   */\n          eq\n            /* \"#utility.yul\":1329:1392   */\n          tag_62\n          jumpi\n            /* \"#utility.yul\":1388:1389   */\n          0x00\n            /* \"#utility.yul\":1385:1386   */\n          dup1\n            /* \"#utility.yul\":1378:1390   */\n          revert\n            /* \"#utility.yul\":1329:1392   */\n        tag_62:\n            /* \"#utility.yul\":1276:1398   */\n          pop\n          jump\t// out\n            /* \"#utility.yul\":1404:1543   */\n        tag_41:\n            /* \"#utility.yul\":1450:1455   */\n          0x00\n            /* \"#utility.yul\":1488:1494   */\n          dup2\n            /* \"#utility.yul\":1475:1495   */\n          calldataload\n            /* \"#utility.yul\":1466:1495   */\n          swap1\n          pop\n            /* \"#utility.yul\":1504:1537   */\n          tag_64\n            /* \"#utility.yul\":1531:1536   */\n          dup2\n            /* \"#utility.yul\":1504:1537   */\n          tag_40\n          jump\t// in\n        tag_64:\n            /* \"#utility.yul\":1404:1543   */\n          swap3\n          swap2\n          pop\n          pop\n          jump\t// out\n            /* \"#utility.yul\":1549:2023   */\n        tag_13:\n            /* \"#utility.yul\":1617:1623   */\n          0x00\n            /* \"#utility.yul\":1625:1631   */\n          dup1\n            /* \"#utility.yul\":1674:1676   */\n          0x40\n            /* \"#utility.yul\":1662:1671   */\n          dup4\n            /* \"#utility.yul\":1653:1660   */\n          dup6\n            /* \"#utility.yul\":1649:1672   */\n          sub\n            /* \"#utility.yul\":1645:1677   */\n          slt\n            /* \"#utility.yul\":1642:1761   */\n          iszero\n          tag_66\n          jumpi\n            /* \"#utility.yul\":1680:1759   */\n          tag_67\n          tag_34\n          jump\t// in\n        tag_67:\n            /* \"#utility.yul\":1642:1761   */\n        tag_66:\n            /* \"#utility.yul\":1800:1801   */\n          0x00\n            /* \"#utility.yul\":1825:1878   */\n          tag_68\n            /* \"#utility.yul\":1870:1877   */\n          dup6\n            /* \"#utility.yul\":1861:1867   */\n          dup3\n            /* \"#utility.yul\":1850:1859   */\n          dup7\n            /* \"#utility.yul\":1846:1868   */\n          add\n            /* \"#utility.yul\":1825:1878   */\n          tag_39\n          jump\t// in\n        tag_68:\n            /* \"#utility.yul\":1815:1878   */\n          swap3\n          pop\n            /* \"#utility.yul\":1771:1888   */\n          pop\n            /* \"#utility.yul\":1927:1929   */\n          0x20\n            /* \"#utility.yul\":1953:2006   */\n          tag_69\n            /* \"#utility.yul\":1998:2005   */\n          dup6\n            /* \"#utility.yul\":1989:1995   */\n          dup3\n            /* \"#utility.yul\":1978:1987   */\n          dup7\n            /* \"#utility.yul\":1974:1996   */\n          add\n            /* \"#utility.yul\":1953:2006   */\n          tag_41\n          jump\t// in\n        tag_69:\n            /* \"#utility.yul\":1943:2006   */\n          swap2\n          pop\n            /* \"#utility.yul\":1898:2016   */\n          pop\n            /* \"#utility.yul\":1549:2023   */\n          swap3\n          pop\n          swap3\n          swap1\n          pop\n          jump\t// out\n            /* \"#utility.yul\":2029:2358   */\n        tag_20:\n            /* \"#utility.yul\":2088:2094   */\n          0x00\n            /* \"#utility.yul\":2137:2139   */\n          0x20\n            /* \"#utility.yul\":2125:2134   */\n          dup3\n            /* \"#utility.yul\":2116:2123   */\n          dup5\n            /* \"#utility.yul\":2112:2135   */\n          sub\n            /* \"#utility.yul\":2108:2140   */\n          slt\n            /* \"#utility.yul\":2105:2224   */\n          iszero\n          tag_71\n          jumpi\n            /* \"#utility.yul\":2143:2222   */\n          tag_72\n          tag_34\n          jump\t// in\n        tag_72:\n            /* \"#utility.yul\":2105:2224   */\n        tag_71:\n            /* \"#utility.yul\":2263:2264   */\n          0x00\n            /* \"#utility.yul\":2288:2341   */\n          tag_73\n            /* \"#utility.yul\":2333:2340   */\n          dup5\n            /* \"#utility.yul\":2324:2330   */\n          dup3\n            /* \"#utility.yul\":2313:2322   */\n          dup6\n            /* \"#utility.yul\":2309:2331   */\n          add\n            /* \"#utility.yul\":2288:2341   */\n          tag_39\n          jump\t// in\n        tag_73:\n            /* \"#utility.yul\":2278:2341   */\n          swap2\n          pop\n            /* \"#utility.yul\":2234:2351   */\n          pop\n            /* \"#utility.yul\":2029:2358   */\n          swap3\n          swap2\n          pop\n          pop\n          jump\t// out\n            /* \"#utility.yul\":2364:2544   */\n        tag_42:\n            /* \"#utility.yul\":2412:2489   */\n          0x4e487b7100000000000000000000000000000000000000000000000000000000\n            /* \"#utility.yul\":2409:2410   */\n          0x00\n            /* \"#utility.yul\":2402:2490   */\n          mstore\n            /* \"#utility.yul\":2509:2513   */\n          0x11\n            /* \"#utility.yul\":2506:2507   */\n          0x04\n            /* \"#utility.yul\":2499:2514   */\n          mstore\n            /* \"#utility.yul\":2533:2537   */\n          0x24\n            /* \"#utility.yul\":2530:2531   */\n          0x00\n            /* \"#utility.yul\":2523:2538   */\n          revert\n            /* \"#utility.yul\":2550:2855   */\n        tag_25:\n            /* \"#utility.yul\":2590:2593   */\n          0x00\n            /* \"#utility.yul\":2609:2629   */\n          tag_76\n            /* \"#utility.yul\":2627:2628   */\n          dup3\n            /* \"#utility.yul\":2609:2629   */\n          tag_31\n          jump\t// in\n        tag_76:\n            /* \"#utility.yul\":2604:2629   */\n          swap2\n          pop\n            /* \"#utility.yul\":2643:2663   */\n          tag_77\n            /* \"#utility.yul\":2661:2662   */\n          dup4\n            /* \"#utility.yul\":2643:2663   */\n          tag_31\n          jump\t// in\n        tag_77:\n            /* \"#utility.yul\":2638:2663   */\n          swap3\n          pop\n            /* \"#utility.yul\":2797:2798   */\n          dup3\n            /* \"#utility.yul\":2729:2795   */\n          0xffffffffffffffffffffffffffffffffffffffffffffffffffffffffffffffff\n            /* \"#utility.yul\":2725:2799   */\n          sub\n            /* \"#utility.yul\":2722:2723   */\n          dup3\n            /* \"#utility.yul\":2719:2800   */\n          gt\n            /* \"#utility.yul\":2716:2823   */\n          iszero\n          tag_78\n          jumpi\n            /* \"#utility.yul\":2803:2821   */\n          tag_79\n          tag_42\n          jump\t// in\n        tag_79:\n            /* \"#utility.yul\":2716:2823   */\n        tag_78:\n            /* \"#utility.yul\":2847:2848   */\n          dup3\n            /* \"#utility.yul\":2844:2845   */\n          dup3\n            /* \"#utility.yul\":2840:2849   */\n          add\n            /* \"#utility.yul\":2833:2849   */\n          swap1\n          pop\n            /* \"#utility.yul\":2550:2855   */\n          swap3\n          swap2\n          pop\n          pop\n          jump\t// out\n\n        auxdata: 0xa2646970667358221220a7d0533452f755aa5436056a1a7bc3db8949076fb3d51fdf7d38b0da5e86e20264736f6c634300080f0033\n    }\n}\n\nsub_2: assembly {\n        /* \"tests/SimpleTest.sol\":67:682  contract SimpleTest {... */\n      mstore(0x40, 0x80)\n      callvalue\n      dup1\n      iszero\n      tag_1\n      jumpi\n      0x00\n      dup1\n      revert\n    tag_1:\n      pop\n      dataSize(sub_0)\n      dup1\n      dataOffset(sub_0)\n      0x00\n      codecopy\n      0x00\n      return\n    stop\n\n    sub_0: assembly {\n            /* \"tests/SimpleTest.sol\":67:682  contract SimpleTest {... */\n          mstore(0x40, 0x80)\n          callvalue\n          dup1\n          iszero\n          tag_1\n          jumpi\n          0x00\n          dup1\n          revert\n        tag_1:\n          pop\n          jumpi(tag_2, lt(calldatasize, 0x04))\n          shr(0xe0, calldataload(0x00))\n          dup1\n          0xc3314f\n          eq\n          tag_3\n          jumpi\n          dup1\n          0x29fcda33\n          eq\n          tag_4\n          jumpi\n          dup1\n          0x76b81449\n          eq\n          tag_5\n          jumpi\n        tag_2:\n          0x00\n          dup1\n          revert\n            /* \"tests/SimpleTest.sol\":502:680  function add3(uint256 a, uint256 b) public pure returns (uint256) { // transaction cost:24670 gas... */\n        tag_3:\n          tag_6\n          0x04\n          dup1\n          calldatasize\n          sub\n          dup2\n          add\n          swap1\n          tag_7\n          swap2\n          swap1\n          tag_8\n          jump\t// in\n        tag_7:\n          tag_9\n          jump\t// in\n        tag_6:\n          mload(0x40)\n          tag_10\n          swap2\n          swap1\n          tag_11\n          jump\t// in\n        tag_10:\n          mload(0x40)\n          dup1\n          swap2\n          sub\n          swap1\n          return\n            /* \"tests/SimpleTest.sol\":301:496  function add2(uint256 a, uint256 b) public pure returns (uint256 c) { // transaction cost:24704 gas... */\n        tag_4:\n          tag_12\n          0x04\n          dup1\n          calldatasize\n          sub\n          dup2\n          add\n          swap1\n          tag_13\n          swap2\n          swap1\n          tag_8\n          jump\t// in\n        tag_13:\n          tag_14\n          jump\t// in\n        tag_12:\n          mload(0x40)\n          tag_15\n          swap2\n          swap1\n          tag_11\n          jump\t// in\n        tag_15:\n          mload(0x40)\n          dup1\n          swap2\n          sub\n          swap1\n          return\n            /* \"tests/SimpleTest.sol\":94:295  function add1(uint256 a, uint256 b) public pure returns (uint256) { // transaction cost:24739 gas... */\n        tag_5:\n          tag_16\n          0x04\n          dup1\n          calldatasize\n          sub\n          dup2\n          add\n          swap1\n          tag_17\n          swap2\n          swap1\n          tag_8\n          jump\t// in\n        tag_17:\n          tag_18\n          jump\t// in\n        tag_16:\n          mload(0x40)\n          tag_19\n          swap2\n          swap1\n          tag_11\n          jump\t// in\n        tag_19:\n          mload(0x40)\n          dup1\n          swap2\n          sub\n          swap1\n          return\n            /* \"tests/SimpleTest.sol\":502:680  function add3(uint256 a, uint256 b) public pure returns (uint256) { // transaction cost:24670 gas... */\n        tag_9:\n            /* \"tests/SimpleTest.sol\":559:566  uint256 */\n          0x00\n            /* \"tests/SimpleTest.sol\":615:616  0 */\n          dup1\n            /* \"tests/SimpleTest.sol\":612:613  a */\n          dup4\n            /* \"tests/SimpleTest.sol\":612:616  a==0 */\n          sub\n            /* \"tests/SimpleTest.sol\":608:651  if (a==0) {... */\n          tag_21\n          jumpi\n            /* \"tests/SimpleTest.sol\":639:640  0 */\n          0x00\n            /* \"tests/SimpleTest.sol\":632:640  return 0 */\n          swap1\n          pop\n          jump(tag_20)\n            /* \"tests/SimpleTest.sol\":608:651  if (a==0) {... */\n        tag_21:\n            /* \"tests/SimpleTest.sol\":672:673  b */\n          dup2\n            /* \"tests/SimpleTest.sol\":668:669  a */\n          dup4\n            /* \"tests/SimpleTest.sol\":668:673  a + b */\n          tag_22\n          swap2\n          swap1\n          tag_23\n          jump\t// in\n        tag_22:\n            /* \"tests/SimpleTest.sol\":661:673  return a + b */\n          swap1\n          pop\n            /* \"tests/SimpleTest.sol\":502:680  function add3(uint256 a, uint256 b) public pure returns (uint256) { // transaction cost:24670 gas... */\n        tag_20:\n          swap3\n          swap2\n          pop\n          pop\n          jump\t// out\n            /* \"tests/SimpleTest.sol\":301:496  function add2(uint256 a, uint256 b) public pure returns (uint256 c) { // transaction cost:24704 gas... */\n        tag_14:\n            /* \"tests/SimpleTest.sol\":358:367  uint256 c */\n          0x00\n            /* \"tests/SimpleTest.sol\":416:417  0 */\n          dup1\n            /* \"tests/SimpleTest.sol\":413:414  a */\n          dup4\n            /* \"tests/SimpleTest.sol\":413:417  a==0 */\n          sub\n            /* \"tests/SimpleTest.sol\":409:452  if (a==0) {... */\n          tag_25\n          jumpi\n            /* \"tests/SimpleTest.sol\":440:441  0 */\n          0x00\n            /* \"tests/SimpleTest.sol\":433:441  return 0 */\n          swap1\n          pop\n          jump(tag_24)\n            /* \"tests/SimpleTest.sol\":409:452  if (a==0) {... */\n        tag_25:\n            /* \"tests/SimpleTest.sol\":470:471  b */\n          dup2\n            /* \"tests/SimpleTest.sol\":466:467  a */\n          dup4\n            /* \"tests/SimpleTest.sol\":466:471  a + b */\n          tag_26\n          swap2\n          swap1\n          tag_23\n          jump\t// in\n        tag_26:\n            /* \"tests/SimpleTest.sol\":462:471  c = a + b */\n          swap1\n          pop\n            /* \"tests/SimpleTest.sol\":301:496  function add2(uint256 a, uint256 b) public pure returns (uint256 c) { // transaction cost:24704 gas... */\n        tag_24:\n          swap3\n          swap2\n          pop\n          pop\n          jump\t// out\n            /* \"tests/SimpleTest.sol\":94:295  function add1(uint256 a, uint256 b) public pure returns (uint256) { // transaction cost:24739 gas... */\n        tag_18:\n            /* \"tests/SimpleTest.sol\":151:158  uint256 */\n          0x00\n            /* \"tests/SimpleTest.sol\":207:208  0 */\n          dup1\n            /* \"tests/SimpleTest.sol\":204:205  a */\n          dup4\n            /* \"tests/SimpleTest.sol\":204:208  a==0 */\n          sub\n            /* \"tests/SimpleTest.sol\":200:243  if (a==0) {... */\n          tag_28\n          jumpi\n            /* \"tests/SimpleTest.sol\":231:232  0 */\n          0x00\n            /* \"tests/SimpleTest.sol\":224:232  return 0 */\n          swap1\n          pop\n          jump(tag_27)\n            /* \"tests/SimpleTest.sol\":200:243  if (a==0) {... */\n        tag_28:\n            /* \"tests/SimpleTest.sol\":253:262  uint256 c */\n          0x00\n            /* \"tests/SimpleTest.sol\":269:270  b */\n          dup3\n            /* \"tests/SimpleTest.sol\":265:266  a */\n          dup5\n            /* \"tests/SimpleTest.sol\":265:270  a + b */\n          tag_29\n          swap2\n          swap1\n          tag_23\n          jump\t// in\n        tag_29:\n            /* \"tests/SimpleTest.sol\":253:270  uint256 c = a + b */\n          swap1\n          pop\n            /* \"tests/SimpleTest.sol\":287:288  c */\n          dup1\n            /* \"tests/SimpleTest.sol\":280:288  return c */\n          swap2\n          pop\n          pop\n            /* \"tests/SimpleTest.sol\":94:295  function add1(uint256 a, uint256 b) public pure returns (uint256) { // transaction cost:24739 gas... */\n        tag_27:\n          swap3\n          swap2\n          pop\n          pop\n          jump\t// out\n            /* \"#utility.yul\":88:205   */\n        tag_31:\n            /* \"#utility.yul\":197:198   */\n          0x00\n            /* \"#utility.yul\":194:195   */\n          dup1\n            /* \"#utility.yul\":187:199   */\n          revert\n            /* \"#utility.yul\":334:411   */\n        tag_33:\n            /* \"#utility.yul\":371:378   */\n          0x00\n            /* \"#utility.yul\":400:405   */\n          dup2\n            /* \"#utility.yul\":389:405   */\n          swap1\n          pop\n            /* \"#utility.yul\":334:411   */\n          swap2\n          swap1\n          pop\n          jump\t// out\n            /* \"#utility.yul\":417:539   */\n        tag_34:\n            /* \"#utility.yul\":490:514   */\n          tag_44\n            /* \"#utility.yul\":508:513   */\n          dup2\n            /* \"#utility.yul\":490:514   */\n          tag_33\n          jump\t// in\n        tag_44:\n            /* \"#utility.yul\":483:488   */\n          dup2\n            /* \"#utility.yul\":480:515   */\n          eq\n            /* \"#utility.yul\":470:533   */\n          tag_45\n          jumpi\n            /* \"#utility.yul\":529:530   */\n          0x00\n            /* \"#utility.yul\":526:527   */\n          dup1\n            /* \"#utility.yul\":519:531   */\n          revert\n            /* \"#utility.yul\":470:533   */\n        tag_45:\n            /* \"#utility.yul\":417:539   */\n          pop\n          jump\t// out\n            /* \"#utility.yul\":545:684   */\n        tag_35:\n            /* \"#utility.yul\":591:596   */\n          0x00\n            /* \"#utility.yul\":629:635   */\n          dup2\n            /* \"#utility.yul\":616:636   */\n          calldataload\n            /* \"#utility.yul\":607:636   */\n          swap1\n          pop\n            /* \"#utility.yul\":645:678   */\n          tag_47\n            /* \"#utility.yul\":672:677   */\n          dup2\n            /* \"#utility.yul\":645:678   */\n          tag_34\n          jump\t// in\n        tag_47:\n            /* \"#utility.yul\":545:684   */\n          swap3\n          swap2\n          pop\n          pop\n          jump\t// out\n            /* \"#utility.yul\":690:1164   */\n        tag_8:\n            /* \"#utility.yul\":758:764   */\n          0x00\n            /* \"#utility.yul\":766:772   */\n          dup1\n            /* \"#utility.yul\":815:817   */\n          0x40\n            /* \"#utility.yul\":803:812   */\n          dup4\n            /* \"#utility.yul\":794:801   */\n          dup6\n            /* \"#utility.yul\":790:813   */\n          sub\n            /* \"#utility.yul\":786:818   */\n          slt\n            /* \"#utility.yul\":783:902   */\n          iszero\n          tag_49\n          jumpi\n            /* \"#utility.yul\":821:900   */\n          tag_50\n          tag_31\n          jump\t// in\n        tag_50:\n            /* \"#utility.yul\":783:902   */\n        tag_49:\n            /* \"#utility.yul\":941:942   */\n          0x00\n            /* \"#utility.yul\":966:1019   */\n          tag_51\n            /* \"#utility.yul\":1011:1018   */\n          dup6\n            /* \"#utility.yul\":1002:1008   */\n          dup3\n            /* \"#utility.yul\":991:1000   */\n          dup7\n            /* \"#utility.yul\":987:1009   */\n          add\n            /* \"#utility.yul\":966:1019   */\n          tag_35\n          jump\t// in\n        tag_51:\n            /* \"#utility.yul\":956:1019   */\n          swap3\n          pop\n            /* \"#utility.yul\":912:1029   */\n          pop\n            /* \"#utility.yul\":1068:1070   */\n          0x20\n            /* \"#utility.yul\":1094:1147   */\n          tag_52\n            /* \"#utility.yul\":1139:1146   */\n          dup6\n            /* \"#utility.yul\":1130:1136   */\n          dup3\n            /* \"#utility.yul\":1119:1128   */\n          dup7\n            /* \"#utility.yul\":1115:1137   */\n          add\n            /* \"#utility.yul\":1094:1147   */\n          tag_35\n          jump\t// in\n        tag_52:\n            /* \"#utility.yul\":1084:1147   */\n          swap2\n          pop\n            /* \"#utility.yul\":1039:1157   */\n          pop\n            /* \"#utility.yul\":690:1164   */\n          swap3\n          pop\n          swap3\n          swap1\n          pop\n          jump\t// out\n            /* \"#utility.yul\":1170:1288   */\n        tag_36:\n            /* \"#utility.yul\":1257:1281   */\n          tag_54\n            /* \"#utility.yul\":1275:1280   */\n          dup2\n            /* \"#utility.yul\":1257:1281   */\n          tag_33\n          jump\t// in\n        tag_54:\n            /* \"#utility.yul\":1252:1255   */\n          dup3\n            /* \"#utility.yul\":1245:1282   */\n          mstore\n            /* \"#utility.yul\":1170:1288   */\n          pop\n          pop\n          jump\t// out\n            /* \"#utility.yul\":1294:1516   */\n        tag_11:\n            /* \"#utility.yul\":1387:1391   */\n          0x00\n            /* \"#utility.yul\":1425:1427   */\n          0x20\n            /* \"#utility.yul\":1414:1423   */\n          dup3\n            /* \"#utility.yul\":1410:1428   */\n          add\n            /* \"#utility.yul\":1402:1428   */\n          swap1\n          pop\n            /* \"#utility.yul\":1438:1509   */\n          tag_56\n            /* \"#utility.yul\":1506:1507   */\n          0x00\n            /* \"#utility.yul\":1495:1504   */\n          dup4\n            /* \"#utility.yul\":1491:1508   */\n          add\n            /* \"#utility.yul\":1482:1488   */\n          dup5\n            /* \"#utility.yul\":1438:1509   */\n          tag_36\n          jump\t// in\n        tag_56:\n            /* \"#utility.yul\":1294:1516   */\n          swap3\n          swap2\n          pop\n          pop\n          jump\t// out\n            /* \"#utility.yul\":1522:1702   */\n        tag_37:\n            /* \"#utility.yul\":1570:1647   */\n          0x4e487b7100000000000000000000000000000000000000000000000000000000\n            /* \"#utility.yul\":1567:1568   */\n          0x00\n            /* \"#utility.yul\":1560:1648   */\n          mstore\n            /* \"#utility.yul\":1667:1671   */\n          0x11\n            /* \"#utility.yul\":1664:1665   */\n          0x04\n            /* \"#utility.yul\":1657:1672   */\n          mstore\n            /* \"#utility.yul\":1691:1695   */\n          0x24\n            /* \"#utility.yul\":1688:1689   */\n          0x00\n            /* \"#utility.yul\":1681:1696   */\n          revert\n            /* \"#utility.yul\":1708:2013   */\n        tag_23:\n            /* \"#utility.yul\":1748:1751   */\n          0x00\n            /* \"#utility.yul\":1767:1787   */\n          tag_59\n            /* \"#utility.yul\":1785:1786   */\n          dup3\n            /* \"#utility.yul\":1767:1787   */\n          tag_33\n          jump\t// in\n        tag_59:\n            /* \"#utility.yul\":1762:1787   */\n          swap2\n          pop\n            /* \"#utility.yul\":1801:1821   */\n          tag_60\n            /* \"#utility.yul\":1819:1820   */\n          dup4\n            /* \"#utility.yul\":1801:1821   */\n          tag_33\n          jump\t// in\n        tag_60:\n            /* \"#utility.yul\":1796:1821   */\n          swap3\n          pop\n            /* \"#utility.yul\":1955:1956   */\n          dup3\n            /* \"#utility.yul\":1887:1953   */\n          0xffffffffffffffffffffffffffffffffffffffffffffffffffffffffffffffff\n            /* \"#utility.yul\":1883:1957   */\n          sub\n            /* \"#utility.yul\":1880:1881   */\n          dup3\n            /* \"#utility.yul\":1877:1958   */\n          gt\n            /* \"#utility.yul\":1874:1981   */\n          iszero\n          tag_61\n          jumpi\n            /* \"#utility.yul\":1961:1979   */\n          tag_62\n          tag_37\n          jump\t// in\n        tag_62:\n            /* \"#utility.yul\":1874:1981   */\n        tag_61:\n            /* \"#utility.yul\":2005:2006   */\n          dup3\n            /* \"#utility.yul\":2002:2003   */\n          dup3\n            /* \"#utility.yul\":1998:2007   */\n          add\n            /* \"#utility.yul\":1991:2007   */\n          swap1\n          pop\n            /* \"#utility.yul\":1708:2013   */\n          swap3\n          swap2\n          pop\n          pop\n          jump\t// out\n\n        auxdata: 0xa26469706673582212208df377e4236ecf90d09ca5c8b4f80b473cc88e107a472a8cde54e1297bbebf3464736f6c634300080f0033\n    }\n}\n\nsub_3: assembly {\n        /* \"tests/IfDemo.sol\":67:462  contract IfDemo {... */\n      mstore(0x40, 0x80)\n      callvalue\n      dup1\n      iszero\n      tag_1\n      jumpi\n      0x00\n      dup1\n      revert\n    tag_1:\n      pop\n      dataSize(sub_0)\n      dup1\n      dataOffset(sub_0)\n      0x00\n      codecopy\n      0x00\n      return\n    stop\n\n    sub_0: assembly {\n            /* \"tests/IfDemo.sol\":67:462  contract IfDemo {... */\n          mstore(0x40, 0x80)\n          callvalue\n          dup1\n          iszero\n          tag_1\n          jumpi\n          0x00\n          dup1\n          revert\n        tag_1:\n          pop\n          jumpi(tag_2, lt(calldatasize, 0x04))\n          shr(0xe0, calldataload(0x00))\n          dup1\n          0x07c26710\n          eq\n          tag_3\n          jumpi\n          dup1\n          0xd6238a42\n          eq\n          tag_4\n          jumpi\n        tag_2:\n          0x00\n          dup1\n          revert\n            /* \"tests/IfDemo.sol\":261:460  function tierCondition(uint256 a, uint256 b) public pure returns (uint256){... */\n        tag_3:\n          tag_5\n          0x04\n          dup1\n          calldatasize\n          sub\n          dup2\n          add\n          swap1\n          tag_6\n          swap2\n          swap1\n          tag_7\n          jump\t// in\n        tag_6:\n          tag_8\n          jump\t// in\n        tag_5:\n          mload(0x40)\n          tag_9\n          swap2\n          swap1\n          tag_10\n          jump\t// in\n        tag_9:\n          mload(0x40)\n          dup1\n          swap2\n          sub\n          swap1\n          return\n            /* \"tests/IfDemo.sol\":90:255  function andCondition(uint256 a, uint256 b) public pure returns (uint256) {... */\n        tag_4:\n          tag_11\n          0x04\n          dup1\n          calldatasize\n          sub\n          dup2\n          add\n          swap1\n          tag_12\n          swap2\n          swap1\n          tag_7\n          jump\t// in\n        tag_12:\n          tag_13\n          jump\t// in\n        tag_11:\n          mload(0x40)\n          tag_14\n          swap2\n          swap1\n          tag_10\n          jump\t// in\n        tag_14:\n          mload(0x40)\n          dup1\n          swap2\n          sub\n          swap1\n          return\n            /* \"tests/IfDemo.sol\":261:460  function tierCondition(uint256 a, uint256 b) public pure returns (uint256){... */\n        tag_8:\n            /* \"tests/IfDemo.sol\":327:334  uint256 */\n          0x00\n            /* \"tests/IfDemo.sol\":353:354  1 */\n          0x01\n            /* \"tests/IfDemo.sol\":349:350  a */\n          dup4\n            /* \"tests/IfDemo.sol\":349:354  a > 1 */\n          gt\n            /* \"tests/IfDemo.sol\":345:436  if (a > 1) {... */\n          iszero\n          tag_16\n          jumpi\n            /* \"tests/IfDemo.sol\":378:379  1 */\n          0x01\n            /* \"tests/IfDemo.sol\":374:375  b */\n          dup3\n            /* \"tests/IfDemo.sol\":374:379  b > 1 */\n          gt\n            /* \"tests/IfDemo.sol\":370:426  if (b > 1) {... */\n          iszero\n          tag_17\n          jumpi\n            /* \"tests/IfDemo.sol\":410:411  b */\n          dup2\n            /* \"tests/IfDemo.sol\":406:407  a */\n          dup4\n            /* \"tests/IfDemo.sol\":406:411  a + b */\n          tag_18\n          swap2\n          swap1\n          tag_19\n          jump\t// in\n        tag_18:\n            /* \"tests/IfDemo.sol\":399:411  return a + b */\n          swap1\n          pop\n          jump(tag_15)\n            /* \"tests/IfDemo.sol\":370:426  if (b > 1) {... */\n        tag_17:\n            /* \"tests/IfDemo.sol\":345:436  if (a > 1) {... */\n        tag_16:\n            /* \"tests/IfDemo.sol\":452:453  0 */\n          0x00\n            /* \"tests/IfDemo.sol\":445:453  return 0 */\n          swap1\n          pop\n            /* \"tests/IfDemo.sol\":261:460  function tierCondition(uint256 a, uint256 b) public pure returns (uint256){... */\n        tag_15:\n          swap3\n          swap2\n          pop\n          pop\n          jump\t// out\n            /* \"tests/IfDemo.sol\":90:255  function andCondition(uint256 a, uint256 b) public pure returns (uint256) {... */\n        tag_13:\n            /* \"tests/IfDemo.sol\":155:162  uint256 */\n          0x00\n            /* \"tests/IfDemo.sol\":182:183  1 */\n          0x01\n            /* \"tests/IfDemo.sol\":178:179  a */\n          dup4\n            /* \"tests/IfDemo.sol\":178:183  a > 1 */\n          gt\n            /* \"tests/IfDemo.sol\":178:192  a > 1 && b > 1 */\n          dup1\n          iszero\n          tag_21\n          jumpi\n          pop\n            /* \"tests/IfDemo.sol\":191:192  1 */\n          0x01\n            /* \"tests/IfDemo.sol\":187:188  b */\n          dup3\n            /* \"tests/IfDemo.sol\":187:192  b > 1 */\n          gt\n            /* \"tests/IfDemo.sol\":178:192  a > 1 && b > 1 */\n        tag_21:\n            /* \"tests/IfDemo.sol\":174:231  if (a > 1 && b > 1) {... */\n          iszero\n          tag_22\n          jumpi\n            /* \"tests/IfDemo.sol\":219:220  b */\n          dup2\n            /* \"tests/IfDemo.sol\":215:216  a */\n          dup4\n            /* \"tests/IfDemo.sol\":215:220  a + b */\n          tag_23\n          swap2\n          swap1\n          tag_19\n          jump\t// in\n        tag_23:\n            /* \"tests/IfDemo.sol\":208:220  return a + b */\n          swap1\n          pop\n          jump(tag_20)\n            /* \"tests/IfDemo.sol\":174:231  if (a > 1 && b > 1) {... */\n        tag_22:\n            /* \"tests/IfDemo.sol\":247:248  0 */\n          0x00\n            /* \"tests/IfDemo.sol\":240:248  return 0 */\n          swap1\n          pop\n            /* \"tests/IfDemo.sol\":90:255  function andCondition(uint256 a, uint256 b) public pure returns (uint256) {... */\n        tag_20:\n          swap3\n          swap2\n          pop\n          pop\n          jump\t// out\n            /* \"#utility.yul\":88:205   */\n        tag_25:\n            /* \"#utility.yul\":197:198   */\n          0x00\n            /* \"#utility.yul\":194:195   */\n          dup1\n            /* \"#utility.yul\":187:199   */\n          revert\n            /* \"#utility.yul\":334:411   */\n        tag_27:\n            /* \"#utility.yul\":371:378   */\n          0x00\n            /* \"#utility.yul\":400:405   */\n          dup2\n            /* \"#utility.yul\":389:405   */\n          swap1\n          pop\n            /* \"#utility.yul\":334:411   */\n          swap2\n          swap1\n          pop\n          jump\t// out\n            /* \"#utility.yul\":417:539   */\n        tag_28:\n            /* \"#utility.yul\":490:514   */\n          tag_38\n            /* \"#utility.yul\":508:513   */\n          dup2\n            /* \"#utility.yul\":490:514   */\n          tag_27\n          jump\t// in\n        tag_38:\n            /* \"#utility.yul\":483:488   */\n          dup2\n            /* \"#utility.yul\":480:515   */\n          eq\n            /* \"#utility.yul\":470:533   */\n          tag_39\n          jumpi\n            /* \"#utility.yul\":529:530   */\n          0x00\n            /* \"#utility.yul\":526:527   */\n          dup1\n            /* \"#utility.yul\":519:531   */\n          revert\n            /* \"#utility.yul\":470:533   */\n        tag_39:\n            /* \"#utility.yul\":417:539   */\n          pop\n          jump\t// out\n            /* \"#utility.yul\":545:684   */\n        tag_29:\n            /* \"#utility.yul\":591:596   */\n          0x00\n            /* \"#utility.yul\":629:635   */\n          dup2\n            /* \"#utility.yul\":616:636   */\n          calldataload\n            /* \"#utility.yul\":607:636   */\n          swap1\n          pop\n            /* \"#utility.yul\":645:678   */\n          tag_41\n            /* \"#utility.yul\":672:677   */\n          dup2\n            /* \"#utility.yul\":645:678   */\n          tag_28\n          jump\t// in\n        tag_41:\n            /* \"#utility.yul\":545:684   */\n          swap3\n          swap2\n          pop\n          pop\n          jump\t// out\n            /* \"#utility.yul\":690:1164   */\n        tag_7:\n            /* \"#utility.yul\":758:764   */\n          0x00\n            /* \"#utility.yul\":766:772   */\n          dup1\n            /* \"#utility.yul\":815:817   */\n          0x40\n            /* \"#utility.yul\":803:812   */\n          dup4\n            /* \"#utility.yul\":794:801   */\n          dup6\n            /* \"#utility.yul\":790:813   */\n          sub\n            /* \"#utility.yul\":786:818   */\n          slt\n            /* \"#utility.yul\":783:902   */\n          iszero\n          tag_43\n          jumpi\n            /* \"#utility.yul\":821:900   */\n          tag_44\n          tag_25\n          jump\t// in\n        tag_44:\n            /* \"#utility.yul\":783:902   */\n        tag_43:\n            /* \"#utility.yul\":941:942   */\n          0x00\n            /* \"#utility.yul\":966:1019   */\n          tag_45\n            /* \"#utility.yul\":1011:1018   */\n          dup6\n            /* \"#utility.yul\":1002:1008   */\n          dup3\n            /* \"#utility.yul\":991:1000   */\n          dup7\n            /* \"#utility.yul\":987:1009   */\n          add\n            /* \"#utility.yul\":966:1019   */\n          tag_29\n          jump\t// in\n        tag_45:\n            /* \"#utility.yul\":956:1019   */\n          swap3\n          pop\n            /* \"#utility.yul\":912:1029   */\n          pop\n            /* \"#utility.yul\":1068:1070   */\n          0x20\n            /* \"#utility.yul\":1094:1147   */\n          tag_46\n            /* \"#utility.yul\":1139:1146   */\n          dup6\n            /* \"#utility.yul\":1130:1136   */\n          dup3\n            /* \"#utility.yul\":1119:1128   */\n          dup7\n            /* \"#utility.yul\":1115:1137   */\n          add\n            /* \"#utility.yul\":1094:1147   */\n          tag_29\n          jump\t// in\n        tag_46:\n            /* \"#utility.yul\":1084:1147   */\n          swap2\n          pop\n            /* \"#utility.yul\":1039:1157   */\n          pop\n            /* \"#utility.yul\":690:1164   */\n          swap3\n          pop\n          swap3\n          swap1\n          pop\n          jump\t// out\n            /* \"#utility.yul\":1170:1288   */\n        tag_30:\n            /* \"#utility.yul\":1257:1281   */\n          tag_48\n            /* \"#utility.yul\":1275:1280   */\n          dup2\n            /* \"#utility.yul\":1257:1281   */\n          tag_27\n          jump\t// in\n        tag_48:\n            /* \"#utility.yul\":1252:1255   */\n          dup3\n            /* \"#utility.yul\":1245:1282   */\n          mstore\n            /* \"#utility.yul\":1170:1288   */\n          pop\n          pop\n          jump\t// out\n            /* \"#utility.yul\":1294:1516   */\n        tag_10:\n            /* \"#utility.yul\":1387:1391   */\n          0x00\n            /* \"#utility.yul\":1425:1427   */\n          0x20\n            /* \"#utility.yul\":1414:1423   */\n          dup3\n            /* \"#utility.yul\":1410:1428   */\n          add\n            /* \"#utility.yul\":1402:1428   */\n          swap1\n          pop\n            /* \"#utility.yul\":1438:1509   */\n          tag_50\n            /* \"#utility.yul\":1506:1507   */\n          0x00\n            /* \"#utility.yul\":1495:1504   */\n          dup4\n            /* \"#utility.yul\":1491:1508   */\n          add\n            /* \"#utility.yul\":1482:1488   */\n          dup5\n            /* \"#utility.yul\":1438:1509   */\n          tag_30\n          jump\t// in\n        tag_50:\n            /* \"#utility.yul\":1294:1516   */\n          swap3\n          swap2\n          pop\n          pop\n          jump\t// out\n            /* \"#utility.yul\":1522:1702   */\n        tag_31:\n            /* \"#utility.yul\":1570:1647   */\n          0x4e487b7100000000000000000000000000000000000000000000000000000000\n            /* \"#utility.yul\":1567:1568   */\n          0x00\n            /* \"#utility.yul\":1560:1648   */\n          mstore\n            /* \"#utility.yul\":1667:1671   */\n          0x11\n            /* \"#utility.yul\":1664:1665   */\n          0x04\n            /* \"#utility.yul\":1657:1672   */\n          mstore\n            /* \"#utility.yul\":1691:1695   */\n          0x24\n            /* \"#utility.yul\":1688:1689   */\n          0x00\n            /* \"#utility.yul\":1681:1696   */\n          revert\n            /* \"#utility.yul\":1708:2013   */\n        tag_19:\n            /* \"#utility.yul\":1748:1751   */\n          0x00\n            /* \"#utility.yul\":1767:1787   */\n          tag_53\n            /* \"#utility.yul\":1785:1786   */\n          dup3\n            /* \"#utility.yul\":1767:1787   */\n          tag_27\n          jump\t// in\n        tag_53:\n            /* \"#utility.yul\":1762:1787   */\n          swap2\n          pop\n            /* \"#utility.yul\":1801:1821   */\n          tag_54\n            /* \"#utility.yul\":1819:1820   */\n          dup4\n            /* \"#utility.yul\":1801:1821   */\n          tag_27\n          jump\t// in\n        tag_54:\n            /* \"#utility.yul\":1796:1821   */\n          swap3\n          pop\n            /* \"#utility.yul\":1955:1956   */\n          dup3\n            /* \"#utility.yul\":1887:1953   */\n          0xffffffffffffffffffffffffffffffffffffffffffffffffffffffffffffffff\n            /* \"#utility.yul\":1883:1957   */\n          sub\n            /* \"#utility.yul\":1880:1881   */\n          dup3\n            /* \"#utility.yul\":1877:1958   */\n          gt\n            /* \"#utility.yul\":1874:1981   */\n          iszero\n          tag_55\n          jumpi\n            /* \"#utility.yul\":1961:1979   */\n          tag_56\n          tag_31\n          jump\t// in\n        tag_56:\n            /* \"#utility.yul\":1874:1981   */\n        tag_55:\n            /* \"#utility.yul\":2005:2006   */\n          dup3\n            /* \"#utility.yul\":2002:2003   */\n          dup3\n            /* \"#utility.yul\":1998:2007   */\n          add\n            /* \"#utility.yul\":1991:2007   */\n          swap1\n          pop\n            /* \"#utility.yul\":1708:2013   */\n          swap3\n          swap2\n          pop\n          pop\n          jump\t// out\n\n        auxdata: 0xa26469706673582212209860cc439b7dcc6f143c5928d7a96da6c0ad7d3319fced2f1a11dd922dfdbd6264736f6c634300080f0033\n    }\n}\n",
				"bytecode": {
					"linkReferences": {
						"remix_tests.sol": {
							"Assert": [
								{
									"length": 20,
									"start": 586
								}
							]
						}
					},
					"object": "608060405260405161001090610150565b604051809103906000f08015801561002c573d6000803e3d6000fd5b506000806101000a81548173ffffffffffffffffffffffffffffffffffffffff021916908373ffffffffffffffffffffffffffffffffffffffff1602179055506040516100789061015d565b604051809103906000f080158015610094573d6000803e3d6000fd5b50600160006101000a81548173ffffffffffffffffffffffffffffffffffffffff021916908373ffffffffffffffffffffffffffffffffffffffff1602179055506040516100e19061016a565b604051809103906000f0801580156100fd573d6000803e3d6000fd5b50600260006101000a81548173ffffffffffffffffffffffffffffffffffffffff021916908373ffffffffffffffffffffffffffffffffffffffff16021790555034801561014a57600080fd5b50610177565b6104a780610e0983390190565b6102d0806112b083390190565b6102838061158083390190565b610c83806101866000396000f3fe608060405234801561001057600080fd5b506004361061004c5760003560e01c80631a0a0878146100515780633b9883fe1461005b57806362a04d6814610079578063e833a04014610097575b600080fd5b6100596100a1565b005b61006361018c565b6040516100709190610782565b60405180910390f35b61008161031e565b60405161008e9190610782565b60405180910390f35b61009f61048d565b005b60005a9050600060019050600060029050600081836100c091906107cc565b905073__$acbfb1c35000d78352310b16a054a6b106$__63abcd79608260036040518363ffffffff1660e01b81526004016100fc92919061088e565b602060405180830381865af4158015610119573d6000803e3d6000fd5b505050506040513d601f19601f8201168201806040525081019061013d9190610907565b5050505060005a90507fb2de2fbe801a0df6c0cbddfd448ba3c41d48a040ca35c56c8196ef0fcae721a881836101739190610934565b60405161018091906109c5565b60405180910390a15050565b6000806002905060006002905060005a9050600260009054906101000a900473ffffffffffffffffffffffffffffffffffffffff1673ffffffffffffffffffffffffffffffffffffffff1663d6238a4284846040518363ffffffff1660e01b81526004016101fb9291906109f3565b602060405180830381865afa158015610218573d6000803e3d6000fd5b505050506040513d601f19601f8201168201806040525081019061023c9190610a48565b5060005a9050600081836102509190610934565b90505a9250600260009054906101000a900473ffffffffffffffffffffffffffffffffffffffff1673ffffffffffffffffffffffffffffffffffffffff166307c2671086866040518363ffffffff1660e01b81526004016102b29291906109f3565b602060405180830381865afa1580156102cf573d6000803e3d6000fd5b505050506040513d601f19601f820116820180604052508101906102f39190610a48565b505a9150600082846103059190610934565b905080826103139190610934565b965050505050505090565b60008061beef905060006012905060005a905060008054906101000a900473ffffffffffffffffffffffffffffffffffffffff1673ffffffffffffffffffffffffffffffffffffffff166348a0046784846040518363ffffffff1660e01b815260040161038c929190610ab6565b600060405180830381600087803b1580156103a657600080fd5b505af11580156103ba573d6000803e3d6000fd5b5050505060005a9050600081836103d19190610934565b90505a925060008054906101000a900473ffffffffffffffffffffffffffffffffffffffff1673ffffffffffffffffffffffffffffffffffffffff16633624448186866040518363ffffffff1660e01b8152600401610431929190610ab6565b600060405180830381600087803b15801561044b57600080fd5b505af115801561045f573d6000803e3d6000fd5b505050505a9150600082846104749190610934565b905080826104829190610934565b965050505050505090565b60006001905060006002905060005a9050600160009054906101000a900473ffffffffffffffffffffffffffffffffffffffff1673ffffffffffffffffffffffffffffffffffffffff166376b8144984846040518363ffffffff1660e01b81526004016104fb9291906109f3565b602060405180830381865afa158015610518573d6000803e3d6000fd5b505050506040513d601f19601f8201168201806040525081019061053c9190610a48565b5060005a9050600081836105509190610934565b90507fb2de2fbe801a0df6c0cbddfd448ba3c41d48a040ca35c56c8196ef0fcae721a8816040516105819190610b2b565b60405180910390a15a9250600160009054906101000a900473ffffffffffffffffffffffffffffffffffffffff1673ffffffffffffffffffffffffffffffffffffffff166329fcda3386866040518363ffffffff1660e01b81526004016105e99291906109f3565b602060405180830381865afa158015610606573d6000803e3d6000fd5b505050506040513d601f19601f8201168201806040525081019061062a9190610a48565b505a91506000828461063c9190610934565b90507fb2de2fbe801a0df6c0cbddfd448ba3c41d48a040ca35c56c8196ef0fcae721a88160405161066d9190610ba5565b60405180910390a15a9350600160009054906101000a900473ffffffffffffffffffffffffffffffffffffffff1673ffffffffffffffffffffffffffffffffffffffff1662c3314f87876040518363ffffffff1660e01b81526004016106d49291906109f3565b602060405180830381865afa1580156106f1573d6000803e3d6000fd5b505050506040513d601f19601f820116820180604052508101906107159190610a48565b505a9250600083856107279190610934565b90507fb2de2fbe801a0df6c0cbddfd448ba3c41d48a040ca35c56c8196ef0fcae721a8816040516107589190610c1f565b60405180910390a150505050505050565b6000819050919050565b61077c81610769565b82525050565b60006020820190506107976000830184610773565b92915050565b7f4e487b7100000000000000000000000000000000000000000000000000000000600052601160045260246000fd5b60006107d782610769565b91506107e283610769565b9250827fffffffffffffffffffffffffffffffffffffffffffffffffffffffffffffffff038211156108175761081661079d565b5b828201905092915050565b61082b81610769565b82525050565b600082825260208201905092915050565b7f726573756c742073686f756c6420626520657175616c20746f20330000000000600082015250565b6000610878601b83610831565b915061088382610842565b602082019050919050565b60006060820190506108a36000830185610822565b6108b06020830184610822565b81810360408301526108c18161086b565b90509392505050565b600080fd5b60008115159050919050565b6108e4816108cf565b81146108ef57600080fd5b50565b600081519050610901816108db565b92915050565b60006020828403121561091d5761091c6108ca565b5b600061092b848285016108f2565b91505092915050565b600061093f82610769565b915061094a83610769565b92508282101561095d5761095c61079d565b5b828203905092915050565b600082825260208201905092915050565b7f6761730000000000000000000000000000000000000000000000000000000000600082015250565b60006109af600383610968565b91506109ba82610979565b602082019050919050565b600060408201905081810360008301526109de816109a2565b90506109ed6020830184610773565b92915050565b6000604082019050610a086000830185610773565b610a156020830184610773565b9392505050565b610a2581610769565b8114610a3057600080fd5b50565b600081519050610a4281610a1c565b92915050565b600060208284031215610a5e57610a5d6108ca565b5b6000610a6c84828501610a33565b91505092915050565b600073ffffffffffffffffffffffffffffffffffffffff82169050919050565b6000610aa082610a75565b9050919050565b610ab081610a95565b82525050565b6000604082019050610acb6000830185610aa7565b610ad86020830184610773565b9392505050565b7f6761733100000000000000000000000000000000000000000000000000000000600082015250565b6000610b15600483610968565b9150610b2082610adf565b602082019050919050565b60006040820190508181036000830152610b4481610b08565b9050610b536020830184610773565b92915050565b7f6761733200000000000000000000000000000000000000000000000000000000600082015250565b6000610b8f600483610968565b9150610b9a82610b59565b602082019050919050565b60006040820190508181036000830152610bbe81610b82565b9050610bcd6020830184610773565b92915050565b7f6761733300000000000000000000000000000000000000000000000000000000600082015250565b6000610c09600483610968565b9150610c1482610bd3565b602082019050919050565b60006040820190508181036000830152610c3881610bfc565b9050610c476020830184610773565b9291505056fea26469706673582212201b6c64839d58fa5735e75c7bd89fe8eb7c452d0d33804a867dc640bfff77ad6f64736f6c634300080f0033608060405234801561001057600080fd5b50610487806100206000396000f3fe608060405234801561001057600080fd5b506004361061004c5760003560e01c806318160ddd14610051578063362444811461006f57806348a004671461008b57806370a08231146100a7575b600080fd5b6100596100d7565b60405161006691906102b5565b60405180910390f35b6100896004803603810190610084919061035f565b6100dd565b005b6100a560048036038101906100a0919061035f565b6101ac565b005b6100c160048036038101906100bc919061039f565b610284565b6040516100ce91906102b5565b60405180910390f35b60005481565b806000808282546100ee91906103fb565b9250508190555080600160008473ffffffffffffffffffffffffffffffffffffffff1673ffffffffffffffffffffffffffffffffffffffff168152602001908152602001600020600082825401925050819055508173ffffffffffffffffffffffffffffffffffffffff16600073ffffffffffffffffffffffffffffffffffffffff167fddf252ad1be2c89b69c2b068fc378daa952ba7f163c4a11628f55a4df523b3ef836040516101a091906102b5565b60405180910390a35050565b806000808282546101bd91906103fb565b9250508190555080600160008473ffffffffffffffffffffffffffffffffffffffff1673ffffffffffffffffffffffffffffffffffffffff168152602001908152602001600020600082825461021391906103fb565b925050819055508173ffffffffffffffffffffffffffffffffffffffff16600073ffffffffffffffffffffffffffffffffffffffff167fddf252ad1be2c89b69c2b068fc378daa952ba7f163c4a11628f55a4df523b3ef8360405161027891906102b5565b60405180910390a35050565b60016020528060005260406000206000915090505481565b6000819050919050565b6102af8161029c565b82525050565b60006020820190506102ca60008301846102a6565b92915050565b600080fd5b600073ffffffffffffffffffffffffffffffffffffffff82169050919050565b6000610300826102d5565b9050919050565b610310816102f5565b811461031b57600080fd5b50565b60008135905061032d81610307565b92915050565b61033c8161029c565b811461034757600080fd5b50565b60008135905061035981610333565b92915050565b60008060408385031215610376576103756102d0565b5b60006103848582860161031e565b92505060206103958582860161034a565b9150509250929050565b6000602082840312156103b5576103b46102d0565b5b60006103c38482850161031e565b91505092915050565b7f4e487b7100000000000000000000000000000000000000000000000000000000600052601160045260246000fd5b60006104068261029c565b91506104118361029c565b9250827fffffffffffffffffffffffffffffffffffffffffffffffffffffffffffffffff03821115610446576104456103cc565b5b82820190509291505056fea2646970667358221220a7d0533452f755aa5436056a1a7bc3db8949076fb3d51fdf7d38b0da5e86e20264736f6c634300080f0033608060405234801561001057600080fd5b506102b0806100206000396000f3fe608060405234801561001057600080fd5b50600436106100405760003560e01c8062c3314f1461004557806329fcda331461007557806376b81449146100a5575b600080fd5b61005f600480360381019061005a919061018b565b6100d5565b60405161006c91906101da565b60405180910390f35b61008f600480360381019061008a919061018b565b6100fc565b60405161009c91906101da565b60405180910390f35b6100bf60048036038101906100ba919061018b565b610123565b6040516100cc91906101da565b60405180910390f35b60008083036100e757600090506100f6565b81836100f39190610224565b90505b92915050565b600080830361010e576000905061011d565b818361011a9190610224565b90505b92915050565b6000808303610135576000905061014a565b600082846101439190610224565b9050809150505b92915050565b600080fd5b6000819050919050565b61016881610155565b811461017357600080fd5b50565b6000813590506101858161015f565b92915050565b600080604083850312156101a2576101a1610150565b5b60006101b085828601610176565b92505060206101c185828601610176565b9150509250929050565b6101d481610155565b82525050565b60006020820190506101ef60008301846101cb565b92915050565b7f4e487b7100000000000000000000000000000000000000000000000000000000600052601160045260246000fd5b600061022f82610155565b915061023a83610155565b9250827fffffffffffffffffffffffffffffffffffffffffffffffffffffffffffffffff0382111561026f5761026e6101f5565b5b82820190509291505056fea26469706673582212208df377e4236ecf90d09ca5c8b4f80b473cc88e107a472a8cde54e1297bbebf3464736f6c634300080f0033608060405234801561001057600080fd5b50610263806100206000396000f3fe608060405234801561001057600080fd5b50600436106100365760003560e01c806307c267101461003b578063d6238a421461006b575b600080fd5b6100556004803603810190610050919061013e565b61009b565b604051610062919061018d565b60405180910390f35b6100856004803603810190610080919061013e565b6100ce565b604051610092919061018d565b60405180910390f35b600060018311156100c35760018211156100c25781836100bb91906101d7565b90506100c8565b5b600090505b92915050565b60006001831180156100e05750600182115b156100f85781836100f191906101d7565b90506100fd565b600090505b92915050565b600080fd5b6000819050919050565b61011b81610108565b811461012657600080fd5b50565b60008135905061013881610112565b92915050565b6000806040838503121561015557610154610103565b5b600061016385828601610129565b925050602061017485828601610129565b9150509250929050565b61018781610108565b82525050565b60006020820190506101a2600083018461017e565b92915050565b7f4e487b7100000000000000000000000000000000000000000000000000000000600052601160045260246000fd5b60006101e282610108565b91506101ed83610108565b9250827fffffffffffffffffffffffffffffffffffffffffffffffffffffffffffffffff03821115610222576102216101a8565b5b82820190509291505056fea26469706673582212209860cc439b7dcc6f143c5928d7a96da6c0ad7d3319fced2f1a11dd922dfdbd6264736f6c634300080f0033",
					"opcodes": "PUSH1 0x80 PUSH1 0x40 MSTORE PUSH1 0x40 MLOAD PUSH2 0x10 SWAP1 PUSH2 0x150 JUMP JUMPDEST PUSH1 0x40 MLOAD DUP1 SWAP2 SUB SWAP1 PUSH1 0x0 CREATE DUP1 ISZERO DUP1 ISZERO PUSH2 0x2C JUMPI RETURNDATASIZE PUSH1 0x0 DUP1 RETURNDATACOPY RETURNDATASIZE PUSH1 0x0 REVERT JUMPDEST POP PUSH1 0x0 DUP1 PUSH2 0x100 EXP DUP2 SLOAD DUP2 PUSH20 0xFFFFFFFFFFFFFFFFFFFFFFFFFFFFFFFFFFFFFFFF MUL NOT AND SWAP1 DUP4 PUSH20 0xFFFFFFFFFFFFFFFFFFFFFFFFFFFFFFFFFFFFFFFF AND MUL OR SWAP1 SSTORE POP PUSH1 0x40 MLOAD PUSH2 0x78 SWAP1 PUSH2 0x15D JUMP JUMPDEST PUSH1 0x40 MLOAD DUP1 SWAP2 SUB SWAP1 PUSH1 0x0 CREATE DUP1 ISZERO DUP1 ISZERO PUSH2 0x94 JUMPI RETURNDATASIZE PUSH1 0x0 DUP1 RETURNDATACOPY RETURNDATASIZE PUSH1 0x0 REVERT JUMPDEST POP PUSH1 0x1 PUSH1 0x0 PUSH2 0x100 EXP DUP2 SLOAD DUP2 PUSH20 0xFFFFFFFFFFFFFFFFFFFFFFFFFFFFFFFFFFFFFFFF MUL NOT AND SWAP1 DUP4 PUSH20 0xFFFFFFFFFFFFFFFFFFFFFFFFFFFFFFFFFFFFFFFF AND MUL OR SWAP1 SSTORE POP PUSH1 0x40 MLOAD PUSH2 0xE1 SWAP1 PUSH2 0x16A JUMP JUMPDEST PUSH1 0x40 MLOAD DUP1 SWAP2 SUB SWAP1 PUSH1 0x0 CREATE DUP1 ISZERO DUP1 ISZERO PUSH2 0xFD JUMPI RETURNDATASIZE PUSH1 0x0 DUP1 RETURNDATACOPY RETURNDATASIZE PUSH1 0x0 REVERT JUMPDEST POP PUSH1 0x2 PUSH1 0x0 PUSH2 0x100 EXP DUP2 SLOAD DUP2 PUSH20 0xFFFFFFFFFFFFFFFFFFFFFFFFFFFFFFFFFFFFFFFF MUL NOT AND SWAP1 DUP4 PUSH20 0xFFFFFFFFFFFFFFFFFFFFFFFFFFFFFFFFFFFFFFFF AND MUL OR SWAP1 SSTORE POP CALLVALUE DUP1 ISZERO PUSH2 0x14A JUMPI PUSH1 0x0 DUP1 REVERT JUMPDEST POP PUSH2 0x177 JUMP JUMPDEST PUSH2 0x4A7 DUP1 PUSH2 0xE09 DUP4 CODECOPY ADD SWAP1 JUMP JUMPDEST PUSH2 0x2D0 DUP1 PUSH2 0x12B0 DUP4 CODECOPY ADD SWAP1 JUMP JUMPDEST PUSH2 0x283 DUP1 PUSH2 0x1580 DUP4 CODECOPY ADD SWAP1 JUMP JUMPDEST PUSH2 0xC83 DUP1 PUSH2 0x186 PUSH1 0x0 CODECOPY PUSH1 0x0 RETURN INVALID PUSH1 0x80 PUSH1 0x40 MSTORE CALLVALUE DUP1 ISZERO PUSH2 0x10 JUMPI PUSH1 0x0 DUP1 REVERT JUMPDEST POP PUSH1 0x4 CALLDATASIZE LT PUSH2 0x4C JUMPI PUSH1 0x0 CALLDATALOAD PUSH1 0xE0 SHR DUP1 PUSH4 0x1A0A0878 EQ PUSH2 0x51 JUMPI DUP1 PUSH4 0x3B9883FE EQ PUSH2 0x5B JUMPI DUP1 PUSH4 0x62A04D68 EQ PUSH2 0x79 JUMPI DUP1 PUSH4 0xE833A040 EQ PUSH2 0x97 JUMPI JUMPDEST PUSH1 0x0 DUP1 REVERT JUMPDEST PUSH2 0x59 PUSH2 0xA1 JUMP JUMPDEST STOP JUMPDEST PUSH2 0x63 PUSH2 0x18C JUMP JUMPDEST PUSH1 0x40 MLOAD PUSH2 0x70 SWAP2 SWAP1 PUSH2 0x782 JUMP JUMPDEST PUSH1 0x40 MLOAD DUP1 SWAP2 SUB SWAP1 RETURN JUMPDEST PUSH2 0x81 PUSH2 0x31E JUMP JUMPDEST PUSH1 0x40 MLOAD PUSH2 0x8E SWAP2 SWAP1 PUSH2 0x782 JUMP JUMPDEST PUSH1 0x40 MLOAD DUP1 SWAP2 SUB SWAP1 RETURN JUMPDEST PUSH2 0x9F PUSH2 0x48D JUMP JUMPDEST STOP JUMPDEST PUSH1 0x0 GAS SWAP1 POP PUSH1 0x0 PUSH1 0x1 SWAP1 POP PUSH1 0x0 PUSH1 0x2 SWAP1 POP PUSH1 0x0 DUP2 DUP4 PUSH2 0xC0 SWAP2 SWAP1 PUSH2 0x7CC JUMP JUMPDEST SWAP1 POP PUSH20 0x0 PUSH4 0xABCD7960 DUP3 PUSH1 0x3 PUSH1 0x40 MLOAD DUP4 PUSH4 0xFFFFFFFF AND PUSH1 0xE0 SHL DUP2 MSTORE PUSH1 0x4 ADD PUSH2 0xFC SWAP3 SWAP2 SWAP1 PUSH2 0x88E JUMP JUMPDEST PUSH1 0x20 PUSH1 0x40 MLOAD DUP1 DUP4 SUB DUP2 DUP7 GAS DELEGATECALL ISZERO DUP1 ISZERO PUSH2 0x119 JUMPI RETURNDATASIZE PUSH1 0x0 DUP1 RETURNDATACOPY RETURNDATASIZE PUSH1 0x0 REVERT JUMPDEST POP POP POP POP PUSH1 0x40 MLOAD RETURNDATASIZE PUSH1 0x1F NOT PUSH1 0x1F DUP3 ADD AND DUP3 ADD DUP1 PUSH1 0x40 MSTORE POP DUP2 ADD SWAP1 PUSH2 0x13D SWAP2 SWAP1 PUSH2 0x907 JUMP JUMPDEST POP POP POP POP PUSH1 0x0 GAS SWAP1 POP PUSH32 0xB2DE2FBE801A0DF6C0CBDDFD448BA3C41D48A040CA35C56C8196EF0FCAE721A8 DUP2 DUP4 PUSH2 0x173 SWAP2 SWAP1 PUSH2 0x934 JUMP JUMPDEST PUSH1 0x40 MLOAD PUSH2 0x180 SWAP2 SWAP1 PUSH2 0x9C5 JUMP JUMPDEST PUSH1 0x40 MLOAD DUP1 SWAP2 SUB SWAP1 LOG1 POP POP JUMP JUMPDEST PUSH1 0x0 DUP1 PUSH1 0x2 SWAP1 POP PUSH1 0x0 PUSH1 0x2 SWAP1 POP PUSH1 0x0 GAS SWAP1 POP PUSH1 0x2 PUSH1 0x0 SWAP1 SLOAD SWAP1 PUSH2 0x100 EXP SWAP1 DIV PUSH20 0xFFFFFFFFFFFFFFFFFFFFFFFFFFFFFFFFFFFFFFFF AND PUSH20 0xFFFFFFFFFFFFFFFFFFFFFFFFFFFFFFFFFFFFFFFF AND PUSH4 0xD6238A42 DUP5 DUP5 PUSH1 0x40 MLOAD DUP4 PUSH4 0xFFFFFFFF AND PUSH1 0xE0 SHL DUP2 MSTORE PUSH1 0x4 ADD PUSH2 0x1FB SWAP3 SWAP2 SWAP1 PUSH2 0x9F3 JUMP JUMPDEST PUSH1 0x20 PUSH1 0x40 MLOAD DUP1 DUP4 SUB DUP2 DUP7 GAS STATICCALL ISZERO DUP1 ISZERO PUSH2 0x218 JUMPI RETURNDATASIZE PUSH1 0x0 DUP1 RETURNDATACOPY RETURNDATASIZE PUSH1 0x0 REVERT JUMPDEST POP POP POP POP PUSH1 0x40 MLOAD RETURNDATASIZE PUSH1 0x1F NOT PUSH1 0x1F DUP3 ADD AND DUP3 ADD DUP1 PUSH1 0x40 MSTORE POP DUP2 ADD SWAP1 PUSH2 0x23C SWAP2 SWAP1 PUSH2 0xA48 JUMP JUMPDEST POP PUSH1 0x0 GAS SWAP1 POP PUSH1 0x0 DUP2 DUP4 PUSH2 0x250 SWAP2 SWAP1 PUSH2 0x934 JUMP JUMPDEST SWAP1 POP GAS SWAP3 POP PUSH1 0x2 PUSH1 0x0 SWAP1 SLOAD SWAP1 PUSH2 0x100 EXP SWAP1 DIV PUSH20 0xFFFFFFFFFFFFFFFFFFFFFFFFFFFFFFFFFFFFFFFF AND PUSH20 0xFFFFFFFFFFFFFFFFFFFFFFFFFFFFFFFFFFFFFFFF AND PUSH4 0x7C26710 DUP7 DUP7 PUSH1 0x40 MLOAD DUP4 PUSH4 0xFFFFFFFF AND PUSH1 0xE0 SHL DUP2 MSTORE PUSH1 0x4 ADD PUSH2 0x2B2 SWAP3 SWAP2 SWAP1 PUSH2 0x9F3 JUMP JUMPDEST PUSH1 0x20 PUSH1 0x40 MLOAD DUP1 DUP4 SUB DUP2 DUP7 GAS STATICCALL ISZERO DUP1 ISZERO PUSH2 0x2CF JUMPI RETURNDATASIZE PUSH1 0x0 DUP1 RETURNDATACOPY RETURNDATASIZE PUSH1 0x0 REVERT JUMPDEST POP POP POP POP PUSH1 0x40 MLOAD RETURNDATASIZE PUSH1 0x1F NOT PUSH1 0x1F DUP3 ADD AND DUP3 ADD DUP1 PUSH1 0x40 MSTORE POP DUP2 ADD SWAP1 PUSH2 0x2F3 SWAP2 SWAP1 PUSH2 0xA48 JUMP JUMPDEST POP GAS SWAP2 POP PUSH1 0x0 DUP3 DUP5 PUSH2 0x305 SWAP2 SWAP1 PUSH2 0x934 JUMP JUMPDEST SWAP1 POP DUP1 DUP3 PUSH2 0x313 SWAP2 SWAP1 PUSH2 0x934 JUMP JUMPDEST SWAP7 POP POP POP POP POP POP POP SWAP1 JUMP JUMPDEST PUSH1 0x0 DUP1 PUSH2 0xBEEF SWAP1 POP PUSH1 0x0 PUSH1 0x12 SWAP1 POP PUSH1 0x0 GAS SWAP1 POP PUSH1 0x0 DUP1 SLOAD SWAP1 PUSH2 0x100 EXP SWAP1 DIV PUSH20 0xFFFFFFFFFFFFFFFFFFFFFFFFFFFFFFFFFFFFFFFF AND PUSH20 0xFFFFFFFFFFFFFFFFFFFFFFFFFFFFFFFFFFFFFFFF AND PUSH4 0x48A00467 DUP5 DUP5 PUSH1 0x40 MLOAD DUP4 PUSH4 0xFFFFFFFF AND PUSH1 0xE0 SHL DUP2 MSTORE PUSH1 0x4 ADD PUSH2 0x38C SWAP3 SWAP2 SWAP1 PUSH2 0xAB6 JUMP JUMPDEST PUSH1 0x0 PUSH1 0x40 MLOAD DUP1 DUP4 SUB DUP2 PUSH1 0x0 DUP8 DUP1 EXTCODESIZE ISZERO DUP1 ISZERO PUSH2 0x3A6 JUMPI PUSH1 0x0 DUP1 REVERT JUMPDEST POP GAS CALL ISZERO DUP1 ISZERO PUSH2 0x3BA JUMPI RETURNDATASIZE PUSH1 0x0 DUP1 RETURNDATACOPY RETURNDATASIZE PUSH1 0x0 REVERT JUMPDEST POP POP POP POP PUSH1 0x0 GAS SWAP1 POP PUSH1 0x0 DUP2 DUP4 PUSH2 0x3D1 SWAP2 SWAP1 PUSH2 0x934 JUMP JUMPDEST SWAP1 POP GAS SWAP3 POP PUSH1 0x0 DUP1 SLOAD SWAP1 PUSH2 0x100 EXP SWAP1 DIV PUSH20 0xFFFFFFFFFFFFFFFFFFFFFFFFFFFFFFFFFFFFFFFF AND PUSH20 0xFFFFFFFFFFFFFFFFFFFFFFFFFFFFFFFFFFFFFFFF AND PUSH4 0x36244481 DUP7 DUP7 PUSH1 0x40 MLOAD DUP4 PUSH4 0xFFFFFFFF AND PUSH1 0xE0 SHL DUP2 MSTORE PUSH1 0x4 ADD PUSH2 0x431 SWAP3 SWAP2 SWAP1 PUSH2 0xAB6 JUMP JUMPDEST PUSH1 0x0 PUSH1 0x40 MLOAD DUP1 DUP4 SUB DUP2 PUSH1 0x0 DUP8 DUP1 EXTCODESIZE ISZERO DUP1 ISZERO PUSH2 0x44B JUMPI PUSH1 0x0 DUP1 REVERT JUMPDEST POP GAS CALL ISZERO DUP1 ISZERO PUSH2 0x45F JUMPI RETURNDATASIZE PUSH1 0x0 DUP1 RETURNDATACOPY RETURNDATASIZE PUSH1 0x0 REVERT JUMPDEST POP POP POP POP GAS SWAP2 POP PUSH1 0x0 DUP3 DUP5 PUSH2 0x474 SWAP2 SWAP1 PUSH2 0x934 JUMP JUMPDEST SWAP1 POP DUP1 DUP3 PUSH2 0x482 SWAP2 SWAP1 PUSH2 0x934 JUMP JUMPDEST SWAP7 POP POP POP POP POP POP POP SWAP1 JUMP JUMPDEST PUSH1 0x0 PUSH1 0x1 SWAP1 POP PUSH1 0x0 PUSH1 0x2 SWAP1 POP PUSH1 0x0 GAS SWAP1 POP PUSH1 0x1 PUSH1 0x0 SWAP1 SLOAD SWAP1 PUSH2 0x100 EXP SWAP1 DIV PUSH20 0xFFFFFFFFFFFFFFFFFFFFFFFFFFFFFFFFFFFFFFFF AND PUSH20 0xFFFFFFFFFFFFFFFFFFFFFFFFFFFFFFFFFFFFFFFF AND PUSH4 0x76B81449 DUP5 DUP5 PUSH1 0x40 MLOAD DUP4 PUSH4 0xFFFFFFFF AND PUSH1 0xE0 SHL DUP2 MSTORE PUSH1 0x4 ADD PUSH2 0x4FB SWAP3 SWAP2 SWAP1 PUSH2 0x9F3 JUMP JUMPDEST PUSH1 0x20 PUSH1 0x40 MLOAD DUP1 DUP4 SUB DUP2 DUP7 GAS STATICCALL ISZERO DUP1 ISZERO PUSH2 0x518 JUMPI RETURNDATASIZE PUSH1 0x0 DUP1 RETURNDATACOPY RETURNDATASIZE PUSH1 0x0 REVERT JUMPDEST POP POP POP POP PUSH1 0x40 MLOAD RETURNDATASIZE PUSH1 0x1F NOT PUSH1 0x1F DUP3 ADD AND DUP3 ADD DUP1 PUSH1 0x40 MSTORE POP DUP2 ADD SWAP1 PUSH2 0x53C SWAP2 SWAP1 PUSH2 0xA48 JUMP JUMPDEST POP PUSH1 0x0 GAS SWAP1 POP PUSH1 0x0 DUP2 DUP4 PUSH2 0x550 SWAP2 SWAP1 PUSH2 0x934 JUMP JUMPDEST SWAP1 POP PUSH32 0xB2DE2FBE801A0DF6C0CBDDFD448BA3C41D48A040CA35C56C8196EF0FCAE721A8 DUP2 PUSH1 0x40 MLOAD PUSH2 0x581 SWAP2 SWAP1 PUSH2 0xB2B JUMP JUMPDEST PUSH1 0x40 MLOAD DUP1 SWAP2 SUB SWAP1 LOG1 GAS SWAP3 POP PUSH1 0x1 PUSH1 0x0 SWAP1 SLOAD SWAP1 PUSH2 0x100 EXP SWAP1 DIV PUSH20 0xFFFFFFFFFFFFFFFFFFFFFFFFFFFFFFFFFFFFFFFF AND PUSH20 0xFFFFFFFFFFFFFFFFFFFFFFFFFFFFFFFFFFFFFFFF AND PUSH4 0x29FCDA33 DUP7 DUP7 PUSH1 0x40 MLOAD DUP4 PUSH4 0xFFFFFFFF AND PUSH1 0xE0 SHL DUP2 MSTORE PUSH1 0x4 ADD PUSH2 0x5E9 SWAP3 SWAP2 SWAP1 PUSH2 0x9F3 JUMP JUMPDEST PUSH1 0x20 PUSH1 0x40 MLOAD DUP1 DUP4 SUB DUP2 DUP7 GAS STATICCALL ISZERO DUP1 ISZERO PUSH2 0x606 JUMPI RETURNDATASIZE PUSH1 0x0 DUP1 RETURNDATACOPY RETURNDATASIZE PUSH1 0x0 REVERT JUMPDEST POP POP POP POP PUSH1 0x40 MLOAD RETURNDATASIZE PUSH1 0x1F NOT PUSH1 0x1F DUP3 ADD AND DUP3 ADD DUP1 PUSH1 0x40 MSTORE POP DUP2 ADD SWAP1 PUSH2 0x62A SWAP2 SWAP1 PUSH2 0xA48 JUMP JUMPDEST POP GAS SWAP2 POP PUSH1 0x0 DUP3 DUP5 PUSH2 0x63C SWAP2 SWAP1 PUSH2 0x934 JUMP JUMPDEST SWAP1 POP PUSH32 0xB2DE2FBE801A0DF6C0CBDDFD448BA3C41D48A040CA35C56C8196EF0FCAE721A8 DUP2 PUSH1 0x40 MLOAD PUSH2 0x66D SWAP2 SWAP1 PUSH2 0xBA5 JUMP JUMPDEST PUSH1 0x40 MLOAD DUP1 SWAP2 SUB SWAP1 LOG1 GAS SWAP4 POP PUSH1 0x1 PUSH1 0x0 SWAP1 SLOAD SWAP1 PUSH2 0x100 EXP SWAP1 DIV PUSH20 0xFFFFFFFFFFFFFFFFFFFFFFFFFFFFFFFFFFFFFFFF AND PUSH20 0xFFFFFFFFFFFFFFFFFFFFFFFFFFFFFFFFFFFFFFFF AND PUSH3 0xC3314F DUP8 DUP8 PUSH1 0x40 MLOAD DUP4 PUSH4 0xFFFFFFFF AND PUSH1 0xE0 SHL DUP2 MSTORE PUSH1 0x4 ADD PUSH2 0x6D4 SWAP3 SWAP2 SWAP1 PUSH2 0x9F3 JUMP JUMPDEST PUSH1 0x20 PUSH1 0x40 MLOAD DUP1 DUP4 SUB DUP2 DUP7 GAS STATICCALL ISZERO DUP1 ISZERO PUSH2 0x6F1 JUMPI RETURNDATASIZE PUSH1 0x0 DUP1 RETURNDATACOPY RETURNDATASIZE PUSH1 0x0 REVERT JUMPDEST POP POP POP POP PUSH1 0x40 MLOAD RETURNDATASIZE PUSH1 0x1F NOT PUSH1 0x1F DUP3 ADD AND DUP3 ADD DUP1 PUSH1 0x40 MSTORE POP DUP2 ADD SWAP1 PUSH2 0x715 SWAP2 SWAP1 PUSH2 0xA48 JUMP JUMPDEST POP GAS SWAP3 POP PUSH1 0x0 DUP4 DUP6 PUSH2 0x727 SWAP2 SWAP1 PUSH2 0x934 JUMP JUMPDEST SWAP1 POP PUSH32 0xB2DE2FBE801A0DF6C0CBDDFD448BA3C41D48A040CA35C56C8196EF0FCAE721A8 DUP2 PUSH1 0x40 MLOAD PUSH2 0x758 SWAP2 SWAP1 PUSH2 0xC1F JUMP JUMPDEST PUSH1 0x40 MLOAD DUP1 SWAP2 SUB SWAP1 LOG1 POP POP POP POP POP POP POP JUMP JUMPDEST PUSH1 0x0 DUP2 SWAP1 POP SWAP2 SWAP1 POP JUMP JUMPDEST PUSH2 0x77C DUP2 PUSH2 0x769 JUMP JUMPDEST DUP3 MSTORE POP POP JUMP JUMPDEST PUSH1 0x0 PUSH1 0x20 DUP3 ADD SWAP1 POP PUSH2 0x797 PUSH1 0x0 DUP4 ADD DUP5 PUSH2 0x773 JUMP JUMPDEST SWAP3 SWAP2 POP POP JUMP JUMPDEST PUSH32 0x4E487B7100000000000000000000000000000000000000000000000000000000 PUSH1 0x0 MSTORE PUSH1 0x11 PUSH1 0x4 MSTORE PUSH1 0x24 PUSH1 0x0 REVERT JUMPDEST PUSH1 0x0 PUSH2 0x7D7 DUP3 PUSH2 0x769 JUMP JUMPDEST SWAP2 POP PUSH2 0x7E2 DUP4 PUSH2 0x769 JUMP JUMPDEST SWAP3 POP DUP3 PUSH32 0xFFFFFFFFFFFFFFFFFFFFFFFFFFFFFFFFFFFFFFFFFFFFFFFFFFFFFFFFFFFFFFFF SUB DUP3 GT ISZERO PUSH2 0x817 JUMPI PUSH2 0x816 PUSH2 0x79D JUMP JUMPDEST JUMPDEST DUP3 DUP3 ADD SWAP1 POP SWAP3 SWAP2 POP POP JUMP JUMPDEST PUSH2 0x82B DUP2 PUSH2 0x769 JUMP JUMPDEST DUP3 MSTORE POP POP JUMP JUMPDEST PUSH1 0x0 DUP3 DUP3 MSTORE PUSH1 0x20 DUP3 ADD SWAP1 POP SWAP3 SWAP2 POP POP JUMP JUMPDEST PUSH32 0x726573756C742073686F756C6420626520657175616C20746F20330000000000 PUSH1 0x0 DUP3 ADD MSTORE POP JUMP JUMPDEST PUSH1 0x0 PUSH2 0x878 PUSH1 0x1B DUP4 PUSH2 0x831 JUMP JUMPDEST SWAP2 POP PUSH2 0x883 DUP3 PUSH2 0x842 JUMP JUMPDEST PUSH1 0x20 DUP3 ADD SWAP1 POP SWAP2 SWAP1 POP JUMP JUMPDEST PUSH1 0x0 PUSH1 0x60 DUP3 ADD SWAP1 POP PUSH2 0x8A3 PUSH1 0x0 DUP4 ADD DUP6 PUSH2 0x822 JUMP JUMPDEST PUSH2 0x8B0 PUSH1 0x20 DUP4 ADD DUP5 PUSH2 0x822 JUMP JUMPDEST DUP2 DUP2 SUB PUSH1 0x40 DUP4 ADD MSTORE PUSH2 0x8C1 DUP2 PUSH2 0x86B JUMP JUMPDEST SWAP1 POP SWAP4 SWAP3 POP POP POP JUMP JUMPDEST PUSH1 0x0 DUP1 REVERT JUMPDEST PUSH1 0x0 DUP2 ISZERO ISZERO SWAP1 POP SWAP2 SWAP1 POP JUMP JUMPDEST PUSH2 0x8E4 DUP2 PUSH2 0x8CF JUMP JUMPDEST DUP2 EQ PUSH2 0x8EF JUMPI PUSH1 0x0 DUP1 REVERT JUMPDEST POP JUMP JUMPDEST PUSH1 0x0 DUP2 MLOAD SWAP1 POP PUSH2 0x901 DUP2 PUSH2 0x8DB JUMP JUMPDEST SWAP3 SWAP2 POP POP JUMP JUMPDEST PUSH1 0x0 PUSH1 0x20 DUP3 DUP5 SUB SLT ISZERO PUSH2 0x91D JUMPI PUSH2 0x91C PUSH2 0x8CA JUMP JUMPDEST JUMPDEST PUSH1 0x0 PUSH2 0x92B DUP5 DUP3 DUP6 ADD PUSH2 0x8F2 JUMP JUMPDEST SWAP2 POP POP SWAP3 SWAP2 POP POP JUMP JUMPDEST PUSH1 0x0 PUSH2 0x93F DUP3 PUSH2 0x769 JUMP JUMPDEST SWAP2 POP PUSH2 0x94A DUP4 PUSH2 0x769 JUMP JUMPDEST SWAP3 POP DUP3 DUP3 LT ISZERO PUSH2 0x95D JUMPI PUSH2 0x95C PUSH2 0x79D JUMP JUMPDEST JUMPDEST DUP3 DUP3 SUB SWAP1 POP SWAP3 SWAP2 POP POP JUMP JUMPDEST PUSH1 0x0 DUP3 DUP3 MSTORE PUSH1 0x20 DUP3 ADD SWAP1 POP SWAP3 SWAP2 POP POP JUMP JUMPDEST PUSH32 0x6761730000000000000000000000000000000000000000000000000000000000 PUSH1 0x0 DUP3 ADD MSTORE POP JUMP JUMPDEST PUSH1 0x0 PUSH2 0x9AF PUSH1 0x3 DUP4 PUSH2 0x968 JUMP JUMPDEST SWAP2 POP PUSH2 0x9BA DUP3 PUSH2 0x979 JUMP JUMPDEST PUSH1 0x20 DUP3 ADD SWAP1 POP SWAP2 SWAP1 POP JUMP JUMPDEST PUSH1 0x0 PUSH1 0x40 DUP3 ADD SWAP1 POP DUP2 DUP2 SUB PUSH1 0x0 DUP4 ADD MSTORE PUSH2 0x9DE DUP2 PUSH2 0x9A2 JUMP JUMPDEST SWAP1 POP PUSH2 0x9ED PUSH1 0x20 DUP4 ADD DUP5 PUSH2 0x773 JUMP JUMPDEST SWAP3 SWAP2 POP POP JUMP JUMPDEST PUSH1 0x0 PUSH1 0x40 DUP3 ADD SWAP1 POP PUSH2 0xA08 PUSH1 0x0 DUP4 ADD DUP6 PUSH2 0x773 JUMP JUMPDEST PUSH2 0xA15 PUSH1 0x20 DUP4 ADD DUP5 PUSH2 0x773 JUMP JUMPDEST SWAP4 SWAP3 POP POP POP JUMP JUMPDEST PUSH2 0xA25 DUP2 PUSH2 0x769 JUMP JUMPDEST DUP2 EQ PUSH2 0xA30 JUMPI PUSH1 0x0 DUP1 REVERT JUMPDEST POP JUMP JUMPDEST PUSH1 0x0 DUP2 MLOAD SWAP1 POP PUSH2 0xA42 DUP2 PUSH2 0xA1C JUMP JUMPDEST SWAP3 SWAP2 POP POP JUMP JUMPDEST PUSH1 0x0 PUSH1 0x20 DUP3 DUP5 SUB SLT ISZERO PUSH2 0xA5E JUMPI PUSH2 0xA5D PUSH2 0x8CA JUMP JUMPDEST JUMPDEST PUSH1 0x0 PUSH2 0xA6C DUP5 DUP3 DUP6 ADD PUSH2 0xA33 JUMP JUMPDEST SWAP2 POP POP SWAP3 SWAP2 POP POP JUMP JUMPDEST PUSH1 0x0 PUSH20 0xFFFFFFFFFFFFFFFFFFFFFFFFFFFFFFFFFFFFFFFF DUP3 AND SWAP1 POP SWAP2 SWAP1 POP JUMP JUMPDEST PUSH1 0x0 PUSH2 0xAA0 DUP3 PUSH2 0xA75 JUMP JUMPDEST SWAP1 POP SWAP2 SWAP1 POP JUMP JUMPDEST PUSH2 0xAB0 DUP2 PUSH2 0xA95 JUMP JUMPDEST DUP3 MSTORE POP POP JUMP JUMPDEST PUSH1 0x0 PUSH1 0x40 DUP3 ADD SWAP1 POP PUSH2 0xACB PUSH1 0x0 DUP4 ADD DUP6 PUSH2 0xAA7 JUMP JUMPDEST PUSH2 0xAD8 PUSH1 0x20 DUP4 ADD DUP5 PUSH2 0x773 JUMP JUMPDEST SWAP4 SWAP3 POP POP POP JUMP JUMPDEST PUSH32 0x6761733100000000000000000000000000000000000000000000000000000000 PUSH1 0x0 DUP3 ADD MSTORE POP JUMP JUMPDEST PUSH1 0x0 PUSH2 0xB15 PUSH1 0x4 DUP4 PUSH2 0x968 JUMP JUMPDEST SWAP2 POP PUSH2 0xB20 DUP3 PUSH2 0xADF JUMP JUMPDEST PUSH1 0x20 DUP3 ADD SWAP1 POP SWAP2 SWAP1 POP JUMP JUMPDEST PUSH1 0x0 PUSH1 0x40 DUP3 ADD SWAP1 POP DUP2 DUP2 SUB PUSH1 0x0 DUP4 ADD MSTORE PUSH2 0xB44 DUP2 PUSH2 0xB08 JUMP JUMPDEST SWAP1 POP PUSH2 0xB53 PUSH1 0x20 DUP4 ADD DUP5 PUSH2 0x773 JUMP JUMPDEST SWAP3 SWAP2 POP POP JUMP JUMPDEST PUSH32 0x6761733200000000000000000000000000000000000000000000000000000000 PUSH1 0x0 DUP3 ADD MSTORE POP JUMP JUMPDEST PUSH1 0x0 PUSH2 0xB8F PUSH1 0x4 DUP4 PUSH2 0x968 JUMP JUMPDEST SWAP2 POP PUSH2 0xB9A DUP3 PUSH2 0xB59 JUMP JUMPDEST PUSH1 0x20 DUP3 ADD SWAP1 POP SWAP2 SWAP1 POP JUMP JUMPDEST PUSH1 0x0 PUSH1 0x40 DUP3 ADD SWAP1 POP DUP2 DUP2 SUB PUSH1 0x0 DUP4 ADD MSTORE PUSH2 0xBBE DUP2 PUSH2 0xB82 JUMP JUMPDEST SWAP1 POP PUSH2 0xBCD PUSH1 0x20 DUP4 ADD DUP5 PUSH2 0x773 JUMP JUMPDEST SWAP3 SWAP2 POP POP JUMP JUMPDEST PUSH32 0x6761733300000000000000000000000000000000000000000000000000000000 PUSH1 0x0 DUP3 ADD MSTORE POP JUMP JUMPDEST PUSH1 0x0 PUSH2 0xC09 PUSH1 0x4 DUP4 PUSH2 0x968 JUMP JUMPDEST SWAP2 POP PUSH2 0xC14 DUP3 PUSH2 0xBD3 JUMP JUMPDEST PUSH1 0x20 DUP3 ADD SWAP1 POP SWAP2 SWAP1 POP JUMP JUMPDEST PUSH1 0x0 PUSH1 0x40 DUP3 ADD SWAP1 POP DUP2 DUP2 SUB PUSH1 0x0 DUP4 ADD MSTORE PUSH2 0xC38 DUP2 PUSH2 0xBFC JUMP JUMPDEST SWAP1 POP PUSH2 0xC47 PUSH1 0x20 DUP4 ADD DUP5 PUSH2 0x773 JUMP JUMPDEST SWAP3 SWAP2 POP POP JUMP INVALID LOG2 PUSH5 0x6970667358 0x22 SLT KECCAK256 SHL PUSH13 0x64839D58FA5735E75C7BD89FE8 0xEB PUSH29 0x452D0D33804A867DC640BFFF77AD6F64736F6C634300080F0033608060 BLOCKHASH MSTORE CALLVALUE DUP1 ISZERO PUSH2 0x10 JUMPI PUSH1 0x0 DUP1 REVERT JUMPDEST POP PUSH2 0x487 DUP1 PUSH2 0x20 PUSH1 0x0 CODECOPY PUSH1 0x0 RETURN INVALID PUSH1 0x80 PUSH1 0x40 MSTORE CALLVALUE DUP1 ISZERO PUSH2 0x10 JUMPI PUSH1 0x0 DUP1 REVERT JUMPDEST POP PUSH1 0x4 CALLDATASIZE LT PUSH2 0x4C JUMPI PUSH1 0x0 CALLDATALOAD PUSH1 0xE0 SHR DUP1 PUSH4 0x18160DDD EQ PUSH2 0x51 JUMPI DUP1 PUSH4 0x36244481 EQ PUSH2 0x6F JUMPI DUP1 PUSH4 0x48A00467 EQ PUSH2 0x8B JUMPI DUP1 PUSH4 0x70A08231 EQ PUSH2 0xA7 JUMPI JUMPDEST PUSH1 0x0 DUP1 REVERT JUMPDEST PUSH2 0x59 PUSH2 0xD7 JUMP JUMPDEST PUSH1 0x40 MLOAD PUSH2 0x66 SWAP2 SWAP1 PUSH2 0x2B5 JUMP JUMPDEST PUSH1 0x40 MLOAD DUP1 SWAP2 SUB SWAP1 RETURN JUMPDEST PUSH2 0x89 PUSH1 0x4 DUP1 CALLDATASIZE SUB DUP2 ADD SWAP1 PUSH2 0x84 SWAP2 SWAP1 PUSH2 0x35F JUMP JUMPDEST PUSH2 0xDD JUMP JUMPDEST STOP JUMPDEST PUSH2 0xA5 PUSH1 0x4 DUP1 CALLDATASIZE SUB DUP2 ADD SWAP1 PUSH2 0xA0 SWAP2 SWAP1 PUSH2 0x35F JUMP JUMPDEST PUSH2 0x1AC JUMP JUMPDEST STOP JUMPDEST PUSH2 0xC1 PUSH1 0x4 DUP1 CALLDATASIZE SUB DUP2 ADD SWAP1 PUSH2 0xBC SWAP2 SWAP1 PUSH2 0x39F JUMP JUMPDEST PUSH2 0x284 JUMP JUMPDEST PUSH1 0x40 MLOAD PUSH2 0xCE SWAP2 SWAP1 PUSH2 0x2B5 JUMP JUMPDEST PUSH1 0x40 MLOAD DUP1 SWAP2 SUB SWAP1 RETURN JUMPDEST PUSH1 0x0 SLOAD DUP2 JUMP JUMPDEST DUP1 PUSH1 0x0 DUP1 DUP3 DUP3 SLOAD PUSH2 0xEE SWAP2 SWAP1 PUSH2 0x3FB JUMP JUMPDEST SWAP3 POP POP DUP2 SWAP1 SSTORE POP DUP1 PUSH1 0x1 PUSH1 0x0 DUP5 PUSH20 0xFFFFFFFFFFFFFFFFFFFFFFFFFFFFFFFFFFFFFFFF AND PUSH20 0xFFFFFFFFFFFFFFFFFFFFFFFFFFFFFFFFFFFFFFFF AND DUP2 MSTORE PUSH1 0x20 ADD SWAP1 DUP2 MSTORE PUSH1 0x20 ADD PUSH1 0x0 KECCAK256 PUSH1 0x0 DUP3 DUP3 SLOAD ADD SWAP3 POP POP DUP2 SWAP1 SSTORE POP DUP2 PUSH20 0xFFFFFFFFFFFFFFFFFFFFFFFFFFFFFFFFFFFFFFFF AND PUSH1 0x0 PUSH20 0xFFFFFFFFFFFFFFFFFFFFFFFFFFFFFFFFFFFFFFFF AND PUSH32 0xDDF252AD1BE2C89B69C2B068FC378DAA952BA7F163C4A11628F55A4DF523B3EF DUP4 PUSH1 0x40 MLOAD PUSH2 0x1A0 SWAP2 SWAP1 PUSH2 0x2B5 JUMP JUMPDEST PUSH1 0x40 MLOAD DUP1 SWAP2 SUB SWAP1 LOG3 POP POP JUMP JUMPDEST DUP1 PUSH1 0x0 DUP1 DUP3 DUP3 SLOAD PUSH2 0x1BD SWAP2 SWAP1 PUSH2 0x3FB JUMP JUMPDEST SWAP3 POP POP DUP2 SWAP1 SSTORE POP DUP1 PUSH1 0x1 PUSH1 0x0 DUP5 PUSH20 0xFFFFFFFFFFFFFFFFFFFFFFFFFFFFFFFFFFFFFFFF AND PUSH20 0xFFFFFFFFFFFFFFFFFFFFFFFFFFFFFFFFFFFFFFFF AND DUP2 MSTORE PUSH1 0x20 ADD SWAP1 DUP2 MSTORE PUSH1 0x20 ADD PUSH1 0x0 KECCAK256 PUSH1 0x0 DUP3 DUP3 SLOAD PUSH2 0x213 SWAP2 SWAP1 PUSH2 0x3FB JUMP JUMPDEST SWAP3 POP POP DUP2 SWAP1 SSTORE POP DUP2 PUSH20 0xFFFFFFFFFFFFFFFFFFFFFFFFFFFFFFFFFFFFFFFF AND PUSH1 0x0 PUSH20 0xFFFFFFFFFFFFFFFFFFFFFFFFFFFFFFFFFFFFFFFF AND PUSH32 0xDDF252AD1BE2C89B69C2B068FC378DAA952BA7F163C4A11628F55A4DF523B3EF DUP4 PUSH1 0x40 MLOAD PUSH2 0x278 SWAP2 SWAP1 PUSH2 0x2B5 JUMP JUMPDEST PUSH1 0x40 MLOAD DUP1 SWAP2 SUB SWAP1 LOG3 POP POP JUMP JUMPDEST PUSH1 0x1 PUSH1 0x20 MSTORE DUP1 PUSH1 0x0 MSTORE PUSH1 0x40 PUSH1 0x0 KECCAK256 PUSH1 0x0 SWAP2 POP SWAP1 POP SLOAD DUP2 JUMP JUMPDEST PUSH1 0x0 DUP2 SWAP1 POP SWAP2 SWAP1 POP JUMP JUMPDEST PUSH2 0x2AF DUP2 PUSH2 0x29C JUMP JUMPDEST DUP3 MSTORE POP POP JUMP JUMPDEST PUSH1 0x0 PUSH1 0x20 DUP3 ADD SWAP1 POP PUSH2 0x2CA PUSH1 0x0 DUP4 ADD DUP5 PUSH2 0x2A6 JUMP JUMPDEST SWAP3 SWAP2 POP POP JUMP JUMPDEST PUSH1 0x0 DUP1 REVERT JUMPDEST PUSH1 0x0 PUSH20 0xFFFFFFFFFFFFFFFFFFFFFFFFFFFFFFFFFFFFFFFF DUP3 AND SWAP1 POP SWAP2 SWAP1 POP JUMP JUMPDEST PUSH1 0x0 PUSH2 0x300 DUP3 PUSH2 0x2D5 JUMP JUMPDEST SWAP1 POP SWAP2 SWAP1 POP JUMP JUMPDEST PUSH2 0x310 DUP2 PUSH2 0x2F5 JUMP JUMPDEST DUP2 EQ PUSH2 0x31B JUMPI PUSH1 0x0 DUP1 REVERT JUMPDEST POP JUMP JUMPDEST PUSH1 0x0 DUP2 CALLDATALOAD SWAP1 POP PUSH2 0x32D DUP2 PUSH2 0x307 JUMP JUMPDEST SWAP3 SWAP2 POP POP JUMP JUMPDEST PUSH2 0x33C DUP2 PUSH2 0x29C JUMP JUMPDEST DUP2 EQ PUSH2 0x347 JUMPI PUSH1 0x0 DUP1 REVERT JUMPDEST POP JUMP JUMPDEST PUSH1 0x0 DUP2 CALLDATALOAD SWAP1 POP PUSH2 0x359 DUP2 PUSH2 0x333 JUMP JUMPDEST SWAP3 SWAP2 POP POP JUMP JUMPDEST PUSH1 0x0 DUP1 PUSH1 0x40 DUP4 DUP6 SUB SLT ISZERO PUSH2 0x376 JUMPI PUSH2 0x375 PUSH2 0x2D0 JUMP JUMPDEST JUMPDEST PUSH1 0x0 PUSH2 0x384 DUP6 DUP3 DUP7 ADD PUSH2 0x31E JUMP JUMPDEST SWAP3 POP POP PUSH1 0x20 PUSH2 0x395 DUP6 DUP3 DUP7 ADD PUSH2 0x34A JUMP JUMPDEST SWAP2 POP POP SWAP3 POP SWAP3 SWAP1 POP JUMP JUMPDEST PUSH1 0x0 PUSH1 0x20 DUP3 DUP5 SUB SLT ISZERO PUSH2 0x3B5 JUMPI PUSH2 0x3B4 PUSH2 0x2D0 JUMP JUMPDEST JUMPDEST PUSH1 0x0 PUSH2 0x3C3 DUP5 DUP3 DUP6 ADD PUSH2 0x31E JUMP JUMPDEST SWAP2 POP POP SWAP3 SWAP2 POP POP JUMP JUMPDEST PUSH32 0x4E487B7100000000000000000000000000000000000000000000000000000000 PUSH1 0x0 MSTORE PUSH1 0x11 PUSH1 0x4 MSTORE PUSH1 0x24 PUSH1 0x0 REVERT JUMPDEST PUSH1 0x0 PUSH2 0x406 DUP3 PUSH2 0x29C JUMP JUMPDEST SWAP2 POP PUSH2 0x411 DUP4 PUSH2 0x29C JUMP JUMPDEST SWAP3 POP DUP3 PUSH32 0xFFFFFFFFFFFFFFFFFFFFFFFFFFFFFFFFFFFFFFFFFFFFFFFFFFFFFFFFFFFFFFFF SUB DUP3 GT ISZERO PUSH2 0x446 JUMPI PUSH2 0x445 PUSH2 0x3CC JUMP JUMPDEST JUMPDEST DUP3 DUP3 ADD SWAP1 POP SWAP3 SWAP2 POP POP JUMP INVALID LOG2 PUSH5 0x6970667358 0x22 SLT KECCAK256 0xA7 0xD0 MSTORE8 CALLVALUE MSTORE 0xF7 SSTORE 0xAA SLOAD CALLDATASIZE SDIV PUSH11 0x1A7BC3DB8949076FB3D51F 0xDF PUSH30 0x38B0DA5E86E20264736F6C634300080F0033608060405234801561001057 PUSH1 0x0 DUP1 REVERT JUMPDEST POP PUSH2 0x2B0 DUP1 PUSH2 0x20 PUSH1 0x0 CODECOPY PUSH1 0x0 RETURN INVALID PUSH1 0x80 PUSH1 0x40 MSTORE CALLVALUE DUP1 ISZERO PUSH2 0x10 JUMPI PUSH1 0x0 DUP1 REVERT JUMPDEST POP PUSH1 0x4 CALLDATASIZE LT PUSH2 0x40 JUMPI PUSH1 0x0 CALLDATALOAD PUSH1 0xE0 SHR DUP1 PUSH3 0xC3314F EQ PUSH2 0x45 JUMPI DUP1 PUSH4 0x29FCDA33 EQ PUSH2 0x75 JUMPI DUP1 PUSH4 0x76B81449 EQ PUSH2 0xA5 JUMPI JUMPDEST PUSH1 0x0 DUP1 REVERT JUMPDEST PUSH2 0x5F PUSH1 0x4 DUP1 CALLDATASIZE SUB DUP2 ADD SWAP1 PUSH2 0x5A SWAP2 SWAP1 PUSH2 0x18B JUMP JUMPDEST PUSH2 0xD5 JUMP JUMPDEST PUSH1 0x40 MLOAD PUSH2 0x6C SWAP2 SWAP1 PUSH2 0x1DA JUMP JUMPDEST PUSH1 0x40 MLOAD DUP1 SWAP2 SUB SWAP1 RETURN JUMPDEST PUSH2 0x8F PUSH1 0x4 DUP1 CALLDATASIZE SUB DUP2 ADD SWAP1 PUSH2 0x8A SWAP2 SWAP1 PUSH2 0x18B JUMP JUMPDEST PUSH2 0xFC JUMP JUMPDEST PUSH1 0x40 MLOAD PUSH2 0x9C SWAP2 SWAP1 PUSH2 0x1DA JUMP JUMPDEST PUSH1 0x40 MLOAD DUP1 SWAP2 SUB SWAP1 RETURN JUMPDEST PUSH2 0xBF PUSH1 0x4 DUP1 CALLDATASIZE SUB DUP2 ADD SWAP1 PUSH2 0xBA SWAP2 SWAP1 PUSH2 0x18B JUMP JUMPDEST PUSH2 0x123 JUMP JUMPDEST PUSH1 0x40 MLOAD PUSH2 0xCC SWAP2 SWAP1 PUSH2 0x1DA JUMP JUMPDEST PUSH1 0x40 MLOAD DUP1 SWAP2 SUB SWAP1 RETURN JUMPDEST PUSH1 0x0 DUP1 DUP4 SUB PUSH2 0xE7 JUMPI PUSH1 0x0 SWAP1 POP PUSH2 0xF6 JUMP JUMPDEST DUP2 DUP4 PUSH2 0xF3 SWAP2 SWAP1 PUSH2 0x224 JUMP JUMPDEST SWAP1 POP JUMPDEST SWAP3 SWAP2 POP POP JUMP JUMPDEST PUSH1 0x0 DUP1 DUP4 SUB PUSH2 0x10E JUMPI PUSH1 0x0 SWAP1 POP PUSH2 0x11D JUMP JUMPDEST DUP2 DUP4 PUSH2 0x11A SWAP2 SWAP1 PUSH2 0x224 JUMP JUMPDEST SWAP1 POP JUMPDEST SWAP3 SWAP2 POP POP JUMP JUMPDEST PUSH1 0x0 DUP1 DUP4 SUB PUSH2 0x135 JUMPI PUSH1 0x0 SWAP1 POP PUSH2 0x14A JUMP JUMPDEST PUSH1 0x0 DUP3 DUP5 PUSH2 0x143 SWAP2 SWAP1 PUSH2 0x224 JUMP JUMPDEST SWAP1 POP DUP1 SWAP2 POP POP JUMPDEST SWAP3 SWAP2 POP POP JUMP JUMPDEST PUSH1 0x0 DUP1 REVERT JUMPDEST PUSH1 0x0 DUP2 SWAP1 POP SWAP2 SWAP1 POP JUMP JUMPDEST PUSH2 0x168 DUP2 PUSH2 0x155 JUMP JUMPDEST DUP2 EQ PUSH2 0x173 JUMPI PUSH1 0x0 DUP1 REVERT JUMPDEST POP JUMP JUMPDEST PUSH1 0x0 DUP2 CALLDATALOAD SWAP1 POP PUSH2 0x185 DUP2 PUSH2 0x15F JUMP JUMPDEST SWAP3 SWAP2 POP POP JUMP JUMPDEST PUSH1 0x0 DUP1 PUSH1 0x40 DUP4 DUP6 SUB SLT ISZERO PUSH2 0x1A2 JUMPI PUSH2 0x1A1 PUSH2 0x150 JUMP JUMPDEST JUMPDEST PUSH1 0x0 PUSH2 0x1B0 DUP6 DUP3 DUP7 ADD PUSH2 0x176 JUMP JUMPDEST SWAP3 POP POP PUSH1 0x20 PUSH2 0x1C1 DUP6 DUP3 DUP7 ADD PUSH2 0x176 JUMP JUMPDEST SWAP2 POP POP SWAP3 POP SWAP3 SWAP1 POP JUMP JUMPDEST PUSH2 0x1D4 DUP2 PUSH2 0x155 JUMP JUMPDEST DUP3 MSTORE POP POP JUMP JUMPDEST PUSH1 0x0 PUSH1 0x20 DUP3 ADD SWAP1 POP PUSH2 0x1EF PUSH1 0x0 DUP4 ADD DUP5 PUSH2 0x1CB JUMP JUMPDEST SWAP3 SWAP2 POP POP JUMP JUMPDEST PUSH32 0x4E487B7100000000000000000000000000000000000000000000000000000000 PUSH1 0x0 MSTORE PUSH1 0x11 PUSH1 0x4 MSTORE PUSH1 0x24 PUSH1 0x0 REVERT JUMPDEST PUSH1 0x0 PUSH2 0x22F DUP3 PUSH2 0x155 JUMP JUMPDEST SWAP2 POP PUSH2 0x23A DUP4 PUSH2 0x155 JUMP JUMPDEST SWAP3 POP DUP3 PUSH32 0xFFFFFFFFFFFFFFFFFFFFFFFFFFFFFFFFFFFFFFFFFFFFFFFFFFFFFFFFFFFFFFFF SUB DUP3 GT ISZERO PUSH2 0x26F JUMPI PUSH2 0x26E PUSH2 0x1F5 JUMP JUMPDEST JUMPDEST DUP3 DUP3 ADD SWAP1 POP SWAP3 SWAP2 POP POP JUMP INVALID LOG2 PUSH5 0x6970667358 0x22 SLT KECCAK256 DUP14 RETURN PUSH24 0xE4236ECF90D09CA5C8B4F80B473CC88E107A472A8CDE54E1 0x29 PUSH28 0xBEBF3464736F6C634300080F00336080604052348015610010576000 DUP1 REVERT JUMPDEST POP PUSH2 0x263 DUP1 PUSH2 0x20 PUSH1 0x0 CODECOPY PUSH1 0x0 RETURN INVALID PUSH1 0x80 PUSH1 0x40 MSTORE CALLVALUE DUP1 ISZERO PUSH2 0x10 JUMPI PUSH1 0x0 DUP1 REVERT JUMPDEST POP PUSH1 0x4 CALLDATASIZE LT PUSH2 0x36 JUMPI PUSH1 0x0 CALLDATALOAD PUSH1 0xE0 SHR DUP1 PUSH4 0x7C26710 EQ PUSH2 0x3B JUMPI DUP1 PUSH4 0xD6238A42 EQ PUSH2 0x6B JUMPI JUMPDEST PUSH1 0x0 DUP1 REVERT JUMPDEST PUSH2 0x55 PUSH1 0x4 DUP1 CALLDATASIZE SUB DUP2 ADD SWAP1 PUSH2 0x50 SWAP2 SWAP1 PUSH2 0x13E JUMP JUMPDEST PUSH2 0x9B JUMP JUMPDEST PUSH1 0x40 MLOAD PUSH2 0x62 SWAP2 SWAP1 PUSH2 0x18D JUMP JUMPDEST PUSH1 0x40 MLOAD DUP1 SWAP2 SUB SWAP1 RETURN JUMPDEST PUSH2 0x85 PUSH1 0x4 DUP1 CALLDATASIZE SUB DUP2 ADD SWAP1 PUSH2 0x80 SWAP2 SWAP1 PUSH2 0x13E JUMP JUMPDEST PUSH2 0xCE JUMP JUMPDEST PUSH1 0x40 MLOAD PUSH2 0x92 SWAP2 SWAP1 PUSH2 0x18D JUMP JUMPDEST PUSH1 0x40 MLOAD DUP1 SWAP2 SUB SWAP1 RETURN JUMPDEST PUSH1 0x0 PUSH1 0x1 DUP4 GT ISZERO PUSH2 0xC3 JUMPI PUSH1 0x1 DUP3 GT ISZERO PUSH2 0xC2 JUMPI DUP2 DUP4 PUSH2 0xBB SWAP2 SWAP1 PUSH2 0x1D7 JUMP JUMPDEST SWAP1 POP PUSH2 0xC8 JUMP JUMPDEST JUMPDEST PUSH1 0x0 SWAP1 POP JUMPDEST SWAP3 SWAP2 POP POP JUMP JUMPDEST PUSH1 0x0 PUSH1 0x1 DUP4 GT DUP1 ISZERO PUSH2 0xE0 JUMPI POP PUSH1 0x1 DUP3 GT JUMPDEST ISZERO PUSH2 0xF8 JUMPI DUP2 DUP4 PUSH2 0xF1 SWAP2 SWAP1 PUSH2 0x1D7 JUMP JUMPDEST SWAP1 POP PUSH2 0xFD JUMP JUMPDEST PUSH1 0x0 SWAP1 POP JUMPDEST SWAP3 SWAP2 POP POP JUMP JUMPDEST PUSH1 0x0 DUP1 REVERT JUMPDEST PUSH1 0x0 DUP2 SWAP1 POP SWAP2 SWAP1 POP JUMP JUMPDEST PUSH2 0x11B DUP2 PUSH2 0x108 JUMP JUMPDEST DUP2 EQ PUSH2 0x126 JUMPI PUSH1 0x0 DUP1 REVERT JUMPDEST POP JUMP JUMPDEST PUSH1 0x0 DUP2 CALLDATALOAD SWAP1 POP PUSH2 0x138 DUP2 PUSH2 0x112 JUMP JUMPDEST SWAP3 SWAP2 POP POP JUMP JUMPDEST PUSH1 0x0 DUP1 PUSH1 0x40 DUP4 DUP6 SUB SLT ISZERO PUSH2 0x155 JUMPI PUSH2 0x154 PUSH2 0x103 JUMP JUMPDEST JUMPDEST PUSH1 0x0 PUSH2 0x163 DUP6 DUP3 DUP7 ADD PUSH2 0x129 JUMP JUMPDEST SWAP3 POP POP PUSH1 0x20 PUSH2 0x174 DUP6 DUP3 DUP7 ADD PUSH2 0x129 JUMP JUMPDEST SWAP2 POP POP SWAP3 POP SWAP3 SWAP1 POP JUMP JUMPDEST PUSH2 0x187 DUP2 PUSH2 0x108 JUMP JUMPDEST DUP3 MSTORE POP POP JUMP JUMPDEST PUSH1 0x0 PUSH1 0x20 DUP3 ADD SWAP1 POP PUSH2 0x1A2 PUSH1 0x0 DUP4 ADD DUP5 PUSH2 0x17E JUMP JUMPDEST SWAP3 SWAP2 POP POP JUMP JUMPDEST PUSH32 0x4E487B7100000000000000000000000000000000000000000000000000000000 PUSH1 0x0 MSTORE PUSH1 0x11 PUSH1 0x4 MSTORE PUSH1 0x24 PUSH1 0x0 REVERT JUMPDEST PUSH1 0x0 PUSH2 0x1E2 DUP3 PUSH2 0x108 JUMP JUMPDEST SWAP2 POP PUSH2 0x1ED DUP4 PUSH2 0x108 JUMP JUMPDEST SWAP3 POP DUP3 PUSH32 0xFFFFFFFFFFFFFFFFFFFFFFFFFFFFFFFFFFFFFFFFFFFFFFFFFFFFFFFFFFFFFFFF SUB DUP3 GT ISZERO PUSH2 0x222 JUMPI PUSH2 0x221 PUSH2 0x1A8 JUMP JUMPDEST JUMPDEST DUP3 DUP3 ADD SWAP1 POP SWAP3 SWAP2 POP POP JUMP INVALID LOG2 PUSH5 0x6970667358 0x22 SLT KECCAK256 SWAP9 PUSH1 0xCC NUMBER SWAP12 PUSH30 0xCC6F143C5928D7A96DA6C0AD7D3319FCED2F1A11DD922DFDBD6264736F6C PUSH4 0x4300080F STOP CALLER "
				},
				"gasEstimates": {
					"creation": {
						"codeDepositCost": "640600",
						"executionCost": "infinite",
						"totalCost": "infinite"
					},
					"external": {
						"computeIfSavedGas()": "infinite",
						"computeReturnGas()": "infinite",
						"computeUncheckedSavedGas()": "infinite",
						"testDemo()": "infinite"
					}
				},
				"methodIdentifiers": {
					"computeIfSavedGas()": "3b9883fe",
					"computeReturnGas()": "e833a040",
					"computeUncheckedSavedGas()": "62a04d68",
					"testDemo()": "1a0a0878"
				}
			},
			"storageLayout": {
				"storage": [
					{
						"astId": 970,
						"contract": "tests/test.sol:DemoTest",
						"label": "uncheckedDemo",
						"offset": 0,
						"slot": "0",
						"type": "t_contract(UncheckedDemo)950"
					},
					{
						"astId": 977,
						"contract": "tests/test.sol:DemoTest",
						"label": "simpleTest",
						"offset": 0,
						"slot": "1",
						"type": "t_contract(SimpleTest)878"
					},
					{
						"astId": 984,
						"contract": "tests/test.sol:DemoTest",
						"label": "ifDemo",
						"offset": 0,
						"slot": "2",
						"type": "t_contract(IfDemo)804"
					}
				],
				"types": {
					"t_contract(IfDemo)804": {
						"encoding": "inplace",
						"label": "contract IfDemo",
						"numberOfBytes": "20"
					},
					"t_contract(SimpleTest)878": {
						"encoding": "inplace",
						"label": "contract SimpleTest",
						"numberOfBytes": "20"
					},
					"t_contract(UncheckedDemo)950": {
						"encoding": "inplace",
						"label": "contract UncheckedDemo",
						"numberOfBytes": "20"
					}
				}
			},
			"userdoc": {
				"kind": "user",
				"methods": {},
				"version": 1
			}
		}
	}
}