{
	"tests/SimpleTest.sol": {
		"SimpleTest": {
			"abi": [
				{
					"inputs": [
						{
							"internalType": "uint256",
							"name": "a",
							"type": "uint256"
						},
						{
							"internalType": "uint256",
							"name": "b",
							"type": "uint256"
						}
					],
					"name": "add1",
					"outputs": [
						{
							"internalType": "uint256",
							"name": "",
							"type": "uint256"
						}
					],
					"stateMutability": "pure",
					"type": "function"
				},
				{
					"inputs": [
						{
							"internalType": "uint256",
							"name": "a",
							"type": "uint256"
						},
						{
							"internalType": "uint256",
							"name": "b",
							"type": "uint256"
						}
					],
					"name": "add2",
					"outputs": [
						{
							"internalType": "uint256",
							"name": "c",
							"type": "uint256"
						}
					],
					"stateMutability": "pure",
					"type": "function"
				},
				{
					"inputs": [
						{
							"internalType": "uint256",
							"name": "a",
							"type": "uint256"
						},
						{
							"internalType": "uint256",
							"name": "b",
							"type": "uint256"
						}
					],
					"name": "add3",
					"outputs": [
						{
							"internalType": "uint256",
							"name": "",
							"type": "uint256"
						}
					],
					"stateMutability": "pure",
					"type": "function"
				}
			],
			"devdoc": {
				"kind": "dev",
				"methods": {},
				"version": 1
			},
			"evm": {
				"assembly": "    /* \"tests/SimpleTest.sol\":67:682  contract SimpleTest {... */\n  mstore(0x40, 0x80)\n  callvalue\n  dup1\n  iszero\n  tag_1\n  jumpi\n  0x00\n  dup1\n  revert\ntag_1:\n  pop\n  dataSize(sub_0)\n  dup1\n  dataOffset(sub_0)\n  0x00\n  codecopy\n  0x00\n  return\nstop\n\nsub_0: assembly {\n        /* \"tests/SimpleTest.sol\":67:682  contract SimpleTest {... */\n      mstore(0x40, 0x80)\n      callvalue\n      dup1\n      iszero\n      tag_1\n      jumpi\n      0x00\n      dup1\n      revert\n    tag_1:\n      pop\n      jumpi(tag_2, lt(calldatasize, 0x04))\n      shr(0xe0, calldataload(0x00))\n      dup1\n      0xc3314f\n      eq\n      tag_3\n      jumpi\n      dup1\n      0x29fcda33\n      eq\n      tag_4\n      jumpi\n      dup1\n      0x76b81449\n      eq\n      tag_5\n      jumpi\n    tag_2:\n      0x00\n      dup1\n      revert\n        /* \"tests/SimpleTest.sol\":502:680  function add3(uint256 a, uint256 b) public pure returns (uint256) { // transaction cost:24670 gas... */\n    tag_3:\n      tag_6\n      0x04\n      dup1\n      calldatasize\n      sub\n      dup2\n      add\n      swap1\n      tag_7\n      swap2\n      swap1\n      tag_8\n      jump\t// in\n    tag_7:\n      tag_9\n      jump\t// in\n    tag_6:\n      mload(0x40)\n      tag_10\n      swap2\n      swap1\n      tag_11\n      jump\t// in\n    tag_10:\n      mload(0x40)\n      dup1\n      swap2\n      sub\n      swap1\n      return\n        /* \"tests/SimpleTest.sol\":301:496  function add2(uint256 a, uint256 b) public pure returns (uint256 c) { // transaction cost:24704 gas... */\n    tag_4:\n      tag_12\n      0x04\n      dup1\n      calldatasize\n      sub\n      dup2\n      add\n      swap1\n      tag_13\n      swap2\n      swap1\n      tag_8\n      jump\t// in\n    tag_13:\n      tag_14\n      jump\t// in\n    tag_12:\n      mload(0x40)\n      tag_15\n      swap2\n      swap1\n      tag_11\n      jump\t// in\n    tag_15:\n      mload(0x40)\n      dup1\n      swap2\n      sub\n      swap1\n      return\n        /* \"tests/SimpleTest.sol\":94:295  function add1(uint256 a, uint256 b) public pure returns (uint256) { // transaction cost:24739 gas... */\n    tag_5:\n      tag_16\n      0x04\n      dup1\n      calldatasize\n      sub\n      dup2\n      add\n      swap1\n      tag_17\n      swap2\n      swap1\n      tag_8\n      jump\t// in\n    tag_17:\n      tag_18\n      jump\t// in\n    tag_16:\n      mload(0x40)\n      tag_19\n      swap2\n      swap1\n      tag_11\n      jump\t// in\n    tag_19:\n      mload(0x40)\n      dup1\n      swap2\n      sub\n      swap1\n      return\n        /* \"tests/SimpleTest.sol\":502:680  function add3(uint256 a, uint256 b) public pure returns (uint256) { // transaction cost:24670 gas... */\n    tag_9:\n        /* \"tests/SimpleTest.sol\":559:566  uint256 */\n      0x00\n        /* \"tests/SimpleTest.sol\":615:616  0 */\n      dup1\n        /* \"tests/SimpleTest.sol\":612:613  a */\n      dup4\n        /* \"tests/SimpleTest.sol\":612:616  a==0 */\n      sub\n        /* \"tests/SimpleTest.sol\":608:651  if (a==0) {... */\n      tag_21\n      jumpi\n        /* \"tests/SimpleTest.sol\":639:640  0 */\n      0x00\n        /* \"tests/SimpleTest.sol\":632:640  return 0 */\n      swap1\n      pop\n      jump(tag_20)\n        /* \"tests/SimpleTest.sol\":608:651  if (a==0) {... */\n    tag_21:\n        /* \"tests/SimpleTest.sol\":672:673  b */\n      dup2\n        /* \"tests/SimpleTest.sol\":668:669  a */\n      dup4\n        /* \"tests/SimpleTest.sol\":668:673  a + b */\n      tag_22\n      swap2\n      swap1\n      tag_23\n      jump\t// in\n    tag_22:\n        /* \"tests/SimpleTest.sol\":661:673  return a + b */\n      swap1\n      pop\n        /* \"tests/SimpleTest.sol\":502:680  function add3(uint256 a, uint256 b) public pure returns (uint256) { // transaction cost:24670 gas... */\n    tag_20:\n      swap3\n      swap2\n      pop\n      pop\n      jump\t// out\n        /* \"tests/SimpleTest.sol\":301:496  function add2(uint256 a, uint256 b) public pure returns (uint256 c) { // transaction cost:24704 gas... */\n    tag_14:\n        /* \"tests/SimpleTest.sol\":358:367  uint256 c */\n      0x00\n        /* \"tests/SimpleTest.sol\":416:417  0 */\n      dup1\n        /* \"tests/SimpleTest.sol\":413:414  a */\n      dup4\n        /* \"tests/SimpleTest.sol\":413:417  a==0 */\n      sub\n        /* \"tests/SimpleTest.sol\":409:452  if (a==0) {... */\n      tag_25\n      jumpi\n        /* \"tests/SimpleTest.sol\":440:441  0 */\n      0x00\n        /* \"tests/SimpleTest.sol\":433:441  return 0 */\n      swap1\n      pop\n      jump(tag_24)\n        /* \"tests/SimpleTest.sol\":409:452  if (a==0) {... */\n    tag_25:\n        /* \"tests/SimpleTest.sol\":470:471  b */\n      dup2\n        /* \"tests/SimpleTest.sol\":466:467  a */\n      dup4\n        /* \"tests/SimpleTest.sol\":466:471  a + b */\n      tag_26\n      swap2\n      swap1\n      tag_23\n      jump\t// in\n    tag_26:\n        /* \"tests/SimpleTest.sol\":462:471  c = a + b */\n      swap1\n      pop\n        /* \"tests/SimpleTest.sol\":301:496  function add2(uint256 a, uint256 b) public pure returns (uint256 c) { // transaction cost:24704 gas... */\n    tag_24:\n      swap3\n      swap2\n      pop\n      pop\n      jump\t// out\n        /* \"tests/SimpleTest.sol\":94:295  function add1(uint256 a, uint256 b) public pure returns (uint256) { // transaction cost:24739 gas... */\n    tag_18:\n        /* \"tests/SimpleTest.sol\":151:158  uint256 */\n      0x00\n        /* \"tests/SimpleTest.sol\":207:208  0 */\n      dup1\n        /* \"tests/SimpleTest.sol\":204:205  a */\n      dup4\n        /* \"tests/SimpleTest.sol\":204:208  a==0 */\n      sub\n        /* \"tests/SimpleTest.sol\":200:243  if (a==0) {... */\n      tag_28\n      jumpi\n        /* \"tests/SimpleTest.sol\":231:232  0 */\n      0x00\n        /* \"tests/SimpleTest.sol\":224:232  return 0 */\n      swap1\n      pop\n      jump(tag_27)\n        /* \"tests/SimpleTest.sol\":200:243  if (a==0) {... */\n    tag_28:\n        /* \"tests/SimpleTest.sol\":253:262  uint256 c */\n      0x00\n        /* \"tests/SimpleTest.sol\":269:270  b */\n      dup3\n        /* \"tests/SimpleTest.sol\":265:266  a */\n      dup5\n        /* \"tests/SimpleTest.sol\":265:270  a + b */\n      tag_29\n      swap2\n      swap1\n      tag_23\n      jump\t// in\n    tag_29:\n        /* \"tests/SimpleTest.sol\":253:270  uint256 c = a + b */\n      swap1\n      pop\n        /* \"tests/SimpleTest.sol\":287:288  c */\n      dup1\n        /* \"tests/SimpleTest.sol\":280:288  return c */\n      swap2\n      pop\n      pop\n        /* \"tests/SimpleTest.sol\":94:295  function add1(uint256 a, uint256 b) public pure returns (uint256) { // transaction cost:24739 gas... */\n    tag_27:\n      swap3\n      swap2\n      pop\n      pop\n      jump\t// out\n        /* \"#utility.yul\":88:205   */\n    tag_31:\n        /* \"#utility.yul\":197:198   */\n      0x00\n        /* \"#utility.yul\":194:195   */\n      dup1\n        /* \"#utility.yul\":187:199   */\n      revert\n        /* \"#utility.yul\":334:411   */\n    tag_33:\n        /* \"#utility.yul\":371:378   */\n      0x00\n        /* \"#utility.yul\":400:405   */\n      dup2\n        /* \"#utility.yul\":389:405   */\n      swap1\n      pop\n        /* \"#utility.yul\":334:411   */\n      swap2\n      swap1\n      pop\n      jump\t// out\n        /* \"#utility.yul\":417:539   */\n    tag_34:\n        /* \"#utility.yul\":490:514   */\n      tag_44\n        /* \"#utility.yul\":508:513   */\n      dup2\n        /* \"#utility.yul\":490:514   */\n      tag_33\n      jump\t// in\n    tag_44:\n        /* \"#utility.yul\":483:488   */\n      dup2\n        /* \"#utility.yul\":480:515   */\n      eq\n        /* \"#utility.yul\":470:533   */\n      tag_45\n      jumpi\n        /* \"#utility.yul\":529:530   */\n      0x00\n        /* \"#utility.yul\":526:527   */\n      dup1\n        /* \"#utility.yul\":519:531   */\n      revert\n        /* \"#utility.yul\":470:533   */\n    tag_45:\n        /* \"#utility.yul\":417:539   */\n      pop\n      jump\t// out\n        /* \"#utility.yul\":545:684   */\n    tag_35:\n        /* \"#utility.yul\":591:596   */\n      0x00\n        /* \"#utility.yul\":629:635   */\n      dup2\n        /* \"#utility.yul\":616:636   */\n      calldataload\n        /* \"#utility.yul\":607:636   */\n      swap1\n      pop\n        /* \"#utility.yul\":645:678   */\n      tag_47\n        /* \"#utility.yul\":672:677   */\n      dup2\n        /* \"#utility.yul\":645:678   */\n      tag_34\n      jump\t// in\n    tag_47:\n        /* \"#utility.yul\":545:684   */\n      swap3\n      swap2\n      pop\n      pop\n      jump\t// out\n        /* \"#utility.yul\":690:1164   */\n    tag_8:\n        /* \"#utility.yul\":758:764   */\n      0x00\n        /* \"#utility.yul\":766:772   */\n      dup1\n        /* \"#utility.yul\":815:817   */\n      0x40\n        /* \"#utility.yul\":803:812   */\n      dup4\n        /* \"#utility.yul\":794:801   */\n      dup6\n        /* \"#utility.yul\":790:813   */\n      sub\n        /* \"#utility.yul\":786:818   */\n      slt\n        /* \"#utility.yul\":783:902   */\n      iszero\n      tag_49\n      jumpi\n        /* \"#utility.yul\":821:900   */\n      tag_50\n      tag_31\n      jump\t// in\n    tag_50:\n        /* \"#utility.yul\":783:902   */\n    tag_49:\n        /* \"#utility.yul\":941:942   */\n      0x00\n        /* \"#utility.yul\":966:1019   */\n      tag_51\n        /* \"#utility.yul\":1011:1018   */\n      dup6\n        /* \"#utility.yul\":1002:1008   */\n      dup3\n        /* \"#utility.yul\":991:1000   */\n      dup7\n        /* \"#utility.yul\":987:1009   */\n      add\n        /* \"#utility.yul\":966:1019   */\n      tag_35\n      jump\t// in\n    tag_51:\n        /* \"#utility.yul\":956:1019   */\n      swap3\n      pop\n        /* \"#utility.yul\":912:1029   */\n      pop\n        /* \"#utility.yul\":1068:1070   */\n      0x20\n        /* \"#utility.yul\":1094:1147   */\n      tag_52\n        /* \"#utility.yul\":1139:1146   */\n      dup6\n        /* \"#utility.yul\":1130:1136   */\n      dup3\n        /* \"#utility.yul\":1119:1128   */\n      dup7\n        /* \"#utility.yul\":1115:1137   */\n      add\n        /* \"#utility.yul\":1094:1147   */\n      tag_35\n      jump\t// in\n    tag_52:\n        /* \"#utility.yul\":1084:1147   */\n      swap2\n      pop\n        /* \"#utility.yul\":1039:1157   */\n      pop\n        /* \"#utility.yul\":690:1164   */\n      swap3\n      pop\n      swap3\n      swap1\n      pop\n      jump\t// out\n        /* \"#utility.yul\":1170:1288   */\n    tag_36:\n        /* \"#utility.yul\":1257:1281   */\n      tag_54\n        /* \"#utility.yul\":1275:1280   */\n      dup2\n        /* \"#utility.yul\":1257:1281   */\n      tag_33\n      jump\t// in\n    tag_54:\n        /* \"#utility.yul\":1252:1255   */\n      dup3\n        /* \"#utility.yul\":1245:1282   */\n      mstore\n        /* \"#utility.yul\":1170:1288   */\n      pop\n      pop\n      jump\t// out\n        /* \"#utility.yul\":1294:1516   */\n    tag_11:\n        /* \"#utility.yul\":1387:1391   */\n      0x00\n        /* \"#utility.yul\":1425:1427   */\n      0x20\n        /* \"#utility.yul\":1414:1423   */\n      dup3\n        /* \"#utility.yul\":1410:1428   */\n      add\n        /* \"#utility.yul\":1402:1428   */\n      swap1\n      pop\n        /* \"#utility.yul\":1438:1509   */\n      tag_56\n        /* \"#utility.yul\":1506:1507   */\n      0x00\n        /* \"#utility.yul\":1495:1504   */\n      dup4\n        /* \"#utility.yul\":1491:1508   */\n      add\n        /* \"#utility.yul\":1482:1488   */\n      dup5\n        /* \"#utility.yul\":1438:1509   */\n      tag_36\n      jump\t// in\n    tag_56:\n        /* \"#utility.yul\":1294:1516   */\n      swap3\n      swap2\n      pop\n      pop\n      jump\t// out\n        /* \"#utility.yul\":1522:1702   */\n    tag_37:\n        /* \"#utility.yul\":1570:1647   */\n      0x4e487b7100000000000000000000000000000000000000000000000000000000\n        /* \"#utility.yul\":1567:1568   */\n      0x00\n        /* \"#utility.yul\":1560:1648   */\n      mstore\n        /* \"#utility.yul\":1667:1671   */\n      0x11\n        /* \"#utility.yul\":1664:1665   */\n      0x04\n        /* \"#utility.yul\":1657:1672   */\n      mstore\n        /* \"#utility.yul\":1691:1695   */\n      0x24\n        /* \"#utility.yul\":1688:1689   */\n      0x00\n        /* \"#utility.yul\":1681:1696   */\n      revert\n        /* \"#utility.yul\":1708:2013   */\n    tag_23:\n        /* \"#utility.yul\":1748:1751   */\n      0x00\n        /* \"#utility.yul\":1767:1787   */\n      tag_59\n        /* \"#utility.yul\":1785:1786   */\n      dup3\n        /* \"#utility.yul\":1767:1787   */\n      tag_33\n      jump\t// in\n    tag_59:\n        /* \"#utility.yul\":1762:1787   */\n      swap2\n      pop\n        /* \"#utility.yul\":1801:1821   */\n      tag_60\n        /* \"#utility.yul\":1819:1820   */\n      dup4\n        /* \"#utility.yul\":1801:1821   */\n      tag_33\n      jump\t// in\n    tag_60:\n        /* \"#utility.yul\":1796:1821   */\n      swap3\n      pop\n        /* \"#utility.yul\":1955:1956   */\n      dup3\n        /* \"#utility.yul\":1887:1953   */\n      0xffffffffffffffffffffffffffffffffffffffffffffffffffffffffffffffff\n        /* \"#utility.yul\":1883:1957   */\n      sub\n        /* \"#utility.yul\":1880:1881   */\n      dup3\n        /* \"#utility.yul\":1877:1958   */\n      gt\n        /* \"#utility.yul\":1874:1981   */\n      iszero\n      tag_61\n      jumpi\n        /* \"#utility.yul\":1961:1979   */\n      tag_62\n      tag_37\n      jump\t// in\n    tag_62:\n        /* \"#utility.yul\":1874:1981   */\n    tag_61:\n        /* \"#utility.yul\":2005:2006   */\n      dup3\n        /* \"#utility.yul\":2002:2003   */\n      dup3\n        /* \"#utility.yul\":1998:2007   */\n      add\n        /* \"#utility.yul\":1991:2007   */\n      swap1\n      pop\n        /* \"#utility.yul\":1708:2013   */\n      swap3\n      swap2\n      pop\n      pop\n      jump\t// out\n\n    auxdata: 0xa26469706673582212208df377e4236ecf90d09ca5c8b4f80b473cc88e107a472a8cde54e1297bbebf3464736f6c634300080f0033\n}\n",
				"bytecode": {
					"linkReferences": {},
					"object": "608060405234801561001057600080fd5b506102b0806100206000396000f3fe608060405234801561001057600080fd5b50600436106100405760003560e01c8062c3314f1461004557806329fcda331461007557806376b81449146100a5575b600080fd5b61005f600480360381019061005a919061018b565b6100d5565b60405161006c91906101da565b60405180910390f35b61008f600480360381019061008a919061018b565b6100fc565b60405161009c91906101da565b60405180910390f35b6100bf60048036038101906100ba919061018b565b610123565b6040516100cc91906101da565b60405180910390f35b60008083036100e757600090506100f6565b81836100f39190610224565b90505b92915050565b600080830361010e576000905061011d565b818361011a9190610224565b90505b92915050565b6000808303610135576000905061014a565b600082846101439190610224565b9050809150505b92915050565b600080fd5b6000819050919050565b61016881610155565b811461017357600080fd5b50565b6000813590506101858161015f565b92915050565b600080604083850312156101a2576101a1610150565b5b60006101b085828601610176565b92505060206101c185828601610176565b9150509250929050565b6101d481610155565b82525050565b60006020820190506101ef60008301846101cb565b92915050565b7f4e487b7100000000000000000000000000000000000000000000000000000000600052601160045260246000fd5b600061022f82610155565b915061023a83610155565b9250827fffffffffffffffffffffffffffffffffffffffffffffffffffffffffffffffff0382111561026f5761026e6101f5565b5b82820190509291505056fea26469706673582212208df377e4236ecf90d09ca5c8b4f80b473cc88e107a472a8cde54e1297bbebf3464736f6c634300080f0033",
					"opcodes": "PUSH1 0x80 PUSH1 0x40 MSTORE CALLVALUE DUP1 ISZERO PUSH2 0x10 JUMPI PUSH1 0x0 DUP1 REVERT JUMPDEST POP PUSH2 0x2B0 DUP1 PUSH2 0x20 PUSH1 0x0 CODECOPY PUSH1 0x0 RETURN INVALID PUSH1 0x80 PUSH1 0x40 MSTORE CALLVALUE DUP1 ISZERO PUSH2 0x10 JUMPI PUSH1 0x0 DUP1 REVERT JUMPDEST POP PUSH1 0x4 CALLDATASIZE LT PUSH2 0x40 JUMPI PUSH1 0x0 CALLDATALOAD PUSH1 0xE0 SHR DUP1 PUSH3 0xC3314F EQ PUSH2 0x45 JUMPI DUP1 PUSH4 0x29FCDA33 EQ PUSH2 0x75 JUMPI DUP1 PUSH4 0x76B81449 EQ PUSH2 0xA5 JUMPI JUMPDEST PUSH1 0x0 DUP1 REVERT JUMPDEST PUSH2 0x5F PUSH1 0x4 DUP1 CALLDATASIZE SUB DUP2 ADD SWAP1 PUSH2 0x5A SWAP2 SWAP1 PUSH2 0x18B JUMP JUMPDEST PUSH2 0xD5 JUMP JUMPDEST PUSH1 0x40 MLOAD PUSH2 0x6C SWAP2 SWAP1 PUSH2 0x1DA JUMP JUMPDEST PUSH1 0x40 MLOAD DUP1 SWAP2 SUB SWAP1 RETURN JUMPDEST PUSH2 0x8F PUSH1 0x4 DUP1 CALLDATASIZE SUB DUP2 ADD SWAP1 PUSH2 0x8A SWAP2 SWAP1 PUSH2 0x18B JUMP JUMPDEST PUSH2 0xFC JUMP JUMPDEST PUSH1 0x40 MLOAD PUSH2 0x9C SWAP2 SWAP1 PUSH2 0x1DA JUMP JUMPDEST PUSH1 0x40 MLOAD DUP1 SWAP2 SUB SWAP1 RETURN JUMPDEST PUSH2 0xBF PUSH1 0x4 DUP1 CALLDATASIZE SUB DUP2 ADD SWAP1 PUSH2 0xBA SWAP2 SWAP1 PUSH2 0x18B JUMP JUMPDEST PUSH2 0x123 JUMP JUMPDEST PUSH1 0x40 MLOAD PUSH2 0xCC SWAP2 SWAP1 PUSH2 0x1DA JUMP JUMPDEST PUSH1 0x40 MLOAD DUP1 SWAP2 SUB SWAP1 RETURN JUMPDEST PUSH1 0x0 DUP1 DUP4 SUB PUSH2 0xE7 JUMPI PUSH1 0x0 SWAP1 POP PUSH2 0xF6 JUMP JUMPDEST DUP2 DUP4 PUSH2 0xF3 SWAP2 SWAP1 PUSH2 0x224 JUMP JUMPDEST SWAP1 POP JUMPDEST SWAP3 SWAP2 POP POP JUMP JUMPDEST PUSH1 0x0 DUP1 DUP4 SUB PUSH2 0x10E JUMPI PUSH1 0x0 SWAP1 POP PUSH2 0x11D JUMP JUMPDEST DUP2 DUP4 PUSH2 0x11A SWAP2 SWAP1 PUSH2 0x224 JUMP JUMPDEST SWAP1 POP JUMPDEST SWAP3 SWAP2 POP POP JUMP JUMPDEST PUSH1 0x0 DUP1 DUP4 SUB PUSH2 0x135 JUMPI PUSH1 0x0 SWAP1 POP PUSH2 0x14A JUMP JUMPDEST PUSH1 0x0 DUP3 DUP5 PUSH2 0x143 SWAP2 SWAP1 PUSH2 0x224 JUMP JUMPDEST SWAP1 POP DUP1 SWAP2 POP POP JUMPDEST SWAP3 SWAP2 POP POP JUMP JUMPDEST PUSH1 0x0 DUP1 REVERT JUMPDEST PUSH1 0x0 DUP2 SWAP1 POP SWAP2 SWAP1 POP JUMP JUMPDEST PUSH2 0x168 DUP2 PUSH2 0x155 JUMP JUMPDEST DUP2 EQ PUSH2 0x173 JUMPI PUSH1 0x0 DUP1 REVERT JUMPDEST POP JUMP JUMPDEST PUSH1 0x0 DUP2 CALLDATALOAD SWAP1 POP PUSH2 0x185 DUP2 PUSH2 0x15F JUMP JUMPDEST SWAP3 SWAP2 POP POP JUMP JUMPDEST PUSH1 0x0 DUP1 PUSH1 0x40 DUP4 DUP6 SUB SLT ISZERO PUSH2 0x1A2 JUMPI PUSH2 0x1A1 PUSH2 0x150 JUMP JUMPDEST JUMPDEST PUSH1 0x0 PUSH2 0x1B0 DUP6 DUP3 DUP7 ADD PUSH2 0x176 JUMP JUMPDEST SWAP3 POP POP PUSH1 0x20 PUSH2 0x1C1 DUP6 DUP3 DUP7 ADD PUSH2 0x176 JUMP JUMPDEST SWAP2 POP POP SWAP3 POP SWAP3 SWAP1 POP JUMP JUMPDEST PUSH2 0x1D4 DUP2 PUSH2 0x155 JUMP JUMPDEST DUP3 MSTORE POP POP JUMP JUMPDEST PUSH1 0x0 PUSH1 0x20 DUP3 ADD SWAP1 POP PUSH2 0x1EF PUSH1 0x0 DUP4 ADD DUP5 PUSH2 0x1CB JUMP JUMPDEST SWAP3 SWAP2 POP POP JUMP JUMPDEST PUSH32 0x4E487B7100000000000000000000000000000000000000000000000000000000 PUSH1 0x0 MSTORE PUSH1 0x11 PUSH1 0x4 MSTORE PUSH1 0x24 PUSH1 0x0 REVERT JUMPDEST PUSH1 0x0 PUSH2 0x22F DUP3 PUSH2 0x155 JUMP JUMPDEST SWAP2 POP PUSH2 0x23A DUP4 PUSH2 0x155 JUMP JUMPDEST SWAP3 POP DUP3 PUSH32 0xFFFFFFFFFFFFFFFFFFFFFFFFFFFFFFFFFFFFFFFFFFFFFFFFFFFFFFFFFFFFFFFF SUB DUP3 GT ISZERO PUSH2 0x26F JUMPI PUSH2 0x26E PUSH2 0x1F5 JUMP JUMPDEST JUMPDEST DUP3 DUP3 ADD SWAP1 POP SWAP3 SWAP2 POP POP JUMP INVALID LOG2 PUSH5 0x6970667358 0x22 SLT KECCAK256 DUP14 RETURN PUSH24 0xE4236ECF90D09CA5C8B4F80B473CC88E107A472A8CDE54E1 0x29 PUSH28 0xBEBF3464736F6C634300080F00330000000000000000000000000000 "
				},
				"gasEstimates": {
					"creation": {
						"codeDepositCost": "137600",
						"executionCost": "183",
						"totalCost": "137783"
					},
					"external": {
						"add1(uint256,uint256)": "infinite",
						"add2(uint256,uint256)": "infinite",
						"add3(uint256,uint256)": "infinite"
					}
				},
				"methodIdentifiers": {
					"add1(uint256,uint256)": "76b81449",
					"add2(uint256,uint256)": "29fcda33",
					"add3(uint256,uint256)": "00c3314f"
				}
			},
			"storageLayout": {
				"storage": [],
				"types": null
			},
			"userdoc": {
				"kind": "user",
				"methods": {},
				"version": 1
			}
		}
	}
}